{
  "contractName": "Accounts",
  "abi": [
    {
      "constant": false,
      "inputs": [
        {
          "name": "_client",
          "type": "address"
        },
        {
          "name": "_new",
          "type": "bool"
        },
        {
          "name": "_task",
          "type": "address"
        },
        {
          "name": "_app_id",
          "type": "uint256"
        }
      ],
      "name": "add_task",
      "outputs": [
        {
          "name": "",
          "type": "bool"
        }
      ],
      "payable": false,
      "stateMutability": "nonpayable",
      "type": "function"
    },
    {
      "constant": true,
      "inputs": [
        {
          "name": "_submitter",
          "type": "address"
        },
        {
          "name": "_app_id",
          "type": "uint256"
        }
      ],
      "name": "submissible",
      "outputs": [
        {
          "name": "",
          "type": "bool"
        }
      ],
      "payable": false,
      "stateMutability": "view",
      "type": "function"
    },
    {
      "constant": true,
      "inputs": [
        {
          "name": "_app_id",
          "type": "uint256"
        }
      ],
      "name": "active_tasks",
      "outputs": [
        {
          "name": "",
          "type": "address[]"
        }
      ],
      "payable": false,
      "stateMutability": "view",
      "type": "function"
    },
    {
      "constant": false,
      "inputs": [
        {
          "name": "_client",
          "type": "address"
        }
      ],
      "name": "set_client",
      "outputs": [
        {
          "name": "",
          "type": "bool"
        }
      ],
      "payable": false,
      "stateMutability": "nonpayable",
      "type": "function"
    },
    {
      "constant": true,
      "inputs": [],
      "name": "admin_loaded",
      "outputs": [
        {
          "name": "",
          "type": "bool"
        }
      ],
      "payable": false,
      "stateMutability": "view",
      "type": "function"
    },
    {
      "constant": true,
      "inputs": [],
      "name": "active_job",
      "outputs": [
        {
          "name": "",
          "type": "address"
        }
      ],
      "payable": false,
      "stateMutability": "view",
      "type": "function"
    },
    {
      "constant": true,
      "inputs": [
        {
          "name": "_address",
          "type": "address"
        }
      ],
      "name": "get_client",
      "outputs": [
        {
          "name": "_eligible",
          "type": "bool"
        },
        {
          "name": "_waiting",
          "type": "bool"
        },
        {
          "name": "_working",
          "type": "bool"
        },
        {
          "name": "_banned",
          "type": "bool"
        },
        {
          "name": "_misconduct_counter",
          "type": "uint8"
        },
        {
          "name": "_level",
          "type": "uint8"
        }
      ],
      "payable": false,
      "stateMutability": "view",
      "type": "function"
    },
    {
      "constant": false,
      "inputs": [
        {
          "name": "_owner",
          "type": "address"
        }
      ],
      "name": "change_owner",
      "outputs": [],
      "payable": false,
      "stateMutability": "nonpayable",
      "type": "function"
    },
    {
      "constant": false,
      "inputs": [],
      "name": "invalidate_contract",
      "outputs": [
        {
          "name": "",
          "type": "bool"
        }
      ],
      "payable": false,
      "stateMutability": "nonpayable",
      "type": "function"
    },
    {
      "constant": true,
      "inputs": [],
      "name": "client_address",
      "outputs": [
        {
          "name": "",
          "type": "address"
        }
      ],
      "payable": false,
      "stateMutability": "view",
      "type": "function"
    },
    {
      "constant": true,
      "inputs": [],
      "name": "controller_ready",
      "outputs": [
        {
          "name": "",
          "type": "bool"
        }
      ],
      "payable": false,
      "stateMutability": "view",
      "type": "function"
    },
    {
      "constant": false,
      "inputs": [
        {
          "name": "_client",
          "type": "address"
        },
        {
          "name": "_waiting",
          "type": "bool"
        }
      ],
      "name": "set_waiting",
      "outputs": [
        {
          "name": "",
          "type": "bool"
        }
      ],
      "payable": false,
      "stateMutability": "nonpayable",
      "type": "function"
    },
    {
      "constant": false,
      "inputs": [
        {
          "name": "_client",
          "type": "address"
        },
        {
          "name": "_eligible",
          "type": "bool"
        },
        {
          "name": "_credit",
          "type": "uint256"
        }
      ],
      "name": "set_eligible",
      "outputs": [
        {
          "name": "",
          "type": "bool"
        }
      ],
      "payable": false,
      "stateMutability": "nonpayable",
      "type": "function"
    },
    {
      "constant": false,
      "inputs": [
        {
          "name": "_client",
          "type": "address"
        },
        {
          "name": "_working",
          "type": "bool"
        },
        {
          "name": "_task",
          "type": "address"
        }
      ],
      "name": "add_job",
      "outputs": [
        {
          "name": "",
          "type": "bool"
        }
      ],
      "payable": false,
      "stateMutability": "nonpayable",
      "type": "function"
    },
    {
      "constant": false,
      "inputs": [
        {
          "name": "_client",
          "type": "address"
        },
        {
          "name": "_level",
          "type": "uint8"
        }
      ],
      "name": "set_level",
      "outputs": [
        {
          "name": "",
          "type": "uint8"
        }
      ],
      "payable": false,
      "stateMutability": "nonpayable",
      "type": "function"
    },
    {
      "constant": true,
      "inputs": [],
      "name": "owner",
      "outputs": [
        {
          "name": "",
          "type": "address"
        }
      ],
      "payable": false,
      "stateMutability": "view",
      "type": "function"
    },
    {
      "constant": true,
      "inputs": [],
      "name": "owner_get_balance",
      "outputs": [
        {
          "name": "",
          "type": "uint256"
        }
      ],
      "payable": false,
      "stateMutability": "view",
      "type": "function"
    },
    {
      "constant": true,
      "inputs": [],
      "name": "job_history",
      "outputs": [
        {
          "name": "",
          "type": "address[]"
        }
      ],
      "payable": false,
      "stateMutability": "view",
      "type": "function"
    },
    {
      "constant": false,
      "inputs": [
        {
          "name": "_client",
          "type": "address"
        },
        {
          "name": "_credit",
          "type": "uint256"
        }
      ],
      "name": "set_credits",
      "outputs": [
        {
          "name": "",
          "type": "uint256"
        }
      ],
      "payable": false,
      "stateMutability": "nonpayable",
      "type": "function"
    },
    {
      "constant": true,
      "inputs": [],
      "name": "get_credits",
      "outputs": [
        {
          "name": "",
          "type": "uint256"
        }
      ],
      "payable": false,
      "stateMutability": "view",
      "type": "function"
    },
    {
      "constant": true,
      "inputs": [
        {
          "name": "_app_id",
          "type": "uint256"
        }
      ],
      "name": "task_history",
      "outputs": [
        {
          "name": "",
          "type": "address[]"
        }
      ],
      "payable": false,
      "stateMutability": "view",
      "type": "function"
    },
    {
      "constant": true,
      "inputs": [
        {
          "name": "_client",
          "type": "address"
        }
      ],
      "name": "get_credits",
      "outputs": [
        {
          "name": "",
          "type": "uint256"
        }
      ],
      "payable": false,
      "stateMutability": "view",
      "type": "function"
    },
    {
      "constant": false,
      "inputs": [
        {
          "name": "_amount",
          "type": "uint256"
        }
      ],
      "name": "owner_withdraw",
      "outputs": [
        {
          "name": "",
          "type": "uint256"
        }
      ],
      "payable": false,
      "stateMutability": "nonpayable",
      "type": "function"
    },
    {
      "constant": true,
      "inputs": [],
      "name": "valid",
      "outputs": [
        {
          "name": "",
          "type": "bool"
        }
      ],
      "payable": false,
      "stateMutability": "view",
      "type": "function"
    },
    {
      "constant": false,
      "inputs": [
        {
          "name": "_admin",
          "type": "address"
        }
      ],
      "name": "set_admin",
      "outputs": [
        {
          "name": "",
          "type": "bool"
        }
      ],
      "payable": false,
      "stateMutability": "nonpayable",
      "type": "function"
    },
    {
      "constant": true,
      "inputs": [],
      "name": "admin_address",
      "outputs": [
        {
          "name": "",
          "type": "address"
        }
      ],
      "payable": false,
      "stateMutability": "view",
      "type": "function"
    },
    {
      "constant": false,
      "inputs": [
        {
          "name": "_client",
          "type": "address"
        },
        {
          "name": "_banned",
          "type": "bool"
        }
      ],
      "name": "set_banned",
      "outputs": [
        {
          "name": "",
          "type": "bool"
        }
      ],
      "payable": false,
      "stateMutability": "nonpayable",
      "type": "function"
    },
    {
      "inputs": [
        {
          "name": "_admin",
          "type": "address"
        }
      ],
      "payable": false,
      "stateMutability": "nonpayable",
      "type": "constructor"
    }
  ],
  "bytecode": "0x606060405234156200001057600080fd5b604051602080620029cd833981016040528080519060200190919050503381818181806000806101000a81548173ffffffffffffffffffffffffffffffffffffffff021916908373ffffffffffffffffffffffffffffffffffffffff1602179055505060018060166101000a81548160ff021916908315150217905550600073ffffffffffffffffffffffffffffffffffffffff168173ffffffffffffffffffffffffffffffffffffffff16141515620000e557620000e381620000f0640100000000026200207f176401000000009004565b505b5050505050620001ae565b60008060009054906101000a900473ffffffffffffffffffffffffffffffffffffffff1673ffffffffffffffffffffffffffffffffffffffff163373ffffffffffffffffffffffffffffffffffffffff161415156200014e57600080fd5b81600160006101000a81548173ffffffffffffffffffffffffffffffffffffffff021916908373ffffffffffffffffffffffffffffffffffffffff16021790555060018060146101000a81548160ff021916908315150217905550919050565b61280f80620001be6000396000f30060606040526004361061015f576000357c0100000000000000000000000000000000000000000000000000000000900463ffffffff1680630cf75c34146101645780630d57874f146101e85780631244ca491461024257806316eb2f75146102ba5780631df2c6ab1461030b5780631ec43f33146103385780632390c0501461038d578063253c8bd41461041957806332506300146104525780634bf4e4211461047f5780635841e6a7146104d45780635dea9329146105015780636d65397c1461055d578063793908bb146105c257806388cc70ca1461063d5780638da5cb5b1461069c57806399572a20146106f15780639d6081d31461071a578063a42e5a6d14610784578063a5774dfb146107da578063a8a1b9b314610803578063aa8749bc1461087b578063b33926cb146108c8578063c1991219146108ff578063e9333fab1461092c578063f2e627721461097d578063f6aad768146109d2575b600080fd5b341561016f57600080fd5b6101ce600480803573ffffffffffffffffffffffffffffffffffffffff16906020019091908035151590602001909190803573ffffffffffffffffffffffffffffffffffffffff16906020019091908035906020019091905050610a2e565b604051808215151515815260200191505060405180910390f35b34156101f357600080fd5b610228600480803573ffffffffffffffffffffffffffffffffffffffff16906020019091908035906020019091905050610c77565b604051808215151515815260200191505060405180910390f35b341561024d57600080fd5b6102636004808035906020019091905050610d32565b6040518080602001828103825283818151815260200191508051906020019060200280838360005b838110156102a657808201518184015260208101905061028b565b505050509050019250505060405180910390f35b34156102c557600080fd5b6102f1600480803573ffffffffffffffffffffffffffffffffffffffff16906020019091905050610e1c565b604051808215151515815260200191505060405180910390f35b341561031657600080fd5b61031e610f71565b604051808215151515815260200191505060405180910390f35b341561034357600080fd5b61034b610f84565b604051808273ffffffffffffffffffffffffffffffffffffffff1673ffffffffffffffffffffffffffffffffffffffff16815260200191505060405180910390f35b341561039857600080fd5b6103c4600480803573ffffffffffffffffffffffffffffffffffffffff16906020019091905050610fee565b60405180871515151581526020018615151515815260200185151515158152602001841515151581526020018360ff1660ff1681526020018260ff1660ff168152602001965050505050505060405180910390f35b341561042457600080fd5b610450600480803573ffffffffffffffffffffffffffffffffffffffff169060200190919050506111ec565b005b341561045d57600080fd5b61046561128a565b604051808215151515815260200191505060405180910390f35b341561048a57600080fd5b610492611305565b604051808273ffffffffffffffffffffffffffffffffffffffff1673ffffffffffffffffffffffffffffffffffffffff16815260200191505060405180910390f35b34156104df57600080fd5b6104e761132b565b604051808215151515815260200191505060405180910390f35b341561050c57600080fd5b610543600480803573ffffffffffffffffffffffffffffffffffffffff16906020019091908035151590602001909190505061133e565b604051808215151515815260200191505060405180910390f35b341561056857600080fd5b6105a8600480803573ffffffffffffffffffffffffffffffffffffffff169060200190919080351515906020019091908035906020019091905050611454565b604051808215151515815260200191505060405180910390f35b34156105cd57600080fd5b610623600480803573ffffffffffffffffffffffffffffffffffffffff16906020019091908035151590602001909190803573ffffffffffffffffffffffffffffffffffffffff169060200190919050506115b2565b604051808215151515815260200191505060405180910390f35b341561064857600080fd5b610680600480803573ffffffffffffffffffffffffffffffffffffffff1690602001909190803560ff169060200190919050506118d6565b604051808260ff1660ff16815260200191505060405180910390f35b34156106a757600080fd5b6106af6119ed565b604051808273ffffffffffffffffffffffffffffffffffffffff1673ffffffffffffffffffffffffffffffffffffffff16815260200191505060405180910390f35b34156106fc57600080fd5b610704611a12565b6040518082815260200191505060405180910390f35b341561072557600080fd5b61072d611a8c565b6040518080602001828103825283818151815260200191508051906020019060200280838360005b83811015610770578082015181840152602081019050610755565b505050509050019250505060405180910390f35b341561078f57600080fd5b6107c4600480803573ffffffffffffffffffffffffffffffffffffffff16906020019091908035906020019091905050611b60565b6040518082815260200191505060405180910390f35b34156107e557600080fd5b6107ed611ca7565b6040518082815260200191505060405180910390f35b341561080e57600080fd5b6108246004808035906020019091905050611da4565b6040518080602001828103825283818151815260200191508051906020019060200280838360005b8381101561086757808201518184015260208101905061084c565b505050509050019250505060405180910390f35b341561088657600080fd5b6108b2600480803573ffffffffffffffffffffffffffffffffffffffff16906020019091905050611e8e565b6040518082815260200191505060405180910390f35b34156108d357600080fd5b6108e96004808035906020019091905050611f8d565b6040518082815260200191505060405180910390f35b341561090a57600080fd5b61091261206c565b604051808215151515815260200191505060405180910390f35b341561093757600080fd5b610963600480803573ffffffffffffffffffffffffffffffffffffffff1690602001909190505061207f565b604051808215151515815260200191505060405180910390f35b341561098857600080fd5b61099061213c565b604051808273ffffffffffffffffffffffffffffffffffffffff1673ffffffffffffffffffffffffffffffffffffffff16815260200191505060405180910390f35b34156109dd57600080fd5b610a14600480803573ffffffffffffffffffffffffffffffffffffffff169060200190919080351515906020019091905050612162565b604051808215151515815260200191505060405180910390f35b60003373ffffffffffffffffffffffffffffffffffffffff16600260009054906101000a900473ffffffffffffffffffffffffffffffffffffffff1673ffffffffffffffffffffffffffffffffffffffff161480610ad857506000809054906101000a900473ffffffffffffffffffffffffffffffffffffffff1673ffffffffffffffffffffffffffffffffffffffff163373ffffffffffffffffffffffffffffffffffffffff16145b1515610ae357600080fd5b8315610c6057600360008673ffffffffffffffffffffffffffffffffffffffff1673ffffffffffffffffffffffffffffffffffffffff16815260200190815260200160002060010160008381526020019081526020016000206000018054806001018281610b519190612752565b9160005260206000209001600085909190916101000a81548173ffffffffffffffffffffffffffffffffffffffff021916908373ffffffffffffffffffffffffffffffffffffffff16021790555050600360008673ffffffffffffffffffffffffffffffffffffffff1673ffffffffffffffffffffffffffffffffffffffff16815260200190815260200160002060010160008381526020019081526020016000206001018054806001018281610c089190612752565b9160005260206000209001600085909190916101000a81548173ffffffffffffffffffffffffffffffffffffffff021916908373ffffffffffffffffffffffffffffffffffffffff1602179055505060019050610c6f565b610c6b858484612390565b1590505b949350505050565b60006001600360008573ffffffffffffffffffffffffffffffffffffffff1673ffffffffffffffffffffffffffffffffffffffff16815260200190815260200160002060000160029054906101000a900460ff160160ff16600360008573ffffffffffffffffffffffffffffffffffffffff1673ffffffffffffffffffffffffffffffffffffffff16815260200190815260200160002060010160008481526020019081526020016000206001018054905010905092915050565b610d3a61277e565b600360003373ffffffffffffffffffffffffffffffffffffffff1673ffffffffffffffffffffffffffffffffffffffff1681526020019081526020016000206001016000838152602001908152602001600020600101805480602002602001604051908101604052809291908181526020018280548015610e1057602002820191906000526020600020905b8160009054906101000a900473ffffffffffffffffffffffffffffffffffffffff1673ffffffffffffffffffffffffffffffffffffffff1681526020019060010190808311610dc6575b50505050509050919050565b6000600160009054906101000a900473ffffffffffffffffffffffffffffffffffffffff1673ffffffffffffffffffffffffffffffffffffffff163373ffffffffffffffffffffffffffffffffffffffff161480610ec657506000809054906101000a900473ffffffffffffffffffffffffffffffffffffffff1673ffffffffffffffffffffffffffffffffffffffff163373ffffffffffffffffffffffffffffffffffffffff16145b1515610ed157600080fd5b600073ffffffffffffffffffffffffffffffffffffffff168273ffffffffffffffffffffffffffffffffffffffff1614151515610f0d57600080fd5b81600260006101000a81548173ffffffffffffffffffffffffffffffffffffffff021916908373ffffffffffffffffffffffffffffffffffffffff16021790555060018060156101000a81548160ff02191690831515021790555060019050919050565b600160149054906101000a900460ff1681565b6000600360003373ffffffffffffffffffffffffffffffffffffffff1673ffffffffffffffffffffffffffffffffffffffff16815260200190815260200160002060050160009054906101000a900473ffffffffffffffffffffffffffffffffffffffff16905090565b600080600080600080600360008873ffffffffffffffffffffffffffffffffffffffff1673ffffffffffffffffffffffffffffffffffffffff16815260200190815260200160002060030160009054906101000a900460ff16600360008973ffffffffffffffffffffffffffffffffffffffff1673ffffffffffffffffffffffffffffffffffffffff16815260200190815260200160002060030160019054906101000a900460ff16600360008a73ffffffffffffffffffffffffffffffffffffffff1673ffffffffffffffffffffffffffffffffffffffff16815260200190815260200160002060030160029054906101000a900460ff16600360008b73ffffffffffffffffffffffffffffffffffffffff1673ffffffffffffffffffffffffffffffffffffffff16815260200190815260200160002060000160009054906101000a900460ff16600360008c73ffffffffffffffffffffffffffffffffffffffff1673ffffffffffffffffffffffffffffffffffffffff16815260200190815260200160002060000160019054906101000a900460ff16600360008d73ffffffffffffffffffffffffffffffffffffffff1673ffffffffffffffffffffffffffffffffffffffff16815260200190815260200160002060000160029054906101000a900460ff1695509550955095509550955091939550919395565b6000809054906101000a900473ffffffffffffffffffffffffffffffffffffffff1673ffffffffffffffffffffffffffffffffffffffff163373ffffffffffffffffffffffffffffffffffffffff1614151561124757600080fd5b806000806101000a81548173ffffffffffffffffffffffffffffffffffffffff021916908373ffffffffffffffffffffffffffffffffffffffff16021790555050565b60008060009054906101000a900473ffffffffffffffffffffffffffffffffffffffff1673ffffffffffffffffffffffffffffffffffffffff163373ffffffffffffffffffffffffffffffffffffffff161415156112e757600080fd5b6000600160166101000a81548160ff02191690831515021790555090565b600260009054906101000a900473ffffffffffffffffffffffffffffffffffffffff1681565b600160159054906101000a900460ff1681565b60003373ffffffffffffffffffffffffffffffffffffffff16600260009054906101000a900473ffffffffffffffffffffffffffffffffffffffff1673ffffffffffffffffffffffffffffffffffffffff1614806113e857506000809054906101000a900473ffffffffffffffffffffffffffffffffffffffff1673ffffffffffffffffffffffffffffffffffffffff163373ffffffffffffffffffffffffffffffffffffffff16145b15156113f357600080fd5b81600360008573ffffffffffffffffffffffffffffffffffffffff1673ffffffffffffffffffffffffffffffffffffffff16815260200190815260200160002060030160016101000a81548160ff0219169083151502179055905092915050565b60003373ffffffffffffffffffffffffffffffffffffffff16600260009054906101000a900473ffffffffffffffffffffffffffffffffffffffff1673ffffffffffffffffffffffffffffffffffffffff1614806114fe57506000809054906101000a900473ffffffffffffffffffffffffffffffffffffffff1673ffffffffffffffffffffffffffffffffffffffff163373ffffffffffffffffffffffffffffffffffffffff16145b151561150957600080fd5b81600360008673ffffffffffffffffffffffffffffffffffffffff1673ffffffffffffffffffffffffffffffffffffffff1681526020019081526020016000206002018190555082600360008673ffffffffffffffffffffffffffffffffffffffff1673ffffffffffffffffffffffffffffffffffffffff16815260200190815260200160002060030160006101000a81548160ff021916908315150217905590509392505050565b60003373ffffffffffffffffffffffffffffffffffffffff16600260009054906101000a900473ffffffffffffffffffffffffffffffffffffffff1673ffffffffffffffffffffffffffffffffffffffff16148061165c57506000809054906101000a900473ffffffffffffffffffffffffffffffffffffffff1673ffffffffffffffffffffffffffffffffffffffff163373ffffffffffffffffffffffffffffffffffffffff16145b151561166757600080fd5b82156117f1576000600360008673ffffffffffffffffffffffffffffffffffffffff1673ffffffffffffffffffffffffffffffffffffffff16815260200190815260200160002060030160016101000a81548160ff021916908315150217905550600360008573ffffffffffffffffffffffffffffffffffffffff1673ffffffffffffffffffffffffffffffffffffffff168152602001908152602001600020600401805480600101828161171c9190612752565b9160005260206000209001600084909190916101000a81548173ffffffffffffffffffffffffffffffffffffffff021916908373ffffffffffffffffffffffffffffffffffffffff1602179055505081600360008673ffffffffffffffffffffffffffffffffffffffff1673ffffffffffffffffffffffffffffffffffffffff16815260200190815260200160002060050160006101000a81548173ffffffffffffffffffffffffffffffffffffffff021916908373ffffffffffffffffffffffffffffffffffffffff160217905550611874565b6000600360008673ffffffffffffffffffffffffffffffffffffffff1673ffffffffffffffffffffffffffffffffffffffff16815260200190815260200160002060050160006101000a81548173ffffffffffffffffffffffffffffffffffffffff021916908373ffffffffffffffffffffffffffffffffffffffff1602179055505b82600360008673ffffffffffffffffffffffffffffffffffffffff1673ffffffffffffffffffffffffffffffffffffffff16815260200190815260200160002060030160026101000a81548160ff021916908315150217905590509392505050565b60003373ffffffffffffffffffffffffffffffffffffffff16600260009054906101000a900473ffffffffffffffffffffffffffffffffffffffff1673ffffffffffffffffffffffffffffffffffffffff16148061198057506000809054906101000a900473ffffffffffffffffffffffffffffffffffffffff1673ffffffffffffffffffffffffffffffffffffffff163373ffffffffffffffffffffffffffffffffffffffff16145b151561198b57600080fd5b81600360008573ffffffffffffffffffffffffffffffffffffffff1673ffffffffffffffffffffffffffffffffffffffff16815260200190815260200160002060000160026101000a81548160ff021916908360ff1602179055905092915050565b6000809054906101000a900473ffffffffffffffffffffffffffffffffffffffff1681565b60008060009054906101000a900473ffffffffffffffffffffffffffffffffffffffff1673ffffffffffffffffffffffffffffffffffffffff163373ffffffffffffffffffffffffffffffffffffffff16141515611a6f57600080fd5b3073ffffffffffffffffffffffffffffffffffffffff1631905090565b611a9461277e565b600360003373ffffffffffffffffffffffffffffffffffffffff1673ffffffffffffffffffffffffffffffffffffffff168152602001908152602001600020600401805480602002602001604051908101604052809291908181526020018280548015611b5657602002820191906000526020600020905b8160009054906101000a900473ffffffffffffffffffffffffffffffffffffffff1673ffffffffffffffffffffffffffffffffffffffff1681526020019060010190808311611b0c575b5050505050905090565b60003373ffffffffffffffffffffffffffffffffffffffff16600260009054906101000a900473ffffffffffffffffffffffffffffffffffffffff1673ffffffffffffffffffffffffffffffffffffffff161480611c0a57506000809054906101000a900473ffffffffffffffffffffffffffffffffffffffff1673ffffffffffffffffffffffffffffffffffffffff163373ffffffffffffffffffffffffffffffffffffffff16145b1515611c1557600080fd5b81600360008573ffffffffffffffffffffffffffffffffffffffff1673ffffffffffffffffffffffffffffffffffffffff16815260200190815260200160002060020181905550600360008473ffffffffffffffffffffffffffffffffffffffff1673ffffffffffffffffffffffffffffffffffffffff16815260200190815260200160002060020154905092915050565b60003373ffffffffffffffffffffffffffffffffffffffff16600260009054906101000a900473ffffffffffffffffffffffffffffffffffffffff1673ffffffffffffffffffffffffffffffffffffffff161480611d5157506000809054906101000a900473ffffffffffffffffffffffffffffffffffffffff1673ffffffffffffffffffffffffffffffffffffffff163373ffffffffffffffffffffffffffffffffffffffff16145b1515611d5c57600080fd5b600360003373ffffffffffffffffffffffffffffffffffffffff1673ffffffffffffffffffffffffffffffffffffffff16815260200190815260200160002060020154905090565b611dac61277e565b600360003373ffffffffffffffffffffffffffffffffffffffff1673ffffffffffffffffffffffffffffffffffffffff1681526020019081526020016000206001016000838152602001908152602001600020600001805480602002602001604051908101604052809291908181526020018280548015611e8257602002820191906000526020600020905b8160009054906101000a900473ffffffffffffffffffffffffffffffffffffffff1673ffffffffffffffffffffffffffffffffffffffff1681526020019060010190808311611e38575b50505050509050919050565b60003373ffffffffffffffffffffffffffffffffffffffff16600260009054906101000a900473ffffffffffffffffffffffffffffffffffffffff1673ffffffffffffffffffffffffffffffffffffffff161480611f3857506000809054906101000a900473ffffffffffffffffffffffffffffffffffffffff1673ffffffffffffffffffffffffffffffffffffffff163373ffffffffffffffffffffffffffffffffffffffff16145b1515611f4357600080fd5b600360008373ffffffffffffffffffffffffffffffffffffffff1673ffffffffffffffffffffffffffffffffffffffff168152602001908152602001600020600201549050919050565b60008060009054906101000a900473ffffffffffffffffffffffffffffffffffffffff1673ffffffffffffffffffffffffffffffffffffffff163373ffffffffffffffffffffffffffffffffffffffff16141515611fea57600080fd5b600160169054906101000a900460ff1615151561200657600080fd5b6000809054906101000a900473ffffffffffffffffffffffffffffffffffffffff1673ffffffffffffffffffffffffffffffffffffffff166108fc839081150290604051600060405180830381858888f19350505050151561206757600080fd5b919050565b600160169054906101000a900460ff1681565b60008060009054906101000a900473ffffffffffffffffffffffffffffffffffffffff1673ffffffffffffffffffffffffffffffffffffffff163373ffffffffffffffffffffffffffffffffffffffff161415156120dc57600080fd5b81600160006101000a81548173ffffffffffffffffffffffffffffffffffffffff021916908373ffffffffffffffffffffffffffffffffffffffff16021790555060018060146101000a81548160ff021916908315150217905550919050565b600160009054906101000a900473ffffffffffffffffffffffffffffffffffffffff1681565b60003373ffffffffffffffffffffffffffffffffffffffff16600260009054906101000a900473ffffffffffffffffffffffffffffffffffffffff1673ffffffffffffffffffffffffffffffffffffffff16148061220c57506000809054906101000a900473ffffffffffffffffffffffffffffffffffffffff1673ffffffffffffffffffffffffffffffffffffffff163373ffffffffffffffffffffffffffffffffffffffff16145b151561221757600080fd5b811561232f576000600360008573ffffffffffffffffffffffffffffffffffffffff1673ffffffffffffffffffffffffffffffffffffffff16815260200190815260200160002060030160006101000a81548160ff0219169083151502179055506000600360008573ffffffffffffffffffffffffffffffffffffffff1673ffffffffffffffffffffffffffffffffffffffff16815260200190815260200160002060030160016101000a81548160ff0219169083151502179055506000600360008573ffffffffffffffffffffffffffffffffffffffff1673ffffffffffffffffffffffffffffffffffffffff16815260200190815260200160002060030160026101000a81548160ff0219169083151502179055505b81600360008573ffffffffffffffffffffffffffffffffffffffff1673ffffffffffffffffffffffffffffffffffffffff16815260200190815260200160002060000160006101000a81548160ff0219169083151502179055905092915050565b600061239a61277e565b600080600360008873ffffffffffffffffffffffffffffffffffffffff1673ffffffffffffffffffffffffffffffffffffffff168152602001908152602001600020600101600086815260200190815260200160002060010180548060200260200160405190810160405280929190818152602001828054801561247357602002820191906000526020600020905b8160009054906101000a900473ffffffffffffffffffffffffffffffffffffffff1673ffffffffffffffffffffffffffffffffffffffff1681526020019060010190808311612429575b50505050509250600091505b8251821015612743578573ffffffffffffffffffffffffffffffffffffffff1683838151811015156124ad57fe5b9060200190602002015173ffffffffffffffffffffffffffffffffffffffff161415612736578190505b600183510381101561262e57600360008873ffffffffffffffffffffffffffffffffffffffff1673ffffffffffffffffffffffffffffffffffffffff16815260200190815260200160002060010160008681526020019081526020016000206001016001820181548110151561254957fe5b906000526020600020900160009054906101000a900473ffffffffffffffffffffffffffffffffffffffff16600360008973ffffffffffffffffffffffffffffffffffffffff1673ffffffffffffffffffffffffffffffffffffffff1681526020019081526020016000206001016000878152602001908152602001600020600101828154811015156125d857fe5b906000526020600020900160006101000a81548173ffffffffffffffffffffffffffffffffffffffff021916908373ffffffffffffffffffffffffffffffffffffffff16021790555080806001019150506124d7565b600360008873ffffffffffffffffffffffffffffffffffffffff1673ffffffffffffffffffffffffffffffffffffffff1681526020019081526020016000206001016000868152602001908152602001600020600101600184510381548110151561269557fe5b906000526020600020900160006101000a81549073ffffffffffffffffffffffffffffffffffffffff0219169055600360008873ffffffffffffffffffffffffffffffffffffffff1673ffffffffffffffffffffffffffffffffffffffff168152602001908152602001600020600101600086815260200190815260200160002060010180548091906001900361272c9190612792565b5060019350612748565b818060010192505061247f565b600093505b5050509392505050565b8154818355818115116127795781836000526020600020918201910161277891906127be565b5b505050565b602060405190810160405280600081525090565b8154818355818115116127b9578183600052602060002091820191016127b891906127be565b5b505050565b6127e091905b808211156127dc5760008160009055506001016127c4565b5090565b905600a165627a7a7230582052a8dea5606cfd424b1855b7790c1e0b2c7bb92b96df67c7eeed5aa3a6e18ed20029",
  "source": "pragma solidity ^0.4.18;\r\n\r\nimport \"../../misc/SafeMath.sol\";\r\nimport \"../../ownership/Clientable.sol\";\r\nimport \"../../interface/model/Account_Interface.sol\";\r\nimport \"../../interface/model/Account_Interface_getters.sol\";\r\n\r\ncontract Accounts is Clientable, AccountInterface, AccountInterfaceGetters {\r\n    using SafeMath for uint8;\r\n    using SafeMath for uint256;\r\n    struct Account {\r\n        //both\r\n        bool banned;\r\n        uint8 misconduct_counter;\r\n        //client\r\n        uint8 level;\r\n        mapping(uint256 => AppTask) app_tasks;\r\n        //worker\r\n        uint256 credits;\r\n        bool eligible;\r\n        bool waiting;\r\n        bool working;\r\n        address[] job_history;\r\n        address active_job;\r\n    }\r\n\r\n    struct AppTask {\r\n        address[] task_history;\r\n        address[] active_tasks;\r\n    }\r\n\r\n    mapping(address => Account) accounts;\r\n\r\n    function Accounts(address _admin) public Clientable(msg.sender, _admin) {\r\n    }\r\n\r\n    //Dispatcher interface\r\n    function get_client(address _address) view external returns\r\n    (\r\n        bool _eligible,\r\n        bool _waiting,\r\n        bool _working,\r\n        bool _banned,\r\n        uint8 _misconduct_counter,\r\n        uint8 _level\r\n    ){\r\n        return (accounts[_address].eligible, accounts[_address].waiting, accounts[_address].working,\r\n        accounts[_address].banned, accounts[_address].misconduct_counter, accounts[_address].level);\r\n    }\r\n\r\n    function submissible(address _submitter, uint256 _app_id) view external returns (bool){\r\n        return accounts[_submitter].app_tasks[_app_id].active_tasks.length < accounts[_submitter].level + 1;\r\n    }\r\n\r\n    function set_eligible(address _client, bool _eligible, uint256 _credit) client_only external returns (bool){\r\n        accounts[_client].credits = _credit;\r\n        return accounts[_client].eligible = _eligible;\r\n    }\r\n\r\n    function set_credits(address _client, uint256 _credit) client_only external returns (uint256){\r\n        accounts[_client].credits = _credit;\r\n        return accounts[_client].credits;\r\n    }\r\n\r\n    function get_credits() client_only view external returns (uint256){\r\n        return accounts[msg.sender].credits;\r\n    }\r\n\r\n    function get_credits(address _client) client_only view external returns (uint256){\r\n        return accounts[_client].credits;\r\n    }\r\n\r\n    function set_waiting(address _client, bool _waiting) client_only external returns (bool){\r\n        return accounts[_client].waiting = _waiting;\r\n    }\r\n    //entry @ distributor\r\n    //    function set_working(address _worker, bool _working) client_only external returns (bool){\r\n    //        return accounts[_worker].working = _working;\r\n    //    }\r\n\r\n    function add_job(address _client, bool _working, address _task) external client_only returns (bool){\r\n        if (_working) {\r\n            accounts[_client].waiting = false;\r\n            accounts[_client].job_history.push(_task);\r\n            accounts[_client].active_job = _task;\r\n        } else {\r\n            accounts[_client].active_job = 0;\r\n        }\r\n        return accounts[_client].working = _working;\r\n    }\r\n\r\n    function set_banned(address _client, bool _banned) client_only external returns (bool){\r\n        if (_banned) {\r\n            accounts[_client].eligible = false;\r\n            accounts[_client].waiting = false;\r\n            accounts[_client].working = false;\r\n        }\r\n        return accounts[_client].banned = _banned;\r\n    }\r\n\r\n    //    function set_misconduct_counter(address _client, bool _increase, uint8 _amount) client_only external returns (uint8){\r\n    //        if (_increase) {\r\n    //            accounts[_client].misconduct_counter.add(_amount);\r\n    //            if (accounts[_client].misconduct_counter == 3) set_banned(_client, true);\r\n    //        } else {\r\n    //            if (accounts[_client].misconduct_counter >= 3) set_banned(_client, false);\r\n    //            if (accounts[_client].misconduct_counter < _amount) accounts[_client].misconduct_counter = 0;\r\n    //            else accounts[_client].misconduct_counter.sub(_amount);\r\n    //        }\r\n    //        return accounts[_client].misconduct_counter;\r\n    //    }\r\n\r\n    function set_level(address _client, uint8 _level) client_only external returns (uint8){\r\n        return accounts[_client].level = _level;\r\n    }\r\n    //In case of cancellation, task remain in the history\r\n    function add_task(address _client, bool _new, address _task, uint256 _app_id) client_only external returns (bool){\r\n        if (_new) {\r\n            accounts[_client].app_tasks[_app_id].task_history.push(_task);\r\n            accounts[_client].app_tasks[_app_id].active_tasks.push(_task);\r\n            return true;\r\n        } else {\r\n            return !removeFromActiveList(_client, _task, _app_id);\r\n            //return false => removed , in accord with logic of using return as confirmation\r\n        }\r\n    }\r\n\r\n    function removeFromActiveList(address _client, address _task, uint256 _app_id) internal returns (bool){\r\n        address[] memory list = accounts[_client].app_tasks[_app_id].active_tasks;\r\n        for (uint index = 0; index < list.length; index++) {\r\n            if (list[index] == _task) {\r\n                for (uint i = index; i < list.length - 1; i++) {\r\n                    accounts[_client].app_tasks[_app_id].active_tasks[i] = accounts[_client].app_tasks[_app_id].active_tasks[i + 1];\r\n                }\r\n                delete accounts[_client].app_tasks[_app_id].active_tasks[list.length - 1];\r\n                accounts[_client].app_tasks[_app_id].active_tasks.length--;\r\n                return true;\r\n            }\r\n        }\r\n        return false;\r\n    }\r\n\r\n    //miner\r\n    function job_history() view external returns (address[]){\r\n        return accounts[msg.sender].job_history;\r\n    }\r\n\r\n    function active_job() view external returns (address){\r\n        return accounts[msg.sender].active_job;\r\n    }\r\n\r\n    //submitter\r\n    function task_history(uint256 _app_id) view external returns (address[]){\r\n        return accounts[msg.sender].app_tasks[_app_id].task_history;\r\n    }\r\n\r\n    function active_tasks(uint256 _app_id) view external returns (address[]){\r\n        return accounts[msg.sender].app_tasks[_app_id].active_tasks;\r\n    }\r\n}\r\n",
  "sourcePath": "C:\\Users\\tony\\WebstormProjects\\nebula-helix\\contract\\contracts\\helix1.1\\model\\account\\Accounts.sol",
  "compiler": {
    "name": "solc",
    "version": "0.4.18+commit.9cf6e910.Emscripten.clang"
  },
  "schemaVersion": "1.0.1",
  "updatedAt": "2018-02-21T17:07:32.987Z"
}