{
  "contractName": "Accounts",
  "abi": [
    {
      "constant": false,
      "inputs": [
        {
          "name": "_client",
          "type": "address"
        },
        {
          "name": "_eligible",
          "type": "bool"
        }
      ],
      "name": "set_eligible",
      "outputs": [
        {
          "name": "",
          "type": "bool"
        }
      ],
      "payable": false,
      "stateMutability": "nonpayable",
      "type": "function"
    },
    {
      "constant": false,
      "inputs": [
        {
          "name": "_client",
          "type": "address"
        }
      ],
      "name": "set_client",
      "outputs": [
        {
          "name": "",
          "type": "bool"
        }
      ],
      "payable": false,
      "stateMutability": "nonpayable",
      "type": "function"
    },
    {
      "constant": true,
      "inputs": [],
      "name": "admin_loaded",
      "outputs": [
        {
          "name": "",
          "type": "bool"
        }
      ],
      "payable": false,
      "stateMutability": "view",
      "type": "function"
    },
    {
      "constant": true,
      "inputs": [],
      "name": "active_job",
      "outputs": [
        {
          "name": "",
          "type": "address"
        }
      ],
      "payable": false,
      "stateMutability": "view",
      "type": "function"
    },
    {
      "constant": true,
      "inputs": [
        {
          "name": "_address",
          "type": "address"
        }
      ],
      "name": "get_client",
      "outputs": [
        {
          "name": "_eligible",
          "type": "bool"
        },
        {
          "name": "_waiting",
          "type": "bool"
        },
        {
          "name": "_working",
          "type": "bool"
        },
        {
          "name": "_banned",
          "type": "bool"
        },
        {
          "name": "_misconduct_counter",
          "type": "uint8"
        },
        {
          "name": "_level",
          "type": "uint8"
        },
        {
          "name": "_submissible",
          "type": "bool"
        }
      ],
      "payable": false,
      "stateMutability": "view",
      "type": "function"
    },
    {
      "constant": false,
      "inputs": [
        {
          "name": "_owner",
          "type": "address"
        }
      ],
      "name": "change_owner",
      "outputs": [],
      "payable": false,
      "stateMutability": "nonpayable",
      "type": "function"
    },
    {
      "constant": true,
      "inputs": [],
      "name": "active_tasks",
      "outputs": [
        {
          "name": "",
          "type": "address[]"
        }
      ],
      "payable": false,
      "stateMutability": "view",
      "type": "function"
    },
    {
      "constant": false,
      "inputs": [
        {
          "name": "_worker",
          "type": "address"
        },
        {
          "name": "_working",
          "type": "bool"
        }
      ],
      "name": "set_working",
      "outputs": [
        {
          "name": "",
          "type": "bool"
        }
      ],
      "payable": false,
      "stateMutability": "nonpayable",
      "type": "function"
    },
    {
      "constant": true,
      "inputs": [],
      "name": "client_address",
      "outputs": [
        {
          "name": "",
          "type": "address"
        }
      ],
      "payable": false,
      "stateMutability": "view",
      "type": "function"
    },
    {
      "constant": true,
      "inputs": [],
      "name": "controller_ready",
      "outputs": [
        {
          "name": "",
          "type": "bool"
        }
      ],
      "payable": false,
      "stateMutability": "view",
      "type": "function"
    },
    {
      "constant": false,
      "inputs": [
        {
          "name": "_client",
          "type": "address"
        },
        {
          "name": "_waiting",
          "type": "bool"
        }
      ],
      "name": "set_waiting",
      "outputs": [
        {
          "name": "",
          "type": "bool"
        }
      ],
      "payable": false,
      "stateMutability": "nonpayable",
      "type": "function"
    },
    {
      "constant": false,
      "inputs": [
        {
          "name": "_client",
          "type": "address"
        },
        {
          "name": "_working",
          "type": "bool"
        },
        {
          "name": "_task",
          "type": "address"
        }
      ],
      "name": "add_job",
      "outputs": [
        {
          "name": "",
          "type": "bool"
        }
      ],
      "payable": false,
      "stateMutability": "nonpayable",
      "type": "function"
    },
    {
      "constant": false,
      "inputs": [
        {
          "name": "_client",
          "type": "address"
        },
        {
          "name": "_level",
          "type": "uint8"
        }
      ],
      "name": "set_level",
      "outputs": [
        {
          "name": "",
          "type": "uint8"
        }
      ],
      "payable": false,
      "stateMutability": "nonpayable",
      "type": "function"
    },
    {
      "constant": true,
      "inputs": [],
      "name": "owner",
      "outputs": [
        {
          "name": "",
          "type": "address"
        }
      ],
      "payable": false,
      "stateMutability": "view",
      "type": "function"
    },
    {
      "constant": true,
      "inputs": [],
      "name": "task_history",
      "outputs": [
        {
          "name": "",
          "type": "address[]"
        }
      ],
      "payable": false,
      "stateMutability": "view",
      "type": "function"
    },
    {
      "constant": true,
      "inputs": [],
      "name": "job_history",
      "outputs": [
        {
          "name": "",
          "type": "address[]"
        }
      ],
      "payable": false,
      "stateMutability": "view",
      "type": "function"
    },
    {
      "constant": false,
      "inputs": [
        {
          "name": "_client",
          "type": "address"
        },
        {
          "name": "_new",
          "type": "bool"
        },
        {
          "name": "_task",
          "type": "address"
        }
      ],
      "name": "add_task",
      "outputs": [
        {
          "name": "",
          "type": "bool"
        }
      ],
      "payable": false,
      "stateMutability": "nonpayable",
      "type": "function"
    },
    {
      "constant": false,
      "inputs": [
        {
          "name": "_client",
          "type": "address"
        },
        {
          "name": "_increase",
          "type": "bool"
        },
        {
          "name": "_amount",
          "type": "uint8"
        }
      ],
      "name": "set_misconduct_counter",
      "outputs": [
        {
          "name": "",
          "type": "uint8"
        }
      ],
      "payable": false,
      "stateMutability": "nonpayable",
      "type": "function"
    },
    {
      "constant": false,
      "inputs": [
        {
          "name": "_admin",
          "type": "address"
        }
      ],
      "name": "set_admin",
      "outputs": [
        {
          "name": "",
          "type": "bool"
        }
      ],
      "payable": false,
      "stateMutability": "nonpayable",
      "type": "function"
    },
    {
      "constant": true,
      "inputs": [
        {
          "name": "_address",
          "type": "address"
        }
      ],
      "name": "submissible",
      "outputs": [
        {
          "name": "",
          "type": "bool"
        }
      ],
      "payable": false,
      "stateMutability": "view",
      "type": "function"
    },
    {
      "constant": true,
      "inputs": [],
      "name": "admin_address",
      "outputs": [
        {
          "name": "",
          "type": "address"
        }
      ],
      "payable": false,
      "stateMutability": "view",
      "type": "function"
    },
    {
      "constant": false,
      "inputs": [
        {
          "name": "_client",
          "type": "address"
        },
        {
          "name": "_banned",
          "type": "bool"
        }
      ],
      "name": "set_banned",
      "outputs": [
        {
          "name": "",
          "type": "bool"
        }
      ],
      "payable": false,
      "stateMutability": "nonpayable",
      "type": "function"
    },
    {
      "inputs": [
        {
          "name": "_admin",
          "type": "address"
        }
      ],
      "payable": false,
      "stateMutability": "nonpayable",
      "type": "constructor"
    }
  ],
  "bytecode": "0x606060405234156200001057600080fd5b604051602080620023ac833981016040528080519060200190919050503381818181806000806101000a81548173ffffffffffffffffffffffffffffffffffffffff021916908373ffffffffffffffffffffffffffffffffffffffff16021790555050600073ffffffffffffffffffffffffffffffffffffffff168173ffffffffffffffffffffffffffffffffffffffff16141515620000cb57620000c981620000d66401000000000262001b08176401000000009004565b505b505050505062000194565b60008060009054906101000a900473ffffffffffffffffffffffffffffffffffffffff1673ffffffffffffffffffffffffffffffffffffffff163373ffffffffffffffffffffffffffffffffffffffff161415156200013457600080fd5b81600160006101000a81548173ffffffffffffffffffffffffffffffffffffffff021916908373ffffffffffffffffffffffffffffffffffffffff16021790555060018060146101000a81548160ff021916908315150217905550919050565b61220880620001a46000396000f300606060405260043610610128576000357c0100000000000000000000000000000000000000000000000000000000900463ffffffff1680630fb42cfa1461012d57806316eb2f75146101895780631df2c6ab146101da5780631ec43f33146102075780632390c0501461025c578063253c8bd4146102f3578063277ef7a81461032c57806341a20d4a146103965780634bf4e421146103f25780635841e6a7146104475780635dea932914610474578063793908bb146104d057806388cc70ca1461054b5780638da5cb5b146105aa578063976f1b93146105ff5780639d6081d3146106695780639d63385e146106d3578063b62b02811461074e578063e9333fab146107b8578063ea7058f314610809578063f2e627721461085a578063f6aad768146108af575b600080fd5b341561013857600080fd5b61016f600480803573ffffffffffffffffffffffffffffffffffffffff16906020019091908035151590602001909190505061090b565b604051808215151515815260200191505060405180910390f35b341561019457600080fd5b6101c0600480803573ffffffffffffffffffffffffffffffffffffffff169060200190919050506109ca565b604051808215151515815260200191505060405180910390f35b34156101e557600080fd5b6101ed610ac8565b604051808215151515815260200191505060405180910390f35b341561021257600080fd5b61021a610adb565b604051808273ffffffffffffffffffffffffffffffffffffffff1673ffffffffffffffffffffffffffffffffffffffff16815260200191505060405180910390f35b341561026757600080fd5b610293600480803573ffffffffffffffffffffffffffffffffffffffff16906020019091905050610b45565b60405180881515151581526020018715151515815260200186151515158152602001851515151581526020018460ff1660ff1681526020018360ff1660ff1681526020018215151515815260200197505050505050505060405180910390f35b34156102fe57600080fd5b61032a600480803573ffffffffffffffffffffffffffffffffffffffff16906020019091905050610d52565b005b341561033757600080fd5b61033f610df0565b6040518080602001828103825283818151815260200191508051906020019060200280838360005b83811015610382578082015181840152602081019050610367565b505050509050019250505060405180910390f35b34156103a157600080fd5b6103d8600480803573ffffffffffffffffffffffffffffffffffffffff169060200190919080351515906020019091905050610ec4565b604051808215151515815260200191505060405180910390f35b34156103fd57600080fd5b610405610f83565b604051808273ffffffffffffffffffffffffffffffffffffffff1673ffffffffffffffffffffffffffffffffffffffff16815260200191505060405180910390f35b341561045257600080fd5b61045a610fa9565b604051808215151515815260200191505060405180910390f35b341561047f57600080fd5b6104b6600480803573ffffffffffffffffffffffffffffffffffffffff169060200190919080351515906020019091905050610fbc565b604051808215151515815260200191505060405180910390f35b34156104db57600080fd5b610531600480803573ffffffffffffffffffffffffffffffffffffffff16906020019091908035151590602001909190803573ffffffffffffffffffffffffffffffffffffffff1690602001909190505061107b565b604051808215151515815260200191505060405180910390f35b341561055657600080fd5b61058e600480803573ffffffffffffffffffffffffffffffffffffffff1690602001909190803560ff169060200190919050506113dc565b604051808260ff1660ff16815260200191505060405180910390f35b34156105b557600080fd5b6105bd61149c565b604051808273ffffffffffffffffffffffffffffffffffffffff1673ffffffffffffffffffffffffffffffffffffffff16815260200191505060405180910390f35b341561060a57600080fd5b6106126114c1565b6040518080602001828103825283818151815260200191508051906020019060200280838360005b8381101561065557808201518184015260208101905061063a565b505050509050019250505060405180910390f35b341561067457600080fd5b61067c611595565b6040518080602001828103825283818151815260200191508051906020019060200280838360005b838110156106bf5780820151818401526020810190506106a4565b505050509050019250505060405180910390f35b34156106de57600080fd5b610734600480803573ffffffffffffffffffffffffffffffffffffffff16906020019091908035151590602001909190803573ffffffffffffffffffffffffffffffffffffffff16906020019091905050611669565b604051808215151515815260200191505060405180910390f35b341561075957600080fd5b61079c600480803573ffffffffffffffffffffffffffffffffffffffff16906020019091908035151590602001909190803560ff16906020019091905050611844565b604051808260ff1660ff16815260200191505060405180910390f35b34156107c357600080fd5b6107ef600480803573ffffffffffffffffffffffffffffffffffffffff16906020019091905050611b08565b604051808215151515815260200191505060405180910390f35b341561081457600080fd5b610840600480803573ffffffffffffffffffffffffffffffffffffffff16906020019091905050611bc5565b604051808215151515815260200191505060405180910390f35b341561086557600080fd5b61086d611c6b565b604051808273ffffffffffffffffffffffffffffffffffffffff1673ffffffffffffffffffffffffffffffffffffffff16815260200191505060405180910390f35b34156108ba57600080fd5b6108f1600480803573ffffffffffffffffffffffffffffffffffffffff169060200190919080351515906020019091905050611c91565b604051808215151515815260200191505060405180910390f35b60003373ffffffffffffffffffffffffffffffffffffffff16600260009054906101000a900473ffffffffffffffffffffffffffffffffffffffff1673ffffffffffffffffffffffffffffffffffffffff1614151561096957600080fd5b81600360008573ffffffffffffffffffffffffffffffffffffffff1673ffffffffffffffffffffffffffffffffffffffff16815260200190815260200160002060030160006101000a81548160ff0219169083151502179055905092915050565b6000600160009054906101000a900473ffffffffffffffffffffffffffffffffffffffff1673ffffffffffffffffffffffffffffffffffffffff163373ffffffffffffffffffffffffffffffffffffffff16141515610a2857600080fd5b600073ffffffffffffffffffffffffffffffffffffffff168273ffffffffffffffffffffffffffffffffffffffff1614151515610a6457600080fd5b81600260006101000a81548173ffffffffffffffffffffffffffffffffffffffff021916908373ffffffffffffffffffffffffffffffffffffffff16021790555060018060156101000a81548160ff02191690831515021790555060019050919050565b600160149054906101000a900460ff1681565b6000600360003373ffffffffffffffffffffffffffffffffffffffff1673ffffffffffffffffffffffffffffffffffffffff16815260200190815260200160002060050160009054906101000a900473ffffffffffffffffffffffffffffffffffffffff16905090565b6000806000806000806000600360008973ffffffffffffffffffffffffffffffffffffffff1673ffffffffffffffffffffffffffffffffffffffff16815260200190815260200160002060030160009054906101000a900460ff16600360008a73ffffffffffffffffffffffffffffffffffffffff1673ffffffffffffffffffffffffffffffffffffffff16815260200190815260200160002060030160019054906101000a900460ff16600360008b73ffffffffffffffffffffffffffffffffffffffff1673ffffffffffffffffffffffffffffffffffffffff16815260200190815260200160002060030160029054906101000a900460ff16600360008c73ffffffffffffffffffffffffffffffffffffffff1673ffffffffffffffffffffffffffffffffffffffff16815260200190815260200160002060000160009054906101000a900460ff16600360008d73ffffffffffffffffffffffffffffffffffffffff1673ffffffffffffffffffffffffffffffffffffffff16815260200190815260200160002060000160019054906101000a900460ff16600360008e73ffffffffffffffffffffffffffffffffffffffff1673ffffffffffffffffffffffffffffffffffffffff16815260200190815260200160002060000160029054906101000a900460ff16610d398e611bc5565b9650965096509650965096509650919395979092949650565b6000809054906101000a900473ffffffffffffffffffffffffffffffffffffffff1673ffffffffffffffffffffffffffffffffffffffff163373ffffffffffffffffffffffffffffffffffffffff16141515610dad57600080fd5b806000806101000a81548173ffffffffffffffffffffffffffffffffffffffff021916908373ffffffffffffffffffffffffffffffffffffffff16021790555050565b610df861214b565b600360003373ffffffffffffffffffffffffffffffffffffffff1673ffffffffffffffffffffffffffffffffffffffff168152602001908152602001600020600201805480602002602001604051908101604052809291908181526020018280548015610eba57602002820191906000526020600020905b8160009054906101000a900473ffffffffffffffffffffffffffffffffffffffff1673ffffffffffffffffffffffffffffffffffffffff1681526020019060010190808311610e70575b5050505050905090565b60003373ffffffffffffffffffffffffffffffffffffffff16600260009054906101000a900473ffffffffffffffffffffffffffffffffffffffff1673ffffffffffffffffffffffffffffffffffffffff16141515610f2257600080fd5b81600360008573ffffffffffffffffffffffffffffffffffffffff1673ffffffffffffffffffffffffffffffffffffffff16815260200190815260200160002060030160026101000a81548160ff0219169083151502179055905092915050565b600260009054906101000a900473ffffffffffffffffffffffffffffffffffffffff1681565b600160159054906101000a900460ff1681565b60003373ffffffffffffffffffffffffffffffffffffffff16600260009054906101000a900473ffffffffffffffffffffffffffffffffffffffff1673ffffffffffffffffffffffffffffffffffffffff1614151561101a57600080fd5b81600360008573ffffffffffffffffffffffffffffffffffffffff1673ffffffffffffffffffffffffffffffffffffffff16815260200190815260200160002060030160016101000a81548160ff0219169083151502179055905092915050565b60003373ffffffffffffffffffffffffffffffffffffffff16600260009054906101000a900473ffffffffffffffffffffffffffffffffffffffff1673ffffffffffffffffffffffffffffffffffffffff161415156110d957600080fd5b82156112f757600360008573ffffffffffffffffffffffffffffffffffffffff1673ffffffffffffffffffffffffffffffffffffffff16815260200190815260200160002060030160019054906101000a900460ff1680156111685750600073ffffffffffffffffffffffffffffffffffffffff168273ffffffffffffffffffffffffffffffffffffffff1614155b151561117357600080fd5b6000600360008673ffffffffffffffffffffffffffffffffffffffff1673ffffffffffffffffffffffffffffffffffffffff16815260200190815260200160002060030160016101000a81548160ff021916908315150217905550600360008573ffffffffffffffffffffffffffffffffffffffff1673ffffffffffffffffffffffffffffffffffffffff1681526020019081526020016000206004018054806001018281611222919061215f565b9160005260206000209001600084909190916101000a81548173ffffffffffffffffffffffffffffffffffffffff021916908373ffffffffffffffffffffffffffffffffffffffff1602179055505081600360008673ffffffffffffffffffffffffffffffffffffffff1673ffffffffffffffffffffffffffffffffffffffff16815260200190815260200160002060050160006101000a81548173ffffffffffffffffffffffffffffffffffffffff021916908373ffffffffffffffffffffffffffffffffffffffff16021790555061137a565b6000600360008673ffffffffffffffffffffffffffffffffffffffff1673ffffffffffffffffffffffffffffffffffffffff16815260200190815260200160002060050160006101000a81548173ffffffffffffffffffffffffffffffffffffffff021916908373ffffffffffffffffffffffffffffffffffffffff1602179055505b82600360008673ffffffffffffffffffffffffffffffffffffffff1673ffffffffffffffffffffffffffffffffffffffff16815260200190815260200160002060030160026101000a81548160ff021916908315150217905590509392505050565b60003373ffffffffffffffffffffffffffffffffffffffff16600260009054906101000a900473ffffffffffffffffffffffffffffffffffffffff1673ffffffffffffffffffffffffffffffffffffffff1614151561143a57600080fd5b81600360008573ffffffffffffffffffffffffffffffffffffffff1673ffffffffffffffffffffffffffffffffffffffff16815260200190815260200160002060000160026101000a81548160ff021916908360ff1602179055905092915050565b6000809054906101000a900473ffffffffffffffffffffffffffffffffffffffff1681565b6114c961214b565b600360003373ffffffffffffffffffffffffffffffffffffffff1673ffffffffffffffffffffffffffffffffffffffff16815260200190815260200160002060010180548060200260200160405190810160405280929190818152602001828054801561158b57602002820191906000526020600020905b8160009054906101000a900473ffffffffffffffffffffffffffffffffffffffff1673ffffffffffffffffffffffffffffffffffffffff1681526020019060010190808311611541575b5050505050905090565b61159d61214b565b600360003373ffffffffffffffffffffffffffffffffffffffff1673ffffffffffffffffffffffffffffffffffffffff16815260200190815260200160002060040180548060200260200160405190810160405280929190818152602001828054801561165f57602002820191906000526020600020905b8160009054906101000a900473ffffffffffffffffffffffffffffffffffffffff1673ffffffffffffffffffffffffffffffffffffffff1681526020019060010190808311611615575b5050505050905090565b60003373ffffffffffffffffffffffffffffffffffffffff16600260009054906101000a900473ffffffffffffffffffffffffffffffffffffffff1673ffffffffffffffffffffffffffffffffffffffff161415156116c757600080fd5b8215611830576116d684611bc5565b15156116e157600080fd5b600360008573ffffffffffffffffffffffffffffffffffffffff1673ffffffffffffffffffffffffffffffffffffffff1681526020019081526020016000206001018054806001018281611735919061215f565b9160005260206000209001600084909190916101000a81548173ffffffffffffffffffffffffffffffffffffffff021916908373ffffffffffffffffffffffffffffffffffffffff16021790555050600360008573ffffffffffffffffffffffffffffffffffffffff1673ffffffffffffffffffffffffffffffffffffffff16815260200190815260200160002060020180548060010182816117d8919061215f565b9160005260206000209001600084909190916101000a81548173ffffffffffffffffffffffffffffffffffffffff021916908373ffffffffffffffffffffffffffffffffffffffff160217905550506001905061183d565b61183a8483611e68565b90505b9392505050565b60003373ffffffffffffffffffffffffffffffffffffffff16600260009054906101000a900473ffffffffffffffffffffffffffffffffffffffff1673ffffffffffffffffffffffffffffffffffffffff161415156118a257600080fd5b821561197d576119108260ff16600360008773ffffffffffffffffffffffffffffffffffffffff1673ffffffffffffffffffffffffffffffffffffffff16815260200190815260200160002060000160019054906101000a900460ff1660ff1661211490919063ffffffff16565b5060038060008673ffffffffffffffffffffffffffffffffffffffff1673ffffffffffffffffffffffffffffffffffffffff16815260200190815260200160002060000160019054906101000a900460ff1660ff16141561197857611976846001611c91565b505b611aaf565b6000600360008673ffffffffffffffffffffffffffffffffffffffff1673ffffffffffffffffffffffffffffffffffffffff16815260200190815260200160002060000160019054906101000a900460ff1660ff161115156119de57600080fd5b611a468260ff16600360008773ffffffffffffffffffffffffffffffffffffffff1673ffffffffffffffffffffffffffffffffffffffff16815260200190815260200160002060000160019054906101000a900460ff1660ff1661213290919063ffffffff16565b5060038060008673ffffffffffffffffffffffffffffffffffffffff1673ffffffffffffffffffffffffffffffffffffffff16815260200190815260200160002060000160019054906101000a900460ff1660ff161015611aae57611aac846000611c91565b505b5b600360008573ffffffffffffffffffffffffffffffffffffffff1673ffffffffffffffffffffffffffffffffffffffff16815260200190815260200160002060000160019054906101000a900460ff1690509392505050565b60008060009054906101000a900473ffffffffffffffffffffffffffffffffffffffff1673ffffffffffffffffffffffffffffffffffffffff163373ffffffffffffffffffffffffffffffffffffffff16141515611b6557600080fd5b81600160006101000a81548173ffffffffffffffffffffffffffffffffffffffff021916908373ffffffffffffffffffffffffffffffffffffffff16021790555060018060146101000a81548160ff021916908315150217905550919050565b60006001600360008473ffffffffffffffffffffffffffffffffffffffff1673ffffffffffffffffffffffffffffffffffffffff16815260200190815260200160002060000160029054906101000a900460ff160160ff16600360008473ffffffffffffffffffffffffffffffffffffffff1673ffffffffffffffffffffffffffffffffffffffff16815260200190815260200160002060020180549050109050919050565b600160009054906101000a900473ffffffffffffffffffffffffffffffffffffffff1681565b60003373ffffffffffffffffffffffffffffffffffffffff16600260009054906101000a900473ffffffffffffffffffffffffffffffffffffffff1673ffffffffffffffffffffffffffffffffffffffff16141515611cef57600080fd5b8115611e07576000600360008573ffffffffffffffffffffffffffffffffffffffff1673ffffffffffffffffffffffffffffffffffffffff16815260200190815260200160002060030160006101000a81548160ff0219169083151502179055506000600360008573ffffffffffffffffffffffffffffffffffffffff1673ffffffffffffffffffffffffffffffffffffffff16815260200190815260200160002060030160016101000a81548160ff0219169083151502179055506000600360008573ffffffffffffffffffffffffffffffffffffffff1673ffffffffffffffffffffffffffffffffffffffff16815260200190815260200160002060030160026101000a81548160ff0219169083151502179055505b81600360008573ffffffffffffffffffffffffffffffffffffffff1673ffffffffffffffffffffffffffffffffffffffff16815260200190815260200160002060000160006101000a81548160ff0219169083151502179055905092915050565b6000611e7261214b565b600080600360008773ffffffffffffffffffffffffffffffffffffffff1673ffffffffffffffffffffffffffffffffffffffff168152602001908152602001600020600201805480602002602001604051908101604052809291908181526020018280548015611f3757602002820191906000526020600020905b8160009054906101000a900473ffffffffffffffffffffffffffffffffffffffff1673ffffffffffffffffffffffffffffffffffffffff1681526020019060010190808311611eed575b50505050509250600091505b8251821015612106578473ffffffffffffffffffffffffffffffffffffffff168383815181101515611f7157fe5b9060200190602002015173ffffffffffffffffffffffffffffffffffffffff1614156120f9578190505b6001835103811015612019578260018201815181101515611fb857fe5b906020019060200201518382815181101515611fd057fe5b9060200190602002019073ffffffffffffffffffffffffffffffffffffffff16908173ffffffffffffffffffffffffffffffffffffffff16815250508080600101915050611f9b565b600360008773ffffffffffffffffffffffffffffffffffffffff1673ffffffffffffffffffffffffffffffffffffffff168152602001908152602001600020600201600184510381548110151561206c57fe5b906000526020600020900160006101000a81549073ffffffffffffffffffffffffffffffffffffffff0219169055600360008773ffffffffffffffffffffffffffffffffffffffff1673ffffffffffffffffffffffffffffffffffffffff1681526020019081526020016000206002018054809190600190036120ef919061218b565b506001935061210b565b8180600101925050611f43565b600093505b50505092915050565b600080828401905083811015151561212857fe5b8091505092915050565b600082821115151561214057fe5b818303905092915050565b602060405190810160405280600081525090565b8154818355818115116121865781836000526020600020918201910161218591906121b7565b5b505050565b8154818355818115116121b2578183600052602060002091820191016121b191906121b7565b5b505050565b6121d991905b808211156121d55760008160009055506001016121bd565b5090565b905600a165627a7a72305820b71225d6fee6bbca18a0b57f8eb7847f9456c49fadcdcaf815295aa26ccddf0c0029",
  "source": "pragma solidity ^0.4.18;\r\n\r\nimport \"../../misc/SafeMath.sol\";\r\nimport \"../../ownership/Clientable.sol\";\r\nimport \"../../interface/model/Account_Interface.sol\";\r\nimport \"../../interface/model/Account_Interface_getters.sol\";\r\n\r\ncontract Accounts is Clientable, AccountInterface, AccountInterfaceGetters {\r\n    using SafeMath for uint8;\r\n    struct Account {\r\n        //both\r\n        bool banned;\r\n        uint8 misconduct_counter;\r\n        //client\r\n        uint8 level;\r\n        address[] task_history;\r\n        address[] active_tasks;\r\n        //worker\r\n        bool eligible;\r\n        bool waiting;\r\n        bool working;\r\n        address[] job_history;\r\n        address active_job;\r\n    }\r\n\r\n    mapping(address => Account) accounts;\r\n\r\n    function Accounts(address _admin) public Clientable(msg.sender, _admin) {\r\n    }\r\n\r\n    //Dispatcher interface\r\n    function get_client(address _address) view public returns\r\n    (\r\n        bool _eligible,\r\n        bool _waiting,\r\n        bool _working,\r\n        bool _banned,\r\n        uint8 _misconduct_counter,\r\n        uint8 _level,\r\n        bool _submissible\r\n    ){\r\n        return (accounts[_address].eligible, accounts[_address].waiting, accounts[_address].working,\r\n        accounts[_address].banned, accounts[_address].misconduct_counter, accounts[_address].level, submissible(_address));\r\n    }\r\n\r\n    function submissible(address _address) view public returns (bool){\r\n        return accounts[_address].active_tasks.length < accounts[_address].level + 1;\r\n    }\r\n\r\n    function set_eligible(address _client, bool _eligible) client_only public returns (bool){\r\n        return accounts[_client].eligible = _eligible;\r\n    }\r\n\r\n    function set_waiting(address _client, bool _waiting) client_only public returns (bool){\r\n        return accounts[_client].waiting = _waiting;\r\n    }\r\n\r\n    function add_job(address _client, bool _working, address _task) client_only public returns (bool){\r\n        if (_working) {\r\n            require(accounts[_client].waiting && _task != address(0));\r\n            accounts[_client].waiting = false;\r\n            accounts[_client].job_history.push(_task);\r\n            accounts[_client].active_job = _task;\r\n        } else {\r\n            accounts[_client].active_job = 0;\r\n        }\r\n        return accounts[_client].working = _working;\r\n    }\r\n\r\n    function set_banned(address _client, bool _banned) client_only public returns (bool){\r\n        if (_banned) {\r\n            accounts[_client].eligible = false;\r\n            accounts[_client].waiting = false;\r\n            accounts[_client].working = false;\r\n        }\r\n        return accounts[_client].banned = _banned;\r\n    }\r\n\r\n    function set_misconduct_counter(address _client, bool _increase, uint8 _amount) client_only public returns (uint8){\r\n        if (_increase) {\r\n            accounts[_client].misconduct_counter.add(_amount);\r\n            if (accounts[_client].misconduct_counter == 3) set_banned(_client, true);\r\n        } else {\r\n            require(accounts[_client].misconduct_counter > 0);\r\n            accounts[_client].misconduct_counter.sub(_amount);\r\n            if (accounts[_client].misconduct_counter < 3) set_banned(_client, false);\r\n        }\r\n        return accounts[_client].misconduct_counter;\r\n    }\r\n\r\n    function set_level(address _client, uint8 _level) client_only public returns (uint8){\r\n        return accounts[_client].level = _level;\r\n    }\r\n\r\n    function add_task(address _client, bool _new, address _task) client_only public returns (bool){\r\n        if (_new) {\r\n            require(submissible(_client));\r\n            accounts[_client].task_history.push(_task);\r\n            accounts[_client].active_tasks.push(_task);\r\n            return true;\r\n        } else {\r\n            return removeFromActiveList(_client, _task);\r\n        }\r\n    }\r\n\r\n    function removeFromActiveList(address _client, address _task) internal returns (bool){\r\n        address[] memory list = accounts[_client].active_tasks;\r\n        for (uint index = 0; index < list.length; index++) {\r\n            if (list[index] == _task) {\r\n                for (uint i = index; i < list.length - 1; i++) list[i] = list[i + 1];\r\n                delete accounts[_client].active_tasks[list.length - 1];\r\n                accounts[_client].active_tasks.length--;\r\n                return true;\r\n            }\r\n        }\r\n        return false;\r\n    }\r\n\r\n    //miner\r\n    function job_history() view public returns (address[]){\r\n        return accounts[msg.sender].job_history;\r\n    }\r\n\r\n    function active_job() view public returns (address){\r\n        return accounts[msg.sender].active_job;\r\n    }\r\n\r\n    //submitter\r\n    function task_history() view public returns (address[]){\r\n        return accounts[msg.sender].task_history;\r\n    }\r\n\r\n    function active_tasks() view public returns (address[]){\r\n        return accounts[msg.sender].active_tasks;\r\n    }\r\n\r\n    //distributor\r\n    function set_working(address _worker, bool _working) client_only public returns (bool){\r\n        return accounts[_worker].working = _working;\r\n    }\r\n}\r\n",
  "sourcePath": "C:\\Users\\tony\\WebstormProjects\\nebula-helix\\contract\\contracts\\helix1.1\\model\\account\\Accounts.sol",
  "compiler": {
    "name": "solc",
    "version": "0.4.18+commit.9cf6e910.Emscripten.clang"
  },
  "schemaVersion": "1.0.1",
  "updatedAt": "2018-02-15T20:54:05.392Z"
}