{
  "contractName": "Administratable",
  "abi": [
    {
      "constant": true,
      "inputs": [],
      "name": "admin_loaded",
      "outputs": [
        {
          "name": "",
          "type": "bool"
        }
      ],
      "payable": false,
      "stateMutability": "view",
      "type": "function"
    },
    {
      "constant": false,
      "inputs": [
        {
          "name": "_owner",
          "type": "address"
        }
      ],
      "name": "change_owner",
      "outputs": [],
      "payable": false,
      "stateMutability": "nonpayable",
      "type": "function"
    },
    {
      "constant": false,
      "inputs": [],
      "name": "invalidate_contract",
      "outputs": [
        {
          "name": "",
          "type": "bool"
        }
      ],
      "payable": false,
      "stateMutability": "nonpayable",
      "type": "function"
    },
    {
      "constant": true,
      "inputs": [],
      "name": "controller_ready",
      "outputs": [
        {
          "name": "",
          "type": "bool"
        }
      ],
      "payable": false,
      "stateMutability": "view",
      "type": "function"
    },
    {
      "constant": true,
      "inputs": [],
      "name": "owner",
      "outputs": [
        {
          "name": "",
          "type": "address"
        }
      ],
      "payable": false,
      "stateMutability": "view",
      "type": "function"
    },
    {
      "constant": true,
      "inputs": [],
      "name": "owner_get_balance",
      "outputs": [
        {
          "name": "",
          "type": "uint256"
        }
      ],
      "payable": false,
      "stateMutability": "view",
      "type": "function"
    },
    {
      "constant": false,
      "inputs": [
        {
          "name": "_amount",
          "type": "uint256"
        }
      ],
      "name": "owner_withdraw",
      "outputs": [
        {
          "name": "",
          "type": "uint256"
        }
      ],
      "payable": false,
      "stateMutability": "nonpayable",
      "type": "function"
    },
    {
      "constant": true,
      "inputs": [],
      "name": "valid",
      "outputs": [
        {
          "name": "",
          "type": "bool"
        }
      ],
      "payable": false,
      "stateMutability": "view",
      "type": "function"
    },
    {
      "constant": false,
      "inputs": [
        {
          "name": "_admin",
          "type": "address"
        }
      ],
      "name": "set_admin",
      "outputs": [
        {
          "name": "",
          "type": "bool"
        }
      ],
      "payable": false,
      "stateMutability": "nonpayable",
      "type": "function"
    },
    {
      "constant": true,
      "inputs": [],
      "name": "admin_address",
      "outputs": [
        {
          "name": "",
          "type": "address"
        }
      ],
      "payable": false,
      "stateMutability": "view",
      "type": "function"
    },
    {
      "inputs": [
        {
          "name": "_owner",
          "type": "address"
        },
        {
          "name": "_admin",
          "type": "address"
        }
      ],
      "payable": false,
      "stateMutability": "nonpayable",
      "type": "constructor"
    }
  ],
  "bytecode": "0x6060604052341561000f57600080fd5b6040516040806108878339810160405280805190602001909190805190602001909190505081806000806101000a81548173ffffffffffffffffffffffffffffffffffffffff021916908373ffffffffffffffffffffffffffffffffffffffff1602179055505060018060166101000a81548160ff021916908315150217905550600073ffffffffffffffffffffffffffffffffffffffff168173ffffffffffffffffffffffffffffffffffffffff161415156100e4576100e2816100eb640100000000026105c1176401000000009004565b505b50506101a8565b60008060009054906101000a900473ffffffffffffffffffffffffffffffffffffffff1673ffffffffffffffffffffffffffffffffffffffff163373ffffffffffffffffffffffffffffffffffffffff1614151561014857600080fd5b81600160006101000a81548173ffffffffffffffffffffffffffffffffffffffff021916908373ffffffffffffffffffffffffffffffffffffffff16021790555060018060146101000a81548160ff021916908315150217905550919050565b6106d0806101b76000396000f3006060604052600436106100a4576000357c0100000000000000000000000000000000000000000000000000000000900463ffffffff1680631df2c6ab146100a9578063253c8bd4146100d6578063325063001461010f5780635841e6a71461013c5780638da5cb5b1461016957806399572a20146101be578063b33926cb146101e7578063c19912191461021e578063e9333fab1461024b578063f2e627721461029c575b600080fd5b34156100b457600080fd5b6100bc6102f1565b604051808215151515815260200191505060405180910390f35b34156100e157600080fd5b61010d600480803573ffffffffffffffffffffffffffffffffffffffff16906020019091905050610304565b005b341561011a57600080fd5b6101226103a2565b604051808215151515815260200191505060405180910390f35b341561014757600080fd5b61014f61041d565b604051808215151515815260200191505060405180910390f35b341561017457600080fd5b61017c610430565b604051808273ffffffffffffffffffffffffffffffffffffffff1673ffffffffffffffffffffffffffffffffffffffff16815260200191505060405180910390f35b34156101c957600080fd5b6101d1610455565b6040518082815260200191505060405180910390f35b34156101f257600080fd5b61020860048080359060200190919050506104cf565b6040518082815260200191505060405180910390f35b341561022957600080fd5b6102316105ae565b604051808215151515815260200191505060405180910390f35b341561025657600080fd5b610282600480803573ffffffffffffffffffffffffffffffffffffffff169060200190919050506105c1565b604051808215151515815260200191505060405180910390f35b34156102a757600080fd5b6102af61067e565b604051808273ffffffffffffffffffffffffffffffffffffffff1673ffffffffffffffffffffffffffffffffffffffff16815260200191505060405180910390f35b600160149054906101000a900460ff1681565b6000809054906101000a900473ffffffffffffffffffffffffffffffffffffffff1673ffffffffffffffffffffffffffffffffffffffff163373ffffffffffffffffffffffffffffffffffffffff1614151561035f57600080fd5b806000806101000a81548173ffffffffffffffffffffffffffffffffffffffff021916908373ffffffffffffffffffffffffffffffffffffffff16021790555050565b60008060009054906101000a900473ffffffffffffffffffffffffffffffffffffffff1673ffffffffffffffffffffffffffffffffffffffff163373ffffffffffffffffffffffffffffffffffffffff161415156103ff57600080fd5b6000600160166101000a81548160ff02191690831515021790555090565b600160159054906101000a900460ff1681565b6000809054906101000a900473ffffffffffffffffffffffffffffffffffffffff1681565b60008060009054906101000a900473ffffffffffffffffffffffffffffffffffffffff1673ffffffffffffffffffffffffffffffffffffffff163373ffffffffffffffffffffffffffffffffffffffff161415156104b257600080fd5b3073ffffffffffffffffffffffffffffffffffffffff1631905090565b60008060009054906101000a900473ffffffffffffffffffffffffffffffffffffffff1673ffffffffffffffffffffffffffffffffffffffff163373ffffffffffffffffffffffffffffffffffffffff1614151561052c57600080fd5b600160169054906101000a900460ff1615151561054857600080fd5b6000809054906101000a900473ffffffffffffffffffffffffffffffffffffffff1673ffffffffffffffffffffffffffffffffffffffff166108fc839081150290604051600060405180830381858888f1935050505015156105a957600080fd5b919050565b600160169054906101000a900460ff1681565b60008060009054906101000a900473ffffffffffffffffffffffffffffffffffffffff1673ffffffffffffffffffffffffffffffffffffffff163373ffffffffffffffffffffffffffffffffffffffff1614151561061e57600080fd5b81600160006101000a81548173ffffffffffffffffffffffffffffffffffffffff021916908373ffffffffffffffffffffffffffffffffffffffff16021790555060018060146101000a81548160ff021916908315150217905550919050565b600160009054906101000a900473ffffffffffffffffffffffffffffffffffffffff16815600a165627a7a723058201456b558c53573d5b16de3254038e60f107c46884e76a1095bde004f8daab26f0029",
  "source": "pragma solidity ^0.4.18;\r\n\r\nimport \"./Ownable.sol\";\r\n\r\ncontract Administratable is Ownable {\r\n    address public admin_address;\r\n    bool public admin_loaded;\r\n    bool public controller_ready;\r\n    bool public valid; //once invalidated, can no longer be revalidated\r\n\r\n    function Administratable(address _owner, address _admin) public Ownable(_owner) {\r\n        valid = true;\r\n        if (_admin != address(0)) set_admin(_admin);\r\n    }\r\n\r\n    modifier Ready(){\r\n        require(controller_ready);\r\n        _;\r\n    }\r\n\r\n    modifier admin_only(){\r\n        require(msg.sender == admin_address || msg.sender == owner);\r\n        _;\r\n    }\r\n\r\n    function set_admin(address _admin) ownerOnly public returns (bool){\r\n        admin_address = _admin;\r\n        admin_loaded = true;\r\n    }\r\n\r\n\r\n    modifier invalidated_only{\r\n        require(!valid);\r\n        _;\r\n    }\r\n\r\n    function invalidate_contract() public ownerOnly returns (bool){\r\n        valid = false;\r\n    }\r\n\r\n    //@dev a requirement must be set!!! balance can only be withdrawn when this contract is no longer in use\r\n    function owner_withdraw(uint256 _amount) external ownerOnly invalidated_only returns (uint256){\r\n        owner.transfer(_amount);\r\n    }\r\n\r\n    function owner_get_balance() external ownerOnly view returns (uint256){\r\n        return this.balance;\r\n    }\r\n    \r\n    \r\n}\r\n",
  "sourcePath": "C:\\Users\\tony\\WebstormProjects\\nebula-helix\\contract\\contracts\\helix1.1\\ownership\\Administratable.sol",
  "compiler": {
    "name": "solc",
    "version": "0.4.18+commit.9cf6e910.Emscripten.clang"
  },
  "schemaVersion": "1.0.1",
  "updatedAt": "2018-02-21T16:56:52.171Z"
}