{
  "contractName": "Admin",
  "abi": [
    {
      "constant": false,
      "inputs": [
        {
          "name": "_dispatcher",
          "type": "address"
        },
        {
          "name": "_distributor",
          "type": "address"
        },
        {
          "name": "_client",
          "type": "address"
        },
        {
          "name": "_ai_queue",
          "type": "address"
        },
        {
          "name": "_task_queue",
          "type": "address"
        },
        {
          "name": "_account",
          "type": "address"
        },
        {
          "name": "_taskpool",
          "type": "address"
        }
      ],
      "name": "set_all_addresses",
      "outputs": [
        {
          "name": "",
          "type": "bool"
        }
      ],
      "payable": false,
      "stateMutability": "nonpayable",
      "type": "function"
    },
    {
      "constant": false,
      "inputs": [
        {
          "name": "_owner",
          "type": "address"
        }
      ],
      "name": "change_owner",
      "outputs": [],
      "payable": false,
      "stateMutability": "nonpayable",
      "type": "function"
    },
    {
      "constant": true,
      "inputs": [],
      "name": "client_address",
      "outputs": [
        {
          "name": "",
          "type": "address"
        }
      ],
      "payable": false,
      "stateMutability": "view",
      "type": "function"
    },
    {
      "constant": true,
      "inputs": [],
      "name": "dispatcher_address",
      "outputs": [
        {
          "name": "",
          "type": "address"
        }
      ],
      "payable": false,
      "stateMutability": "view",
      "type": "function"
    },
    {
      "constant": false,
      "inputs": [
        {
          "name": "_address",
          "type": "address"
        }
      ],
      "name": "set_dispatcher_address",
      "outputs": [],
      "payable": false,
      "stateMutability": "nonpayable",
      "type": "function"
    },
    {
      "constant": true,
      "inputs": [],
      "name": "account_address",
      "outputs": [
        {
          "name": "",
          "type": "address"
        }
      ],
      "payable": false,
      "stateMutability": "view",
      "type": "function"
    },
    {
      "constant": false,
      "inputs": [],
      "name": "ready_to_set_all",
      "outputs": [
        {
          "name": "",
          "type": "bool"
        }
      ],
      "payable": false,
      "stateMutability": "nonpayable",
      "type": "function"
    },
    {
      "constant": false,
      "inputs": [],
      "name": "set_all",
      "outputs": [
        {
          "name": "",
          "type": "bool"
        }
      ],
      "payable": false,
      "stateMutability": "nonpayable",
      "type": "function"
    },
    {
      "constant": true,
      "inputs": [],
      "name": "owner",
      "outputs": [
        {
          "name": "",
          "type": "address"
        }
      ],
      "payable": false,
      "stateMutability": "view",
      "type": "function"
    },
    {
      "constant": false,
      "inputs": [
        {
          "name": "_address",
          "type": "address"
        }
      ],
      "name": "set_ai_queue_address",
      "outputs": [],
      "payable": false,
      "stateMutability": "nonpayable",
      "type": "function"
    },
    {
      "constant": true,
      "inputs": [],
      "name": "queue_task_address",
      "outputs": [
        {
          "name": "",
          "type": "address"
        }
      ],
      "payable": false,
      "stateMutability": "view",
      "type": "function"
    },
    {
      "constant": true,
      "inputs": [],
      "name": "taskpool_address",
      "outputs": [
        {
          "name": "",
          "type": "address"
        }
      ],
      "payable": false,
      "stateMutability": "view",
      "type": "function"
    },
    {
      "constant": false,
      "inputs": [
        {
          "name": "_address",
          "type": "address"
        }
      ],
      "name": "set_client_address",
      "outputs": [],
      "payable": false,
      "stateMutability": "nonpayable",
      "type": "function"
    },
    {
      "constant": true,
      "inputs": [],
      "name": "distributor_address",
      "outputs": [
        {
          "name": "",
          "type": "address"
        }
      ],
      "payable": false,
      "stateMutability": "view",
      "type": "function"
    },
    {
      "constant": false,
      "inputs": [
        {
          "name": "_address",
          "type": "address"
        }
      ],
      "name": "set_distributor_address",
      "outputs": [],
      "payable": false,
      "stateMutability": "nonpayable",
      "type": "function"
    },
    {
      "constant": false,
      "inputs": [
        {
          "name": "_address",
          "type": "address"
        }
      ],
      "name": "set_task_queue_address",
      "outputs": [],
      "payable": false,
      "stateMutability": "nonpayable",
      "type": "function"
    },
    {
      "constant": false,
      "inputs": [
        {
          "name": "_address",
          "type": "address"
        }
      ],
      "name": "set_taskpool_address",
      "outputs": [],
      "payable": false,
      "stateMutability": "nonpayable",
      "type": "function"
    },
    {
      "constant": false,
      "inputs": [
        {
          "name": "_address",
          "type": "address"
        }
      ],
      "name": "set_account_address",
      "outputs": [],
      "payable": false,
      "stateMutability": "nonpayable",
      "type": "function"
    },
    {
      "constant": true,
      "inputs": [],
      "name": "queue_ai_address",
      "outputs": [
        {
          "name": "",
          "type": "address"
        }
      ],
      "payable": false,
      "stateMutability": "view",
      "type": "function"
    },
    {
      "inputs": [],
      "payable": false,
      "stateMutability": "nonpayable",
      "type": "constructor"
    },
    {
      "anonymous": false,
      "inputs": [],
      "name": "AddressSet",
      "type": "event"
    },
    {
      "anonymous": false,
      "inputs": [],
      "name": "AddressesSetInAllContracts",
      "type": "event"
    }
  ],
  "bytecode": "0x6060604052341561000f57600080fd5b33806000806101000a81548173ffffffffffffffffffffffffffffffffffffffff021916908373ffffffffffffffffffffffffffffffffffffffff160217905550506122e2806100606000396000f300606060405260043610610107576000357c0100000000000000000000000000000000000000000000000000000000900463ffffffff16806312cde2261461010c578063253c8bd4146102175780634bf4e42114610250578063559670f8146102a55780635fc7d7fa146102fa578063661be157146103335780637ff37a151461038857806382b123d3146103b55780638da5cb5b146103e257806391f1e405146104375780639a7cafed14610470578063a74c4d16146104c5578063b07a30dc1461051a578063b2ad35c014610553578063c130367c146105a8578063cd629d71146105e1578063de42d77c1461061a578063e47d4e6314610653578063fcb4ffa01461068c575b600080fd5b341561011757600080fd5b6101fd600480803573ffffffffffffffffffffffffffffffffffffffff1690602001909190803573ffffffffffffffffffffffffffffffffffffffff1690602001909190803573ffffffffffffffffffffffffffffffffffffffff1690602001909190803573ffffffffffffffffffffffffffffffffffffffff1690602001909190803573ffffffffffffffffffffffffffffffffffffffff1690602001909190803573ffffffffffffffffffffffffffffffffffffffff1690602001909190803573ffffffffffffffffffffffffffffffffffffffff169060200190919050506106e1565b604051808215151515815260200191505060405180910390f35b341561022257600080fd5b61024e600480803573ffffffffffffffffffffffffffffffffffffffff16906020019091905050610811565b005b341561025b57600080fd5b6102636108af565b604051808273ffffffffffffffffffffffffffffffffffffffff1673ffffffffffffffffffffffffffffffffffffffff16815260200191505060405180910390f35b34156102b057600080fd5b6102b86108d5565b604051808273ffffffffffffffffffffffffffffffffffffffff1673ffffffffffffffffffffffffffffffffffffffff16815260200191505060405180910390f35b341561030557600080fd5b610331600480803573ffffffffffffffffffffffffffffffffffffffff169060200190919050506108fb565b005b341561033e57600080fd5b610346610a71565b604051808273ffffffffffffffffffffffffffffffffffffffff1673ffffffffffffffffffffffffffffffffffffffff16815260200191505060405180910390f35b341561039357600080fd5b61039b610a97565b604051808215151515815260200191505060405180910390f35b34156103c057600080fd5b6103c8610d1f565b604051808215151515815260200191505060405180910390f35b34156103ed57600080fd5b6103f5610e32565b604051808273ffffffffffffffffffffffffffffffffffffffff1673ffffffffffffffffffffffffffffffffffffffff16815260200191505060405180910390f35b341561044257600080fd5b61046e600480803573ffffffffffffffffffffffffffffffffffffffff16906020019091905050610e57565b005b341561047b57600080fd5b610483610fcd565b604051808273ffffffffffffffffffffffffffffffffffffffff1673ffffffffffffffffffffffffffffffffffffffff16815260200191505060405180910390f35b34156104d057600080fd5b6104d8610ff3565b604051808273ffffffffffffffffffffffffffffffffffffffff1673ffffffffffffffffffffffffffffffffffffffff16815260200191505060405180910390f35b341561052557600080fd5b610551600480803573ffffffffffffffffffffffffffffffffffffffff16906020019091905050611019565b005b341561055e57600080fd5b61056661118f565b604051808273ffffffffffffffffffffffffffffffffffffffff1673ffffffffffffffffffffffffffffffffffffffff16815260200191505060405180910390f35b34156105b357600080fd5b6105df600480803573ffffffffffffffffffffffffffffffffffffffff169060200190919050506111b5565b005b34156105ec57600080fd5b610618600480803573ffffffffffffffffffffffffffffffffffffffff1690602001909190505061132b565b005b341561062557600080fd5b610651600480803573ffffffffffffffffffffffffffffffffffffffff169060200190919050506114a1565b005b341561065e57600080fd5b61068a600480803573ffffffffffffffffffffffffffffffffffffffff16906020019091905050611617565b005b341561069757600080fd5b61069f61178d565b604051808273ffffffffffffffffffffffffffffffffffffffff1673ffffffffffffffffffffffffffffffffffffffff16815260200191505060405180910390f35b60008060009054906101000a900473ffffffffffffffffffffffffffffffffffffffff1673ffffffffffffffffffffffffffffffffffffffff163373ffffffffffffffffffffffffffffffffffffffff1614151561073e57600080fd5b610747886108fb565b610750876111b5565b61075986611019565b61076285610e57565b61076b8461132b565b61077483611617565b61077d826114a1565b7f072b0b1397a04eeac71ad70127b5aa1c94487f1eca74030e2b58c559ef773b8f60405160405180910390a18273ffffffffffffffffffffffffffffffffffffffff16600960009054906101000a900473ffffffffffffffffffffffffffffffffffffffff1673ffffffffffffffffffffffffffffffffffffffff1614151561080257fe5b60019050979650505050505050565b6000809054906101000a900473ffffffffffffffffffffffffffffffffffffffff1673ffffffffffffffffffffffffffffffffffffffff163373ffffffffffffffffffffffffffffffffffffffff1614151561086c57600080fd5b806000806101000a81548173ffffffffffffffffffffffffffffffffffffffff021916908373ffffffffffffffffffffffffffffffffffffffff16021790555050565b600260009054906101000a900473ffffffffffffffffffffffffffffffffffffffff1681565b600160009054906101000a900473ffffffffffffffffffffffffffffffffffffffff1681565b80600073ffffffffffffffffffffffffffffffffffffffff168173ffffffffffffffffffffffffffffffffffffffff161415151561093857600080fd5b6000809054906101000a900473ffffffffffffffffffffffffffffffffffffffff1673ffffffffffffffffffffffffffffffffffffffff163373ffffffffffffffffffffffffffffffffffffffff1614806109be57503073ffffffffffffffffffffffffffffffffffffffff163373ffffffffffffffffffffffffffffffffffffffff16145b15156109c957600080fd5b81600160006101000a81548173ffffffffffffffffffffffffffffffffffffffff021916908373ffffffffffffffffffffffffffffffffffffffff160217905550600160009054906101000a900473ffffffffffffffffffffffffffffffffffffffff16600460006101000a81548173ffffffffffffffffffffffffffffffffffffffff021916908373ffffffffffffffffffffffffffffffffffffffff1602179055505050565b600960009054906101000a900473ffffffffffffffffffffffffffffffffffffffff1681565b60008073ffffffffffffffffffffffffffffffffffffffff16600160009054906101000a900473ffffffffffffffffffffffffffffffffffffffff1673ffffffffffffffffffffffffffffffffffffffff1614158015610b465750600073ffffffffffffffffffffffffffffffffffffffff16600260009054906101000a900473ffffffffffffffffffffffffffffffffffffffff1673ffffffffffffffffffffffffffffffffffffffff1614155b8015610ba15750600073ffffffffffffffffffffffffffffffffffffffff16600360009054906101000a900473ffffffffffffffffffffffffffffffffffffffff1673ffffffffffffffffffffffffffffffffffffffff1614155b8015610bfc5750600073ffffffffffffffffffffffffffffffffffffffff16600760009054906101000a900473ffffffffffffffffffffffffffffffffffffffff1673ffffffffffffffffffffffffffffffffffffffff1614155b8015610c575750600073ffffffffffffffffffffffffffffffffffffffff16600860009054906101000a900473ffffffffffffffffffffffffffffffffffffffff1673ffffffffffffffffffffffffffffffffffffffff1614155b8015610cb25750600073ffffffffffffffffffffffffffffffffffffffff16600960009054906101000a900473ffffffffffffffffffffffffffffffffffffffff1673ffffffffffffffffffffffffffffffffffffffff1614155b8015610d0d5750600073ffffffffffffffffffffffffffffffffffffffff16600a60009054906101000a900473ffffffffffffffffffffffffffffffffffffffff1673ffffffffffffffffffffffffffffffffffffffff1614155b1515610d1857600080fd5b6001905090565b60008060009054906101000a900473ffffffffffffffffffffffffffffffffffffffff1673ffffffffffffffffffffffffffffffffffffffff163373ffffffffffffffffffffffffffffffffffffffff16141515610d7c57600080fd5b610d84610a97565b1515610d8f57600080fd5b610d976117b3565b8015610da75750610da66119f2565b5b8015610db75750610db6611c53565b5b8015610dc75750610dc6611e92565b5b8015610dd75750610dd6611f9b565b5b8015610de75750610de66120a4565b5b8015610df75750610df66121ad565b5b1515610dff57fe5b7f220da6282b3c2b2c12ef9302c64a06603a4f7fb732914971389c8b5c10e009f560405160405180910390a16001905090565b6000809054906101000a900473ffffffffffffffffffffffffffffffffffffffff1681565b80600073ffffffffffffffffffffffffffffffffffffffff168173ffffffffffffffffffffffffffffffffffffffff1614151515610e9457600080fd5b6000809054906101000a900473ffffffffffffffffffffffffffffffffffffffff1673ffffffffffffffffffffffffffffffffffffffff163373ffffffffffffffffffffffffffffffffffffffff161480610f1a57503073ffffffffffffffffffffffffffffffffffffffff163373ffffffffffffffffffffffffffffffffffffffff16145b1515610f2557600080fd5b81600760006101000a81548173ffffffffffffffffffffffffffffffffffffffff021916908373ffffffffffffffffffffffffffffffffffffffff160217905550600760009054906101000a900473ffffffffffffffffffffffffffffffffffffffff16600c60006101000a81548173ffffffffffffffffffffffffffffffffffffffff021916908373ffffffffffffffffffffffffffffffffffffffff1602179055505050565b600860009054906101000a900473ffffffffffffffffffffffffffffffffffffffff1681565b600a60009054906101000a900473ffffffffffffffffffffffffffffffffffffffff1681565b80600073ffffffffffffffffffffffffffffffffffffffff168173ffffffffffffffffffffffffffffffffffffffff161415151561105657600080fd5b6000809054906101000a900473ffffffffffffffffffffffffffffffffffffffff1673ffffffffffffffffffffffffffffffffffffffff163373ffffffffffffffffffffffffffffffffffffffff1614806110dc57503073ffffffffffffffffffffffffffffffffffffffff163373ffffffffffffffffffffffffffffffffffffffff16145b15156110e757600080fd5b81600260006101000a81548173ffffffffffffffffffffffffffffffffffffffff021916908373ffffffffffffffffffffffffffffffffffffffff160217905550600260009054906101000a900473ffffffffffffffffffffffffffffffffffffffff16600660006101000a81548173ffffffffffffffffffffffffffffffffffffffff021916908373ffffffffffffffffffffffffffffffffffffffff1602179055505050565b600360009054906101000a900473ffffffffffffffffffffffffffffffffffffffff1681565b80600073ffffffffffffffffffffffffffffffffffffffff168173ffffffffffffffffffffffffffffffffffffffff16141515156111f257600080fd5b6000809054906101000a900473ffffffffffffffffffffffffffffffffffffffff1673ffffffffffffffffffffffffffffffffffffffff163373ffffffffffffffffffffffffffffffffffffffff16148061127857503073ffffffffffffffffffffffffffffffffffffffff163373ffffffffffffffffffffffffffffffffffffffff16145b151561128357600080fd5b81600360006101000a81548173ffffffffffffffffffffffffffffffffffffffff021916908373ffffffffffffffffffffffffffffffffffffffff160217905550600360009054906101000a900473ffffffffffffffffffffffffffffffffffffffff16600560006101000a81548173ffffffffffffffffffffffffffffffffffffffff021916908373ffffffffffffffffffffffffffffffffffffffff1602179055505050565b80600073ffffffffffffffffffffffffffffffffffffffff168173ffffffffffffffffffffffffffffffffffffffff161415151561136857600080fd5b6000809054906101000a900473ffffffffffffffffffffffffffffffffffffffff1673ffffffffffffffffffffffffffffffffffffffff163373ffffffffffffffffffffffffffffffffffffffff1614806113ee57503073ffffffffffffffffffffffffffffffffffffffff163373ffffffffffffffffffffffffffffffffffffffff16145b15156113f957600080fd5b81600860006101000a81548173ffffffffffffffffffffffffffffffffffffffff021916908373ffffffffffffffffffffffffffffffffffffffff160217905550600860009054906101000a900473ffffffffffffffffffffffffffffffffffffffff16600d60006101000a81548173ffffffffffffffffffffffffffffffffffffffff021916908373ffffffffffffffffffffffffffffffffffffffff1602179055505050565b80600073ffffffffffffffffffffffffffffffffffffffff168173ffffffffffffffffffffffffffffffffffffffff16141515156114de57600080fd5b6000809054906101000a900473ffffffffffffffffffffffffffffffffffffffff1673ffffffffffffffffffffffffffffffffffffffff163373ffffffffffffffffffffffffffffffffffffffff16148061156457503073ffffffffffffffffffffffffffffffffffffffff163373ffffffffffffffffffffffffffffffffffffffff16145b151561156f57600080fd5b81600a60006101000a81548173ffffffffffffffffffffffffffffffffffffffff021916908373ffffffffffffffffffffffffffffffffffffffff160217905550600a60009054906101000a900473ffffffffffffffffffffffffffffffffffffffff16600e60006101000a81548173ffffffffffffffffffffffffffffffffffffffff021916908373ffffffffffffffffffffffffffffffffffffffff1602179055505050565b80600073ffffffffffffffffffffffffffffffffffffffff168173ffffffffffffffffffffffffffffffffffffffff161415151561165457600080fd5b6000809054906101000a900473ffffffffffffffffffffffffffffffffffffffff1673ffffffffffffffffffffffffffffffffffffffff163373ffffffffffffffffffffffffffffffffffffffff1614806116da57503073ffffffffffffffffffffffffffffffffffffffff163373ffffffffffffffffffffffffffffffffffffffff16145b15156116e557600080fd5b81600960006101000a81548173ffffffffffffffffffffffffffffffffffffffff021916908373ffffffffffffffffffffffffffffffffffffffff160217905550600960009054906101000a900473ffffffffffffffffffffffffffffffffffffffff16600b60006101000a81548173ffffffffffffffffffffffffffffffffffffffff021916908373ffffffffffffffffffffffffffffffffffffffff1602179055505050565b600760009054906101000a900473ffffffffffffffffffffffffffffffffffffffff1681565b6000600560009054906101000a900473ffffffffffffffffffffffffffffffffffffffff1673ffffffffffffffffffffffffffffffffffffffff1663ee7b1674600160009054906101000a900473ffffffffffffffffffffffffffffffffffffffff16600360009054906101000a900473ffffffffffffffffffffffffffffffffffffffff16600260009054906101000a900473ffffffffffffffffffffffffffffffffffffffff16600a60009054906101000a900473ffffffffffffffffffffffffffffffffffffffff16600080604051602001526040518663ffffffff167c0100000000000000000000000000000000000000000000000000000000028152600401808673ffffffffffffffffffffffffffffffffffffffff1673ffffffffffffffffffffffffffffffffffffffff1681526020018573ffffffffffffffffffffffffffffffffffffffff1673ffffffffffffffffffffffffffffffffffffffff1681526020018473ffffffffffffffffffffffffffffffffffffffff1673ffffffffffffffffffffffffffffffffffffffff1681526020018373ffffffffffffffffffffffffffffffffffffffff1673ffffffffffffffffffffffffffffffffffffffff1681526020018273ffffffffffffffffffffffffffffffffffffffff1673ffffffffffffffffffffffffffffffffffffffff16815260200195505050505050602060405180830381600087803b15156119d257600080fd5b6102c65a03f115156119e357600080fd5b50505060405180519050905090565b6000600460009054906101000a900473ffffffffffffffffffffffffffffffffffffffff1673ffffffffffffffffffffffffffffffffffffffff1663ee7b1674600160009054906101000a900473ffffffffffffffffffffffffffffffffffffffff16600360009054906101000a900473ffffffffffffffffffffffffffffffffffffffff16600260009054906101000a900473ffffffffffffffffffffffffffffffffffffffff16600760009054906101000a900473ffffffffffffffffffffffffffffffffffffffff16600860009054906101000a900473ffffffffffffffffffffffffffffffffffffffff166000604051602001526040518663ffffffff167c0100000000000000000000000000000000000000000000000000000000028152600401808673ffffffffffffffffffffffffffffffffffffffff1673ffffffffffffffffffffffffffffffffffffffff1681526020018573ffffffffffffffffffffffffffffffffffffffff1673ffffffffffffffffffffffffffffffffffffffff1681526020018473ffffffffffffffffffffffffffffffffffffffff1673ffffffffffffffffffffffffffffffffffffffff1681526020018373ffffffffffffffffffffffffffffffffffffffff1673ffffffffffffffffffffffffffffffffffffffff1681526020018273ffffffffffffffffffffffffffffffffffffffff1673ffffffffffffffffffffffffffffffffffffffff16815260200195505050505050602060405180830381600087803b1515611c3357600080fd5b6102c65a03f11515611c4457600080fd5b50505060405180519050905090565b6000600660009054906101000a900473ffffffffffffffffffffffffffffffffffffffff1673ffffffffffffffffffffffffffffffffffffffff1663ee7b1674600160009054906101000a900473ffffffffffffffffffffffffffffffffffffffff16600360009054906101000a900473ffffffffffffffffffffffffffffffffffffffff16600260009054906101000a900473ffffffffffffffffffffffffffffffffffffffff16600960009054906101000a900473ffffffffffffffffffffffffffffffffffffffff16600080604051602001526040518663ffffffff167c0100000000000000000000000000000000000000000000000000000000028152600401808673ffffffffffffffffffffffffffffffffffffffff1673ffffffffffffffffffffffffffffffffffffffff1681526020018573ffffffffffffffffffffffffffffffffffffffff1673ffffffffffffffffffffffffffffffffffffffff1681526020018473ffffffffffffffffffffffffffffffffffffffff1673ffffffffffffffffffffffffffffffffffffffff1681526020018373ffffffffffffffffffffffffffffffffffffffff1673ffffffffffffffffffffffffffffffffffffffff1681526020018273ffffffffffffffffffffffffffffffffffffffff1673ffffffffffffffffffffffffffffffffffffffff16815260200195505050505050602060405180830381600087803b1515611e7257600080fd5b6102c65a03f11515611e8357600080fd5b50505060405180519050905090565b6000600b60009054906101000a900473ffffffffffffffffffffffffffffffffffffffff1673ffffffffffffffffffffffffffffffffffffffff166316eb2f75600260009054906101000a900473ffffffffffffffffffffffffffffffffffffffff166000604051602001526040518263ffffffff167c0100000000000000000000000000000000000000000000000000000000028152600401808273ffffffffffffffffffffffffffffffffffffffff1673ffffffffffffffffffffffffffffffffffffffff168152602001915050602060405180830381600087803b1515611f7b57600080fd5b6102c65a03f11515611f8c57600080fd5b50505060405180519050905090565b6000600d60009054906101000a900473ffffffffffffffffffffffffffffffffffffffff1673ffffffffffffffffffffffffffffffffffffffff1663beb0be25600160009054906101000a900473ffffffffffffffffffffffffffffffffffffffff166000604051602001526040518263ffffffff167c0100000000000000000000000000000000000000000000000000000000028152600401808273ffffffffffffffffffffffffffffffffffffffff1673ffffffffffffffffffffffffffffffffffffffff168152602001915050602060405180830381600087803b151561208457600080fd5b6102c65a03f1151561209557600080fd5b50505060405180519050905090565b6000600c60009054906101000a900473ffffffffffffffffffffffffffffffffffffffff1673ffffffffffffffffffffffffffffffffffffffff1663beb0be25600160009054906101000a900473ffffffffffffffffffffffffffffffffffffffff166000604051602001526040518263ffffffff167c0100000000000000000000000000000000000000000000000000000000028152600401808273ffffffffffffffffffffffffffffffffffffffff1673ffffffffffffffffffffffffffffffffffffffff168152602001915050602060405180830381600087803b151561218d57600080fd5b6102c65a03f1151561219e57600080fd5b50505060405180519050905090565b6000600e60009054906101000a900473ffffffffffffffffffffffffffffffffffffffff1673ffffffffffffffffffffffffffffffffffffffff16634202c6f9600360009054906101000a900473ffffffffffffffffffffffffffffffffffffffff166000604051602001526040518263ffffffff167c0100000000000000000000000000000000000000000000000000000000028152600401808273ffffffffffffffffffffffffffffffffffffffff1673ffffffffffffffffffffffffffffffffffffffff168152602001915050602060405180830381600087803b151561229657600080fd5b6102c65a03f115156122a757600080fd5b505050604051805190509050905600a165627a7a7230582013231167e836f93a325b0e1e1674e9642a86f3a9a2ad42ba0adff9db2b4188c50029",
  "source": "pragma solidity ^0.4.18;\r\nimport \"../ownership/Ownable.sol\";\r\nimport \"../interface/controller/Controller_Interface_admin.sol\";\r\nimport \"../model/account/Account_Interface_admin.sol\";\r\nimport \"../model/queue/Queue_Interface_admin.sol\";\r\nimport \"../model/taskpool/TaskPool_Interface_admin.sol\";\r\n\r\n//@dev todo add version\r\ncontract Admin is Ownable {\r\n\r\n    address public dispatcher_address;\r\n    address public client_address;\r\n    address public distributor_address;\r\n\r\n    ControllerInterfaceAdmin dispatcher;\r\n    ControllerInterfaceAdmin distributor;\r\n    ControllerInterfaceAdmin client;\r\n\r\n    address public queue_ai_address;\r\n    address public queue_task_address;\r\n    address public account_address;\r\n    address public taskpool_address;\r\n\r\n    AccountInterfaceAdmin account;\r\n    QueueInterfaceAdmin queue_ai;\r\n    QueueInterfaceAdmin queue_task;\r\n    TaskPoolInterfaceAdmin taskpool;\r\n\r\n    function Admin() Ownable(msg.sender) public {}\r\n\r\n    modifier valid_address(address _address){\r\n        require(_address != address(0));\r\n        _;\r\n    }\r\n    //Setters-----------------------------------------------------------------------------------------------------------\r\n    function set_all_addresses(\r\n        address _dispatcher, address _distributor, address _client,\r\n        address _ai_queue, address _task_queue,\r\n        address _account, address _taskpool) ownerOnly public returns (bool){\r\n\r\n        set_dispatcher_address(_dispatcher);\r\n        set_distributor_address(_distributor);\r\n        set_client_address(_client);\r\n        set_ai_queue_address(_ai_queue);\r\n        set_task_queue_address(_task_queue);\r\n        set_account_address(_account);\r\n        set_taskpool_address(_taskpool);\r\n        AddressSet();\r\n        assert(account_address == _account);\r\n        return true;\r\n    }\r\n\r\n    event AddressSet();\r\n\r\n    modifier setter(){\r\n        require(msg.sender == owner || msg.sender == address(this));\r\n        _;\r\n    }\r\n\r\n    function set_dispatcher_address(address _address) valid_address(_address) setter public {\r\n        dispatcher_address = _address;\r\n        dispatcher = ControllerInterfaceAdmin(dispatcher_address);\r\n    }\r\n\r\n    function set_distributor_address(address _address) valid_address(_address) setter public {\r\n        distributor_address = _address;\r\n        distributor = ControllerInterfaceAdmin(distributor_address);\r\n    }\r\n\r\n    function set_client_address(address _address) valid_address(_address) setter public {\r\n        client_address = _address;\r\n        client = ControllerInterfaceAdmin(client_address);\r\n    }\r\n\r\n    function set_ai_queue_address(address _address) valid_address(_address) setter public {\r\n        queue_ai_address = _address;\r\n        queue_ai = QueueInterfaceAdmin(queue_ai_address);\r\n    }\r\n\r\n    function set_task_queue_address(address _address) valid_address(_address) setter public {\r\n        queue_task_address = _address;\r\n        queue_task = QueueInterfaceAdmin(queue_task_address);\r\n    }\r\n\r\n    function set_account_address(address _address) valid_address(_address) setter public {\r\n        account_address = _address;\r\n        account = AccountInterfaceAdmin(account_address);\r\n    }\r\n\r\n    function set_taskpool_address(address _address) valid_address(_address) setter public {\r\n        taskpool_address = _address;\r\n        taskpool = TaskPoolInterfaceAdmin(taskpool_address);\r\n    }\r\n\r\n    function ready_to_set_all() public returns (bool){\r\n        require(\r\n            dispatcher_address != address(0) && client_address != address(0) && distributor_address != address(0)\r\n            && queue_ai_address != address(0) && queue_task_address != address(0)\r\n            && account_address != address(0) && taskpool_address != address(0)\r\n        );\r\n        return true;\r\n    }\r\n    //@dev entry point\r\n    function set_all() ownerOnly public returns (bool){\r\n        require(ready_to_set_all());\r\n        assert(set_distributor() && set_dispatcher() && set_client()\r\n        && set_account() && set_queue_task() && set_queue_ai() && set_taskpool());\r\n        AddressesSetInAllContracts();\r\n        return true;\r\n    }\r\n\r\n    event AddressesSetInAllContracts();\r\n    //internal\r\n    function set_dispatcher() internal returns (bool){\r\n        return dispatcher.set_addresses(dispatcher_address, distributor_address, client_address, queue_ai_address, queue_task_address);\r\n    }\r\n\r\n    function set_distributor() internal returns (bool){\r\n        return distributor.set_addresses(dispatcher_address, distributor_address, client_address, taskpool_address, address(0));\r\n    }\r\n\r\n    function set_client() internal returns (bool){\r\n        return client.set_addresses(dispatcher_address, distributor_address, client_address, account_address, address(0));\r\n    }\r\n\r\n    function set_account() internal returns (bool){\r\n        return account.set_client(client_address);\r\n    }\r\n\r\n    function set_queue_ai() internal returns (bool){\r\n        return queue_ai.set_dispatcher(dispatcher_address);\r\n    }\r\n\r\n    function set_queue_task() internal returns (bool){\r\n        return queue_task.set_dispatcher(dispatcher_address);\r\n    }\r\n\r\n    function set_taskpool() internal returns (bool){\r\n        return taskpool.set_distributor(distributor_address);\r\n    }\r\n\r\n    ///@dev More administrator functions to be added\r\n    //function ban_client(address _client, bool _ban) owner_only public returns(bool);\r\n    //    function remove_task();\r\n    //    function remove_ai_from_queue();\r\n    //    function close_task();\r\n    //etc...\r\n}",
  "sourcePath": "C:\\Users\\tony\\WebstormProjects\\nebula-helix\\contract\\contracts\\helix1.1\\admin\\Admin.sol",
  "compiler": {
    "name": "solc",
    "version": "0.4.18+commit.9cf6e910.Emscripten.clang"
  },
  "schemaVersion": "1.0.1",
  "updatedAt": "2018-02-21T17:07:32.952Z"
}