{
  "contractName": "Client",
  "abi": [
    {
      "constant": true,
      "inputs": [],
      "name": "admin_loaded",
      "outputs": [
        {
          "name": "",
          "type": "bool"
        }
      ],
      "payable": false,
      "stateMutability": "view",
      "type": "function"
    },
    {
      "constant": false,
      "inputs": [
        {
          "name": "_owner",
          "type": "address"
        }
      ],
      "name": "change_owner",
      "outputs": [],
      "payable": false,
      "stateMutability": "nonpayable",
      "type": "function"
    },
    {
      "constant": true,
      "inputs": [],
      "name": "client_address",
      "outputs": [
        {
          "name": "",
          "type": "address"
        }
      ],
      "payable": false,
      "stateMutability": "view",
      "type": "function"
    },
    {
      "constant": true,
      "inputs": [],
      "name": "dispatcher_address",
      "outputs": [
        {
          "name": "",
          "type": "address"
        }
      ],
      "payable": false,
      "stateMutability": "view",
      "type": "function"
    },
    {
      "constant": true,
      "inputs": [],
      "name": "controller_ready",
      "outputs": [
        {
          "name": "",
          "type": "bool"
        }
      ],
      "payable": false,
      "stateMutability": "view",
      "type": "function"
    },
    {
      "constant": true,
      "inputs": [],
      "name": "account_address",
      "outputs": [
        {
          "name": "",
          "type": "address"
        }
      ],
      "payable": false,
      "stateMutability": "view",
      "type": "function"
    },
    {
      "constant": true,
      "inputs": [],
      "name": "owner",
      "outputs": [
        {
          "name": "",
          "type": "address"
        }
      ],
      "payable": false,
      "stateMutability": "view",
      "type": "function"
    },
    {
      "constant": true,
      "inputs": [],
      "name": "distributor_address",
      "outputs": [
        {
          "name": "",
          "type": "address"
        }
      ],
      "payable": false,
      "stateMutability": "view",
      "type": "function"
    },
    {
      "constant": false,
      "inputs": [
        {
          "name": "_admin",
          "type": "address"
        }
      ],
      "name": "set_admin",
      "outputs": [
        {
          "name": "",
          "type": "bool"
        }
      ],
      "payable": false,
      "stateMutability": "nonpayable",
      "type": "function"
    },
    {
      "constant": true,
      "inputs": [],
      "name": "admin_address",
      "outputs": [
        {
          "name": "",
          "type": "address"
        }
      ],
      "payable": false,
      "stateMutability": "view",
      "type": "function"
    },
    {
      "inputs": [
        {
          "name": "_admin",
          "type": "address"
        }
      ],
      "payable": false,
      "stateMutability": "nonpayable",
      "type": "constructor"
    },
    {
      "constant": false,
      "inputs": [
        {
          "name": "_dispatcher",
          "type": "address"
        },
        {
          "name": "_distributor",
          "type": "address"
        },
        {
          "name": "_client",
          "type": "address"
        },
        {
          "name": "_model",
          "type": "address"
        },
        {
          "name": "_task_queue",
          "type": "address"
        }
      ],
      "name": "set_addresses",
      "outputs": [
        {
          "name": "",
          "type": "bool"
        }
      ],
      "payable": false,
      "stateMutability": "nonpayable",
      "type": "function"
    },
    {
      "constant": true,
      "inputs": [
        {
          "name": "_address",
          "type": "address"
        }
      ],
      "name": "get_client",
      "outputs": [
        {
          "name": "_eligible",
          "type": "bool"
        },
        {
          "name": "_waiting",
          "type": "bool"
        },
        {
          "name": "_working",
          "type": "bool"
        },
        {
          "name": "_banned",
          "type": "bool"
        },
        {
          "name": "_misconduct_counter",
          "type": "uint8"
        },
        {
          "name": "_level",
          "type": "uint8"
        },
        {
          "name": "_submissible",
          "type": "bool"
        }
      ],
      "payable": false,
      "stateMutability": "view",
      "type": "function"
    },
    {
      "constant": true,
      "inputs": [
        {
          "name": "_address",
          "type": "address"
        }
      ],
      "name": "submissible",
      "outputs": [
        {
          "name": "",
          "type": "bool"
        }
      ],
      "payable": false,
      "stateMutability": "view",
      "type": "function"
    },
    {
      "constant": false,
      "inputs": [],
      "name": "apply_eligibility",
      "outputs": [
        {
          "name": "",
          "type": "bool"
        }
      ],
      "payable": false,
      "stateMutability": "nonpayable",
      "type": "function"
    },
    {
      "constant": false,
      "inputs": [
        {
          "name": "_client",
          "type": "address"
        },
        {
          "name": "_waiting",
          "type": "bool"
        }
      ],
      "name": "set_waiting",
      "outputs": [
        {
          "name": "",
          "type": "bool"
        }
      ],
      "payable": false,
      "stateMutability": "nonpayable",
      "type": "function"
    },
    {
      "constant": false,
      "inputs": [
        {
          "name": "_client",
          "type": "address"
        },
        {
          "name": "_working",
          "type": "bool"
        },
        {
          "name": "_task",
          "type": "address"
        }
      ],
      "name": "add_job",
      "outputs": [
        {
          "name": "",
          "type": "bool"
        }
      ],
      "payable": false,
      "stateMutability": "nonpayable",
      "type": "function"
    },
    {
      "constant": false,
      "inputs": [
        {
          "name": "_client",
          "type": "address"
        },
        {
          "name": "_banned",
          "type": "bool"
        }
      ],
      "name": "set_banned",
      "outputs": [
        {
          "name": "",
          "type": "bool"
        }
      ],
      "payable": false,
      "stateMutability": "nonpayable",
      "type": "function"
    },
    {
      "constant": false,
      "inputs": [
        {
          "name": "_client",
          "type": "address"
        },
        {
          "name": "_increase",
          "type": "bool"
        },
        {
          "name": "_amount",
          "type": "uint8"
        }
      ],
      "name": "set_misconduct_counter",
      "outputs": [
        {
          "name": "",
          "type": "uint8"
        }
      ],
      "payable": false,
      "stateMutability": "nonpayable",
      "type": "function"
    },
    {
      "constant": false,
      "inputs": [
        {
          "name": "_client",
          "type": "address"
        },
        {
          "name": "_level",
          "type": "uint8"
        }
      ],
      "name": "set_level",
      "outputs": [
        {
          "name": "",
          "type": "uint8"
        }
      ],
      "payable": false,
      "stateMutability": "nonpayable",
      "type": "function"
    },
    {
      "constant": false,
      "inputs": [
        {
          "name": "_client",
          "type": "address"
        },
        {
          "name": "_new",
          "type": "bool"
        },
        {
          "name": "_task",
          "type": "address"
        }
      ],
      "name": "add_task",
      "outputs": [
        {
          "name": "",
          "type": "bool"
        }
      ],
      "payable": false,
      "stateMutability": "nonpayable",
      "type": "function"
    },
    {
      "constant": false,
      "inputs": [
        {
          "name": "_worker",
          "type": "address"
        },
        {
          "name": "_working",
          "type": "bool"
        }
      ],
      "name": "set_working",
      "outputs": [
        {
          "name": "",
          "type": "bool"
        }
      ],
      "payable": false,
      "stateMutability": "nonpayable",
      "type": "function"
    },
    {
      "constant": true,
      "inputs": [],
      "name": "get_client_c",
      "outputs": [
        {
          "name": "_banned",
          "type": "bool"
        },
        {
          "name": "_misconduct_counter",
          "type": "uint8"
        },
        {
          "name": "_level",
          "type": "uint8"
        },
        {
          "name": "_submissible",
          "type": "bool"
        }
      ],
      "payable": false,
      "stateMutability": "view",
      "type": "function"
    },
    {
      "constant": true,
      "inputs": [],
      "name": "get_client_m",
      "outputs": [
        {
          "name": "_eligible",
          "type": "bool"
        },
        {
          "name": "_waiting",
          "type": "bool"
        },
        {
          "name": "_working",
          "type": "bool"
        },
        {
          "name": "_banned",
          "type": "bool"
        },
        {
          "name": "_misconduct_counter",
          "type": "uint8"
        }
      ],
      "payable": false,
      "stateMutability": "view",
      "type": "function"
    },
    {
      "constant": true,
      "inputs": [],
      "name": "active_job",
      "outputs": [
        {
          "name": "",
          "type": "address"
        }
      ],
      "payable": false,
      "stateMutability": "view",
      "type": "function"
    }
  ],
  "bytecode": "0x606060405234156200001057600080fd5b60405160208062002503833981016040528080519060200190919050503381818181806000806101000a81548173ffffffffffffffffffffffffffffffffffffffff021916908373ffffffffffffffffffffffffffffffffffffffff16021790555050600073ffffffffffffffffffffffffffffffffffffffff168173ffffffffffffffffffffffffffffffffffffffff16141515620000cb57620000c981620000d66401000000000262001c95176401000000009004565b505b505050505062000194565b60008060009054906101000a900473ffffffffffffffffffffffffffffffffffffffff1673ffffffffffffffffffffffffffffffffffffffff163373ffffffffffffffffffffffffffffffffffffffff161415156200013457600080fd5b81600160006101000a81548173ffffffffffffffffffffffffffffffffffffffff021916908373ffffffffffffffffffffffffffffffffffffffff16021790555060018060146101000a81548160ff021916908315150217905550919050565b61235f80620001a46000396000f30060606040526004361061013e576000357c0100000000000000000000000000000000000000000000000000000000900463ffffffff1680630a0abe5e146101435780631df2c6ab146101955780631ec43f33146101c25780632390c05014610217578063253c8bd4146102ae57806341a20d4a146102e75780634bf4e42114610343578063559670f8146103985780635841e6a7146103ed5780635dea93291461041a578063661be15714610476578063763525c3146104cb578063793908bb146104f857806388cc70ca146105735780638da5cb5b146105d25780639d63385e14610627578063b2ad35c0146106a2578063b62b0281146106f7578063e7e3cc4314610761578063e9333fab146107bc578063ea7058f31461080d578063ee7b16741461085e578063f2e627721461092b578063f6aad76814610980575b600080fd5b341561014e57600080fd5b6101566109dc565b60405180851515151581526020018460ff1660ff1681526020018360ff1660ff1681526020018215151515815260200194505050505060405180910390f35b34156101a057600080fd5b6101a8610b0e565b604051808215151515815260200191505060405180910390f35b34156101cd57600080fd5b6101d5610b21565b604051808273ffffffffffffffffffffffffffffffffffffffff1673ffffffffffffffffffffffffffffffffffffffff16815260200191505060405180910390f35b341561022257600080fd5b61024e600480803573ffffffffffffffffffffffffffffffffffffffff16906020019091905050610bd1565b60405180881515151581526020018715151515815260200186151515158152602001851515151581526020018460ff1660ff1681526020018360ff1660ff1681526020018215151515815260200197505050505050505060405180910390f35b34156102b957600080fd5b6102e5600480803573ffffffffffffffffffffffffffffffffffffffff16906020019091905050610d42565b005b34156102f257600080fd5b610329600480803573ffffffffffffffffffffffffffffffffffffffff169060200190919080351515906020019091905050610de0565b604051808215151515815260200191505060405180910390f35b341561034e57600080fd5b610356610f31565b604051808273ffffffffffffffffffffffffffffffffffffffff1673ffffffffffffffffffffffffffffffffffffffff16815260200191505060405180910390f35b34156103a357600080fd5b6103ab610f57565b604051808273ffffffffffffffffffffffffffffffffffffffff1673ffffffffffffffffffffffffffffffffffffffff16815260200191505060405180910390f35b34156103f857600080fd5b610400610f7d565b604051808215151515815260200191505060405180910390f35b341561042557600080fd5b61045c600480803573ffffffffffffffffffffffffffffffffffffffff169060200190919080351515906020019091905050610f90565b604051808215151515815260200191505060405180910390f35b341561048157600080fd5b610489611120565b604051808273ffffffffffffffffffffffffffffffffffffffff1673ffffffffffffffffffffffffffffffffffffffff16815260200191505060405180910390f35b34156104d657600080fd5b6104de611146565b604051808215151515815260200191505060405180910390f35b341561050357600080fd5b610559600480803573ffffffffffffffffffffffffffffffffffffffff16906020019091908035151590602001909190803573ffffffffffffffffffffffffffffffffffffffff169060200190919050506113b5565b604051808215151515815260200191505060405180910390f35b341561057e57600080fd5b6105b6600480803573ffffffffffffffffffffffffffffffffffffffff1690602001909190803560ff169060200190919050506115d2565b604051808260ff1660ff16815260200191505060405180910390f35b34156105dd57600080fd5b6105e5611764565b604051808273ffffffffffffffffffffffffffffffffffffffff1673ffffffffffffffffffffffffffffffffffffffff16815260200191505060405180910390f35b341561063257600080fd5b610688600480803573ffffffffffffffffffffffffffffffffffffffff16906020019091908035151590602001909190803573ffffffffffffffffffffffffffffffffffffffff16906020019091905050611789565b604051808215151515815260200191505060405180910390f35b34156106ad57600080fd5b6106b56119a6565b604051808273ffffffffffffffffffffffffffffffffffffffff1673ffffffffffffffffffffffffffffffffffffffff16815260200191505060405180910390f35b341561070257600080fd5b610745600480803573ffffffffffffffffffffffffffffffffffffffff16906020019091908035151590602001909190803560ff169060200190919050506119cc565b604051808260ff1660ff16815260200191505060405180910390f35b341561076c57600080fd5b610774611b6b565b60405180861515151581526020018515151515815260200184151515158152602001831515151581526020018260ff1660ff1681526020019550505050505060405180910390f35b34156107c757600080fd5b6107f3600480803573ffffffffffffffffffffffffffffffffffffffff16906020019091905050611c95565b604051808215151515815260200191505060405180910390f35b341561081857600080fd5b610844600480803573ffffffffffffffffffffffffffffffffffffffff16906020019091905050611d52565b604051808215151515815260200191505060405180910390f35b341561086957600080fd5b610911600480803573ffffffffffffffffffffffffffffffffffffffff1690602001909190803573ffffffffffffffffffffffffffffffffffffffff1690602001909190803573ffffffffffffffffffffffffffffffffffffffff1690602001909190803573ffffffffffffffffffffffffffffffffffffffff1690602001909190803573ffffffffffffffffffffffffffffffffffffffff16906020019091905050611e3b565b604051808215151515815260200191505060405180910390f35b341561093657600080fd5b61093e612038565b604051808273ffffffffffffffffffffffffffffffffffffffff1673ffffffffffffffffffffffffffffffffffffffff16815260200191505060405180910390f35b341561098b57600080fd5b6109c2600480803573ffffffffffffffffffffffffffffffffffffffff16906020019091908035151590602001909190505061205e565b604051808215151515815260200191505060405180910390f35b600080600080600660009054906101000a900473ffffffffffffffffffffffffffffffffffffffff1673ffffffffffffffffffffffffffffffffffffffff16632390c05033600060405160e001526040518263ffffffff167c0100000000000000000000000000000000000000000000000000000000028152600401808273ffffffffffffffffffffffffffffffffffffffff1673ffffffffffffffffffffffffffffffffffffffff16815260200191505060e060405180830381600087803b1515610aa757600080fd5b6102c65a03f11515610ab857600080fd5b505050604051805190602001805190602001805190602001805190602001805190602001805190602001805190509091929394955090919293945090919293508094508195508296508397505050505090919293565b600160149054906101000a900460ff1681565b6000600660009054906101000a900473ffffffffffffffffffffffffffffffffffffffff1673ffffffffffffffffffffffffffffffffffffffff16631ec43f336000604051602001526040518163ffffffff167c0100000000000000000000000000000000000000000000000000000000028152600401602060405180830381600087803b1515610bb157600080fd5b6102c65a03f11515610bc257600080fd5b50505060405180519050905090565b60008060008060008060008073ffffffffffffffffffffffffffffffffffffffff168873ffffffffffffffffffffffffffffffffffffffff1614151515610c1757600080fd5b600660009054906101000a900473ffffffffffffffffffffffffffffffffffffffff1673ffffffffffffffffffffffffffffffffffffffff16632390c05089600060405160e001526040518263ffffffff167c0100000000000000000000000000000000000000000000000000000000028152600401808273ffffffffffffffffffffffffffffffffffffffff1673ffffffffffffffffffffffffffffffffffffffff16815260200191505060e060405180830381600087803b1515610cdc57600080fd5b6102c65a03f11515610ced57600080fd5b50505060405180519060200180519060200180519060200180519060200180519060200180519060200180519050809750819850829950839a50849b50859c50869d5050505050505050919395979092949650565b6000809054906101000a900473ffffffffffffffffffffffffffffffffffffffff1673ffffffffffffffffffffffffffffffffffffffff163373ffffffffffffffffffffffffffffffffffffffff16141515610d9d57600080fd5b806000806101000a81548173ffffffffffffffffffffffffffffffffffffffff021916908373ffffffffffffffffffffffffffffffffffffffff16021790555050565b60003373ffffffffffffffffffffffffffffffffffffffff16600360009054906101000a900473ffffffffffffffffffffffffffffffffffffffff1673ffffffffffffffffffffffffffffffffffffffff16141515610e3e57600080fd5b600660009054906101000a900473ffffffffffffffffffffffffffffffffffffffff1673ffffffffffffffffffffffffffffffffffffffff166341a20d4a84846000604051602001526040518363ffffffff167c0100000000000000000000000000000000000000000000000000000000028152600401808373ffffffffffffffffffffffffffffffffffffffff1673ffffffffffffffffffffffffffffffffffffffff1681526020018215151515815260200192505050602060405180830381600087803b1515610f0f57600080fd5b6102c65a03f11515610f2057600080fd5b505050604051805190505092915050565b600460009054906101000a900473ffffffffffffffffffffffffffffffffffffffff1681565b600260009054906101000a900473ffffffffffffffffffffffffffffffffffffffff1681565b600160159054906101000a900460ff1681565b600082600073ffffffffffffffffffffffffffffffffffffffff168173ffffffffffffffffffffffffffffffffffffffff1614151515610fcf57600080fd5b3373ffffffffffffffffffffffffffffffffffffffff16600260009054906101000a900473ffffffffffffffffffffffffffffffffffffffff1673ffffffffffffffffffffffffffffffffffffffff1614151561102b57600080fd5b600660009054906101000a900473ffffffffffffffffffffffffffffffffffffffff1673ffffffffffffffffffffffffffffffffffffffff16635dea932985856000604051602001526040518363ffffffff167c0100000000000000000000000000000000000000000000000000000000028152600401808373ffffffffffffffffffffffffffffffffffffffff1673ffffffffffffffffffffffffffffffffffffffff1681526020018215151515815260200192505050602060405180830381600087803b15156110fc57600080fd5b6102c65a03f1151561110d57600080fd5b5050506040518051905091505092915050565b600560009054906101000a900473ffffffffffffffffffffffffffffffffffffffff1681565b6000806000806000600160159054906101000a900460ff16151561116957600080fd5b600660009054906101000a900473ffffffffffffffffffffffffffffffffffffffff1673ffffffffffffffffffffffffffffffffffffffff16632390c05033600060405160e001526040518263ffffffff167c0100000000000000000000000000000000000000000000000000000000028152600401808273ffffffffffffffffffffffffffffffffffffffff1673ffffffffffffffffffffffffffffffffffffffff16815260200191505060e060405180830381600087803b151561122e57600080fd5b6102c65a03f1151561123f57600080fd5b50505060405180519060200180519060200180519060200180519060200180519060200180519060200180519050909150905050809750819450829550839650505050508315801561128f575082155b8015611299575081155b80156112a3575080155b15156112ae57600080fd5b60011515600660009054906101000a900473ffffffffffffffffffffffffffffffffffffffff1673ffffffffffffffffffffffffffffffffffffffff16630fb42cfa3360016000604051602001526040518363ffffffff167c0100000000000000000000000000000000000000000000000000000000028152600401808373ffffffffffffffffffffffffffffffffffffffff1673ffffffffffffffffffffffffffffffffffffffff1681526020018215151515815260200192505050602060405180830381600087803b151561138457600080fd5b6102c65a03f1151561139557600080fd5b5050506040518051905015151415156113aa57fe5b600194505050505090565b600083600073ffffffffffffffffffffffffffffffffffffffff168173ffffffffffffffffffffffffffffffffffffffff16141515156113f457600080fd5b600260009054906101000a900473ffffffffffffffffffffffffffffffffffffffff1673ffffffffffffffffffffffffffffffffffffffff163373ffffffffffffffffffffffffffffffffffffffff16148061149d5750600360009054906101000a900473ffffffffffffffffffffffffffffffffffffffff1673ffffffffffffffffffffffffffffffffffffffff163373ffffffffffffffffffffffffffffffffffffffff16145b15156114a857600080fd5b600660009054906101000a900473ffffffffffffffffffffffffffffffffffffffff1673ffffffffffffffffffffffffffffffffffffffff1663793908bb8686866000604051602001526040518463ffffffff167c0100000000000000000000000000000000000000000000000000000000028152600401808473ffffffffffffffffffffffffffffffffffffffff1673ffffffffffffffffffffffffffffffffffffffff168152602001831515151581526020018273ffffffffffffffffffffffffffffffffffffffff1673ffffffffffffffffffffffffffffffffffffffff1681526020019350505050602060405180830381600087803b15156115ad57600080fd5b6102c65a03f115156115be57600080fd5b505050604051805190509150509392505050565b600082600073ffffffffffffffffffffffffffffffffffffffff168173ffffffffffffffffffffffffffffffffffffffff161415151561161157600080fd5b3373ffffffffffffffffffffffffffffffffffffffff16600260009054906101000a900473ffffffffffffffffffffffffffffffffffffffff1673ffffffffffffffffffffffffffffffffffffffff1614151561166d57600080fd5b600660009054906101000a900473ffffffffffffffffffffffffffffffffffffffff1673ffffffffffffffffffffffffffffffffffffffff166388cc70ca85856000604051602001526040518363ffffffff167c0100000000000000000000000000000000000000000000000000000000028152600401808373ffffffffffffffffffffffffffffffffffffffff1673ffffffffffffffffffffffffffffffffffffffff1681526020018260ff1660ff16815260200192505050602060405180830381600087803b151561174057600080fd5b6102c65a03f1151561175157600080fd5b5050506040518051905091505092915050565b6000809054906101000a900473ffffffffffffffffffffffffffffffffffffffff1681565b600083600073ffffffffffffffffffffffffffffffffffffffff168173ffffffffffffffffffffffffffffffffffffffff16141515156117c857600080fd5b600260009054906101000a900473ffffffffffffffffffffffffffffffffffffffff1673ffffffffffffffffffffffffffffffffffffffff163373ffffffffffffffffffffffffffffffffffffffff1614806118715750600360009054906101000a900473ffffffffffffffffffffffffffffffffffffffff1673ffffffffffffffffffffffffffffffffffffffff163373ffffffffffffffffffffffffffffffffffffffff16145b151561187c57600080fd5b600660009054906101000a900473ffffffffffffffffffffffffffffffffffffffff1673ffffffffffffffffffffffffffffffffffffffff16639d63385e8686866000604051602001526040518463ffffffff167c0100000000000000000000000000000000000000000000000000000000028152600401808473ffffffffffffffffffffffffffffffffffffffff1673ffffffffffffffffffffffffffffffffffffffff168152602001831515151581526020018273ffffffffffffffffffffffffffffffffffffffff1673ffffffffffffffffffffffffffffffffffffffff1681526020019350505050602060405180830381600087803b151561198157600080fd5b6102c65a03f1151561199257600080fd5b505050604051805190509150509392505050565b600360009054906101000a900473ffffffffffffffffffffffffffffffffffffffff1681565b600083600073ffffffffffffffffffffffffffffffffffffffff168173ffffffffffffffffffffffffffffffffffffffff1614151515611a0b57600080fd5b3373ffffffffffffffffffffffffffffffffffffffff16600260009054906101000a900473ffffffffffffffffffffffffffffffffffffffff1673ffffffffffffffffffffffffffffffffffffffff16141515611a6757600080fd5b600660009054906101000a900473ffffffffffffffffffffffffffffffffffffffff1673ffffffffffffffffffffffffffffffffffffffff1663b62b02818686866000604051602001526040518463ffffffff167c0100000000000000000000000000000000000000000000000000000000028152600401808473ffffffffffffffffffffffffffffffffffffffff1673ffffffffffffffffffffffffffffffffffffffff168152602001831515151581526020018260ff1660ff1681526020019350505050602060405180830381600087803b1515611b4657600080fd5b6102c65a03f11515611b5757600080fd5b505050604051805190509150509392505050565b6000806000806000600660009054906101000a900473ffffffffffffffffffffffffffffffffffffffff1673ffffffffffffffffffffffffffffffffffffffff16632390c05033600060405160e001526040518263ffffffff167c0100000000000000000000000000000000000000000000000000000000028152600401808273ffffffffffffffffffffffffffffffffffffffff1673ffffffffffffffffffffffffffffffffffffffff16815260200191505060e060405180830381600087803b1515611c3857600080fd5b6102c65a03f11515611c4957600080fd5b5050506040518051906020018051906020018051906020018051906020018051906020018051906020018051905090505080955081965082975083985084995050505050509091929394565b60008060009054906101000a900473ffffffffffffffffffffffffffffffffffffffff1673ffffffffffffffffffffffffffffffffffffffff163373ffffffffffffffffffffffffffffffffffffffff16141515611cf257600080fd5b81600160006101000a81548173ffffffffffffffffffffffffffffffffffffffff021916908373ffffffffffffffffffffffffffffffffffffffff16021790555060018060146101000a81548160ff021916908315150217905550919050565b6000600660009054906101000a900473ffffffffffffffffffffffffffffffffffffffff1673ffffffffffffffffffffffffffffffffffffffff1663ea7058f3836000604051602001526040518263ffffffff167c0100000000000000000000000000000000000000000000000000000000028152600401808273ffffffffffffffffffffffffffffffffffffffff1673ffffffffffffffffffffffffffffffffffffffff168152602001915050602060405180830381600087803b1515611e1957600080fd5b6102c65a03f11515611e2a57600080fd5b505050604051805190509050919050565b6000600160009054906101000a900473ffffffffffffffffffffffffffffffffffffffff1673ffffffffffffffffffffffffffffffffffffffff163373ffffffffffffffffffffffffffffffffffffffff16141515611e9957600080fd5b611ea686868686866121ee565b5082600560006101000a81548173ffffffffffffffffffffffffffffffffffffffff021916908373ffffffffffffffffffffffffffffffffffffffff160217905550600560009054906101000a900473ffffffffffffffffffffffffffffffffffffffff16600660006101000a81548173ffffffffffffffffffffffffffffffffffffffff021916908373ffffffffffffffffffffffffffffffffffffffff160217905550600360009054906101000a900473ffffffffffffffffffffffffffffffffffffffff16600760006101000a81548173ffffffffffffffffffffffffffffffffffffffff021916908373ffffffffffffffffffffffffffffffffffffffff160217905550600260009054906101000a900473ffffffffffffffffffffffffffffffffffffffff16600860006101000a81548173ffffffffffffffffffffffffffffffffffffffff021916908373ffffffffffffffffffffffffffffffffffffffff16021790555060018060156101000a81548160ff0219169083151502179055506001905095945050505050565b600160009054906101000a900473ffffffffffffffffffffffffffffffffffffffff1681565b600082600073ffffffffffffffffffffffffffffffffffffffff168173ffffffffffffffffffffffffffffffffffffffff161415151561209d57600080fd5b3373ffffffffffffffffffffffffffffffffffffffff16600260009054906101000a900473ffffffffffffffffffffffffffffffffffffffff1673ffffffffffffffffffffffffffffffffffffffff161415156120f957600080fd5b600660009054906101000a900473ffffffffffffffffffffffffffffffffffffffff1673ffffffffffffffffffffffffffffffffffffffff1663f6aad76885856000604051602001526040518363ffffffff167c0100000000000000000000000000000000000000000000000000000000028152600401808373ffffffffffffffffffffffffffffffffffffffff1673ffffffffffffffffffffffffffffffffffffffff1681526020018215151515815260200192505050602060405180830381600087803b15156121ca57600080fd5b6102c65a03f115156121db57600080fd5b5050506040518051905091505092915050565b6000600160009054906101000a900473ffffffffffffffffffffffffffffffffffffffff1673ffffffffffffffffffffffffffffffffffffffff163373ffffffffffffffffffffffffffffffffffffffff1614151561224c57600080fd5b600160149054906101000a900460ff16151561226757600080fd5b85600260006101000a81548173ffffffffffffffffffffffffffffffffffffffff021916908373ffffffffffffffffffffffffffffffffffffffff16021790555084600360006101000a81548173ffffffffffffffffffffffffffffffffffffffff021916908373ffffffffffffffffffffffffffffffffffffffff16021790555083600460006101000a81548173ffffffffffffffffffffffffffffffffffffffff021916908373ffffffffffffffffffffffffffffffffffffffff160217905550959450505050505600a165627a7a72305820962916b946312537bba3a9531863b4b58e957b465de4ffaf87fbfd44a03fe0f70029",
  "source": "pragma solidity ^0.4.18;\r\n\r\nimport \"../misc/SafeMath.sol\";\r\nimport \"../ownership/Controllable.sol\";\r\n\r\nimport \"../interface/model/Account_Interface.sol\";\r\n\r\nimport \"../interface/client/Client_Interface_dispatcher.sol\";\r\nimport \"../interface/client/Client_Interface_distributor.sol\";\r\nimport \"../interface/client/Client_Interface_submitter.sol\";\r\nimport \"../interface/client/Client_Interface_miner.sol\";\r\n\r\nimport \"../interface/distributor/Distributor_Interface_client.sol\";\r\nimport \"../interface/dispatcher/Dispatcher_Interface_client.sol\";\r\n\r\n///@dev logic should be added\r\ncontract Client is Controllable,\r\nClientInterfaceSubmitter, ClientInterfaceMiner, ClientInterfaceDispatcher, ClientInterfaceDistributor\r\n{\r\n    address public account_address;\r\n    AccountInterface account;\r\n\r\n    DistributorInterfaceClient distributor;\r\n    DispatcherInterfaceClient dispatcher;\r\n\r\n    function Client(address _admin) public Controllable(msg.sender, _admin) {}\r\n\r\n    modifier valid_client(address _address){\r\n        require(_address != address(0));\r\n        _;\r\n    }\r\n\r\n    //Admin Interface\r\n    function set_addresses(address _dispatcher, address _distributor, address _client, address _model, address _task_queue) admin_only public returns (bool){\r\n        super.set_addresses(_dispatcher, _distributor, _client, _model, _task_queue);\r\n\r\n        account_address = _model;\r\n        account = AccountInterface(account_address);\r\n\r\n        distributor = DistributorInterfaceClient(distributor_address);\r\n        dispatcher = DispatcherInterfaceClient(dispatcher_address);\r\n\r\n        controller_ready = true;\r\n        //todo add a checker function\r\n        return true;\r\n    }\r\n\r\n    //dispatcher Interface\r\n    function get_client(address _address) view public returns (\r\n        bool _eligible,\r\n        bool _waiting,\r\n        bool _working,\r\n        bool _banned,\r\n        uint8 _misconduct_counter,\r\n        uint8 _level,\r\n        bool _submissible)\r\n    {\r\n        require(_address != address(0));\r\n        (_eligible, _waiting, _working, _banned, _misconduct_counter, _level, _submissible) = account.get_client(_address);\r\n    }\r\n    ///@dev getter\r\n    function submissible(address _address) view public returns (bool){\r\n        return account.submissible(_address);\r\n    }\r\n\r\n    ///@dev entry point\r\n    function apply_eligibility() Ready public returns (bool){\r\n        bool _banned;\r\n        bool _eligible;\r\n        bool _waiting;\r\n        bool _working;\r\n        (_eligible, _waiting, _working, _banned, , ,) = account.get_client(msg.sender);\r\n        require(!_banned && !_eligible && !_waiting && !_working);\r\n        assert(account.set_eligible(msg.sender, true) == true);\r\n        return true;\r\n    }\r\n\r\n    ///@dev intermediate\r\n    function set_waiting(address _client, bool _waiting) valid_client(_client) dispatcher_only public returns (bool){\r\n        return account.set_waiting(_client, _waiting);\r\n    }\r\n    ///@dev intermediate\r\n    function add_job(address _client, bool _working, address _task) valid_client(_client) public returns (bool){\r\n        require(msg.sender == dispatcher_address || msg.sender == distributor_address);\r\n        return account.add_job(_client, _working, _task);\r\n    }\r\n    ///@dev intermediate\r\n    function set_banned(address _client, bool _banned) valid_client(_client) dispatcher_only public returns (bool){\r\n        return account.set_banned(_client, _banned);\r\n    }\r\n    ///@dev intermediate\r\n    function set_misconduct_counter(address _client, bool _increase, uint8 _amount) valid_client(_client) dispatcher_only public returns (uint8){\r\n        return account.set_misconduct_counter(_client, _increase, _amount);\r\n    }\r\n    ///@dev intermediate\r\n    function set_level(address _client, uint8 _level) valid_client(_client) dispatcher_only public returns (uint8){\r\n        return account.set_level(_client, _level);\r\n    }\r\n    ///@dev intermediate\r\n    function add_task(address _client, bool _new, address _task) valid_client(_client) public returns (bool){\r\n        require(msg.sender == dispatcher_address || msg.sender == distributor_address);\r\n        return account.add_task(_client, _new, _task);\r\n    }\r\n\r\n    //Distributor\r\n    function set_working(address _worker, bool _working) distributor_only public returns (bool){\r\n        account.set_working(_worker, _working);\r\n        return;\r\n    }\r\n\r\n    //submitter Interface\r\n    ///@dev getter\r\n    function get_client_c() view public returns (\r\n        bool _banned,\r\n        uint8 _misconduct_counter,\r\n        uint8 _level,\r\n        bool _submissible\r\n    ){\r\n        (, , , _banned, _misconduct_counter, _level, _submissible) = account.get_client(msg.sender);\r\n    }\r\n\r\n    //Miner Interface\r\n    ///@dev getter\r\n    function get_client_m() view public returns\r\n    (\r\n        bool _eligible,\r\n        bool _waiting,\r\n        bool _working,\r\n        bool _banned,\r\n        uint8 _misconduct_counter\r\n    ){\r\n        (_eligible, _waiting, _working, _banned, _misconduct_counter, , ) = account.get_client(msg.sender);\r\n    }\r\n    ///@dev getter\r\n    function active_job() view public returns (address){\r\n        return account.active_job();\r\n    }\r\n}\r\n",
  "sourcePath": "C:\\Users\\tongp\\WebstormProjects\\wormhole\\contract\\contracts\\helix1.1\\controller\\Client.sol",
  "compiler": {
    "name": "solc",
    "version": "0.4.19+commit.c4cbbb05.Emscripten.clang"
  },
  "schemaVersion": "1.0.1",
  "updatedAt": "2018-02-13T17:43:19.567Z"
}