{
  "contractName": "Client",
  "abi": [
    {
      "constant": true,
      "inputs": [],
      "name": "get_client_c",
      "outputs": [
        {
          "name": "_banned",
          "type": "bool"
        },
        {
          "name": "_misconduct_counter",
          "type": "uint8"
        },
        {
          "name": "_level",
          "type": "uint8"
        }
      ],
      "payable": false,
      "stateMutability": "view",
      "type": "function"
    },
    {
      "constant": false,
      "inputs": [
        {
          "name": "_client",
          "type": "address"
        },
        {
          "name": "_new",
          "type": "bool"
        },
        {
          "name": "_task",
          "type": "address"
        },
        {
          "name": "_app_id",
          "type": "uint256"
        }
      ],
      "name": "add_task",
      "outputs": [
        {
          "name": "",
          "type": "bool"
        }
      ],
      "payable": false,
      "stateMutability": "nonpayable",
      "type": "function"
    },
    {
      "constant": true,
      "inputs": [
        {
          "name": "_address",
          "type": "address"
        },
        {
          "name": "_app_id",
          "type": "uint256"
        }
      ],
      "name": "submissible",
      "outputs": [
        {
          "name": "",
          "type": "bool"
        }
      ],
      "payable": false,
      "stateMutability": "view",
      "type": "function"
    },
    {
      "constant": true,
      "inputs": [],
      "name": "penalty",
      "outputs": [
        {
          "name": "",
          "type": "uint256"
        }
      ],
      "payable": false,
      "stateMutability": "view",
      "type": "function"
    },
    {
      "constant": true,
      "inputs": [],
      "name": "admin_loaded",
      "outputs": [
        {
          "name": "",
          "type": "bool"
        }
      ],
      "payable": false,
      "stateMutability": "view",
      "type": "function"
    },
    {
      "constant": true,
      "inputs": [
        {
          "name": "_address",
          "type": "address"
        }
      ],
      "name": "get_client",
      "outputs": [
        {
          "name": "_eligible",
          "type": "bool"
        },
        {
          "name": "_waiting",
          "type": "bool"
        },
        {
          "name": "_working",
          "type": "bool"
        },
        {
          "name": "_banned",
          "type": "bool"
        },
        {
          "name": "_misconduct_counter",
          "type": "uint8"
        },
        {
          "name": "_level",
          "type": "uint8"
        }
      ],
      "payable": false,
      "stateMutability": "view",
      "type": "function"
    },
    {
      "constant": false,
      "inputs": [
        {
          "name": "_owner",
          "type": "address"
        }
      ],
      "name": "change_owner",
      "outputs": [],
      "payable": false,
      "stateMutability": "nonpayable",
      "type": "function"
    },
    {
      "constant": false,
      "inputs": [],
      "name": "invalidate_contract",
      "outputs": [
        {
          "name": "",
          "type": "bool"
        }
      ],
      "payable": false,
      "stateMutability": "nonpayable",
      "type": "function"
    },
    {
      "constant": true,
      "inputs": [],
      "name": "minimal_credit",
      "outputs": [
        {
          "name": "",
          "type": "uint256"
        }
      ],
      "payable": false,
      "stateMutability": "view",
      "type": "function"
    },
    {
      "constant": true,
      "inputs": [],
      "name": "client_address",
      "outputs": [
        {
          "name": "",
          "type": "address"
        }
      ],
      "payable": false,
      "stateMutability": "view",
      "type": "function"
    },
    {
      "constant": true,
      "inputs": [],
      "name": "dispatcher_address",
      "outputs": [
        {
          "name": "",
          "type": "address"
        }
      ],
      "payable": false,
      "stateMutability": "view",
      "type": "function"
    },
    {
      "constant": true,
      "inputs": [],
      "name": "controller_ready",
      "outputs": [
        {
          "name": "",
          "type": "bool"
        }
      ],
      "payable": false,
      "stateMutability": "view",
      "type": "function"
    },
    {
      "constant": false,
      "inputs": [
        {
          "name": "_client",
          "type": "address"
        },
        {
          "name": "_waiting",
          "type": "bool"
        }
      ],
      "name": "set_waiting",
      "outputs": [
        {
          "name": "",
          "type": "bool"
        }
      ],
      "payable": false,
      "stateMutability": "nonpayable",
      "type": "function"
    },
    {
      "constant": false,
      "inputs": [],
      "name": "apply_eligibility",
      "outputs": [
        {
          "name": "",
          "type": "bool"
        }
      ],
      "payable": true,
      "stateMutability": "payable",
      "type": "function"
    },
    {
      "constant": false,
      "inputs": [
        {
          "name": "_client",
          "type": "address"
        },
        {
          "name": "_working",
          "type": "bool"
        },
        {
          "name": "_task",
          "type": "address"
        }
      ],
      "name": "add_job",
      "outputs": [
        {
          "name": "",
          "type": "bool"
        }
      ],
      "payable": false,
      "stateMutability": "nonpayable",
      "type": "function"
    },
    {
      "constant": false,
      "inputs": [
        {
          "name": "_amount",
          "type": "uint256"
        }
      ],
      "name": "withdrawal",
      "outputs": [
        {
          "name": "",
          "type": "uint256"
        }
      ],
      "payable": false,
      "stateMutability": "nonpayable",
      "type": "function"
    },
    {
      "constant": false,
      "inputs": [
        {
          "name": "_client",
          "type": "address"
        },
        {
          "name": "_level",
          "type": "uint8"
        }
      ],
      "name": "set_level",
      "outputs": [
        {
          "name": "",
          "type": "uint8"
        }
      ],
      "payable": false,
      "stateMutability": "nonpayable",
      "type": "function"
    },
    {
      "constant": true,
      "inputs": [],
      "name": "owner",
      "outputs": [
        {
          "name": "",
          "type": "address"
        }
      ],
      "payable": false,
      "stateMutability": "view",
      "type": "function"
    },
    {
      "constant": true,
      "inputs": [],
      "name": "owner_get_balance",
      "outputs": [
        {
          "name": "",
          "type": "uint256"
        }
      ],
      "payable": false,
      "stateMutability": "view",
      "type": "function"
    },
    {
      "constant": true,
      "inputs": [],
      "name": "get_credits",
      "outputs": [
        {
          "name": "",
          "type": "uint256"
        }
      ],
      "payable": false,
      "stateMutability": "view",
      "type": "function"
    },
    {
      "constant": true,
      "inputs": [],
      "name": "distributor_address",
      "outputs": [
        {
          "name": "",
          "type": "address"
        }
      ],
      "payable": false,
      "stateMutability": "view",
      "type": "function"
    },
    {
      "constant": false,
      "inputs": [
        {
          "name": "_amount",
          "type": "uint256"
        }
      ],
      "name": "owner_withdraw",
      "outputs": [
        {
          "name": "",
          "type": "uint256"
        }
      ],
      "payable": false,
      "stateMutability": "nonpayable",
      "type": "function"
    },
    {
      "constant": true,
      "inputs": [],
      "name": "valid",
      "outputs": [
        {
          "name": "",
          "type": "bool"
        }
      ],
      "payable": false,
      "stateMutability": "view",
      "type": "function"
    },
    {
      "constant": true,
      "inputs": [],
      "name": "get_client_m",
      "outputs": [
        {
          "name": "_eligible",
          "type": "bool"
        },
        {
          "name": "_waiting",
          "type": "bool"
        },
        {
          "name": "_working",
          "type": "bool"
        },
        {
          "name": "_banned",
          "type": "bool"
        },
        {
          "name": "_misconduct_counter",
          "type": "uint8"
        }
      ],
      "payable": false,
      "stateMutability": "view",
      "type": "function"
    },
    {
      "constant": false,
      "inputs": [
        {
          "name": "_admin",
          "type": "address"
        }
      ],
      "name": "set_admin",
      "outputs": [
        {
          "name": "",
          "type": "bool"
        }
      ],
      "payable": false,
      "stateMutability": "nonpayable",
      "type": "function"
    },
    {
      "constant": false,
      "inputs": [
        {
          "name": "_dispatcher",
          "type": "address"
        },
        {
          "name": "_distributor",
          "type": "address"
        },
        {
          "name": "_client",
          "type": "address"
        },
        {
          "name": "_model",
          "type": "address"
        },
        {
          "name": "_task_queue",
          "type": "address"
        }
      ],
      "name": "set_addresses",
      "outputs": [
        {
          "name": "",
          "type": "bool"
        }
      ],
      "payable": false,
      "stateMutability": "nonpayable",
      "type": "function"
    },
    {
      "constant": true,
      "inputs": [],
      "name": "admin_address",
      "outputs": [
        {
          "name": "",
          "type": "address"
        }
      ],
      "payable": false,
      "stateMutability": "view",
      "type": "function"
    },
    {
      "constant": false,
      "inputs": [
        {
          "name": "_client",
          "type": "address"
        },
        {
          "name": "_banned",
          "type": "bool"
        }
      ],
      "name": "set_banned",
      "outputs": [
        {
          "name": "",
          "type": "bool"
        }
      ],
      "payable": false,
      "stateMutability": "nonpayable",
      "type": "function"
    },
    {
      "constant": false,
      "inputs": [
        {
          "name": "_worker",
          "type": "address"
        },
        {
          "name": "_client",
          "type": "address"
        }
      ],
      "name": "pay_penalty",
      "outputs": [
        {
          "name": "",
          "type": "bool"
        }
      ],
      "payable": false,
      "stateMutability": "nonpayable",
      "type": "function"
    },
    {
      "inputs": [
        {
          "name": "_admin",
          "type": "address"
        }
      ],
      "payable": false,
      "stateMutability": "nonpayable",
      "type": "constructor"
    },
    {
      "payable": false,
      "stateMutability": "nonpayable",
      "type": "fallback"
    }
  ],
  "bytecode": "0x6060604052674563918244f400006009556200005960086200003c600a600954620001546401000000000262003159179091906401000000009004565b62000199640100000000026200311e179091906401000000009004565b600a5567d02ab486cedc0000600b5534156200007457600080fd5b6040516020806200346c833981016040528080519060200190919050503381818181806000806101000a81548173ffffffffffffffffffffffffffffffffffffffff021916908373ffffffffffffffffffffffffffffffffffffffff1602179055505060018060166101000a81548160ff021916908315150217905550600073ffffffffffffffffffffffffffffffffffffffff168173ffffffffffffffffffffffffffffffffffffffff1614151562000149576200014781620001d86401000000000262002432176401000000009004565b505b505050505062000296565b6000806000831115156200016457fe5b82848115156200017057fe5b04905082848115156200017f57fe5b0681840201841415156200018f57fe5b8091505092915050565b6000806000841415620001b05760009150620001d1565b8284029050828482811515620001c257fe5b04141515620001cd57fe5b8091505b5092915050565b60008060009054906101000a900473ffffffffffffffffffffffffffffffffffffffff1673ffffffffffffffffffffffffffffffffffffffff163373ffffffffffffffffffffffffffffffffffffffff161415156200023657600080fd5b81600160006101000a81548173ffffffffffffffffffffffffffffffffffffffff021916908373ffffffffffffffffffffffffffffffffffffffff16021790555060018060146101000a81548160ff021916908315150217905550919050565b6131c680620002a66000396000f300606060405260043610610175576000357c0100000000000000000000000000000000000000000000000000000000900463ffffffff1680630a0abe5e146101855780630cf75c34146101cc5780630d57874f146102505780630edd2ffc146102aa5780631df2c6ab146102d35780632390c05014610300578063253c8bd41461038c57806332506300146103c557806334e94b16146103f25780634bf4e4211461041b578063559670f8146104705780635841e6a7146104c55780635dea9329146104f2578063763525c31461054e578063793908bb14610570578063835fc6ca146105eb57806388cc70ca146106225780638da5cb5b1461068157806399572a20146106d6578063a5774dfb146106ff578063b2ad35c014610728578063b33926cb1461077d578063c1991219146107b4578063e7e3cc43146107e1578063e9333fab1461083c578063ee7b16741461088d578063f2e627721461095a578063f6aad768146109af578063fe08814f14610a0b575b341561018057600080fd5b600080fd5b341561019057600080fd5b610198610a7b565b60405180841515151581526020018360ff1660ff1681526020018260ff1660ff168152602001935050505060405180910390f35b34156101d757600080fd5b610236600480803573ffffffffffffffffffffffffffffffffffffffff16906020019091908035151590602001909190803573ffffffffffffffffffffffffffffffffffffffff16906020019091908035906020019091905050610b9e565b604051808215151515815260200191505060405180910390f35b341561025b57600080fd5b610290600480803573ffffffffffffffffffffffffffffffffffffffff16906020019091908035906020019091905050610e8d565b604051808215151515815260200191505060405180910390f35b34156102b557600080fd5b6102bd610f7f565b6040518082815260200191505060405180910390f35b34156102de57600080fd5b6102e6610f85565b604051808215151515815260200191505060405180910390f35b341561030b57600080fd5b610337600480803573ffffffffffffffffffffffffffffffffffffffff16906020019091905050610f98565b60405180871515151581526020018615151515815260200185151515158152602001841515151581526020018360ff1660ff1681526020018260ff1660ff168152602001965050505050505060405180910390f35b341561039757600080fd5b6103c3600480803573ffffffffffffffffffffffffffffffffffffffff169060200190919050506110fc565b005b34156103d057600080fd5b6103d861119a565b604051808215151515815260200191505060405180910390f35b34156103fd57600080fd5b610405611215565b6040518082815260200191505060405180910390f35b341561042657600080fd5b61042e61121b565b604051808273ffffffffffffffffffffffffffffffffffffffff1673ffffffffffffffffffffffffffffffffffffffff16815260200191505060405180910390f35b341561047b57600080fd5b610483611241565b604051808273ffffffffffffffffffffffffffffffffffffffff1673ffffffffffffffffffffffffffffffffffffffff16815260200191505060405180910390f35b34156104d057600080fd5b6104d8611267565b604051808215151515815260200191505060405180910390f35b34156104fd57600080fd5b610534600480803573ffffffffffffffffffffffffffffffffffffffff16906020019091908035151590602001909190505061127a565b604051808215151515815260200191505060405180910390f35b61055661152b565b604051808215151515815260200191505060405180910390f35b341561057b57600080fd5b6105d1600480803573ffffffffffffffffffffffffffffffffffffffff16906020019091908035151590602001909190803573ffffffffffffffffffffffffffffffffffffffff1690602001909190505061178b565b604051808215151515815260200191505060405180910390f35b34156105f657600080fd5b61060c6004808035906020019091905050611a71565b6040518082815260200191505060405180910390f35b341561062d57600080fd5b610665600480803573ffffffffffffffffffffffffffffffffffffffff1690602001909190803560ff16906020019091905050611dbf565b604051808260ff1660ff16815260200191505060405180910390f35b341561068c57600080fd5b610694612072565b604051808273ffffffffffffffffffffffffffffffffffffffff1673ffffffffffffffffffffffffffffffffffffffff16815260200191505060405180910390f35b34156106e157600080fd5b6106e9612097565b6040518082815260200191505060405180910390f35b341561070a57600080fd5b610712612111565b6040518082815260200191505060405180910390f35b341561073357600080fd5b61073b6121f8565b604051808273ffffffffffffffffffffffffffffffffffffffff1673ffffffffffffffffffffffffffffffffffffffff16815260200191505060405180910390f35b341561078857600080fd5b61079e600480803590602001909190505061221e565b6040518082815260200191505060405180910390f35b34156107bf57600080fd5b6107c76122fd565b604051808215151515815260200191505060405180910390f35b34156107ec57600080fd5b6107f4612310565b60405180861515151581526020018515151515815260200184151515158152602001831515151581526020018260ff1660ff1681526020019550505050505060405180910390f35b341561084757600080fd5b610873600480803573ffffffffffffffffffffffffffffffffffffffff16906020019091905050612432565b604051808215151515815260200191505060405180910390f35b341561089857600080fd5b610940600480803573ffffffffffffffffffffffffffffffffffffffff1690602001909190803573ffffffffffffffffffffffffffffffffffffffff1690602001909190803573ffffffffffffffffffffffffffffffffffffffff1690602001909190803573ffffffffffffffffffffffffffffffffffffffff1690602001909190803573ffffffffffffffffffffffffffffffffffffffff169060200190919050506124ef565b604051808215151515815260200191505060405180910390f35b341561096557600080fd5b61096d612743565b604051808273ffffffffffffffffffffffffffffffffffffffff1673ffffffffffffffffffffffffffffffffffffffff16815260200191505060405180910390f35b34156109ba57600080fd5b6109f1600480803573ffffffffffffffffffffffffffffffffffffffff169060200190919080351515906020019091905050612769565b604051808215151515815260200191505060405180910390f35b3415610a1657600080fd5b610a61600480803573ffffffffffffffffffffffffffffffffffffffff1690602001909190803573ffffffffffffffffffffffffffffffffffffffff16906020019091905050612a1a565b604051808215151515815260200191505060405180910390f35b6000806000600660009054906101000a900473ffffffffffffffffffffffffffffffffffffffff1673ffffffffffffffffffffffffffffffffffffffff16632390c05033600060405160c001526040518263ffffffff167c0100000000000000000000000000000000000000000000000000000000028152600401808273ffffffffffffffffffffffffffffffffffffffff1673ffffffffffffffffffffffffffffffffffffffff16815260200191505060c060405180830381600087803b1515610b4557600080fd5b6102c65a03f11515610b5657600080fd5b50505060405180519060200180519060200180519060200180519060200180519060200180519050909192939450909192935090919250809350819450829550505050909192565b60003373ffffffffffffffffffffffffffffffffffffffff16600260009054906101000a900473ffffffffffffffffffffffffffffffffffffffff1673ffffffffffffffffffffffffffffffffffffffff161480610c4957503373ffffffffffffffffffffffffffffffffffffffff16600360009054906101000a900473ffffffffffffffffffffffffffffffffffffffff1673ffffffffffffffffffffffffffffffffffffffff16145b80610ca157503373ffffffffffffffffffffffffffffffffffffffff16600460009054906101000a900473ffffffffffffffffffffffffffffffffffffffff1673ffffffffffffffffffffffffffffffffffffffff16145b80610cf95750600160009054906101000a900473ffffffffffffffffffffffffffffffffffffffff1673ffffffffffffffffffffffffffffffffffffffff163373ffffffffffffffffffffffffffffffffffffffff16145b80610d5057506000809054906101000a900473ffffffffffffffffffffffffffffffffffffffff1673ffffffffffffffffffffffffffffffffffffffff163373ffffffffffffffffffffffffffffffffffffffff16145b1515610d5b57600080fd5b600660009054906101000a900473ffffffffffffffffffffffffffffffffffffffff1673ffffffffffffffffffffffffffffffffffffffff16630cf75c34868686866000604051602001526040518563ffffffff167c0100000000000000000000000000000000000000000000000000000000028152600401808573ffffffffffffffffffffffffffffffffffffffff1673ffffffffffffffffffffffffffffffffffffffff168152602001841515151581526020018373ffffffffffffffffffffffffffffffffffffffff1673ffffffffffffffffffffffffffffffffffffffff168152602001828152602001945050505050602060405180830381600087803b1515610e6857600080fd5b6102c65a03f11515610e7957600080fd5b505050604051805190509050949350505050565b6000600660009054906101000a900473ffffffffffffffffffffffffffffffffffffffff1673ffffffffffffffffffffffffffffffffffffffff16630d57874f84846000604051602001526040518363ffffffff167c0100000000000000000000000000000000000000000000000000000000028152600401808373ffffffffffffffffffffffffffffffffffffffff1673ffffffffffffffffffffffffffffffffffffffff16815260200182815260200192505050602060405180830381600087803b1515610f5c57600080fd5b6102c65a03f11515610f6d57600080fd5b50505060405180519050905092915050565b60095481565b600160149054906101000a900460ff1681565b600080600080600080600073ffffffffffffffffffffffffffffffffffffffff168773ffffffffffffffffffffffffffffffffffffffff1614151515610fdd57600080fd5b600660009054906101000a900473ffffffffffffffffffffffffffffffffffffffff1673ffffffffffffffffffffffffffffffffffffffff16632390c05088600060405160c001526040518263ffffffff167c0100000000000000000000000000000000000000000000000000000000028152600401808273ffffffffffffffffffffffffffffffffffffffff1673ffffffffffffffffffffffffffffffffffffffff16815260200191505060c060405180830381600087803b15156110a257600080fd5b6102c65a03f115156110b357600080fd5b50505060405180519060200180519060200180519060200180519060200180519060200180519050809650819750829850839950849a50859b5050505050505091939550919395565b6000809054906101000a900473ffffffffffffffffffffffffffffffffffffffff1673ffffffffffffffffffffffffffffffffffffffff163373ffffffffffffffffffffffffffffffffffffffff1614151561115757600080fd5b806000806101000a81548173ffffffffffffffffffffffffffffffffffffffff021916908373ffffffffffffffffffffffffffffffffffffffff16021790555050565b60008060009054906101000a900473ffffffffffffffffffffffffffffffffffffffff1673ffffffffffffffffffffffffffffffffffffffff163373ffffffffffffffffffffffffffffffffffffffff161415156111f757600080fd5b6000600160166101000a81548160ff02191690831515021790555090565b600b5481565b600460009054906101000a900473ffffffffffffffffffffffffffffffffffffffff1681565b600260009054906101000a900473ffffffffffffffffffffffffffffffffffffffff1681565b600160159054906101000a900460ff1681565b60003373ffffffffffffffffffffffffffffffffffffffff16600260009054906101000a900473ffffffffffffffffffffffffffffffffffffffff1673ffffffffffffffffffffffffffffffffffffffff16148061132557503373ffffffffffffffffffffffffffffffffffffffff16600360009054906101000a900473ffffffffffffffffffffffffffffffffffffffff1673ffffffffffffffffffffffffffffffffffffffff16145b8061137d57503373ffffffffffffffffffffffffffffffffffffffff16600460009054906101000a900473ffffffffffffffffffffffffffffffffffffffff1673ffffffffffffffffffffffffffffffffffffffff16145b806113d55750600160009054906101000a900473ffffffffffffffffffffffffffffffffffffffff1673ffffffffffffffffffffffffffffffffffffffff163373ffffffffffffffffffffffffffffffffffffffff16145b8061142c57506000809054906101000a900473ffffffffffffffffffffffffffffffffffffffff1673ffffffffffffffffffffffffffffffffffffffff163373ffffffffffffffffffffffffffffffffffffffff16145b151561143757600080fd5b600660009054906101000a900473ffffffffffffffffffffffffffffffffffffffff1673ffffffffffffffffffffffffffffffffffffffff16635dea932984846000604051602001526040518363ffffffff167c0100000000000000000000000000000000000000000000000000000000028152600401808373ffffffffffffffffffffffffffffffffffffffff1673ffffffffffffffffffffffffffffffffffffffff1681526020018215151515815260200192505050602060405180830381600087803b151561150857600080fd5b6102c65a03f1151561151957600080fd5b50505060405180519050905092915050565b6000806000600160159054906101000a900460ff16151561154b57600080fd5b600b54341015151561155c57600080fd5b600660009054906101000a900473ffffffffffffffffffffffffffffffffffffffff1673ffffffffffffffffffffffffffffffffffffffff16632390c05033600060405160c001526040518263ffffffff167c0100000000000000000000000000000000000000000000000000000000028152600401808273ffffffffffffffffffffffffffffffffffffffff1673ffffffffffffffffffffffffffffffffffffffff16815260200191505060c060405180830381600087803b151561162157600080fd5b6102c65a03f1151561163257600080fd5b5050506040518051906020018051906020018051906020018051906020018051906020018051905090919293509091925090505080935081925050508115801561167a575080155b151561168557600080fd5b600660009054906101000a900473ffffffffffffffffffffffffffffffffffffffff1673ffffffffffffffffffffffffffffffffffffffff16636d65397c336001346000604051602001526040518463ffffffff167c0100000000000000000000000000000000000000000000000000000000028152600401808473ffffffffffffffffffffffffffffffffffffffff1673ffffffffffffffffffffffffffffffffffffffff168152602001831515151581526020018281526020019350505050602060405180830381600087803b151561175f57600080fd5b6102c65a03f1151561177057600080fd5b50505060405180519050151561178257fe5b60019250505090565b60003373ffffffffffffffffffffffffffffffffffffffff16600260009054906101000a900473ffffffffffffffffffffffffffffffffffffffff1673ffffffffffffffffffffffffffffffffffffffff16148061183657503373ffffffffffffffffffffffffffffffffffffffff16600360009054906101000a900473ffffffffffffffffffffffffffffffffffffffff1673ffffffffffffffffffffffffffffffffffffffff16145b8061188e57503373ffffffffffffffffffffffffffffffffffffffff16600460009054906101000a900473ffffffffffffffffffffffffffffffffffffffff1673ffffffffffffffffffffffffffffffffffffffff16145b806118e65750600160009054906101000a900473ffffffffffffffffffffffffffffffffffffffff1673ffffffffffffffffffffffffffffffffffffffff163373ffffffffffffffffffffffffffffffffffffffff16145b8061193d57506000809054906101000a900473ffffffffffffffffffffffffffffffffffffffff1673ffffffffffffffffffffffffffffffffffffffff163373ffffffffffffffffffffffffffffffffffffffff16145b151561194857600080fd5b600660009054906101000a900473ffffffffffffffffffffffffffffffffffffffff1673ffffffffffffffffffffffffffffffffffffffff1663793908bb8585856000604051602001526040518463ffffffff167c0100000000000000000000000000000000000000000000000000000000028152600401808473ffffffffffffffffffffffffffffffffffffffff1673ffffffffffffffffffffffffffffffffffffffff168152602001831515151581526020018273ffffffffffffffffffffffffffffffffffffffff1673ffffffffffffffffffffffffffffffffffffffff1681526020019350505050602060405180830381600087803b1515611a4d57600080fd5b6102c65a03f11515611a5e57600080fd5b5050506040518051905090509392505050565b600080600660009054906101000a900473ffffffffffffffffffffffffffffffffffffffff1673ffffffffffffffffffffffffffffffffffffffff1663aa8749bc336000604051602001526040518263ffffffff167c0100000000000000000000000000000000000000000000000000000000028152600401808273ffffffffffffffffffffffffffffffffffffffff1673ffffffffffffffffffffffffffffffffffffffff168152602001915050602060405180830381600087803b1515611b3957600080fd5b6102c65a03f11515611b4a57600080fd5b505050604051805190509050611b698382612f6990919063ffffffff16565b9050600954811015611c7857600660009054906101000a900473ffffffffffffffffffffffffffffffffffffffff1673ffffffffffffffffffffffffffffffffffffffff16636d65397c336000846000604051602001526040518463ffffffff167c0100000000000000000000000000000000000000000000000000000000028152600401808473ffffffffffffffffffffffffffffffffffffffff1673ffffffffffffffffffffffffffffffffffffffff168152602001831515151581526020018281526020019350505050602060405180830381600087803b1515611c4f57600080fd5b6102c65a03f11515611c6057600080fd5b50505060405180519050151515611c7357fe5b611d76565b600660009054906101000a900473ffffffffffffffffffffffffffffffffffffffff1673ffffffffffffffffffffffffffffffffffffffff16636d65397c336001846000604051602001526040518463ffffffff167c0100000000000000000000000000000000000000000000000000000000028152600401808473ffffffffffffffffffffffffffffffffffffffff1673ffffffffffffffffffffffffffffffffffffffff168152602001831515151581526020018281526020019350505050602060405180830381600087803b1515611d5257600080fd5b6102c65a03f11515611d6357600080fd5b505050604051805190501515611d7557fe5b5b3373ffffffffffffffffffffffffffffffffffffffff166108fc849081150290604051600060405180830381858888f193505050501515611db657600080fd5b80915050919050565b60003373ffffffffffffffffffffffffffffffffffffffff16600260009054906101000a900473ffffffffffffffffffffffffffffffffffffffff1673ffffffffffffffffffffffffffffffffffffffff161480611e6a57503373ffffffffffffffffffffffffffffffffffffffff16600360009054906101000a900473ffffffffffffffffffffffffffffffffffffffff1673ffffffffffffffffffffffffffffffffffffffff16145b80611ec257503373ffffffffffffffffffffffffffffffffffffffff16600460009054906101000a900473ffffffffffffffffffffffffffffffffffffffff1673ffffffffffffffffffffffffffffffffffffffff16145b80611f1a5750600160009054906101000a900473ffffffffffffffffffffffffffffffffffffffff1673ffffffffffffffffffffffffffffffffffffffff163373ffffffffffffffffffffffffffffffffffffffff16145b80611f7157506000809054906101000a900473ffffffffffffffffffffffffffffffffffffffff1673ffffffffffffffffffffffffffffffffffffffff163373ffffffffffffffffffffffffffffffffffffffff16145b1515611f7c57600080fd5b600660009054906101000a900473ffffffffffffffffffffffffffffffffffffffff1673ffffffffffffffffffffffffffffffffffffffff166388cc70ca84846000604051602001526040518363ffffffff167c0100000000000000000000000000000000000000000000000000000000028152600401808373ffffffffffffffffffffffffffffffffffffffff1673ffffffffffffffffffffffffffffffffffffffff1681526020018260ff1660ff16815260200192505050602060405180830381600087803b151561204f57600080fd5b6102c65a03f1151561206057600080fd5b50505060405180519050905092915050565b6000809054906101000a900473ffffffffffffffffffffffffffffffffffffffff1681565b60008060009054906101000a900473ffffffffffffffffffffffffffffffffffffffff1673ffffffffffffffffffffffffffffffffffffffff163373ffffffffffffffffffffffffffffffffffffffff161415156120f457600080fd5b3073ffffffffffffffffffffffffffffffffffffffff1631905090565b6000600660009054906101000a900473ffffffffffffffffffffffffffffffffffffffff1673ffffffffffffffffffffffffffffffffffffffff1663aa8749bc336000604051602001526040518263ffffffff167c0100000000000000000000000000000000000000000000000000000000028152600401808273ffffffffffffffffffffffffffffffffffffffff1673ffffffffffffffffffffffffffffffffffffffff168152602001915050602060405180830381600087803b15156121d857600080fd5b6102c65a03f115156121e957600080fd5b50505060405180519050905090565b600360009054906101000a900473ffffffffffffffffffffffffffffffffffffffff1681565b60008060009054906101000a900473ffffffffffffffffffffffffffffffffffffffff1673ffffffffffffffffffffffffffffffffffffffff163373ffffffffffffffffffffffffffffffffffffffff1614151561227b57600080fd5b600160169054906101000a900460ff1615151561229757600080fd5b6000809054906101000a900473ffffffffffffffffffffffffffffffffffffffff1673ffffffffffffffffffffffffffffffffffffffff166108fc839081150290604051600060405180830381858888f1935050505015156122f857600080fd5b919050565b600160169054906101000a900460ff1681565b6000806000806000600660009054906101000a900473ffffffffffffffffffffffffffffffffffffffff1673ffffffffffffffffffffffffffffffffffffffff16632390c05033600060405160c001526040518263ffffffff167c0100000000000000000000000000000000000000000000000000000000028152600401808273ffffffffffffffffffffffffffffffffffffffff1673ffffffffffffffffffffffffffffffffffffffff16815260200191505060c060405180830381600087803b15156123dd57600080fd5b6102c65a03f115156123ee57600080fd5b505050604051805190602001805190602001805190602001805190602001805190602001805190505080955081965082975083985084995050505050509091929394565b60008060009054906101000a900473ffffffffffffffffffffffffffffffffffffffff1673ffffffffffffffffffffffffffffffffffffffff163373ffffffffffffffffffffffffffffffffffffffff1614151561248f57600080fd5b81600160006101000a81548173ffffffffffffffffffffffffffffffffffffffff021916908373ffffffffffffffffffffffffffffffffffffffff16021790555060018060146101000a81548160ff021916908315150217905550919050565b6000600160009054906101000a900473ffffffffffffffffffffffffffffffffffffffff1673ffffffffffffffffffffffffffffffffffffffff163373ffffffffffffffffffffffffffffffffffffffff16148061259957506000809054906101000a900473ffffffffffffffffffffffffffffffffffffffff1673ffffffffffffffffffffffffffffffffffffffff163373ffffffffffffffffffffffffffffffffffffffff16145b15156125a457600080fd5b6125b18686868686612f82565b5082600560006101000a81548173ffffffffffffffffffffffffffffffffffffffff021916908373ffffffffffffffffffffffffffffffffffffffff160217905550600560009054906101000a900473ffffffffffffffffffffffffffffffffffffffff16600660006101000a81548173ffffffffffffffffffffffffffffffffffffffff021916908373ffffffffffffffffffffffffffffffffffffffff160217905550600360009054906101000a900473ffffffffffffffffffffffffffffffffffffffff16600760006101000a81548173ffffffffffffffffffffffffffffffffffffffff021916908373ffffffffffffffffffffffffffffffffffffffff160217905550600260009054906101000a900473ffffffffffffffffffffffffffffffffffffffff16600860006101000a81548173ffffffffffffffffffffffffffffffffffffffff021916908373ffffffffffffffffffffffffffffffffffffffff16021790555060018060156101000a81548160ff0219169083151502179055506001905095945050505050565b600160009054906101000a900473ffffffffffffffffffffffffffffffffffffffff1681565b60003373ffffffffffffffffffffffffffffffffffffffff16600260009054906101000a900473ffffffffffffffffffffffffffffffffffffffff1673ffffffffffffffffffffffffffffffffffffffff16148061281457503373ffffffffffffffffffffffffffffffffffffffff16600360009054906101000a900473ffffffffffffffffffffffffffffffffffffffff1673ffffffffffffffffffffffffffffffffffffffff16145b8061286c57503373ffffffffffffffffffffffffffffffffffffffff16600460009054906101000a900473ffffffffffffffffffffffffffffffffffffffff1673ffffffffffffffffffffffffffffffffffffffff16145b806128c45750600160009054906101000a900473ffffffffffffffffffffffffffffffffffffffff1673ffffffffffffffffffffffffffffffffffffffff163373ffffffffffffffffffffffffffffffffffffffff16145b8061291b57506000809054906101000a900473ffffffffffffffffffffffffffffffffffffffff1673ffffffffffffffffffffffffffffffffffffffff163373ffffffffffffffffffffffffffffffffffffffff16145b151561292657600080fd5b600660009054906101000a900473ffffffffffffffffffffffffffffffffffffffff1673ffffffffffffffffffffffffffffffffffffffff1663f6aad76884846000604051602001526040518363ffffffff167c0100000000000000000000000000000000000000000000000000000000028152600401808373ffffffffffffffffffffffffffffffffffffffff1673ffffffffffffffffffffffffffffffffffffffff1681526020018215151515815260200192505050602060405180830381600087803b15156129f757600080fd5b6102c65a03f11515612a0857600080fd5b50505060405180519050905092915050565b6000806000803373ffffffffffffffffffffffffffffffffffffffff16600260009054906101000a900473ffffffffffffffffffffffffffffffffffffffff1673ffffffffffffffffffffffffffffffffffffffff161480612ac957503373ffffffffffffffffffffffffffffffffffffffff16600360009054906101000a900473ffffffffffffffffffffffffffffffffffffffff1673ffffffffffffffffffffffffffffffffffffffff16145b80612b2157503373ffffffffffffffffffffffffffffffffffffffff16600460009054906101000a900473ffffffffffffffffffffffffffffffffffffffff1673ffffffffffffffffffffffffffffffffffffffff16145b80612b795750600160009054906101000a900473ffffffffffffffffffffffffffffffffffffffff1673ffffffffffffffffffffffffffffffffffffffff163373ffffffffffffffffffffffffffffffffffffffff16145b80612bd057506000809054906101000a900473ffffffffffffffffffffffffffffffffffffffff1673ffffffffffffffffffffffffffffffffffffffff163373ffffffffffffffffffffffffffffffffffffffff16145b1515612bdb57600080fd5b600660009054906101000a900473ffffffffffffffffffffffffffffffffffffffff1673ffffffffffffffffffffffffffffffffffffffff1663aa8749bc876000604051602001526040518263ffffffff167c0100000000000000000000000000000000000000000000000000000000028152600401808273ffffffffffffffffffffffffffffffffffffffff1673ffffffffffffffffffffffffffffffffffffffff168152602001915050602060405180830381600087803b1515612ca057600080fd5b6102c65a03f11515612cb157600080fd5b505050604051805190509250600083111515612ccc57600080fd5b600954831115612cf757612ceb60095484612f6990919063ffffffff16565b9150600a549050612d25565b60009150612d22600a612d1460088661311e90919063ffffffff16565b61315990919063ffffffff16565b90505b600660009054906101000a900473ffffffffffffffffffffffffffffffffffffffff1673ffffffffffffffffffffffffffffffffffffffff1663a42e5a6d87846000604051602001526040518363ffffffff167c0100000000000000000000000000000000000000000000000000000000028152600401808373ffffffffffffffffffffffffffffffffffffffff1673ffffffffffffffffffffffffffffffffffffffff16815260200182815260200192505050602060405180830381600087803b1515612df257600080fd5b6102c65a03f11515612e0357600080fd5b5050506040518051905082935083141515612e1a57fe5b600954831015612f1a57600660009054906101000a900473ffffffffffffffffffffffffffffffffffffffff1673ffffffffffffffffffffffffffffffffffffffff1663f6aad7688760016000604051602001526040518363ffffffff167c0100000000000000000000000000000000000000000000000000000000028152600401808373ffffffffffffffffffffffffffffffffffffffff1673ffffffffffffffffffffffffffffffffffffffff1681526020018215151515815260200192505050602060405180830381600087803b1515612ef657600080fd5b6102c65a03f11515612f0757600080fd5b505050604051805190501515612f1957fe5b5b8473ffffffffffffffffffffffffffffffffffffffff166108fc600a549081150290604051600060405180830381858888f193505050501515612f5c57600080fd5b6001935050505092915050565b6000828211151515612f7757fe5b818303905092915050565b6000600160009054906101000a900473ffffffffffffffffffffffffffffffffffffffff1673ffffffffffffffffffffffffffffffffffffffff163373ffffffffffffffffffffffffffffffffffffffff16148061302c57506000809054906101000a900473ffffffffffffffffffffffffffffffffffffffff1673ffffffffffffffffffffffffffffffffffffffff163373ffffffffffffffffffffffffffffffffffffffff16145b151561303757600080fd5b600160149054906101000a900460ff16151561305257600080fd5b85600260006101000a81548173ffffffffffffffffffffffffffffffffffffffff021916908373ffffffffffffffffffffffffffffffffffffffff16021790555084600360006101000a81548173ffffffffffffffffffffffffffffffffffffffff021916908373ffffffffffffffffffffffffffffffffffffffff16021790555083600460006101000a81548173ffffffffffffffffffffffffffffffffffffffff021916908373ffffffffffffffffffffffffffffffffffffffff16021790555095945050505050565b60008060008414156131335760009150613152565b828402905082848281151561314457fe5b0414151561314e57fe5b8091505b5092915050565b60008060008311151561316857fe5b828481151561317357fe5b049050828481151561318157fe5b06818402018414151561319057fe5b80915050929150505600a165627a7a72305820e010263da96e23054bc0a8578a4684914467d7c829dd1f8324809ae4f6585d7e0029",
  "source": "pragma solidity ^0.4.18;\r\n//basics\r\nimport \"../misc/SafeMath.sol\";\r\nimport \"../ownership/Controllable.sol\";\r\n//data storage\r\nimport \"../interface/model/Account_Interface.sol\";\r\n//is\r\nimport \"../interface/client/Client_Interface_dispatcher.sol\";\r\nimport \"../interface/client/Client_Interface_distributor.sol\";\r\nimport \"../interface/client/Client_Interface_submitter.sol\";\r\nimport \"../interface/client/Client_Interface_miner.sol\";\r\n//uses\r\nimport \"../interface/distributor/Distributor_Interface_client.sol\";\r\nimport \"../interface/dispatcher/Dispatcher_Interface_client.sol\";\r\n\r\ncontract Client is Controllable,\r\nClientInterfaceSubmitter, ClientInterfaceMiner, ClientInterfaceDispatcher, ClientInterfaceDistributor\r\n{\r\n    using SafeMath for uint256;\r\n\r\n    address account_address;\r\n    AccountInterface account;\r\n\r\n    DistributorInterfaceClient distributor;\r\n    DispatcherInterfaceClient dispatcher;\r\n\r\n    uint256 public penalty = 5 ether;\r\n    uint256 penalty_to_client = penalty.div(10).mul(8);\r\n    uint256 public minimal_credit = 15 ether;\r\n\r\n    function Client(address _admin) public Controllable(msg.sender, _admin) {}\r\n\r\n    function() public {\r\n        revert();\r\n    }\r\n\r\n    //Admin Interface\r\n    function set_addresses(address _dispatcher, address _distributor, address _client, address _model, address _task_queue)\r\n    admin_only public returns (bool){\r\n        super.set_addresses(_dispatcher, _distributor, _client, _model, _task_queue);\r\n\r\n        account_address = _model;\r\n        account = AccountInterface(account_address);\r\n\r\n        distributor = DistributorInterfaceClient(distributor_address);\r\n        dispatcher = DispatcherInterfaceClient(dispatcher_address);\r\n\r\n        controller_ready = true;\r\n        return true;\r\n    }\r\n\r\n    //dispatcher Interface\r\n    function get_client(address _address) view external returns (\r\n        bool _eligible,\r\n        bool _waiting,\r\n        bool _working,\r\n        bool _banned,\r\n        uint8 _misconduct_counter,\r\n        uint8 _level)\r\n    {\r\n        require(_address != address(0));\r\n        (_eligible, _waiting, _working, _banned, _misconduct_counter, _level) = account.get_client(_address);\r\n    }\r\n    ///@dev getter\r\n    function submissible(address _address, uint256 _app_id) view external returns (bool){\r\n        return account.submissible(_address, _app_id);\r\n    }\r\n\r\n    ///@dev entry point\r\n    function apply_eligibility() external Ready payable returns (bool){\r\n        require(msg.value >= minimal_credit);\r\n        bool _banned;\r\n        bool _eligible;\r\n        (_eligible, , , _banned,,,) = account.get_client(msg.sender);\r\n\r\n        require(!_banned && !_eligible);\r\n        assert(account.set_eligible(msg.sender, true, msg.value));\r\n        return true;\r\n    }\r\n\r\n    ///@dev intermediate\r\n    function set_waiting (address _client, bool _waiting) controllers_only external returns (bool){\r\n        return account.set_waiting(_client, _waiting);\r\n    }\r\n    ///@dev intermediate\r\n    function add_job(address _client, bool _working, address _task) controllers_only external returns (bool){\r\n        return account.add_job(_client, _working, _task);\r\n    }\r\n    ///@dev intermediate\r\n    function set_banned(address _client, bool _banned) controllers_only external returns (bool){\r\n        return account.set_banned(_client, _banned);\r\n    }\r\n\r\n    ///@dev intermediate\r\n    function set_level(address _client, uint8 _level) controllers_only external returns (uint8){\r\n        return account.set_level(_client, _level);\r\n    }\r\n    ///@dev intermediate\r\n    function add_task(address _client, bool _new, address _task, uint256 _app_id) controllers_only external returns (bool){\r\n        return account.add_task(_client, _new, _task, _app_id);\r\n    }\r\n\r\n    //@dev intermediate, working is set by giving or finishing task\r\n    // function set_working(address _worker, bool _working) controllers_only external returns (bool){\r\n    //     return account.set_working(_worker, _working);\r\n    // }\r\n\r\n    //@dev intermediate\r\n    function pay_penalty(address _worker, address _client) controllers_only external returns (bool){\r\n        uint256 _available_credits = account.get_credits(_worker);\r\n        require(_available_credits > 0);\r\n        uint256 _set_to;\r\n        uint256 _to_client;\r\n        if (_available_credits > penalty) {\r\n            _set_to = _available_credits.sub(penalty);\r\n            _to_client = penalty_to_client;\r\n        } else {\r\n            _set_to = 0;\r\n            _to_client = _available_credits.mul(8).div(10);\r\n        }\r\n        assert((_available_credits = _set_to) == account.set_credits(_worker, _set_to));\r\n\r\n        if (_available_credits < penalty) assert(account.set_banned(_worker, true));\r\n\r\n        _client.transfer(penalty_to_client);\r\n        return true;\r\n    }\r\n\r\n    //submitter Interface\r\n    ///@dev getter\r\n    function get_client_c() view external returns (\r\n        bool _banned,\r\n        uint8 _misconduct_counter,\r\n        uint8 _level\r\n    ){\r\n        (, , , _banned, _misconduct_counter, _level) = account.get_client(msg.sender);\r\n    }\r\n\r\n    //Miner Interface\r\n    ///@dev getter\r\n    function get_client_m() view external returns (\r\n        bool _eligible,\r\n        bool _waiting,\r\n        bool _working,\r\n        bool _banned,\r\n        uint8 _misconduct_counter){\r\n        (_eligible, _waiting, _working, _banned, _misconduct_counter, , ) = account.get_client(msg.sender);\r\n    }\r\n\r\n    function get_credits() external view returns (uint256){\r\n        return account.get_credits(msg.sender);\r\n    }\r\n\r\n    function withdrawal(uint256 _amount) external returns (uint256){\r\n        uint256 _balance = account.get_credits(msg.sender);\r\n        _balance = _balance.sub(_amount);\r\n        //safemath throws if _amount > _balance\r\n        if(_balance < penalty) assert(!account.set_eligible(msg.sender, false, _balance));\r\n        else assert(account.set_eligible(msg.sender, true, _balance));\r\n        msg.sender.transfer(_amount);\r\n        return _balance;\r\n    }\r\n}\r\n",
  "sourcePath": "C:\\Users\\tony\\WebstormProjects\\nebula-helix\\contract\\contracts\\helix1.1\\controller\\Client.sol",
  "compiler": {
    "name": "solc",
    "version": "0.4.18+commit.9cf6e910.Emscripten.clang"
  },
  "schemaVersion": "1.0.1",
  "updatedAt": "2018-02-21T17:07:32.960Z"
}