{
  "contractName": "Dispatcher",
  "abi": [
    {
      "constant": true,
      "inputs": [],
      "name": "admin_loaded",
      "outputs": [
        {
          "name": "",
          "type": "bool"
        }
      ],
      "payable": false,
      "stateMutability": "view",
      "type": "function"
    },
    {
      "constant": false,
      "inputs": [
        {
          "name": "_owner",
          "type": "address"
        }
      ],
      "name": "change_owner",
      "outputs": [],
      "payable": false,
      "stateMutability": "nonpayable",
      "type": "function"
    },
    {
      "constant": true,
      "inputs": [],
      "name": "client_address",
      "outputs": [
        {
          "name": "",
          "type": "address"
        }
      ],
      "payable": false,
      "stateMutability": "view",
      "type": "function"
    },
    {
      "constant": true,
      "inputs": [
        {
          "name": "_task",
          "type": "address"
        }
      ],
      "name": "task_position",
      "outputs": [
        {
          "name": "",
          "type": "uint256"
        }
      ],
      "payable": false,
      "stateMutability": "view",
      "type": "function"
    },
    {
      "constant": true,
      "inputs": [],
      "name": "dispatcher_address",
      "outputs": [
        {
          "name": "",
          "type": "address"
        }
      ],
      "payable": false,
      "stateMutability": "view",
      "type": "function"
    },
    {
      "constant": true,
      "inputs": [],
      "name": "controller_ready",
      "outputs": [
        {
          "name": "",
          "type": "bool"
        }
      ],
      "payable": false,
      "stateMutability": "view",
      "type": "function"
    },
    {
      "constant": true,
      "inputs": [
        {
          "name": "_worker",
          "type": "address"
        }
      ],
      "name": "ai_position",
      "outputs": [
        {
          "name": "",
          "type": "uint256"
        }
      ],
      "payable": false,
      "stateMutability": "view",
      "type": "function"
    },
    {
      "constant": false,
      "inputs": [],
      "name": "leave_ai_queue",
      "outputs": [
        {
          "name": "",
          "type": "bool"
        }
      ],
      "payable": false,
      "stateMutability": "nonpayable",
      "type": "function"
    },
    {
      "constant": true,
      "inputs": [],
      "name": "owner",
      "outputs": [
        {
          "name": "",
          "type": "address"
        }
      ],
      "payable": false,
      "stateMutability": "view",
      "type": "function"
    },
    {
      "constant": false,
      "inputs": [
        {
          "name": "_task",
          "type": "address"
        },
        {
          "name": "_worker",
          "type": "address"
        },
        {
          "name": "_penalty",
          "type": "uint8"
        }
      ],
      "name": "rejoin",
      "outputs": [
        {
          "name": "",
          "type": "uint8"
        }
      ],
      "payable": false,
      "stateMutability": "nonpayable",
      "type": "function"
    },
    {
      "constant": false,
      "inputs": [
        {
          "name": "_task_address",
          "type": "address"
        }
      ],
      "name": "leave_task_queue",
      "outputs": [
        {
          "name": "",
          "type": "bool"
        }
      ],
      "payable": false,
      "stateMutability": "nonpayable",
      "type": "function"
    },
    {
      "constant": true,
      "inputs": [],
      "name": "queue_task_address",
      "outputs": [
        {
          "name": "",
          "type": "address"
        }
      ],
      "payable": false,
      "stateMutability": "view",
      "type": "function"
    },
    {
      "constant": true,
      "inputs": [],
      "name": "ai_queue_length",
      "outputs": [
        {
          "name": "",
          "type": "uint256"
        }
      ],
      "payable": false,
      "stateMutability": "view",
      "type": "function"
    },
    {
      "constant": true,
      "inputs": [],
      "name": "task_queue_length",
      "outputs": [
        {
          "name": "",
          "type": "uint256"
        }
      ],
      "payable": false,
      "stateMutability": "view",
      "type": "function"
    },
    {
      "constant": false,
      "inputs": [
        {
          "name": "_is_task",
          "type": "bool"
        },
        {
          "name": "_address",
          "type": "address"
        }
      ],
      "name": "is_dispatchable",
      "outputs": [
        {
          "name": "_success",
          "type": "bool"
        },
        {
          "name": "_dispatchable",
          "type": "bool"
        },
        {
          "name": "_worker",
          "type": "address"
        },
        {
          "name": "_task",
          "type": "address"
        }
      ],
      "payable": false,
      "stateMutability": "nonpayable",
      "type": "function"
    },
    {
      "constant": false,
      "inputs": [],
      "name": "join_ai_queue",
      "outputs": [
        {
          "name": "",
          "type": "bool"
        }
      ],
      "payable": false,
      "stateMutability": "nonpayable",
      "type": "function"
    },
    {
      "constant": true,
      "inputs": [],
      "name": "distributor_address",
      "outputs": [
        {
          "name": "",
          "type": "address"
        }
      ],
      "payable": false,
      "stateMutability": "view",
      "type": "function"
    },
    {
      "constant": false,
      "inputs": [
        {
          "name": "_admin",
          "type": "address"
        }
      ],
      "name": "set_admin",
      "outputs": [
        {
          "name": "",
          "type": "bool"
        }
      ],
      "payable": false,
      "stateMutability": "nonpayable",
      "type": "function"
    },
    {
      "constant": false,
      "inputs": [
        {
          "name": "_task",
          "type": "address"
        }
      ],
      "name": "join_task_queue",
      "outputs": [
        {
          "name": "",
          "type": "bool"
        }
      ],
      "payable": true,
      "stateMutability": "payable",
      "type": "function"
    },
    {
      "constant": false,
      "inputs": [
        {
          "name": "_dispatcher",
          "type": "address"
        },
        {
          "name": "_distributor",
          "type": "address"
        },
        {
          "name": "_client",
          "type": "address"
        },
        {
          "name": "_model",
          "type": "address"
        },
        {
          "name": "_task_queue",
          "type": "address"
        }
      ],
      "name": "set_addresses",
      "outputs": [
        {
          "name": "",
          "type": "bool"
        }
      ],
      "payable": false,
      "stateMutability": "nonpayable",
      "type": "function"
    },
    {
      "constant": true,
      "inputs": [],
      "name": "admin_address",
      "outputs": [
        {
          "name": "",
          "type": "address"
        }
      ],
      "payable": false,
      "stateMutability": "view",
      "type": "function"
    },
    {
      "constant": true,
      "inputs": [],
      "name": "queue_ai_address",
      "outputs": [
        {
          "name": "",
          "type": "address"
        }
      ],
      "payable": false,
      "stateMutability": "view",
      "type": "function"
    },
    {
      "inputs": [
        {
          "name": "_admin",
          "type": "address"
        }
      ],
      "payable": false,
      "stateMutability": "nonpayable",
      "type": "constructor"
    },
    {
      "anonymous": false,
      "inputs": [
        {
          "indexed": false,
          "name": "",
          "type": "address"
        }
      ],
      "name": "B",
      "type": "event"
    },
    {
      "anonymous": false,
      "inputs": [
        {
          "indexed": false,
          "name": "",
          "type": "address"
        }
      ],
      "name": "C",
      "type": "event"
    }
  ],
  "bytecode": "0x606060405234156200001057600080fd5b60405160208062002a30833981016040528080519060200190919050503381818181806000806101000a81548173ffffffffffffffffffffffffffffffffffffffff021916908373ffffffffffffffffffffffffffffffffffffffff16021790555050600073ffffffffffffffffffffffffffffffffffffffff168173ffffffffffffffffffffffffffffffffffffffff16141515620000cb57620000c981620000d66401000000000262001c73176401000000009004565b505b505050505062000194565b60008060009054906101000a900473ffffffffffffffffffffffffffffffffffffffff1673ffffffffffffffffffffffffffffffffffffffff163373ffffffffffffffffffffffffffffffffffffffff161415156200013457600080fd5b81600160006101000a81548173ffffffffffffffffffffffffffffffffffffffff021916908373ffffffffffffffffffffffffffffffffffffffff16021790555060018060146101000a81548160ff021916908315150217905550919050565b61288c80620001a46000396000f300606060405260043610610128576000357c0100000000000000000000000000000000000000000000000000000000900463ffffffff1680631df2c6ab1461012d578063253c8bd41461015a5780634bf4e421146101935780634f3c7603146101e8578063559670f8146102355780635841e6a71461028a57806385d248eb146102b75780638d219324146103045780638da5cb5b146103315780638e27c3811461038657806398ce6fdf146104045780639a7cafed146104555780639b7eddc1146104aa578063a330c4d3146104d3578063a6317be6146104fc578063b1ff9d24146105c9578063b2ad35c0146105f6578063e9333fab1461064b578063e9f0afe91461069c578063ee7b1674146106e2578063f2e62772146107af578063fcb4ffa014610804575b600080fd5b341561013857600080fd5b610140610859565b604051808215151515815260200191505060405180910390f35b341561016557600080fd5b610191600480803573ffffffffffffffffffffffffffffffffffffffff1690602001909190505061086c565b005b341561019e57600080fd5b6101a661090a565b604051808273ffffffffffffffffffffffffffffffffffffffff1673ffffffffffffffffffffffffffffffffffffffff16815260200191505060405180910390f35b34156101f357600080fd5b61021f600480803573ffffffffffffffffffffffffffffffffffffffff16906020019091905050610930565b6040518082815260200191505060405180910390f35b341561024057600080fd5b61024861095f565b604051808273ffffffffffffffffffffffffffffffffffffffff1673ffffffffffffffffffffffffffffffffffffffff16815260200191505060405180910390f35b341561029557600080fd5b61029d610985565b604051808215151515815260200191505060405180910390f35b34156102c257600080fd5b6102ee600480803573ffffffffffffffffffffffffffffffffffffffff16906020019091905050610998565b6040518082815260200191505060405180910390f35b341561030f57600080fd5b6103176109c7565b604051808215151515815260200191505060405180910390f35b341561033c57600080fd5b610344610af8565b604051808273ffffffffffffffffffffffffffffffffffffffff1673ffffffffffffffffffffffffffffffffffffffff16815260200191505060405180910390f35b341561039157600080fd5b6103e8600480803573ffffffffffffffffffffffffffffffffffffffff1690602001909190803573ffffffffffffffffffffffffffffffffffffffff1690602001909190803560ff16906020019091905050610b1d565b604051808260ff1660ff16815260200191505060405180910390f35b341561040f57600080fd5b61043b600480803573ffffffffffffffffffffffffffffffffffffffff16906020019091905050610d27565b604051808215151515815260200191505060405180910390f35b341561046057600080fd5b610468610e35565b604051808273ffffffffffffffffffffffffffffffffffffffff1673ffffffffffffffffffffffffffffffffffffffff16815260200191505060405180910390f35b34156104b557600080fd5b6104bd610e5b565b6040518082815260200191505060405180910390f35b34156104de57600080fd5b6104e6610f26565b6040518082815260200191505060405180910390f35b341561050757600080fd5b61053e6004808035151590602001909190803573ffffffffffffffffffffffffffffffffffffffff16906020019091905050610ff1565b6040518085151515158152602001841515151581526020018373ffffffffffffffffffffffffffffffffffffffff1673ffffffffffffffffffffffffffffffffffffffff1681526020018273ffffffffffffffffffffffffffffffffffffffff1673ffffffffffffffffffffffffffffffffffffffff16815260200194505050505060405180910390f35b34156105d457600080fd5b6105dc611ba9565b604051808215151515815260200191505060405180910390f35b341561060157600080fd5b610609611c4d565b604051808273ffffffffffffffffffffffffffffffffffffffff1673ffffffffffffffffffffffffffffffffffffffff16815260200191505060405180910390f35b341561065657600080fd5b610682600480803573ffffffffffffffffffffffffffffffffffffffff16906020019091905050611c73565b604051808215151515815260200191505060405180910390f35b6106c8600480803573ffffffffffffffffffffffffffffffffffffffff16906020019091905050611d30565b604051808215151515815260200191505060405180910390f35b34156106ed57600080fd5b610795600480803573ffffffffffffffffffffffffffffffffffffffff1690602001909190803573ffffffffffffffffffffffffffffffffffffffff1690602001909190803573ffffffffffffffffffffffffffffffffffffffff1690602001909190803573ffffffffffffffffffffffffffffffffffffffff1690602001909190803573ffffffffffffffffffffffffffffffffffffffff16906020019091905050611d93565b604051808215151515815260200191505060405180910390f35b34156107ba57600080fd5b6107c2612034565b604051808273ffffffffffffffffffffffffffffffffffffffff1673ffffffffffffffffffffffffffffffffffffffff16815260200191505060405180910390f35b341561080f57600080fd5b61081761205a565b604051808273ffffffffffffffffffffffffffffffffffffffff1673ffffffffffffffffffffffffffffffffffffffff16815260200191505060405180910390f35b600160149054906101000a900460ff1681565b6000809054906101000a900473ffffffffffffffffffffffffffffffffffffffff1673ffffffffffffffffffffffffffffffffffffffff163373ffffffffffffffffffffffffffffffffffffffff161415156108c757600080fd5b806000806101000a81548173ffffffffffffffffffffffffffffffffffffffff021916908373ffffffffffffffffffffffffffffffffffffffff16021790555050565b600460009054906101000a900473ffffffffffffffffffffffffffffffffffffffff1681565b6000600160159054906101000a900460ff16151561094d57600080fd5b610958600183612080565b9050919050565b600260009054906101000a900473ffffffffffffffffffffffffffffffffffffffff1681565b600160159054906101000a900460ff1681565b6000600160159054906101000a900460ff1615156109b557600080fd5b6109c0600083612080565b9050919050565b60006109d1612812565b600160159054906101000a900460ff1615156109ec57600080fd5b6109f5336122cb565b905080602001511515610a0757600080fd5b600560009054906101000a900473ffffffffffffffffffffffffffffffffffffffff1673ffffffffffffffffffffffffffffffffffffffff16635dea932933600080604051602001526040518363ffffffff167c0100000000000000000000000000000000000000000000000000000000028152600401808373ffffffffffffffffffffffffffffffffffffffff1673ffffffffffffffffffffffffffffffffffffffff1681526020018215151515815260200192505050602060405180830381600087803b1515610ad857600080fd5b6102c65a03f11515610ae957600080fd5b50505060405180519050505090565b6000809054906101000a900473ffffffffffffffffffffffffffffffffffffffff1681565b6000600160159054906101000a900460ff161515610b3a57600080fd5b600a60009054906101000a900473ffffffffffffffffffffffffffffffffffffffff1673ffffffffffffffffffffffffffffffffffffffff16630fd0ae1085600080604051602001526040518363ffffffff167c0100000000000000000000000000000000000000000000000000000000028152600401808373ffffffffffffffffffffffffffffffffffffffff1673ffffffffffffffffffffffffffffffffffffffff16815260200182815260200192505050602060405180830381600087803b1515610c0757600080fd5b6102c65a03f11515610c1857600080fd5b5050506040518051905050600560009054906101000a900473ffffffffffffffffffffffffffffffffffffffff1673ffffffffffffffffffffffffffffffffffffffff1663b62b0281846001856000604051602001526040518463ffffffff167c0100000000000000000000000000000000000000000000000000000000028152600401808473ffffffffffffffffffffffffffffffffffffffff1673ffffffffffffffffffffffffffffffffffffffff168152602001831515151581526020018260ff1660ff1681526020019350505050602060405180830381600087803b1515610d0357600080fd5b6102c65a03f11515610d1457600080fd5b5050506040518051905090509392505050565b6000600160159054906101000a900460ff161515610d4457600080fd5b600a60009054906101000a900473ffffffffffffffffffffffffffffffffffffffff1673ffffffffffffffffffffffffffffffffffffffff166329092d0e836000604051602001526040518263ffffffff167c0100000000000000000000000000000000000000000000000000000000028152600401808273ffffffffffffffffffffffffffffffffffffffff1673ffffffffffffffffffffffffffffffffffffffff168152602001915050602060405180830381600087803b1515610e0957600080fd5b6102c65a03f11515610e1a57600080fd5b505050604051805190501515610e2c57fe5b60019050919050565b600960009054906101000a900473ffffffffffffffffffffffffffffffffffffffff1681565b6000600160159054906101000a900460ff161515610e7857600080fd5b600860009054906101000a900473ffffffffffffffffffffffffffffffffffffffff1673ffffffffffffffffffffffffffffffffffffffff1663949d225d6000604051602001526040518163ffffffff167c0100000000000000000000000000000000000000000000000000000000028152600401602060405180830381600087803b1515610f0657600080fd5b6102c65a03f11515610f1757600080fd5b50505060405180519050905090565b6000600160159054906101000a900460ff161515610f4357600080fd5b600a60009054906101000a900473ffffffffffffffffffffffffffffffffffffffff1673ffffffffffffffffffffffffffffffffffffffff1663949d225d6000604051602001526040518163ffffffff167c0100000000000000000000000000000000000000000000000000000000028152600401602060405180830381600087803b1515610fd157600080fd5b6102c65a03f11515610fe257600080fd5b50505060405180519050905090565b600080600080600160159054906101000a900460ff16151561101257600080fd5b8515611567576000600860009054906101000a900473ffffffffffffffffffffffffffffffffffffffff1673ffffffffffffffffffffffffffffffffffffffff1663949d225d6000604051602001526040518163ffffffff167c0100000000000000000000000000000000000000000000000000000000028152600401602060405180830381600087803b15156110a857600080fd5b6102c65a03f115156110b957600080fd5b5050506040518051905014156111bb57600a60009054906101000a900473ffffffffffffffffffffffffffffffffffffffff1673ffffffffffffffffffffffffffffffffffffffff166389b09de7866000604051602001526040518263ffffffff167c0100000000000000000000000000000000000000000000000000000000028152600401808273ffffffffffffffffffffffffffffffffffffffff1673ffffffffffffffffffffffffffffffffffffffff168152602001915050602060405180830381600087803b151561118e57600080fd5b6102c65a03f1151561119f57600080fd5b5050506040518051905060008060009350935093509350611ba0565b6000600a60009054906101000a900473ffffffffffffffffffffffffffffffffffffffff1673ffffffffffffffffffffffffffffffffffffffff1663949d225d6000604051602001526040518163ffffffff167c0100000000000000000000000000000000000000000000000000000000028152600401602060405180830381600087803b151561124b57600080fd5b6102c65a03f1151561125c57600080fd5b50505060405180519050141561132657600180600860009054906101000a900473ffffffffffffffffffffffffffffffffffffffff1673ffffffffffffffffffffffffffffffffffffffff1663a4ece52c6000604051602001526040518163ffffffff167c0100000000000000000000000000000000000000000000000000000000028152600401602060405180830381600087803b15156112fd57600080fd5b6102c65a03f1151561130e57600080fd5b50505060405180519050879350935093509350611ba0565b600a60009054906101000a900473ffffffffffffffffffffffffffffffffffffffff1673ffffffffffffffffffffffffffffffffffffffff166389b09de7866000604051602001526040518263ffffffff167c0100000000000000000000000000000000000000000000000000000000028152600401808273ffffffffffffffffffffffffffffffffffffffff1673ffffffffffffffffffffffffffffffffffffffff168152602001915050602060405180830381600087803b15156113eb57600080fd5b6102c65a03f115156113fc57600080fd5b505050604051805190506001600860009054906101000a900473ffffffffffffffffffffffffffffffffffffffff1673ffffffffffffffffffffffffffffffffffffffff1663a4ece52c6000604051602001526040518163ffffffff167c0100000000000000000000000000000000000000000000000000000000028152600401602060405180830381600087803b151561149657600080fd5b6102c65a03f115156114a757600080fd5b50505060405180519050600a60009054906101000a900473ffffffffffffffffffffffffffffffffffffffff1673ffffffffffffffffffffffffffffffffffffffff1663a4ece52c6000604051602001526040518163ffffffff167c0100000000000000000000000000000000000000000000000000000000028152600401602060405180830381600087803b151561153f57600080fd5b6102c65a03f1151561155057600080fd5b505050604051805190509350935093509350611ba0565b600560009054906101000a900473ffffffffffffffffffffffffffffffffffffffff1673ffffffffffffffffffffffffffffffffffffffff16635dea93298660016000604051602001526040518363ffffffff167c0100000000000000000000000000000000000000000000000000000000028152600401808373ffffffffffffffffffffffffffffffffffffffff1673ffffffffffffffffffffffffffffffffffffffff1681526020018215151515815260200192505050602060405180830381600087803b151561163957600080fd5b6102c65a03f1151561164a57600080fd5b50505060405180519050506000600a60009054906101000a900473ffffffffffffffffffffffffffffffffffffffff1673ffffffffffffffffffffffffffffffffffffffff1663949d225d6000604051602001526040518163ffffffff167c0100000000000000000000000000000000000000000000000000000000028152600401602060405180830381600087803b15156116e557600080fd5b6102c65a03f115156116f657600080fd5b5050506040518051905014156117f857600860009054906101000a900473ffffffffffffffffffffffffffffffffffffffff1673ffffffffffffffffffffffffffffffffffffffff166389b09de7866000604051602001526040518263ffffffff167c0100000000000000000000000000000000000000000000000000000000028152600401808273ffffffffffffffffffffffffffffffffffffffff1673ffffffffffffffffffffffffffffffffffffffff168152602001915050602060405180830381600087803b15156117cb57600080fd5b6102c65a03f115156117dc57600080fd5b5050506040518051905060008060009350935093509350611ba0565b6000600860009054906101000a900473ffffffffffffffffffffffffffffffffffffffff1673ffffffffffffffffffffffffffffffffffffffff1663949d225d6000604051602001526040518163ffffffff167c0100000000000000000000000000000000000000000000000000000000028152600401602060405180830381600087803b151561188857600080fd5b6102c65a03f1151561189957600080fd5b5050506040518051905014156119635760018086600a60009054906101000a900473ffffffffffffffffffffffffffffffffffffffff1673ffffffffffffffffffffffffffffffffffffffff1663a4ece52c6000604051602001526040518163ffffffff167c0100000000000000000000000000000000000000000000000000000000028152600401602060405180830381600087803b151561193b57600080fd5b6102c65a03f1151561194c57600080fd5b505050604051805190509350935093509350611ba0565b600860009054906101000a900473ffffffffffffffffffffffffffffffffffffffff1673ffffffffffffffffffffffffffffffffffffffff166389b09de7866000604051602001526040518263ffffffff167c0100000000000000000000000000000000000000000000000000000000028152600401808273ffffffffffffffffffffffffffffffffffffffff1673ffffffffffffffffffffffffffffffffffffffff168152602001915050602060405180830381600087803b1515611a2857600080fd5b6102c65a03f11515611a3957600080fd5b505050604051805190506001600860009054906101000a900473ffffffffffffffffffffffffffffffffffffffff1673ffffffffffffffffffffffffffffffffffffffff1663a4ece52c6000604051602001526040518163ffffffff167c0100000000000000000000000000000000000000000000000000000000028152600401602060405180830381600087803b1515611ad357600080fd5b6102c65a03f11515611ae457600080fd5b50505060405180519050600a60009054906101000a900473ffffffffffffffffffffffffffffffffffffffff1673ffffffffffffffffffffffffffffffffffffffff1663a4ece52c6000604051602001526040518163ffffffff167c0100000000000000000000000000000000000000000000000000000000028152600401602060405180830381600087803b1515611b7c57600080fd5b6102c65a03f11515611b8d57600080fd5b5050506040518051905093509350935093505b92959194509250565b6000611bb3612812565b600080600080600160159054906101000a900460ff161515611bd457600080fd5b611bdd336122cb565b945084600001518015611bf257508460200151155b8015611c0057508460400151155b1515611c0b57600080fd5b611c16600033610ff1565b80945081955082965083975050505050831515611c2f57fe5b8215611c4157611c3f818361246b565b505b60019550505050505090565b600360009054906101000a900473ffffffffffffffffffffffffffffffffffffffff1681565b60008060009054906101000a900473ffffffffffffffffffffffffffffffffffffffff1673ffffffffffffffffffffffffffffffffffffffff163373ffffffffffffffffffffffffffffffffffffffff16141515611cd057600080fd5b81600160006101000a81548173ffffffffffffffffffffffffffffffffffffffff021916908373ffffffffffffffffffffffffffffffffffffffff16021790555060018060146101000a81548160ff021916908315150217905550919050565b600080600080600160159054906101000a900460ff161515611d5157600080fd5b611d5c600186610ff1565b80985081945082955083965050505050821515611d7557fe5b8115611d8757611d85858261246b565b505b60019350505050919050565b6000600160009054906101000a900473ffffffffffffffffffffffffffffffffffffffff1673ffffffffffffffffffffffffffffffffffffffff163373ffffffffffffffffffffffffffffffffffffffff16141515611df157600080fd5b611dfe86868686866126b4565b5082600760006101000a81548173ffffffffffffffffffffffffffffffffffffffff021916908373ffffffffffffffffffffffffffffffffffffffff160217905550600760009054906101000a900473ffffffffffffffffffffffffffffffffffffffff16600860006101000a81548173ffffffffffffffffffffffffffffffffffffffff021916908373ffffffffffffffffffffffffffffffffffffffff16021790555081600960006101000a81548173ffffffffffffffffffffffffffffffffffffffff021916908373ffffffffffffffffffffffffffffffffffffffff160217905550600960009054906101000a900473ffffffffffffffffffffffffffffffffffffffff16600a60006101000a81548173ffffffffffffffffffffffffffffffffffffffff021916908373ffffffffffffffffffffffffffffffffffffffff160217905550600460009054906101000a900473ffffffffffffffffffffffffffffffffffffffff16600560006101000a81548173ffffffffffffffffffffffffffffffffffffffff021916908373ffffffffffffffffffffffffffffffffffffffff160217905550600360009054906101000a900473ffffffffffffffffffffffffffffffffffffffff16600660006101000a81548173ffffffffffffffffffffffffffffffffffffffff021916908373ffffffffffffffffffffffffffffffffffffffff16021790555060018060156101000a81548160ff0219169083151502179055506001905095945050505050565b600160009054906101000a900473ffffffffffffffffffffffffffffffffffffffff1681565b600760009054906101000a900473ffffffffffffffffffffffffffffffffffffffff1681565b6000806000600160159054906101000a900460ff1615156120a057600080fd5b8461219c57600860009054906101000a900473ffffffffffffffffffffffffffffffffffffffff1673ffffffffffffffffffffffffffffffffffffffff16636d1b7fc4856000604051608001526040518263ffffffff167c0100000000000000000000000000000000000000000000000000000000028152600401808273ffffffffffffffffffffffffffffffffffffffff1673ffffffffffffffffffffffffffffffffffffffff168152602001915050608060405180830381600087803b151561216a57600080fd5b6102c65a03f1151561217b57600080fd5b5050506040518051906020018051906020018051906020018051905061228f565b600a60009054906101000a900473ffffffffffffffffffffffffffffffffffffffff1673ffffffffffffffffffffffffffffffffffffffff16636d1b7fc4856000604051608001526040518263ffffffff167c0100000000000000000000000000000000000000000000000000000000028152600401808273ffffffffffffffffffffffffffffffffffffffff1673ffffffffffffffffffffffffffffffffffffffff168152602001915050608060405180830381600087803b151561226157600080fd5b6102c65a03f1151561227257600080fd5b505050604051805190602001805190602001805190602001805190505b909192509091508092508193505050808211156122be576122b981836127f990919063ffffffff16565b6122c1565b60005b9250505092915050565b6122d3612812565b6000806000806000806000600160159054906101000a900460ff1615156122f957600080fd5b600560009054906101000a900473ffffffffffffffffffffffffffffffffffffffff1673ffffffffffffffffffffffffffffffffffffffff16632390c0508a600060405160e001526040518263ffffffff167c0100000000000000000000000000000000000000000000000000000000028152600401808273ffffffffffffffffffffffffffffffffffffffff1673ffffffffffffffffffffffffffffffffffffffff16815260200191505060e060405180830381600087803b15156123be57600080fd5b6102c65a03f115156123cf57600080fd5b50505060405180519060200180519060200180519060200180519060200180519060200180519060200180519050809750819850829950839a50849b50859c50869d505050505050505060e06040519081016040528088151581526020018715158152602001861515815260200185151581526020018460ff1681526020018360ff168152602001821515815250975050505050505050919050565b6000600160159054906101000a900460ff16151561248857600080fd5b600560009054906101000a900473ffffffffffffffffffffffffffffffffffffffff1673ffffffffffffffffffffffffffffffffffffffff1663793908bb836001866000604051602001526040518463ffffffff167c0100000000000000000000000000000000000000000000000000000000028152600401808473ffffffffffffffffffffffffffffffffffffffff1673ffffffffffffffffffffffffffffffffffffffff168152602001831515151581526020018273ffffffffffffffffffffffffffffffffffffffff1673ffffffffffffffffffffffffffffffffffffffff1681526020019350505050602060405180830381600087803b151561258e57600080fd5b6102c65a03f1151561259f57600080fd5b5050506040518051905050600660009054906101000a900473ffffffffffffffffffffffffffffffffffffffff1673ffffffffffffffffffffffffffffffffffffffff166394e4e26c84846040518363ffffffff167c0100000000000000000000000000000000000000000000000000000000028152600401808373ffffffffffffffffffffffffffffffffffffffff1673ffffffffffffffffffffffffffffffffffffffff1681526020018273ffffffffffffffffffffffffffffffffffffffff1673ffffffffffffffffffffffffffffffffffffffff16815260200192505050600060405180830381600087803b151561269a57600080fd5b6102c65a03f115156126ab57600080fd5b50505092915050565b6000600160009054906101000a900473ffffffffffffffffffffffffffffffffffffffff1673ffffffffffffffffffffffffffffffffffffffff163373ffffffffffffffffffffffffffffffffffffffff1614151561271257600080fd5b600160149054906101000a900460ff16151561272d57600080fd5b85600260006101000a81548173ffffffffffffffffffffffffffffffffffffffff021916908373ffffffffffffffffffffffffffffffffffffffff16021790555084600360006101000a81548173ffffffffffffffffffffffffffffffffffffffff021916908373ffffffffffffffffffffffffffffffffffffffff16021790555083600460006101000a81548173ffffffffffffffffffffffffffffffffffffffff021916908373ffffffffffffffffffffffffffffffffffffffff16021790555095945050505050565b600082821115151561280757fe5b818303905092915050565b60e060405190810160405280600015158152602001600015158152602001600015158152602001600015158152602001600060ff168152602001600060ff16815260200160001515815250905600a165627a7a723058208e2eb1f2f00274f18c86235132a53b58d5197fb2f46e03a5db74d16a90969c7c0029",
  "source": "pragma solidity ^0.4.18;\r\n\r\nimport \"../misc/SafeMath.sol\";\r\nimport \"../ownership/Controllable.sol\";\r\n\r\nimport \"../interface/model/Queue_Interface.sol\";\r\n\r\nimport \"../interface/dispatcher/Dispatcher_Interface_client.sol\";\r\nimport \"../interface/dispatcher/Dispatcher_Interface_distributor.sol\";\r\nimport \"../interface/dispatcher/Dispatcher_Interface_submitter.sol\";\r\nimport \"../interface/dispatcher/Dispatcher_Interface_miner.sol\";\r\n\r\nimport \"../interface/client/Client_Interface_dispatcher.sol\";\r\nimport \"../interface/distributor/Distributor_Interface_dispatcher.sol\";\r\n\r\n//Dispatcher Logic Module\r\ncontract Dispatcher is Controllable,\r\nDispatcherInterfaceSubmitter, DispatcherInterfaceMiner, DispatcherInterfaceDistributor, DispatcherInterfaceClient\r\n{\r\n    //------------------------------------------------------------------------------------------------------------------\r\n    using SafeMath for uint256;\r\n\r\n    ClientInterfaceDispatcher client;\r\n    DistributorInterfaceDispatcher distributor;\r\n\r\n    address public queue_ai_address;\r\n    QueueInterface queue_ai;\r\n\r\n    address public queue_task_address;\r\n    QueueInterface queue_task;\r\n\r\n\r\n    //------------------------------------------------------------------------------------------------------------------\r\n    //Constructor\r\n    function Dispatcher(address _admin) public Controllable(msg.sender, _admin) {}\r\n\r\n    //------------------------------------------------------------------------------------------------------------------\r\n    //Modifier\r\n\r\n    //------------------------------------------------------------------------------------------------------------------\r\n    //Setters\r\n    //Override\r\n    function set_addresses(address _dispatcher, address _distributor, address _client, address _model, address _task_queue) admin_only public returns (bool){\r\n        super.set_addresses(_dispatcher, _distributor, _client, _model, _task_queue);\r\n\r\n        queue_ai_address = _model;\r\n        queue_ai = QueueInterface(queue_ai_address);\r\n        queue_task_address = _task_queue;\r\n        queue_task = QueueInterface(queue_task_address);\r\n\r\n        client = ClientInterfaceDispatcher(client_address);\r\n        distributor = DistributorInterfaceDispatcher(distributor_address);\r\n        //todo add a checker function\r\n       \r\n        controller_ready = true;\r\n\r\n        return true;\r\n    }\r\n\r\n    event B(address);\r\n    event C(address);\r\n    //------------------------------------------------------------------------------------------------------------------\r\n    //internal helpers\r\n\r\n    ///@dev internal usage\r\n    struct account_info {\r\n        bool _eligible;\r\n        bool _waiting;\r\n        bool _working;\r\n        bool _banned;\r\n        uint8 _misconduct_counter;\r\n        uint8 _level;\r\n        bool _submissible;\r\n    }\r\n    \r\n    //@dev internal usage\r\n    function load_client(address _client) Ready view internal returns (account_info){\r\n        bool _eligible;\r\n        bool _waiting;\r\n        bool _working;\r\n        bool _banned;\r\n        uint8 _misconduct_counter;\r\n        uint8 _level;\r\n        bool _submissible;\r\n        (_eligible, _waiting, _working, _banned, _misconduct_counter, _level, _submissible) = client.get_client(_client);\r\n        return account_info(_eligible, _waiting, _working, _banned, _misconduct_counter, _level, _submissible);\r\n    }\r\n    //@dev internal usage\r\n    function calculate_position(bool _is_task, address _address) Ready internal view returns (uint256){\r\n        uint _id;\r\n        uint _curr;\r\n        (, , _id, _curr) = _is_task ? queue_task.queuer_status(_address) : queue_ai.queuer_status(_address);\r\n        return _id <= _curr ? 0 : _id.sub(_curr);\r\n    }\r\n    /**\r\n     * @dev internal usage, make change in its own data contract\r\n     * \r\n     * @param _is_task distinguish a task or worker address\r\n     * @param _address the address of the task or worker\r\n     * @return @param _success whether the pushing to queue is successful\r\n     *         @param _dispatchable whether a task can be dispatched to a worker\r\n     *         @param _worker address of the worker where the task is assigned to\r\n     *         @param _task address of the task to be dispatched to worker\r\n     */\r\n    function is_dispatchable(bool _is_task, address _address)\r\n    Ready public\r\n    returns (bool _success, bool _dispatchable, address _worker, address _task){\r\n        if(_is_task){\r\n            if(queue_ai.size() == 0) return (queue_task.push(_address), false, address(0), address(0));\r\n            else{\r\n                if(queue_task.size() == 0) return (true, true, queue_ai.pop(), _address);\r\n                else return (queue_task.push(_address), true, queue_ai.pop(), queue_task.pop());\r\n            }\r\n        }else{\r\n            client.set_waiting(_address, true);\r\n            //set waiting\r\n            if (queue_task.size() == 0) return (queue_ai.push(_address), false, address(0), address(0));\r\n            else{\r\n                if(queue_ai.size() == 0) return (true, true, _address, queue_task.pop());\r\n                else return (queue_ai.push(_address), true, queue_ai.pop(), queue_task.pop());\r\n            }\r\n        }\r\n    }\r\n    ///@dev internal usage, make changes in client accounts and task pool\r\n    ///@dev task and client validation is made at their entry point\r\n    function dispatch(address _task, address _worker) Ready internal returns (bool){\r\n        //Client\r\n        client.add_job(_worker, true, _task);//set to working\r\n        //Task\r\n        distributor.dispatch_task(_task, _worker);//change task status to dispatched\r\n    }\r\n\r\n    //------------------------------------------------------------------------------------------------------------------\r\n    //Client\r\n    ///@dev getter\r\n    function task_position(address _task) Ready view public returns (uint256){\r\n        return calculate_position(true, _task);\r\n    }\r\n    //@dev getter\r\n    function task_queue_length() Ready view public returns (uint256){\r\n        return queue_task.size();\r\n    }\r\n\r\n    //------------------------------------------------------------------------------------------------------------------\r\n    //Miner\r\n    ///@dev entry point: AI eligibility is checked here\r\n    function join_ai_queue() Ready public returns (bool){\r\n        account_info memory _sender = load_client(msg.sender);\r\n        require(_sender._eligible && !_sender._waiting && !_sender._working);\r\n\r\n        //make changes in both queue\r\n        bool _success;\r\n        bool _dispatchable;\r\n        address _worker;\r\n        address _task;\r\n        (_success, _dispatchable, _worker, _task) = is_dispatchable(false, msg.sender);\r\n\r\n        assert(_success);\r\n        //make change in client account and task pool through Client and Distributor\r\n    \r\n        if(_dispatchable) dispatch(_task, _worker);\r\n        \r\n        return true;\r\n    }\r\n    ///@dev entry point\r\n    function leave_ai_queue() Ready public returns (bool){\r\n        account_info memory _sender = load_client(msg.sender);\r\n        require(_sender._waiting);\r\n        client.set_waiting(msg.sender, false);\r\n    }\r\n    ///@dev getter\r\n    function ai_queue_length() Ready view public returns (uint256){\r\n        return queue_ai.size();\r\n    }\r\n    ///@dev getter\r\n    function ai_position(address _worker) Ready view public returns (uint256){\r\n        return calculate_position(false, _worker);\r\n    }\r\n\r\n    //------------------------------------------------------------------------------------------------------------------\r\n    //Distributor\r\n    //@dev intermediate point - task validation has been made by\r\n    function join_task_queue(address _task) Ready public payable returns (bool){\r\n        bool _success;\r\n        bool _dispatchable;\r\n        address _worker;\r\n        (_success, _dispatchable, _worker, _task) = is_dispatchable(true, _task);\r\n\r\n        assert(_success);\r\n        if(_dispatchable) dispatch(_task, _worker);\r\n        return true;\r\n    }\r\n    //@dev intermediate point, condition checked and met in distributor\r\n    function leave_task_queue(address _task_address) Ready public returns (bool){\r\n        assert(queue_task.remove(_task_address));\r\n        return true;\r\n    }\r\n    //@dev task rejoin to queue after being dispatched @dev todo not completed\r\n    //@dev intermediate point\r\n    function rejoin(address _task, address _worker, uint8 _penalty) Ready public returns (uint8){\r\n        queue_task.insert(_task, 0);//current insert to head of the queue_task\r\n        return client.set_misconduct_counter(_worker, true, _penalty);\r\n    }\r\n}\r\n",
  "sourcePath": "C:\\Users\\tony\\WebstormProjects\\nebula-helix\\contract\\contracts\\helix1.1\\controller\\Dispatcher.sol",
  "compiler": {
    "name": "solc",
    "version": "0.4.18+commit.9cf6e910.Emscripten.clang"
  },
  "schemaVersion": "1.0.1",
  "updatedAt": "2018-02-15T20:52:59.762Z"
}