{
  "contractName": "Dispatcher",
  "abi": [
    {
      "constant": true,
      "inputs": [],
      "name": "admin_loaded",
      "outputs": [
        {
          "name": "",
          "type": "bool"
        }
      ],
      "payable": false,
      "stateMutability": "view",
      "type": "function"
    },
    {
      "constant": false,
      "inputs": [
        {
          "name": "_owner",
          "type": "address"
        }
      ],
      "name": "change_owner",
      "outputs": [],
      "payable": false,
      "stateMutability": "nonpayable",
      "type": "function"
    },
    {
      "constant": false,
      "inputs": [],
      "name": "invalidate_contract",
      "outputs": [
        {
          "name": "",
          "type": "bool"
        }
      ],
      "payable": false,
      "stateMutability": "nonpayable",
      "type": "function"
    },
    {
      "constant": true,
      "inputs": [],
      "name": "client_address",
      "outputs": [
        {
          "name": "",
          "type": "address"
        }
      ],
      "payable": false,
      "stateMutability": "view",
      "type": "function"
    },
    {
      "constant": true,
      "inputs": [
        {
          "name": "_task",
          "type": "address"
        }
      ],
      "name": "task_position",
      "outputs": [
        {
          "name": "",
          "type": "uint256"
        }
      ],
      "payable": false,
      "stateMutability": "view",
      "type": "function"
    },
    {
      "constant": true,
      "inputs": [],
      "name": "dispatcher_address",
      "outputs": [
        {
          "name": "",
          "type": "address"
        }
      ],
      "payable": false,
      "stateMutability": "view",
      "type": "function"
    },
    {
      "constant": true,
      "inputs": [],
      "name": "controller_ready",
      "outputs": [
        {
          "name": "",
          "type": "bool"
        }
      ],
      "payable": false,
      "stateMutability": "view",
      "type": "function"
    },
    {
      "constant": true,
      "inputs": [
        {
          "name": "_worker",
          "type": "address"
        }
      ],
      "name": "ai_position",
      "outputs": [
        {
          "name": "",
          "type": "uint256"
        }
      ],
      "payable": false,
      "stateMutability": "view",
      "type": "function"
    },
    {
      "constant": false,
      "inputs": [],
      "name": "leave_ai_queue",
      "outputs": [
        {
          "name": "",
          "type": "bool"
        }
      ],
      "payable": false,
      "stateMutability": "nonpayable",
      "type": "function"
    },
    {
      "constant": true,
      "inputs": [],
      "name": "owner",
      "outputs": [
        {
          "name": "",
          "type": "address"
        }
      ],
      "payable": false,
      "stateMutability": "view",
      "type": "function"
    },
    {
      "constant": false,
      "inputs": [
        {
          "name": "_task_address",
          "type": "address"
        }
      ],
      "name": "leave_task_queue",
      "outputs": [
        {
          "name": "",
          "type": "bool"
        }
      ],
      "payable": false,
      "stateMutability": "nonpayable",
      "type": "function"
    },
    {
      "constant": true,
      "inputs": [],
      "name": "owner_get_balance",
      "outputs": [
        {
          "name": "",
          "type": "uint256"
        }
      ],
      "payable": false,
      "stateMutability": "view",
      "type": "function"
    },
    {
      "constant": true,
      "inputs": [],
      "name": "queue_task_address",
      "outputs": [
        {
          "name": "",
          "type": "address"
        }
      ],
      "payable": false,
      "stateMutability": "view",
      "type": "function"
    },
    {
      "constant": true,
      "inputs": [],
      "name": "ai_queue_length",
      "outputs": [
        {
          "name": "",
          "type": "uint256"
        }
      ],
      "payable": false,
      "stateMutability": "view",
      "type": "function"
    },
    {
      "constant": true,
      "inputs": [],
      "name": "task_queue_length",
      "outputs": [
        {
          "name": "",
          "type": "uint256"
        }
      ],
      "payable": false,
      "stateMutability": "view",
      "type": "function"
    },
    {
      "constant": false,
      "inputs": [],
      "name": "join_ai_queue",
      "outputs": [
        {
          "name": "",
          "type": "bool"
        }
      ],
      "payable": false,
      "stateMutability": "nonpayable",
      "type": "function"
    },
    {
      "constant": true,
      "inputs": [],
      "name": "distributor_address",
      "outputs": [
        {
          "name": "",
          "type": "address"
        }
      ],
      "payable": false,
      "stateMutability": "view",
      "type": "function"
    },
    {
      "constant": false,
      "inputs": [
        {
          "name": "_amount",
          "type": "uint256"
        }
      ],
      "name": "owner_withdraw",
      "outputs": [
        {
          "name": "",
          "type": "uint256"
        }
      ],
      "payable": false,
      "stateMutability": "nonpayable",
      "type": "function"
    },
    {
      "constant": true,
      "inputs": [],
      "name": "valid",
      "outputs": [
        {
          "name": "",
          "type": "bool"
        }
      ],
      "payable": false,
      "stateMutability": "view",
      "type": "function"
    },
    {
      "constant": false,
      "inputs": [
        {
          "name": "_task",
          "type": "address"
        },
        {
          "name": "_position",
          "type": "uint8"
        }
      ],
      "name": "rejoin",
      "outputs": [
        {
          "name": "",
          "type": "bool"
        }
      ],
      "payable": false,
      "stateMutability": "nonpayable",
      "type": "function"
    },
    {
      "constant": false,
      "inputs": [
        {
          "name": "_admin",
          "type": "address"
        }
      ],
      "name": "set_admin",
      "outputs": [
        {
          "name": "",
          "type": "bool"
        }
      ],
      "payable": false,
      "stateMutability": "nonpayable",
      "type": "function"
    },
    {
      "constant": false,
      "inputs": [
        {
          "name": "_task",
          "type": "address"
        }
      ],
      "name": "join_task_queue",
      "outputs": [
        {
          "name": "",
          "type": "bool"
        }
      ],
      "payable": false,
      "stateMutability": "nonpayable",
      "type": "function"
    },
    {
      "constant": false,
      "inputs": [
        {
          "name": "_dispatcher",
          "type": "address"
        },
        {
          "name": "_distributor",
          "type": "address"
        },
        {
          "name": "_client",
          "type": "address"
        },
        {
          "name": "_model",
          "type": "address"
        },
        {
          "name": "_task_queue",
          "type": "address"
        }
      ],
      "name": "set_addresses",
      "outputs": [
        {
          "name": "",
          "type": "bool"
        }
      ],
      "payable": false,
      "stateMutability": "nonpayable",
      "type": "function"
    },
    {
      "constant": true,
      "inputs": [],
      "name": "admin_address",
      "outputs": [
        {
          "name": "",
          "type": "address"
        }
      ],
      "payable": false,
      "stateMutability": "view",
      "type": "function"
    },
    {
      "constant": true,
      "inputs": [],
      "name": "queue_ai_address",
      "outputs": [
        {
          "name": "",
          "type": "address"
        }
      ],
      "payable": false,
      "stateMutability": "view",
      "type": "function"
    },
    {
      "inputs": [
        {
          "name": "_admin",
          "type": "address"
        }
      ],
      "payable": false,
      "stateMutability": "nonpayable",
      "type": "constructor"
    },
    {
      "payable": false,
      "stateMutability": "nonpayable",
      "type": "fallback"
    },
    {
      "anonymous": false,
      "inputs": [
        {
          "indexed": false,
          "name": "_task",
          "type": "address"
        },
        {
          "indexed": false,
          "name": "_worker",
          "type": "address"
        }
      ],
      "name": "TaskDispatched",
      "type": "event"
    },
    {
      "anonymous": false,
      "inputs": [
        {
          "indexed": false,
          "name": "_task",
          "type": "address"
        }
      ],
      "name": "TaskQueued",
      "type": "event"
    },
    {
      "anonymous": false,
      "inputs": [
        {
          "indexed": false,
          "name": "_miner",
          "type": "address"
        }
      ],
      "name": "AiQueued",
      "type": "event"
    },
    {
      "anonymous": false,
      "inputs": [
        {
          "indexed": false,
          "name": "_worker",
          "type": "address"
        }
      ],
      "name": "AiLeftQueue",
      "type": "event"
    }
  ],
  "bytecode": "0x606060405234156200001057600080fd5b604051602080620033df833981016040528080519060200190919050503381818181806000806101000a81548173ffffffffffffffffffffffffffffffffffffffff021916908373ffffffffffffffffffffffffffffffffffffffff1602179055505060018060166101000a81548160ff021916908315150217905550600073ffffffffffffffffffffffffffffffffffffffff168173ffffffffffffffffffffffffffffffffffffffff16141515620000e557620000e381620000f064010000000002620018dc176401000000009004565b505b5050505050620001ae565b60008060009054906101000a900473ffffffffffffffffffffffffffffffffffffffff1673ffffffffffffffffffffffffffffffffffffffff163373ffffffffffffffffffffffffffffffffffffffff161415156200014e57600080fd5b81600160006101000a81548173ffffffffffffffffffffffffffffffffffffffff021916908373ffffffffffffffffffffffffffffffffffffffff16021790555060018060146101000a81548160ff021916908315150217905550919050565b61322180620001be6000396000f300606060405260043610610149576000357c0100000000000000000000000000000000000000000000000000000000900463ffffffff1680631df2c6ab146101b4578063253c8bd4146101e1578063325063001461021a5780634bf4e421146102475780634f3c76031461029c578063559670f8146102e95780635841e6a71461033e57806385d248eb1461036b5780638d219324146103b85780638da5cb5b146103e557806398ce6fdf1461043a57806399572a201461048b5780639a7cafed146104b45780639b7eddc114610509578063a330c4d314610532578063b1ff9d241461055b578063b2ad35c014610588578063b33926cb146105dd578063c199121914610614578063d18f6ceb14610641578063e9333fab1461069e578063e9f0afe9146106ef578063ee7b167414610740578063f2e627721461080d578063fcb4ffa014610862575b341561015457600080fd5b6000809054906101000a900473ffffffffffffffffffffffffffffffffffffffff1673ffffffffffffffffffffffffffffffffffffffff163373ffffffffffffffffffffffffffffffffffffffff161415156101af57600080fd5b600080fd5b34156101bf57600080fd5b6101c76108b7565b604051808215151515815260200191505060405180910390f35b34156101ec57600080fd5b610218600480803573ffffffffffffffffffffffffffffffffffffffff169060200190919050506108ca565b005b341561022557600080fd5b61022d610968565b604051808215151515815260200191505060405180910390f35b341561025257600080fd5b61025a6109e3565b604051808273ffffffffffffffffffffffffffffffffffffffff1673ffffffffffffffffffffffffffffffffffffffff16815260200191505060405180910390f35b34156102a757600080fd5b6102d3600480803573ffffffffffffffffffffffffffffffffffffffff16906020019091905050610a09565b6040518082815260200191505060405180910390f35b34156102f457600080fd5b6102fc610a38565b604051808273ffffffffffffffffffffffffffffffffffffffff1673ffffffffffffffffffffffffffffffffffffffff16815260200191505060405180910390f35b341561034957600080fd5b610351610a5e565b604051808215151515815260200191505060405180910390f35b341561037657600080fd5b6103a2600480803573ffffffffffffffffffffffffffffffffffffffff16906020019091905050610a71565b6040518082815260200191505060405180910390f35b34156103c357600080fd5b6103cb610aa0565b604051808215151515815260200191505060405180910390f35b34156103f057600080fd5b6103f8610d36565b604051808273ffffffffffffffffffffffffffffffffffffffff1673ffffffffffffffffffffffffffffffffffffffff16815260200191505060405180910390f35b341561044557600080fd5b610471600480803573ffffffffffffffffffffffffffffffffffffffff16906020019091905050610d5b565b604051808215151515815260200191505060405180910390f35b341561049657600080fd5b61049e610f74565b6040518082815260200191505060405180910390f35b34156104bf57600080fd5b6104c7610fee565b604051808273ffffffffffffffffffffffffffffffffffffffff1673ffffffffffffffffffffffffffffffffffffffff16815260200191505060405180910390f35b341561051457600080fd5b61051c611014565b6040518082815260200191505060405180910390f35b341561053d57600080fd5b6105456110df565b6040518082815260200191505060405180910390f35b341561056657600080fd5b61056e6111aa565b604051808215151515815260200191505060405180910390f35b341561059357600080fd5b61059b611316565b604051808273ffffffffffffffffffffffffffffffffffffffff1673ffffffffffffffffffffffffffffffffffffffff16815260200191505060405180910390f35b34156105e857600080fd5b6105fe600480803590602001909190505061133c565b6040518082815260200191505060405180910390f35b341561061f57600080fd5b61062761141b565b604051808215151515815260200191505060405180910390f35b341561064c57600080fd5b610684600480803573ffffffffffffffffffffffffffffffffffffffff1690602001909190803560ff1690602001909190505061142e565b604051808215151515815260200191505060405180910390f35b34156106a957600080fd5b6106d5600480803573ffffffffffffffffffffffffffffffffffffffff169060200190919050506118dc565b604051808215151515815260200191505060405180910390f35b34156106fa57600080fd5b610726600480803573ffffffffffffffffffffffffffffffffffffffff16906020019091905050611999565b604051808215151515815260200191505060405180910390f35b341561074b57600080fd5b6107f3600480803573ffffffffffffffffffffffffffffffffffffffff1690602001909190803573ffffffffffffffffffffffffffffffffffffffff1690602001909190803573ffffffffffffffffffffffffffffffffffffffff1690602001909190803573ffffffffffffffffffffffffffffffffffffffff1690602001909190803573ffffffffffffffffffffffffffffffffffffffff16906020019091905050611add565b604051808215151515815260200191505060405180910390f35b341561081857600080fd5b610820611dd5565b604051808273ffffffffffffffffffffffffffffffffffffffff1673ffffffffffffffffffffffffffffffffffffffff16815260200191505060405180910390f35b341561086d57600080fd5b610875611dfb565b604051808273ffffffffffffffffffffffffffffffffffffffff1673ffffffffffffffffffffffffffffffffffffffff16815260200191505060405180910390f35b600160149054906101000a900460ff1681565b6000809054906101000a900473ffffffffffffffffffffffffffffffffffffffff1673ffffffffffffffffffffffffffffffffffffffff163373ffffffffffffffffffffffffffffffffffffffff1614151561092557600080fd5b806000806101000a81548173ffffffffffffffffffffffffffffffffffffffff021916908373ffffffffffffffffffffffffffffffffffffffff16021790555050565b60008060009054906101000a900473ffffffffffffffffffffffffffffffffffffffff1673ffffffffffffffffffffffffffffffffffffffff163373ffffffffffffffffffffffffffffffffffffffff161415156109c557600080fd5b6000600160166101000a81548160ff02191690831515021790555090565b600460009054906101000a900473ffffffffffffffffffffffffffffffffffffffff1681565b6000600160159054906101000a900460ff161515610a2657600080fd5b610a31600183611e21565b9050919050565b600260009054906101000a900473ffffffffffffffffffffffffffffffffffffffff1681565b600160159054906101000a900460ff1681565b6000600160159054906101000a900460ff161515610a8e57600080fd5b610a99600083611e21565b9050919050565b6000610aaa6131ba565b600160159054906101000a900460ff161515610ac557600080fd5b610ace3361206c565b905080602001518015610ae357508060400151155b1515610aee57600080fd5b600860009054906101000a900473ffffffffffffffffffffffffffffffffffffffff1673ffffffffffffffffffffffffffffffffffffffff166329092d0e336000604051602001526040518263ffffffff167c0100000000000000000000000000000000000000000000000000000000028152600401808273ffffffffffffffffffffffffffffffffffffffff1673ffffffffffffffffffffffffffffffffffffffff168152602001915050602060405180830381600087803b1515610bb357600080fd5b6102c65a03f11515610bc457600080fd5b505050604051805190501515610bd657fe5b600560009054906101000a900473ffffffffffffffffffffffffffffffffffffffff1673ffffffffffffffffffffffffffffffffffffffff16635dea932933600080604051602001526040518363ffffffff167c0100000000000000000000000000000000000000000000000000000000028152600401808373ffffffffffffffffffffffffffffffffffffffff1673ffffffffffffffffffffffffffffffffffffffff1681526020018215151515815260200192505050602060405180830381600087803b1515610ca757600080fd5b6102c65a03f11515610cb857600080fd5b50505060405180519050151515610ccb57fe5b7f608e057f071579d326bfd16e2c3eb8f905a1a65f1f199328f6acbbb08717949a33604051808273ffffffffffffffffffffffffffffffffffffffff1673ffffffffffffffffffffffffffffffffffffffff16815260200191505060405180910390a1600191505090565b6000809054906101000a900473ffffffffffffffffffffffffffffffffffffffff1681565b6000600160159054906101000a900460ff161515610d7857600080fd5b3373ffffffffffffffffffffffffffffffffffffffff16600360009054906101000a900473ffffffffffffffffffffffffffffffffffffffff1673ffffffffffffffffffffffffffffffffffffffff161480610e215750600160009054906101000a900473ffffffffffffffffffffffffffffffffffffffff1673ffffffffffffffffffffffffffffffffffffffff163373ffffffffffffffffffffffffffffffffffffffff16145b80610e7857506000809054906101000a900473ffffffffffffffffffffffffffffffffffffffff1673ffffffffffffffffffffffffffffffffffffffff163373ffffffffffffffffffffffffffffffffffffffff16145b1515610e8357600080fd5b600a60009054906101000a900473ffffffffffffffffffffffffffffffffffffffff1673ffffffffffffffffffffffffffffffffffffffff166329092d0e836000604051602001526040518263ffffffff167c0100000000000000000000000000000000000000000000000000000000028152600401808273ffffffffffffffffffffffffffffffffffffffff1673ffffffffffffffffffffffffffffffffffffffff168152602001915050602060405180830381600087803b1515610f4857600080fd5b6102c65a03f11515610f5957600080fd5b505050604051805190501515610f6b57fe5b60019050919050565b60008060009054906101000a900473ffffffffffffffffffffffffffffffffffffffff1673ffffffffffffffffffffffffffffffffffffffff163373ffffffffffffffffffffffffffffffffffffffff16141515610fd157600080fd5b3073ffffffffffffffffffffffffffffffffffffffff1631905090565b600960009054906101000a900473ffffffffffffffffffffffffffffffffffffffff1681565b6000600160159054906101000a900460ff16151561103157600080fd5b600860009054906101000a900473ffffffffffffffffffffffffffffffffffffffff1673ffffffffffffffffffffffffffffffffffffffff1663949d225d6000604051602001526040518163ffffffff167c0100000000000000000000000000000000000000000000000000000000028152600401602060405180830381600087803b15156110bf57600080fd5b6102c65a03f115156110d057600080fd5b50505060405180519050905090565b6000600160159054906101000a900460ff1615156110fc57600080fd5b600a60009054906101000a900473ffffffffffffffffffffffffffffffffffffffff1673ffffffffffffffffffffffffffffffffffffffff1663949d225d6000604051602001526040518163ffffffff167c0100000000000000000000000000000000000000000000000000000000028152600401602060405180830381600087803b151561118a57600080fd5b6102c65a03f1151561119b57600080fd5b50505060405180519050905090565b60006111b46131ba565b600160159054906101000a900460ff1615156111cf57600080fd5b6111d83361206c565b9050806000015180156111ed57508060200151155b80156111fb57508060400151155b151561120657600080fd5b600560009054906101000a900473ffffffffffffffffffffffffffffffffffffffff1673ffffffffffffffffffffffffffffffffffffffff16635dea93293360016000604051602001526040518363ffffffff167c0100000000000000000000000000000000000000000000000000000000028152600401808373ffffffffffffffffffffffffffffffffffffffff1673ffffffffffffffffffffffffffffffffffffffff1681526020018215151515815260200192505050602060405180830381600087803b15156112d857600080fd5b6102c65a03f115156112e957600080fd5b5050506040518051905015156112fb57fe5b6113066000336121ea565b151561130e57fe5b600191505090565b600360009054906101000a900473ffffffffffffffffffffffffffffffffffffffff1681565b60008060009054906101000a900473ffffffffffffffffffffffffffffffffffffffff1673ffffffffffffffffffffffffffffffffffffffff163373ffffffffffffffffffffffffffffffffffffffff1614151561139957600080fd5b600160169054906101000a900460ff161515156113b557600080fd5b6000809054906101000a900473ffffffffffffffffffffffffffffffffffffffff1673ffffffffffffffffffffffffffffffffffffffff166108fc839081150290604051600060405180830381858888f19350505050151561141657600080fd5b919050565b600160169054906101000a900460ff1681565b6000806000600160159054906101000a900460ff16151561144e57600080fd5b3373ffffffffffffffffffffffffffffffffffffffff16600360009054906101000a900473ffffffffffffffffffffffffffffffffffffffff1673ffffffffffffffffffffffffffffffffffffffff1614806114f75750600160009054906101000a900473ffffffffffffffffffffffffffffffffffffffff1673ffffffffffffffffffffffffffffffffffffffff163373ffffffffffffffffffffffffffffffffffffffff16145b8061154e57506000809054906101000a900473ffffffffffffffffffffffffffffffffffffffff1673ffffffffffffffffffffffffffffffffffffffff163373ffffffffffffffffffffffffffffffffffffffff16145b151561155957600080fd5b600a60009054906101000a900473ffffffffffffffffffffffffffffffffffffffff1673ffffffffffffffffffffffffffffffffffffffff16630fd0ae1086866000604051602001526040518363ffffffff167c0100000000000000000000000000000000000000000000000000000000028152600401808373ffffffffffffffffffffffffffffffffffffffff1673ffffffffffffffffffffffffffffffffffffffff1681526020018260ff16815260200192505050602060405180830381600087803b151561162957600080fd5b6102c65a03f1151561163a57600080fd5b50505060405180519050151561164c57fe5b6000600860009054906101000a900473ffffffffffffffffffffffffffffffffffffffff1673ffffffffffffffffffffffffffffffffffffffff1663949d225d6000604051602001526040518163ffffffff167c0100000000000000000000000000000000000000000000000000000000028152600401602060405180830381600087803b15156116dc57600080fd5b6102c65a03f115156116ed57600080fd5b5050506040518051905011156118d057600073ffffffffffffffffffffffffffffffffffffffff16600a60009054906101000a900473ffffffffffffffffffffffffffffffffffffffff1673ffffffffffffffffffffffffffffffffffffffff1663a4ece52c6000604051602001526040518163ffffffff167c0100000000000000000000000000000000000000000000000000000000028152600401602060405180830381600087803b15156117a357600080fd5b6102c65a03f115156117b457600080fd5b5050506040518051905092508273ffffffffffffffffffffffffffffffffffffffff16141515156117e157fe5b600073ffffffffffffffffffffffffffffffffffffffff16600860009054906101000a900473ffffffffffffffffffffffffffffffffffffffff1673ffffffffffffffffffffffffffffffffffffffff1663a4ece52c6000604051602001526040518163ffffffff167c0100000000000000000000000000000000000000000000000000000000028152600401602060405180830381600087803b151561188757600080fd5b6102c65a03f1151561189857600080fd5b5050506040518051905091508173ffffffffffffffffffffffffffffffffffffffff16141515156118c557fe5b6118cf8282612d25565b5b60019250505092915050565b60008060009054906101000a900473ffffffffffffffffffffffffffffffffffffffff1673ffffffffffffffffffffffffffffffffffffffff163373ffffffffffffffffffffffffffffffffffffffff1614151561193957600080fd5b81600160006101000a81548173ffffffffffffffffffffffffffffffffffffffff021916908373ffffffffffffffffffffffffffffffffffffffff16021790555060018060146101000a81548160ff021916908315150217905550919050565b6000600160159054906101000a900460ff1615156119b657600080fd5b3373ffffffffffffffffffffffffffffffffffffffff16600360009054906101000a900473ffffffffffffffffffffffffffffffffffffffff1673ffffffffffffffffffffffffffffffffffffffff161480611a5f5750600160009054906101000a900473ffffffffffffffffffffffffffffffffffffffff1673ffffffffffffffffffffffffffffffffffffffff163373ffffffffffffffffffffffffffffffffffffffff16145b80611ab657506000809054906101000a900473ffffffffffffffffffffffffffffffffffffffff1673ffffffffffffffffffffffffffffffffffffffff163373ffffffffffffffffffffffffffffffffffffffff16145b1515611ac157600080fd5b611acc6001836121ea565b1515611ad457fe5b60019050919050565b6000600160009054906101000a900473ffffffffffffffffffffffffffffffffffffffff1673ffffffffffffffffffffffffffffffffffffffff163373ffffffffffffffffffffffffffffffffffffffff161480611b8757506000809054906101000a900473ffffffffffffffffffffffffffffffffffffffff1673ffffffffffffffffffffffffffffffffffffffff163373ffffffffffffffffffffffffffffffffffffffff16145b1515611b9257600080fd5b611b9f8686868686613005565b5082600760006101000a81548173ffffffffffffffffffffffffffffffffffffffff021916908373ffffffffffffffffffffffffffffffffffffffff160217905550600760009054906101000a900473ffffffffffffffffffffffffffffffffffffffff16600860006101000a81548173ffffffffffffffffffffffffffffffffffffffff021916908373ffffffffffffffffffffffffffffffffffffffff16021790555081600960006101000a81548173ffffffffffffffffffffffffffffffffffffffff021916908373ffffffffffffffffffffffffffffffffffffffff160217905550600960009054906101000a900473ffffffffffffffffffffffffffffffffffffffff16600a60006101000a81548173ffffffffffffffffffffffffffffffffffffffff021916908373ffffffffffffffffffffffffffffffffffffffff160217905550600460009054906101000a900473ffffffffffffffffffffffffffffffffffffffff16600560006101000a81548173ffffffffffffffffffffffffffffffffffffffff021916908373ffffffffffffffffffffffffffffffffffffffff160217905550600360009054906101000a900473ffffffffffffffffffffffffffffffffffffffff16600660006101000a81548173ffffffffffffffffffffffffffffffffffffffff021916908373ffffffffffffffffffffffffffffffffffffffff16021790555060018060156101000a81548160ff0219169083151502179055506001905095945050505050565b600160009054906101000a900473ffffffffffffffffffffffffffffffffffffffff1681565b600760009054906101000a900473ffffffffffffffffffffffffffffffffffffffff1681565b6000806000600160159054906101000a900460ff161515611e4157600080fd5b84611f3d57600860009054906101000a900473ffffffffffffffffffffffffffffffffffffffff1673ffffffffffffffffffffffffffffffffffffffff16636d1b7fc4856000604051608001526040518263ffffffff167c0100000000000000000000000000000000000000000000000000000000028152600401808273ffffffffffffffffffffffffffffffffffffffff1673ffffffffffffffffffffffffffffffffffffffff168152602001915050608060405180830381600087803b1515611f0b57600080fd5b6102c65a03f11515611f1c57600080fd5b50505060405180519060200180519060200180519060200180519050612030565b600a60009054906101000a900473ffffffffffffffffffffffffffffffffffffffff1673ffffffffffffffffffffffffffffffffffffffff16636d1b7fc4856000604051608001526040518263ffffffff167c0100000000000000000000000000000000000000000000000000000000028152600401808273ffffffffffffffffffffffffffffffffffffffff1673ffffffffffffffffffffffffffffffffffffffff168152602001915050608060405180830381600087803b151561200257600080fd5b6102c65a03f1151561201357600080fd5b505050604051805190602001805190602001805190602001805190505b9091925090915080925081935050508082111561205f5761205a81836131a190919063ffffffff16565b612062565b60005b9250505092915050565b6120746131ba565b6000806000806000600160159054906101000a900460ff16151561209757600080fd5b600560009054906101000a900473ffffffffffffffffffffffffffffffffffffffff1673ffffffffffffffffffffffffffffffffffffffff16632390c05088600060405160c001526040518263ffffffff167c0100000000000000000000000000000000000000000000000000000000028152600401808273ffffffffffffffffffffffffffffffffffffffff1673ffffffffffffffffffffffffffffffffffffffff16815260200191505060c060405180830381600087803b151561215c57600080fd5b6102c65a03f1151561216d57600080fd5b505050604051805190602001805190602001805190602001805190602001805190602001805190509050809550819650829750839850849950505050505060a06040519081016040528086151581526020018515158152602001841515815260200183151581526020018260ff1681525095505050505050919050565b600080600080600160159054906101000a900460ff16151561220b57600080fd5b8515612723576000600860009054906101000a900473ffffffffffffffffffffffffffffffffffffffff1673ffffffffffffffffffffffffffffffffffffffff1663949d225d6000604051602001526040518163ffffffff167c0100000000000000000000000000000000000000000000000000000000028152600401602060405180830381600087803b15156122a157600080fd5b6102c65a03f115156122b257600080fd5b5050506040518051905014156123af57600a60009054906101000a900473ffffffffffffffffffffffffffffffffffffffff1673ffffffffffffffffffffffffffffffffffffffff166389b09de7866000604051602001526040518263ffffffff167c0100000000000000000000000000000000000000000000000000000000028152600401808273ffffffffffffffffffffffffffffffffffffffff1673ffffffffffffffffffffffffffffffffffffffff168152602001915050602060405180830381600087803b151561238757600080fd5b6102c65a03f1151561239857600080fd5b5050506040518051905015156123aa57fe5b61271e565b600073ffffffffffffffffffffffffffffffffffffffff16600860009054906101000a900473ffffffffffffffffffffffffffffffffffffffff1673ffffffffffffffffffffffffffffffffffffffff1663a4ece52c6000604051602001526040518163ffffffff167c0100000000000000000000000000000000000000000000000000000000028152600401602060405180830381600087803b151561245557600080fd5b6102c65a03f1151561246657600080fd5b5050506040518051905092508273ffffffffffffffffffffffffffffffffffffffff161415151561249357fe5b6000600a60009054906101000a900473ffffffffffffffffffffffffffffffffffffffff1673ffffffffffffffffffffffffffffffffffffffff1663949d225d6000604051602001526040518163ffffffff167c0100000000000000000000000000000000000000000000000000000000028152600401602060405180830381600087803b151561252357600080fd5b6102c65a03f1151561253457600080fd5b50505060405180519050141561254c57849050612719565b600a60009054906101000a900473ffffffffffffffffffffffffffffffffffffffff1673ffffffffffffffffffffffffffffffffffffffff166389b09de7866000604051602001526040518263ffffffff167c0100000000000000000000000000000000000000000000000000000000028152600401808273ffffffffffffffffffffffffffffffffffffffff1673ffffffffffffffffffffffffffffffffffffffff168152602001915050602060405180830381600087803b151561261157600080fd5b6102c65a03f1151561262257600080fd5b50505060405180519050151561263457fe5b600073ffffffffffffffffffffffffffffffffffffffff16600a60009054906101000a900473ffffffffffffffffffffffffffffffffffffffff1673ffffffffffffffffffffffffffffffffffffffff1663a4ece52c6000604051602001526040518163ffffffff167c0100000000000000000000000000000000000000000000000000000000028152600401602060405180830381600087803b15156126da57600080fd5b6102c65a03f115156126eb57600080fd5b5050506040518051905091508173ffffffffffffffffffffffffffffffffffffffff161415151561271857fe5b5b600192505b612c31565b6000600a60009054906101000a900473ffffffffffffffffffffffffffffffffffffffff1673ffffffffffffffffffffffffffffffffffffffff1663949d225d6000604051602001526040518163ffffffff167c0100000000000000000000000000000000000000000000000000000000028152600401602060405180830381600087803b15156127b357600080fd5b6102c65a03f115156127c457600080fd5b5050506040518051905014156128c157600860009054906101000a900473ffffffffffffffffffffffffffffffffffffffff1673ffffffffffffffffffffffffffffffffffffffff166389b09de7866000604051602001526040518263ffffffff167c0100000000000000000000000000000000000000000000000000000000028152600401808273ffffffffffffffffffffffffffffffffffffffff1673ffffffffffffffffffffffffffffffffffffffff168152602001915050602060405180830381600087803b151561289957600080fd5b6102c65a03f115156128aa57600080fd5b5050506040518051905015156128bc57fe5b612c30565b600073ffffffffffffffffffffffffffffffffffffffff16600a60009054906101000a900473ffffffffffffffffffffffffffffffffffffffff1673ffffffffffffffffffffffffffffffffffffffff1663a4ece52c6000604051602001526040518163ffffffff167c0100000000000000000000000000000000000000000000000000000000028152600401602060405180830381600087803b151561296757600080fd5b6102c65a03f1151561297857600080fd5b5050506040518051905091508173ffffffffffffffffffffffffffffffffffffffff16141515156129a557fe5b6000600860009054906101000a900473ffffffffffffffffffffffffffffffffffffffff1673ffffffffffffffffffffffffffffffffffffffff1663949d225d6000604051602001526040518163ffffffff167c0100000000000000000000000000000000000000000000000000000000028152600401602060405180830381600087803b1515612a3557600080fd5b6102c65a03f11515612a4657600080fd5b505050604051805190501415612a5e57849150612c2b565b600860009054906101000a900473ffffffffffffffffffffffffffffffffffffffff1673ffffffffffffffffffffffffffffffffffffffff166389b09de7866000604051602001526040518263ffffffff167c0100000000000000000000000000000000000000000000000000000000028152600401808273ffffffffffffffffffffffffffffffffffffffff1673ffffffffffffffffffffffffffffffffffffffff168152602001915050602060405180830381600087803b1515612b2357600080fd5b6102c65a03f11515612b3457600080fd5b505050604051805190501515612b4657fe5b600073ffffffffffffffffffffffffffffffffffffffff16600860009054906101000a900473ffffffffffffffffffffffffffffffffffffffff1673ffffffffffffffffffffffffffffffffffffffff1663a4ece52c6000604051602001526040518163ffffffff167c0100000000000000000000000000000000000000000000000000000000028152600401602060405180830381600087803b1515612bec57600080fd5b6102c65a03f11515612bfd57600080fd5b5050506040518051905092508273ffffffffffffffffffffffffffffffffffffffff1614151515612c2a57fe5b5b600192505b5b8215612c4657612c418282612d25565b612d18565b85612cb3577f9ffaf2c37defee0a008b58fce63aa9e48d3d0d5bba247d4f4e50df511218036f85604051808273ffffffffffffffffffffffffffffffffffffffff1673ffffffffffffffffffffffffffffffffffffffff16815260200191505060405180910390a1612d17565b7f9c875b4f76e3e8c01a67ac61f28f7d10ce1ceefeaef9f558b71fba02cacd733d85604051808273ffffffffffffffffffffffffffffffffffffffff1673ffffffffffffffffffffffffffffffffffffffff16815260200191505060405180910390a15b5b6001935050505092915050565b600560009054906101000a900473ffffffffffffffffffffffffffffffffffffffff1673ffffffffffffffffffffffffffffffffffffffff1663793908bb836001846000604051602001526040518463ffffffff167c0100000000000000000000000000000000000000000000000000000000028152600401808473ffffffffffffffffffffffffffffffffffffffff1673ffffffffffffffffffffffffffffffffffffffff168152602001831515151581526020018273ffffffffffffffffffffffffffffffffffffffff1673ffffffffffffffffffffffffffffffffffffffff1681526020019350505050602060405180830381600087803b1515612e2b57600080fd5b6102c65a03f11515612e3c57600080fd5b505050604051805190501515612e4e57fe5b600660009054906101000a900473ffffffffffffffffffffffffffffffffffffffff1673ffffffffffffffffffffffffffffffffffffffff166394e4e26c82846000604051602001526040518363ffffffff167c0100000000000000000000000000000000000000000000000000000000028152600401808373ffffffffffffffffffffffffffffffffffffffff1673ffffffffffffffffffffffffffffffffffffffff1681526020018273ffffffffffffffffffffffffffffffffffffffff1673ffffffffffffffffffffffffffffffffffffffff16815260200192505050602060405180830381600087803b1515612f4757600080fd5b6102c65a03f11515612f5857600080fd5b505050604051805190501515612f6a57fe5b7fe83160260c0994681b3092cb3cb21a3da4be281114b08fca0de2bc96ed20d6aa8183604051808373ffffffffffffffffffffffffffffffffffffffff1673ffffffffffffffffffffffffffffffffffffffff1681526020018273ffffffffffffffffffffffffffffffffffffffff1673ffffffffffffffffffffffffffffffffffffffff1681526020019250505060405180910390a15050565b6000600160009054906101000a900473ffffffffffffffffffffffffffffffffffffffff1673ffffffffffffffffffffffffffffffffffffffff163373ffffffffffffffffffffffffffffffffffffffff1614806130af57506000809054906101000a900473ffffffffffffffffffffffffffffffffffffffff1673ffffffffffffffffffffffffffffffffffffffff163373ffffffffffffffffffffffffffffffffffffffff16145b15156130ba57600080fd5b600160149054906101000a900460ff1615156130d557600080fd5b85600260006101000a81548173ffffffffffffffffffffffffffffffffffffffff021916908373ffffffffffffffffffffffffffffffffffffffff16021790555084600360006101000a81548173ffffffffffffffffffffffffffffffffffffffff021916908373ffffffffffffffffffffffffffffffffffffffff16021790555083600460006101000a81548173ffffffffffffffffffffffffffffffffffffffff021916908373ffffffffffffffffffffffffffffffffffffffff16021790555095945050505050565b60008282111515156131af57fe5b818303905092915050565b60a060405190810160405280600015158152602001600015158152602001600015158152602001600015158152602001600060ff16815250905600a165627a7a723058209d60f143a22505ee01a8ae0289113b3fbbac134c3f17a2cce63d5a8f019c63b00029",
  "source": "pragma solidity ^0.4.18;\r\n//basics\r\nimport \"../misc/SafeMath.sol\";\r\nimport \"../ownership/Controllable.sol\";\r\n//data storage contract\r\nimport \"../interface/model/Queue_Interface.sol\";\r\n//is\r\nimport \"../interface/dispatcher/Dispatcher_Interface_client.sol\";\r\nimport \"../interface/dispatcher/Dispatcher_Interface_distributor.sol\";\r\nimport \"../interface/dispatcher/Dispatcher_Interface_submitter.sol\";\r\nimport \"../interface/dispatcher/Dispatcher_Interface_miner.sol\";\r\n//uses\r\nimport \"../interface/client/Client_Interface_dispatcher.sol\";\r\nimport \"../interface/distributor/Distributor_Interface_dispatcher.sol\";\r\n\r\n//Dispatcher Logic Module\r\ncontract Dispatcher is Controllable,\r\nDispatcherInterfaceSubmitter, DispatcherInterfaceMiner, DispatcherInterfaceDistributor, DispatcherInterfaceClient\r\n{\r\n    //------------------------------------------------------------------------------------------------------------------\r\n    using SafeMath for uint256;\r\n\r\n    ClientInterfaceDispatcher client;\r\n    DistributorInterfaceDispatcher distributor;\r\n\r\n    address public queue_ai_address;\r\n    QueueInterface queue_ai;\r\n\r\n    address public queue_task_address;\r\n    QueueInterface queue_task;\r\n\r\n\r\n    //------------------------------------------------------------------------------------------------------------------\r\n    //Constructor\r\n    function Dispatcher(address _admin) public Controllable(msg.sender, _admin) {}\r\n\r\n    //------------------------------------------------------------------------------------------------------------------\r\n    //Modifier\r\n\r\n    //------------------------------------------------------------------------------------------------------------------\r\n    //Setters\r\n    //Override\r\n    function set_addresses(\r\n        address _dispatcher, address _distributor, address _client, address _model, address _task_queue)\r\n    admin_only public returns (bool){\r\n        super.set_addresses(_dispatcher, _distributor, _client, _model, _task_queue);\r\n\r\n        queue_ai_address = _model;\r\n        queue_ai = QueueInterface(queue_ai_address);\r\n        queue_task_address = _task_queue;\r\n        queue_task = QueueInterface(queue_task_address);\r\n\r\n        client = ClientInterfaceDispatcher(client_address);\r\n        distributor = DistributorInterfaceDispatcher(distributor_address);\r\n        controller_ready = true;\r\n        return true;\r\n    }\r\n\r\n    function() ownerOnly public {\r\n        revert();\r\n    }\r\n    //------------------------------------------------------------------------------------------------------------------\r\n    //internal helpers\r\n\r\n    ///@dev internal usage\r\n    struct account_info {\r\n        bool _eligible;\r\n        bool _waiting;\r\n        bool _working;\r\n        bool _banned;\r\n        uint8 _level;\r\n    }\r\n\r\n    //@dev internal usage\r\n    function load_client(address _client) Ready view internal returns (account_info){\r\n        bool _eligible;\r\n        bool _waiting;\r\n        bool _working;\r\n        bool _banned;\r\n        uint8 _level;\r\n        (_eligible, _waiting, _working, _banned, , _level) = client.get_client(_client);\r\n        return account_info(_eligible, _waiting, _working, _banned, _level);\r\n    }\r\n    //@dev internal usage, if a task/ai get dispatched immediately and did not join queue, this still holds,\r\n    // as soon as\r\n    function calculate_position(bool _is_task, address _address) Ready internal view returns (uint256){\r\n        uint _id;\r\n        uint _curr;\r\n        (, , _id, _curr) = _is_task ? queue_task.queuer_status(_address) : queue_ai.queuer_status(_address);\r\n        return _id <= _curr ? 0 : _id.sub(_curr);\r\n    }\r\n\r\n    /**\r\n     * @dev internal usage, make change in its own data contract\r\n     * \r\n     * @param _is_task distinguish a task or worker address\r\n     * @param _address the address of the task or worker\r\n     * @return true if the entire process is completed\r\n     */\r\n    function dispatch_or_join(bool _is_task, address _address) internal Ready returns (bool){\r\n        bool _dispatchable;\r\n        address _worker;\r\n        address _dispatchable_task;\r\n\r\n        if(_is_task){\r\n            if (queue_ai.size() == 0) assert(queue_task.push(_address));\r\n            else {\r\n                assert((_worker = queue_ai.pop()) != address(0));\r\n                if (queue_task.size() == 0) _dispatchable_task = _address;\r\n                else {\r\n                    assert(queue_task.push(_address));\r\n                    assert((_dispatchable_task = queue_task.pop()) != address(0));\r\n                }\r\n                _dispatchable = true;\r\n            }\r\n        } else {\r\n            if (queue_task.size() == 0) assert(queue_ai.push(_address));\r\n            else {\r\n                assert((_dispatchable_task = queue_task.pop()) != address(0));\r\n                if (queue_ai.size() == 0) _worker = _address;\r\n                else {\r\n                    assert(queue_ai.push(_address));\r\n                    assert((_worker = queue_ai.pop()) != address(0));\r\n                }\r\n                _dispatchable = true;\r\n            }\r\n        }\r\n        if (_dispatchable) dispatch_task(_worker, _dispatchable_task);\r\n        //assertion done within function\r\n        else _is_task ? TaskQueued(_address) : AiQueued(_address);\r\n        return true;\r\n    }\r\n\r\n    function dispatch_task(address _worker, address _dispatchable_task) internal {\r\n        assert(client.add_job(_worker, true, _dispatchable_task));\r\n        assert(distributor.dispatch_task(_dispatchable_task, _worker));\r\n        TaskDispatched(_dispatchable_task, _worker);\r\n    }\r\n\r\n    event TaskDispatched(address _task, address _worker);\r\n    event TaskQueued(address _task);\r\n    event AiQueued(address _miner);\r\n\r\n    //------------------------------------------------------------------------------------------------------------------\r\n    //Miner\r\n    ///@dev entry point: AI eligibility is checked here\r\n    function join_ai_queue() external Ready returns (bool){\r\n        account_info memory _sender = load_client(msg.sender);\r\n        require(_sender._eligible && !_sender._waiting && !_sender._working);\r\n\r\n        assert(client.set_waiting(msg.sender, true));\r\n        assert(dispatch_or_join(false, msg.sender));\r\n        return true;\r\n    }\r\n    ///@dev entry point\r\n    //require sender waiting -> no checker needed\r\n    function leave_ai_queue() external Ready returns (bool){\r\n        account_info memory _sender = load_client(msg.sender);\r\n        require(_sender._waiting && !_sender._working);\r\n\r\n        assert(queue_ai.remove(msg.sender));\r\n        //if not existed, Queue#remove return false\r\n        assert(!client.set_waiting(msg.sender, false));\r\n        AiLeftQueue(msg.sender);\r\n        return true;\r\n    }\r\n    event AiLeftQueue(address _worker);\r\n    ///@dev getter\r\n    function ai_queue_length() external Ready view returns (uint256){\r\n        return queue_ai.size();\r\n    }\r\n    ///@dev getter\r\n    function ai_position(address _worker) external Ready view returns (uint256){\r\n        return calculate_position(false, _worker);\r\n    }\r\n\r\n    //------------------------------------------------------------------------------------------------------------------\r\n    //Distributor\r\n    //@dev intermediate point - task validation has been made by\r\n    function join_task_queue(address _task) external Ready distributor_only returns (bool){\r\n        assert(dispatch_or_join(true, _task));\r\n        return true;\r\n    }\r\n    //@dev intermediate point, condition checked and met in distributor\r\n    function leave_task_queue(address _task_address) external Ready distributor_only returns (bool){\r\n        assert(queue_task.remove(_task_address));\r\n        return true;\r\n    }\r\n    //@dev task rejoin to queue after being dispatched\r\n    //@dev intermediate point\r\n    //current insert to head of the queue_task\r\n    function rejoin(address _task, uint8 _position) external Ready distributor_only returns (bool){\r\n        assert(queue_task.insert(_task, _position));\r\n        if (queue_ai.size() > 0) {\r\n            address _task_to_dispatch;\r\n            address _worker_to_assign;\r\n            assert((_task_to_dispatch = queue_task.pop()) != address(0));\r\n            assert((_worker_to_assign = queue_ai.pop()) != address(0));\r\n            dispatch_task(_task_to_dispatch, _worker_to_assign);\r\n        }\r\n        return true;\r\n    }\r\n\r\n    ///@dev getter\r\n    function task_position(address _task) external view Ready returns (uint256){\r\n        return calculate_position(true, _task);\r\n    }\r\n    //@dev getter\r\n    function task_queue_length() external view Ready returns (uint256){\r\n        return queue_task.size();\r\n    }\r\n}\r\n",
  "sourcePath": "C:\\Users\\tony\\WebstormProjects\\nebula-helix\\contract\\contracts\\helix1.1\\controller\\Dispatcher.sol",
  "compiler": {
    "name": "solc",
    "version": "0.4.18+commit.9cf6e910.Emscripten.clang"
  },
  "schemaVersion": "1.0.1",
  "updatedAt": "2018-02-21T17:07:32.966Z"
}