{
  "contractName": "Dispatcher",
  "abi": [
    {
      "constant": true,
      "inputs": [],
      "name": "admin_loaded",
      "outputs": [
        {
          "name": "",
          "type": "bool"
        }
      ],
      "payable": false,
      "stateMutability": "view",
      "type": "function"
    },
    {
      "constant": false,
      "inputs": [
        {
          "name": "_owner",
          "type": "address"
        }
      ],
      "name": "change_owner",
      "outputs": [],
      "payable": false,
      "stateMutability": "nonpayable",
      "type": "function"
    },
    {
      "constant": true,
      "inputs": [],
      "name": "client_address",
      "outputs": [
        {
          "name": "",
          "type": "address"
        }
      ],
      "payable": false,
      "stateMutability": "view",
      "type": "function"
    },
    {
      "constant": true,
      "inputs": [],
      "name": "dispatcher_address",
      "outputs": [
        {
          "name": "",
          "type": "address"
        }
      ],
      "payable": false,
      "stateMutability": "view",
      "type": "function"
    },
    {
      "constant": true,
      "inputs": [],
      "name": "controller_ready",
      "outputs": [
        {
          "name": "",
          "type": "bool"
        }
      ],
      "payable": false,
      "stateMutability": "view",
      "type": "function"
    },
    {
      "constant": true,
      "inputs": [],
      "name": "owner",
      "outputs": [
        {
          "name": "",
          "type": "address"
        }
      ],
      "payable": false,
      "stateMutability": "view",
      "type": "function"
    },
    {
      "constant": true,
      "inputs": [],
      "name": "queue_task_address",
      "outputs": [
        {
          "name": "",
          "type": "address"
        }
      ],
      "payable": false,
      "stateMutability": "view",
      "type": "function"
    },
    {
      "constant": true,
      "inputs": [],
      "name": "distributor_address",
      "outputs": [
        {
          "name": "",
          "type": "address"
        }
      ],
      "payable": false,
      "stateMutability": "view",
      "type": "function"
    },
    {
      "constant": false,
      "inputs": [
        {
          "name": "_admin",
          "type": "address"
        }
      ],
      "name": "set_admin",
      "outputs": [
        {
          "name": "",
          "type": "bool"
        }
      ],
      "payable": false,
      "stateMutability": "nonpayable",
      "type": "function"
    },
    {
      "constant": true,
      "inputs": [],
      "name": "admin_address",
      "outputs": [
        {
          "name": "",
          "type": "address"
        }
      ],
      "payable": false,
      "stateMutability": "view",
      "type": "function"
    },
    {
      "constant": true,
      "inputs": [],
      "name": "queue_ai_address",
      "outputs": [
        {
          "name": "",
          "type": "address"
        }
      ],
      "payable": false,
      "stateMutability": "view",
      "type": "function"
    },
    {
      "inputs": [
        {
          "name": "_admin",
          "type": "address"
        }
      ],
      "payable": false,
      "stateMutability": "nonpayable",
      "type": "constructor"
    },
    {
      "anonymous": false,
      "inputs": [
        {
          "indexed": false,
          "name": "",
          "type": "address"
        }
      ],
      "name": "B",
      "type": "event"
    },
    {
      "anonymous": false,
      "inputs": [
        {
          "indexed": false,
          "name": "",
          "type": "address"
        }
      ],
      "name": "C",
      "type": "event"
    },
    {
      "constant": false,
      "inputs": [
        {
          "name": "_dispatcher",
          "type": "address"
        },
        {
          "name": "_distributor",
          "type": "address"
        },
        {
          "name": "_client",
          "type": "address"
        },
        {
          "name": "_model",
          "type": "address"
        },
        {
          "name": "_task_queue",
          "type": "address"
        }
      ],
      "name": "set_addresses",
      "outputs": [
        {
          "name": "",
          "type": "bool"
        }
      ],
      "payable": false,
      "stateMutability": "nonpayable",
      "type": "function"
    },
    {
      "constant": true,
      "inputs": [
        {
          "name": "_task",
          "type": "address"
        }
      ],
      "name": "task_position",
      "outputs": [
        {
          "name": "",
          "type": "uint256"
        }
      ],
      "payable": false,
      "stateMutability": "view",
      "type": "function"
    },
    {
      "constant": true,
      "inputs": [],
      "name": "task_queue_length",
      "outputs": [
        {
          "name": "",
          "type": "uint256"
        }
      ],
      "payable": false,
      "stateMutability": "view",
      "type": "function"
    },
    {
      "constant": false,
      "inputs": [],
      "name": "join_ai_queue",
      "outputs": [
        {
          "name": "",
          "type": "bool"
        }
      ],
      "payable": false,
      "stateMutability": "nonpayable",
      "type": "function"
    },
    {
      "constant": false,
      "inputs": [],
      "name": "leave_ai_queue",
      "outputs": [
        {
          "name": "",
          "type": "bool"
        }
      ],
      "payable": false,
      "stateMutability": "nonpayable",
      "type": "function"
    },
    {
      "constant": true,
      "inputs": [],
      "name": "ai_queue_length",
      "outputs": [
        {
          "name": "",
          "type": "uint256"
        }
      ],
      "payable": false,
      "stateMutability": "view",
      "type": "function"
    },
    {
      "constant": true,
      "inputs": [
        {
          "name": "_worker",
          "type": "address"
        }
      ],
      "name": "ai_position",
      "outputs": [
        {
          "name": "",
          "type": "uint256"
        }
      ],
      "payable": false,
      "stateMutability": "view",
      "type": "function"
    },
    {
      "constant": false,
      "inputs": [
        {
          "name": "_task",
          "type": "address"
        }
      ],
      "name": "join_task_queue",
      "outputs": [
        {
          "name": "",
          "type": "bool"
        }
      ],
      "payable": true,
      "stateMutability": "payable",
      "type": "function"
    },
    {
      "constant": false,
      "inputs": [
        {
          "name": "_task_address",
          "type": "address"
        }
      ],
      "name": "leave_task_queue",
      "outputs": [
        {
          "name": "",
          "type": "bool"
        }
      ],
      "payable": false,
      "stateMutability": "nonpayable",
      "type": "function"
    },
    {
      "constant": false,
      "inputs": [
        {
          "name": "_task",
          "type": "address"
        },
        {
          "name": "_worker",
          "type": "address"
        },
        {
          "name": "_penalty",
          "type": "uint8"
        }
      ],
      "name": "rejoin",
      "outputs": [
        {
          "name": "",
          "type": "uint8"
        }
      ],
      "payable": false,
      "stateMutability": "nonpayable",
      "type": "function"
    }
  ],
  "bytecode": "0x606060405234156200001057600080fd5b60405160208062002a7a833981016040528080519060200190919050503381818181806000806101000a81548173ffffffffffffffffffffffffffffffffffffffff021916908373ffffffffffffffffffffffffffffffffffffffff16021790555050600073ffffffffffffffffffffffffffffffffffffffff168173ffffffffffffffffffffffffffffffffffffffff16141515620000cb57620000c981620000d66401000000000262000fe3176401000000009004565b505b505050505062000194565b60008060009054906101000a900473ffffffffffffffffffffffffffffffffffffffff1673ffffffffffffffffffffffffffffffffffffffff163373ffffffffffffffffffffffffffffffffffffffff161415156200013457600080fd5b81600160006101000a81548173ffffffffffffffffffffffffffffffffffffffff021916908373ffffffffffffffffffffffffffffffffffffffff16021790555060018060146101000a81548160ff021916908315150217905550919050565b6128d680620001a46000396000f30060606040526004361061011d576000357c0100000000000000000000000000000000000000000000000000000000900463ffffffff1680631df2c6ab14610122578063253c8bd41461014f5780634bf4e421146101885780634f3c7603146101dd578063559670f81461022a5780635841e6a71461027f57806385d248eb146102ac5780638d219324146102f95780638da5cb5b146103265780638e27c3811461037b57806398ce6fdf146103f95780639a7cafed1461044a5780639b7eddc11461049f578063a330c4d3146104c8578063b1ff9d24146104f1578063b2ad35c01461051e578063e9333fab14610573578063e9f0afe9146105c4578063ee7b16741461060a578063f2e62772146106d7578063fcb4ffa01461072c575b600080fd5b341561012d57600080fd5b610135610781565b604051808215151515815260200191505060405180910390f35b341561015a57600080fd5b610186600480803573ffffffffffffffffffffffffffffffffffffffff16906020019091905050610794565b005b341561019357600080fd5b61019b610832565b604051808273ffffffffffffffffffffffffffffffffffffffff1673ffffffffffffffffffffffffffffffffffffffff16815260200191505060405180910390f35b34156101e857600080fd5b610214600480803573ffffffffffffffffffffffffffffffffffffffff16906020019091905050610858565b6040518082815260200191505060405180910390f35b341561023557600080fd5b61023d610887565b604051808273ffffffffffffffffffffffffffffffffffffffff1673ffffffffffffffffffffffffffffffffffffffff16815260200191505060405180910390f35b341561028a57600080fd5b6102926108ad565b604051808215151515815260200191505060405180910390f35b34156102b757600080fd5b6102e3600480803573ffffffffffffffffffffffffffffffffffffffff169060200190919050506108c0565b6040518082815260200191505060405180910390f35b341561030457600080fd5b61030c6108ef565b604051808215151515815260200191505060405180910390f35b341561033157600080fd5b610339610a20565b604051808273ffffffffffffffffffffffffffffffffffffffff1673ffffffffffffffffffffffffffffffffffffffff16815260200191505060405180910390f35b341561038657600080fd5b6103dd600480803573ffffffffffffffffffffffffffffffffffffffff1690602001909190803573ffffffffffffffffffffffffffffffffffffffff1690602001909190803560ff16906020019091905050610a45565b604051808260ff1660ff16815260200191505060405180910390f35b341561040457600080fd5b610430600480803573ffffffffffffffffffffffffffffffffffffffff16906020019091905050610c4f565b604051808215151515815260200191505060405180910390f35b341561045557600080fd5b61045d610d5d565b604051808273ffffffffffffffffffffffffffffffffffffffff1673ffffffffffffffffffffffffffffffffffffffff16815260200191505060405180910390f35b34156104aa57600080fd5b6104b2610d83565b6040518082815260200191505060405180910390f35b34156104d357600080fd5b6104db610e4e565b6040518082815260200191505060405180910390f35b34156104fc57600080fd5b610504610f19565b604051808215151515815260200191505060405180910390f35b341561052957600080fd5b610531610fbd565b604051808273ffffffffffffffffffffffffffffffffffffffff1673ffffffffffffffffffffffffffffffffffffffff16815260200191505060405180910390f35b341561057e57600080fd5b6105aa600480803573ffffffffffffffffffffffffffffffffffffffff16906020019091905050610fe3565b604051808215151515815260200191505060405180910390f35b6105f0600480803573ffffffffffffffffffffffffffffffffffffffff169060200190919050506110a0565b604051808215151515815260200191505060405180910390f35b341561061557600080fd5b6106bd600480803573ffffffffffffffffffffffffffffffffffffffff1690602001909190803573ffffffffffffffffffffffffffffffffffffffff1690602001909190803573ffffffffffffffffffffffffffffffffffffffff1690602001909190803573ffffffffffffffffffffffffffffffffffffffff1690602001909190803573ffffffffffffffffffffffffffffffffffffffff16906020019091905050611225565b604051808215151515815260200191505060405180910390f35b34156106e257600080fd5b6106ea6114c6565b604051808273ffffffffffffffffffffffffffffffffffffffff1673ffffffffffffffffffffffffffffffffffffffff16815260200191505060405180910390f35b341561073757600080fd5b61073f6114ec565b604051808273ffffffffffffffffffffffffffffffffffffffff1673ffffffffffffffffffffffffffffffffffffffff16815260200191505060405180910390f35b600160149054906101000a900460ff1681565b6000809054906101000a900473ffffffffffffffffffffffffffffffffffffffff1673ffffffffffffffffffffffffffffffffffffffff163373ffffffffffffffffffffffffffffffffffffffff161415156107ef57600080fd5b806000806101000a81548173ffffffffffffffffffffffffffffffffffffffff021916908373ffffffffffffffffffffffffffffffffffffffff16021790555050565b600460009054906101000a900473ffffffffffffffffffffffffffffffffffffffff1681565b6000600160159054906101000a900460ff16151561087557600080fd5b610880600183611512565b9050919050565b600260009054906101000a900473ffffffffffffffffffffffffffffffffffffffff1681565b600160159054906101000a900460ff1681565b6000600160159054906101000a900460ff1615156108dd57600080fd5b6108e8600083611512565b9050919050565b60006108f961285c565b600160159054906101000a900460ff16151561091457600080fd5b61091d3361175d565b90508060200151151561092f57600080fd5b600560009054906101000a900473ffffffffffffffffffffffffffffffffffffffff1673ffffffffffffffffffffffffffffffffffffffff16635dea932933600080604051602001526040518363ffffffff167c0100000000000000000000000000000000000000000000000000000000028152600401808373ffffffffffffffffffffffffffffffffffffffff1673ffffffffffffffffffffffffffffffffffffffff1681526020018215151515815260200192505050602060405180830381600087803b1515610a0057600080fd5b6102c65a03f11515610a1157600080fd5b50505060405180519050505090565b6000809054906101000a900473ffffffffffffffffffffffffffffffffffffffff1681565b6000600160159054906101000a900460ff161515610a6257600080fd5b600a60009054906101000a900473ffffffffffffffffffffffffffffffffffffffff1673ffffffffffffffffffffffffffffffffffffffff16630fd0ae1085600080604051602001526040518363ffffffff167c0100000000000000000000000000000000000000000000000000000000028152600401808373ffffffffffffffffffffffffffffffffffffffff1673ffffffffffffffffffffffffffffffffffffffff16815260200182815260200192505050602060405180830381600087803b1515610b2f57600080fd5b6102c65a03f11515610b4057600080fd5b5050506040518051905050600560009054906101000a900473ffffffffffffffffffffffffffffffffffffffff1673ffffffffffffffffffffffffffffffffffffffff1663b62b0281846001856000604051602001526040518463ffffffff167c0100000000000000000000000000000000000000000000000000000000028152600401808473ffffffffffffffffffffffffffffffffffffffff1673ffffffffffffffffffffffffffffffffffffffff168152602001831515151581526020018260ff1660ff1681526020019350505050602060405180830381600087803b1515610c2b57600080fd5b6102c65a03f11515610c3c57600080fd5b5050506040518051905090509392505050565b6000600160159054906101000a900460ff161515610c6c57600080fd5b600a60009054906101000a900473ffffffffffffffffffffffffffffffffffffffff1673ffffffffffffffffffffffffffffffffffffffff166329092d0e836000604051602001526040518263ffffffff167c0100000000000000000000000000000000000000000000000000000000028152600401808273ffffffffffffffffffffffffffffffffffffffff1673ffffffffffffffffffffffffffffffffffffffff168152602001915050602060405180830381600087803b1515610d3157600080fd5b6102c65a03f11515610d4257600080fd5b505050604051805190501515610d5457fe5b60019050919050565b600960009054906101000a900473ffffffffffffffffffffffffffffffffffffffff1681565b6000600160159054906101000a900460ff161515610da057600080fd5b600860009054906101000a900473ffffffffffffffffffffffffffffffffffffffff1673ffffffffffffffffffffffffffffffffffffffff1663949d225d6000604051602001526040518163ffffffff167c0100000000000000000000000000000000000000000000000000000000028152600401602060405180830381600087803b1515610e2e57600080fd5b6102c65a03f11515610e3f57600080fd5b50505060405180519050905090565b6000600160159054906101000a900460ff161515610e6b57600080fd5b600a60009054906101000a900473ffffffffffffffffffffffffffffffffffffffff1673ffffffffffffffffffffffffffffffffffffffff1663949d225d6000604051602001526040518163ffffffff167c0100000000000000000000000000000000000000000000000000000000028152600401602060405180830381600087803b1515610ef957600080fd5b6102c65a03f11515610f0a57600080fd5b50505060405180519050905090565b6000610f2361285c565b600080600080600160159054906101000a900460ff161515610f4457600080fd5b610f4d3361175d565b945084600001518015610f6257508460200151155b8015610f7057508460400151155b1515610f7b57600080fd5b610f866000336118fd565b80945081955082965083975050505050831515610f9f57fe5b8215610fb157610faf81836124b5565b505b60019550505050505090565b600360009054906101000a900473ffffffffffffffffffffffffffffffffffffffff1681565b60008060009054906101000a900473ffffffffffffffffffffffffffffffffffffffff1673ffffffffffffffffffffffffffffffffffffffff163373ffffffffffffffffffffffffffffffffffffffff1614151561104057600080fd5b81600160006101000a81548173ffffffffffffffffffffffffffffffffffffffff021916908373ffffffffffffffffffffffffffffffffffffffff16021790555060018060146101000a81548160ff021916908315150217905550919050565b600080600080600160159054906101000a900460ff1615156110c157600080fd5b600560009054906101000a900473ffffffffffffffffffffffffffffffffffffffff1673ffffffffffffffffffffffffffffffffffffffff16639d63385e336001886000604051602001526040518463ffffffff167c0100000000000000000000000000000000000000000000000000000000028152600401808473ffffffffffffffffffffffffffffffffffffffff1673ffffffffffffffffffffffffffffffffffffffff168152602001831515151581526020018273ffffffffffffffffffffffffffffffffffffffff1673ffffffffffffffffffffffffffffffffffffffff1681526020019350505050602060405180830381600087803b15156111c757600080fd5b6102c65a03f115156111d857600080fd5b50505060405180519050506111ee6001866118fd565b8098508194508295508396505050505082151561120757fe5b81156112195761121785826124b5565b505b60019350505050919050565b6000600160009054906101000a900473ffffffffffffffffffffffffffffffffffffffff1673ffffffffffffffffffffffffffffffffffffffff163373ffffffffffffffffffffffffffffffffffffffff1614151561128357600080fd5b61129086868686866126fe565b5082600760006101000a81548173ffffffffffffffffffffffffffffffffffffffff021916908373ffffffffffffffffffffffffffffffffffffffff160217905550600760009054906101000a900473ffffffffffffffffffffffffffffffffffffffff16600860006101000a81548173ffffffffffffffffffffffffffffffffffffffff021916908373ffffffffffffffffffffffffffffffffffffffff16021790555081600960006101000a81548173ffffffffffffffffffffffffffffffffffffffff021916908373ffffffffffffffffffffffffffffffffffffffff160217905550600960009054906101000a900473ffffffffffffffffffffffffffffffffffffffff16600a60006101000a81548173ffffffffffffffffffffffffffffffffffffffff021916908373ffffffffffffffffffffffffffffffffffffffff160217905550600460009054906101000a900473ffffffffffffffffffffffffffffffffffffffff16600560006101000a81548173ffffffffffffffffffffffffffffffffffffffff021916908373ffffffffffffffffffffffffffffffffffffffff160217905550600360009054906101000a900473ffffffffffffffffffffffffffffffffffffffff16600660006101000a81548173ffffffffffffffffffffffffffffffffffffffff021916908373ffffffffffffffffffffffffffffffffffffffff16021790555060018060156101000a81548160ff0219169083151502179055506001905095945050505050565b600160009054906101000a900473ffffffffffffffffffffffffffffffffffffffff1681565b600760009054906101000a900473ffffffffffffffffffffffffffffffffffffffff1681565b6000806000600160159054906101000a900460ff16151561153257600080fd5b8461162e57600860009054906101000a900473ffffffffffffffffffffffffffffffffffffffff1673ffffffffffffffffffffffffffffffffffffffff16636d1b7fc4856000604051608001526040518263ffffffff167c0100000000000000000000000000000000000000000000000000000000028152600401808273ffffffffffffffffffffffffffffffffffffffff1673ffffffffffffffffffffffffffffffffffffffff168152602001915050608060405180830381600087803b15156115fc57600080fd5b6102c65a03f1151561160d57600080fd5b50505060405180519060200180519060200180519060200180519050611721565b600a60009054906101000a900473ffffffffffffffffffffffffffffffffffffffff1673ffffffffffffffffffffffffffffffffffffffff16636d1b7fc4856000604051608001526040518263ffffffff167c0100000000000000000000000000000000000000000000000000000000028152600401808273ffffffffffffffffffffffffffffffffffffffff1673ffffffffffffffffffffffffffffffffffffffff168152602001915050608060405180830381600087803b15156116f357600080fd5b6102c65a03f1151561170457600080fd5b505050604051805190602001805190602001805190602001805190505b909192509091508092508193505050808211156117505761174b818361284390919063ffffffff16565b611753565b60005b9250505092915050565b61176561285c565b6000806000806000806000600160159054906101000a900460ff16151561178b57600080fd5b600560009054906101000a900473ffffffffffffffffffffffffffffffffffffffff1673ffffffffffffffffffffffffffffffffffffffff16632390c0508a600060405160e001526040518263ffffffff167c0100000000000000000000000000000000000000000000000000000000028152600401808273ffffffffffffffffffffffffffffffffffffffff1673ffffffffffffffffffffffffffffffffffffffff16815260200191505060e060405180830381600087803b151561185057600080fd5b6102c65a03f1151561186157600080fd5b50505060405180519060200180519060200180519060200180519060200180519060200180519060200180519050809750819850829950839a50849b50859c50869d505050505050505060e06040519081016040528088151581526020018715158152602001861515815260200185151581526020018460ff1681526020018360ff168152602001821515815250975050505050505050919050565b600080600080600160159054906101000a900460ff16151561191e57600080fd5b8515611e73576000600860009054906101000a900473ffffffffffffffffffffffffffffffffffffffff1673ffffffffffffffffffffffffffffffffffffffff1663949d225d6000604051602001526040518163ffffffff167c0100000000000000000000000000000000000000000000000000000000028152600401602060405180830381600087803b15156119b457600080fd5b6102c65a03f115156119c557600080fd5b505050604051805190501415611ac757600a60009054906101000a900473ffffffffffffffffffffffffffffffffffffffff1673ffffffffffffffffffffffffffffffffffffffff166389b09de7866000604051602001526040518263ffffffff167c0100000000000000000000000000000000000000000000000000000000028152600401808273ffffffffffffffffffffffffffffffffffffffff1673ffffffffffffffffffffffffffffffffffffffff168152602001915050602060405180830381600087803b1515611a9a57600080fd5b6102c65a03f11515611aab57600080fd5b50505060405180519050600080600093509350935093506124ac565b6000600a60009054906101000a900473ffffffffffffffffffffffffffffffffffffffff1673ffffffffffffffffffffffffffffffffffffffff1663949d225d6000604051602001526040518163ffffffff167c0100000000000000000000000000000000000000000000000000000000028152600401602060405180830381600087803b1515611b5757600080fd5b6102c65a03f11515611b6857600080fd5b505050604051805190501415611c3257600180600860009054906101000a900473ffffffffffffffffffffffffffffffffffffffff1673ffffffffffffffffffffffffffffffffffffffff1663a4ece52c6000604051602001526040518163ffffffff167c0100000000000000000000000000000000000000000000000000000000028152600401602060405180830381600087803b1515611c0957600080fd5b6102c65a03f11515611c1a57600080fd5b505050604051805190508793509350935093506124ac565b600a60009054906101000a900473ffffffffffffffffffffffffffffffffffffffff1673ffffffffffffffffffffffffffffffffffffffff166389b09de7866000604051602001526040518263ffffffff167c0100000000000000000000000000000000000000000000000000000000028152600401808273ffffffffffffffffffffffffffffffffffffffff1673ffffffffffffffffffffffffffffffffffffffff168152602001915050602060405180830381600087803b1515611cf757600080fd5b6102c65a03f11515611d0857600080fd5b505050604051805190506001600860009054906101000a900473ffffffffffffffffffffffffffffffffffffffff1673ffffffffffffffffffffffffffffffffffffffff1663a4ece52c6000604051602001526040518163ffffffff167c0100000000000000000000000000000000000000000000000000000000028152600401602060405180830381600087803b1515611da257600080fd5b6102c65a03f11515611db357600080fd5b50505060405180519050600a60009054906101000a900473ffffffffffffffffffffffffffffffffffffffff1673ffffffffffffffffffffffffffffffffffffffff1663a4ece52c6000604051602001526040518163ffffffff167c0100000000000000000000000000000000000000000000000000000000028152600401602060405180830381600087803b1515611e4b57600080fd5b6102c65a03f11515611e5c57600080fd5b5050506040518051905093509350935093506124ac565b600560009054906101000a900473ffffffffffffffffffffffffffffffffffffffff1673ffffffffffffffffffffffffffffffffffffffff16635dea93298660016000604051602001526040518363ffffffff167c0100000000000000000000000000000000000000000000000000000000028152600401808373ffffffffffffffffffffffffffffffffffffffff1673ffffffffffffffffffffffffffffffffffffffff1681526020018215151515815260200192505050602060405180830381600087803b1515611f4557600080fd5b6102c65a03f11515611f5657600080fd5b50505060405180519050506000600a60009054906101000a900473ffffffffffffffffffffffffffffffffffffffff1673ffffffffffffffffffffffffffffffffffffffff1663949d225d6000604051602001526040518163ffffffff167c0100000000000000000000000000000000000000000000000000000000028152600401602060405180830381600087803b1515611ff157600080fd5b6102c65a03f1151561200257600080fd5b50505060405180519050141561210457600860009054906101000a900473ffffffffffffffffffffffffffffffffffffffff1673ffffffffffffffffffffffffffffffffffffffff166389b09de7866000604051602001526040518263ffffffff167c0100000000000000000000000000000000000000000000000000000000028152600401808273ffffffffffffffffffffffffffffffffffffffff1673ffffffffffffffffffffffffffffffffffffffff168152602001915050602060405180830381600087803b15156120d757600080fd5b6102c65a03f115156120e857600080fd5b50505060405180519050600080600093509350935093506124ac565b6000600860009054906101000a900473ffffffffffffffffffffffffffffffffffffffff1673ffffffffffffffffffffffffffffffffffffffff1663949d225d6000604051602001526040518163ffffffff167c0100000000000000000000000000000000000000000000000000000000028152600401602060405180830381600087803b151561219457600080fd5b6102c65a03f115156121a557600080fd5b50505060405180519050141561226f5760018086600a60009054906101000a900473ffffffffffffffffffffffffffffffffffffffff1673ffffffffffffffffffffffffffffffffffffffff1663a4ece52c6000604051602001526040518163ffffffff167c0100000000000000000000000000000000000000000000000000000000028152600401602060405180830381600087803b151561224757600080fd5b6102c65a03f1151561225857600080fd5b5050506040518051905093509350935093506124ac565b600860009054906101000a900473ffffffffffffffffffffffffffffffffffffffff1673ffffffffffffffffffffffffffffffffffffffff166389b09de7866000604051602001526040518263ffffffff167c0100000000000000000000000000000000000000000000000000000000028152600401808273ffffffffffffffffffffffffffffffffffffffff1673ffffffffffffffffffffffffffffffffffffffff168152602001915050602060405180830381600087803b151561233457600080fd5b6102c65a03f1151561234557600080fd5b505050604051805190506001600860009054906101000a900473ffffffffffffffffffffffffffffffffffffffff1673ffffffffffffffffffffffffffffffffffffffff1663a4ece52c6000604051602001526040518163ffffffff167c0100000000000000000000000000000000000000000000000000000000028152600401602060405180830381600087803b15156123df57600080fd5b6102c65a03f115156123f057600080fd5b50505060405180519050600a60009054906101000a900473ffffffffffffffffffffffffffffffffffffffff1673ffffffffffffffffffffffffffffffffffffffff1663a4ece52c6000604051602001526040518163ffffffff167c0100000000000000000000000000000000000000000000000000000000028152600401602060405180830381600087803b151561248857600080fd5b6102c65a03f1151561249957600080fd5b5050506040518051905093509350935093505b92959194509250565b6000600160159054906101000a900460ff1615156124d257600080fd5b600560009054906101000a900473ffffffffffffffffffffffffffffffffffffffff1673ffffffffffffffffffffffffffffffffffffffff1663793908bb836001866000604051602001526040518463ffffffff167c0100000000000000000000000000000000000000000000000000000000028152600401808473ffffffffffffffffffffffffffffffffffffffff1673ffffffffffffffffffffffffffffffffffffffff168152602001831515151581526020018273ffffffffffffffffffffffffffffffffffffffff1673ffffffffffffffffffffffffffffffffffffffff1681526020019350505050602060405180830381600087803b15156125d857600080fd5b6102c65a03f115156125e957600080fd5b5050506040518051905050600660009054906101000a900473ffffffffffffffffffffffffffffffffffffffff1673ffffffffffffffffffffffffffffffffffffffff166394e4e26c84846040518363ffffffff167c0100000000000000000000000000000000000000000000000000000000028152600401808373ffffffffffffffffffffffffffffffffffffffff1673ffffffffffffffffffffffffffffffffffffffff1681526020018273ffffffffffffffffffffffffffffffffffffffff1673ffffffffffffffffffffffffffffffffffffffff16815260200192505050600060405180830381600087803b15156126e457600080fd5b6102c65a03f115156126f557600080fd5b50505092915050565b6000600160009054906101000a900473ffffffffffffffffffffffffffffffffffffffff1673ffffffffffffffffffffffffffffffffffffffff163373ffffffffffffffffffffffffffffffffffffffff1614151561275c57600080fd5b600160149054906101000a900460ff16151561277757600080fd5b85600260006101000a81548173ffffffffffffffffffffffffffffffffffffffff021916908373ffffffffffffffffffffffffffffffffffffffff16021790555084600360006101000a81548173ffffffffffffffffffffffffffffffffffffffff021916908373ffffffffffffffffffffffffffffffffffffffff16021790555083600460006101000a81548173ffffffffffffffffffffffffffffffffffffffff021916908373ffffffffffffffffffffffffffffffffffffffff16021790555095945050505050565b600082821115151561285157fe5b818303905092915050565b60e060405190810160405280600015158152602001600015158152602001600015158152602001600015158152602001600060ff168152602001600060ff16815260200160001515815250905600a165627a7a723058201cd4d43bed866ccc493353df3966fcb3274d3d0d27e6ab0b673b3a79fb32398c0029",
  "source": "pragma solidity ^0.4.18;\r\n\r\nimport \"../misc/SafeMath.sol\";\r\nimport \"../ownership/Controllable.sol\";\r\n\r\nimport \"../interface/model/Queue_Interface.sol\";\r\n\r\nimport \"../interface/dispatcher/Dispatcher_Interface_client.sol\";\r\nimport \"../interface/dispatcher/Dispatcher_Interface_distributor.sol\";\r\nimport \"../interface/dispatcher/Dispatcher_Interface_submitter.sol\";\r\nimport \"../interface/dispatcher/Dispatcher_Interface_miner.sol\";\r\n\r\nimport \"../interface/client/Client_Interface_dispatcher.sol\";\r\nimport \"../interface/distributor/Distributor_Interface_dispatcher.sol\";\r\n\r\n//Dispatcher Logic Module\r\ncontract Dispatcher is Controllable,\r\nDispatcherInterfaceSubmitter, DispatcherInterfaceMiner, DispatcherInterfaceDistributor, DispatcherInterfaceClient\r\n{\r\n    //------------------------------------------------------------------------------------------------------------------\r\n    using SafeMath for uint256;\r\n\r\n    ClientInterfaceDispatcher client;\r\n    DistributorInterfaceDispatcher distributor;\r\n\r\n    address public queue_ai_address;\r\n    QueueInterface queue_ai;\r\n\r\n    address public queue_task_address;\r\n    QueueInterface queue_task;\r\n\r\n\r\n    //------------------------------------------------------------------------------------------------------------------\r\n    //Constructor\r\n    function Dispatcher(address _admin) public Controllable(msg.sender, _admin) {}\r\n\r\n    //------------------------------------------------------------------------------------------------------------------\r\n    //Modifier\r\n\r\n    //------------------------------------------------------------------------------------------------------------------\r\n    //Setters\r\n    //Override\r\n    function set_addresses(address _dispatcher, address _distributor, address _client, address _model, address _task_queue) admin_only public returns (bool){\r\n        super.set_addresses(_dispatcher, _distributor, _client, _model, _task_queue);\r\n\r\n        queue_ai_address = _model;\r\n        queue_ai = QueueInterface(queue_ai_address);\r\n        queue_task_address = _task_queue;\r\n        queue_task = QueueInterface(queue_task_address);\r\n\r\n        client = ClientInterfaceDispatcher(client_address);\r\n        distributor = DistributorInterfaceDispatcher(distributor_address);\r\n        //todo add a checker function\r\n       \r\n        controller_ready = true;\r\n\r\n        return true;\r\n    }\r\n\r\n    event B(address);\r\n    event C(address);\r\n    //------------------------------------------------------------------------------------------------------------------\r\n    //internal helpers\r\n\r\n    ///@dev internal usage\r\n    struct account_info {\r\n        bool _eligible;\r\n        bool _waiting;\r\n        bool _working;\r\n        bool _banned;\r\n        uint8 _misconduct_counter;\r\n        uint8 _level;\r\n        bool _submissible;\r\n    }\r\n    \r\n    //@dev internal usage\r\n    function load_client(address _client) Ready view internal returns (account_info){\r\n        bool _eligible;\r\n        bool _waiting;\r\n        bool _working;\r\n        bool _banned;\r\n        uint8 _misconduct_counter;\r\n        uint8 _level;\r\n        bool _submissible;\r\n        (_eligible, _waiting, _working, _banned, _misconduct_counter, _level, _submissible) = client.get_client(_client);\r\n        return account_info(_eligible, _waiting, _working, _banned, _misconduct_counter, _level, _submissible);\r\n    }\r\n    //@dev internal usage\r\n    function calculate_position(bool _is_task, address _address) Ready internal view returns (uint256){\r\n        uint _id;\r\n        uint _curr;\r\n        (, , _id, _curr) = _is_task ? queue_task.queuer_status(_address) : queue_ai.queuer_status(_address);\r\n        return _id <= _curr ? 0 : _id.sub(_curr);\r\n    }\r\n    /**\r\n     * @dev internal usage, make change in its own data contract\r\n     * \r\n     * @param _is_task distinguish a task or worker address\r\n     * @param _address the address of the task or worker\r\n     * @return @param _success whether the pushing to queue is successful\r\n     *         @param _dispatchable whether a task can be dispatched to a worker\r\n     *         @param _worker address of the worker where the task is assigned to\r\n     *         @param _task address of the task to be dispatched to worker\r\n     */\r\n    function is_dispatchable(bool _is_task, address _address)\r\n    Ready internal\r\n    returns (bool _success, bool _dispatchable, address _worker, address _task){\r\n        if(_is_task){\r\n            if(queue_ai.size() == 0) return (queue_task.push(_address), false, address(0), address(0));\r\n            else{\r\n                if(queue_task.size() == 0) return (true, true, queue_ai.pop(), _address);\r\n                else return (queue_task.push(_address), true, queue_ai.pop(), queue_task.pop());\r\n            }\r\n        }else{\r\n            client.set_waiting(_address, true);\r\n            //set waiting\r\n            if (queue_task.size() == 0) return (queue_ai.push(_address), false, address(0), address(0));\r\n            else{\r\n                if(queue_ai.size() == 0) return (true, true, _address, queue_task.pop());\r\n                else return (queue_ai.push(_address), true, queue_ai.pop(), queue_task.pop());\r\n            }\r\n        }\r\n    }\r\n    ///@dev internal usage, make changes in client accounts and task pool\r\n    ///@dev task and client validation is made at their entry point\r\n    function dispatch(address _task, address _worker) Ready internal returns (bool){\r\n        //Client\r\n        client.add_job(_worker, true, _task);//set to working\r\n        //Task\r\n        distributor.dispatch_task(_task, _worker);//change task status to dispatched\r\n    }\r\n\r\n    //------------------------------------------------------------------------------------------------------------------\r\n    //Client\r\n    ///@dev getter\r\n    function task_position(address _task) Ready view public returns (uint256){\r\n        return calculate_position(true, _task);\r\n    }\r\n    //@dev getter\r\n    function task_queue_length() Ready view public returns (uint256){\r\n        return queue_task.size();\r\n    }\r\n\r\n    //------------------------------------------------------------------------------------------------------------------\r\n    //Miner\r\n    ///@dev entry point: AI eligibility is checked here\r\n    function join_ai_queue() Ready public returns (bool){\r\n        account_info memory _sender = load_client(msg.sender);\r\n        require(_sender._eligible && !_sender._waiting && !_sender._working);\r\n\r\n        //make changes in both queue\r\n        bool _success;\r\n        bool _dispatchable;\r\n        address _worker;\r\n        address _task;\r\n        (_success, _dispatchable, _worker, _task) = is_dispatchable(false, msg.sender);\r\n\r\n        assert(_success);\r\n        //make change in client account and task pool through Client and Distributor\r\n    \r\n        if(_dispatchable) dispatch(_task, _worker);\r\n        \r\n        return true;\r\n    }\r\n    ///@dev entry point\r\n    function leave_ai_queue() Ready public returns (bool){\r\n        account_info memory _sender = load_client(msg.sender);\r\n        require(_sender._waiting);\r\n        client.set_waiting(msg.sender, false);\r\n    }\r\n    ///@dev getter\r\n    function ai_queue_length() Ready view public returns (uint256){\r\n        return queue_ai.size();\r\n    }\r\n    ///@dev getter\r\n    function ai_position(address _worker) Ready view public returns (uint256){\r\n        return calculate_position(false, _worker);\r\n    }\r\n\r\n    //------------------------------------------------------------------------------------------------------------------\r\n    //Distributor\r\n    //@dev intermediate point - task validation has been made by\r\n    function join_task_queue(address _task) Ready public payable returns (bool){\r\n        client.add_task(msg.sender, true, _task);\r\n        bool _success;\r\n        bool _dispatchable;\r\n        address _worker;\r\n        (_success, _dispatchable, _worker, _task) = is_dispatchable(true, _task);\r\n\r\n        assert(_success);\r\n        if(_dispatchable) dispatch(_task, _worker);\r\n        return true;\r\n    }\r\n    //@dev intermediate point, condition checked and met in distributor\r\n    function leave_task_queue(address _task_address) Ready public returns (bool){\r\n        assert(queue_task.remove(_task_address));\r\n        return true;\r\n    }\r\n    //@dev task rejoin to queue after being dispatched @dev todo not completed\r\n    //@dev intermediate point\r\n    function rejoin(address _task, address _worker, uint8 _penalty) Ready public returns (uint8){\r\n        queue_task.insert(_task, 0);//current insert to head of the queue_task\r\n        return client.set_misconduct_counter(_worker, true, _penalty);\r\n    }\r\n}\r\n",
  "sourcePath": "C:\\Users\\tongp\\WebstormProjects\\wormhole\\contract\\contracts\\helix1.1\\controller\\Dispatcher.sol",
  "compiler": {
    "name": "solc",
    "version": "0.4.19+commit.c4cbbb05.Emscripten.clang"
  },
  "schemaVersion": "1.0.1",
  "updatedAt": "2018-02-14T04:46:49.923Z"
}