{
  "contractName": "Distributor",
  "abi": [
    {
      "constant": true,
      "inputs": [],
      "name": "minimal_fee",
      "outputs": [
        {
          "name": "",
          "type": "uint256"
        }
      ],
      "payable": false,
      "stateMutability": "view",
      "type": "function"
    },
    {
      "constant": true,
      "inputs": [],
      "name": "admin_loaded",
      "outputs": [
        {
          "name": "",
          "type": "bool"
        }
      ],
      "payable": false,
      "stateMutability": "view",
      "type": "function"
    },
    {
      "constant": false,
      "inputs": [
        {
          "name": "_owner",
          "type": "address"
        }
      ],
      "name": "change_owner",
      "outputs": [],
      "payable": false,
      "stateMutability": "nonpayable",
      "type": "function"
    },
    {
      "constant": true,
      "inputs": [],
      "name": "pool_address",
      "outputs": [
        {
          "name": "",
          "type": "address"
        }
      ],
      "payable": false,
      "stateMutability": "view",
      "type": "function"
    },
    {
      "constant": true,
      "inputs": [],
      "name": "client_address",
      "outputs": [
        {
          "name": "",
          "type": "address"
        }
      ],
      "payable": false,
      "stateMutability": "view",
      "type": "function"
    },
    {
      "constant": true,
      "inputs": [],
      "name": "dispatcher_address",
      "outputs": [
        {
          "name": "",
          "type": "address"
        }
      ],
      "payable": false,
      "stateMutability": "view",
      "type": "function"
    },
    {
      "constant": true,
      "inputs": [],
      "name": "controller_ready",
      "outputs": [
        {
          "name": "",
          "type": "bool"
        }
      ],
      "payable": false,
      "stateMutability": "view",
      "type": "function"
    },
    {
      "constant": true,
      "inputs": [],
      "name": "owner",
      "outputs": [
        {
          "name": "",
          "type": "address"
        }
      ],
      "payable": false,
      "stateMutability": "view",
      "type": "function"
    },
    {
      "constant": true,
      "inputs": [],
      "name": "distributor_address",
      "outputs": [
        {
          "name": "",
          "type": "address"
        }
      ],
      "payable": false,
      "stateMutability": "view",
      "type": "function"
    },
    {
      "constant": true,
      "inputs": [],
      "name": "MAX_WAITING_BLOCK_COUNT",
      "outputs": [
        {
          "name": "",
          "type": "uint256"
        }
      ],
      "payable": false,
      "stateMutability": "view",
      "type": "function"
    },
    {
      "constant": false,
      "inputs": [
        {
          "name": "_admin",
          "type": "address"
        }
      ],
      "name": "set_admin",
      "outputs": [
        {
          "name": "",
          "type": "bool"
        }
      ],
      "payable": false,
      "stateMutability": "nonpayable",
      "type": "function"
    },
    {
      "constant": true,
      "inputs": [],
      "name": "admin_address",
      "outputs": [
        {
          "name": "",
          "type": "address"
        }
      ],
      "payable": false,
      "stateMutability": "view",
      "type": "function"
    },
    {
      "inputs": [
        {
          "name": "_admin",
          "type": "address"
        },
        {
          "name": "_minimal_fee",
          "type": "uint256"
        }
      ],
      "payable": false,
      "stateMutability": "nonpayable",
      "type": "constructor"
    },
    {
      "anonymous": false,
      "inputs": [
        {
          "indexed": false,
          "name": "_client",
          "type": "address"
        },
        {
          "indexed": false,
          "name": "_task",
          "type": "address"
        }
      ],
      "name": "TaskCreated",
      "type": "event"
    },
    {
      "anonymous": false,
      "inputs": [
        {
          "indexed": false,
          "name": "_client",
          "type": "address"
        },
        {
          "indexed": false,
          "name": "_task",
          "type": "address"
        }
      ],
      "name": "TaskLeftQueue",
      "type": "event"
    },
    {
      "anonymous": false,
      "inputs": [
        {
          "indexed": false,
          "name": "_client",
          "type": "address"
        }
      ],
      "name": "SubmitterFreed",
      "type": "event"
    },
    {
      "anonymous": false,
      "inputs": [
        {
          "indexed": false,
          "name": "_client",
          "type": "address"
        },
        {
          "indexed": false,
          "name": "_task",
          "type": "address"
        }
      ],
      "name": "TaskCancelled",
      "type": "event"
    },
    {
      "constant": false,
      "inputs": [
        {
          "name": "_dispatcher",
          "type": "address"
        },
        {
          "name": "_distributor",
          "type": "address"
        },
        {
          "name": "_client",
          "type": "address"
        },
        {
          "name": "_model",
          "type": "address"
        },
        {
          "name": "_task_queue",
          "type": "address"
        }
      ],
      "name": "set_addresses",
      "outputs": [
        {
          "name": "",
          "type": "bool"
        }
      ],
      "payable": false,
      "stateMutability": "nonpayable",
      "type": "function"
    },
    {
      "constant": false,
      "inputs": [
        {
          "name": "_app_id",
          "type": "uint256"
        },
        {
          "name": "_name",
          "type": "string"
        },
        {
          "name": "_data",
          "type": "string"
        },
        {
          "name": "_script",
          "type": "string"
        },
        {
          "name": "_output",
          "type": "string"
        },
        {
          "name": "_params",
          "type": "string"
        }
      ],
      "name": "create_task",
      "outputs": [
        {
          "name": "_task",
          "type": "address"
        }
      ],
      "payable": true,
      "stateMutability": "payable",
      "type": "function"
    },
    {
      "constant": false,
      "inputs": [
        {
          "name": "_task",
          "type": "address"
        }
      ],
      "name": "cancel_task",
      "outputs": [
        {
          "name": "",
          "type": "bool"
        }
      ],
      "payable": false,
      "stateMutability": "nonpayable",
      "type": "function"
    },
    {
      "constant": true,
      "inputs": [
        {
          "name": "_task",
          "type": "address"
        }
      ],
      "name": "reassignable",
      "outputs": [
        {
          "name": "",
          "type": "bool"
        }
      ],
      "payable": false,
      "stateMutability": "view",
      "type": "function"
    },
    {
      "constant": false,
      "inputs": [
        {
          "name": "_task",
          "type": "address"
        }
      ],
      "name": "reassign_task_request",
      "outputs": [
        {
          "name": "",
          "type": "bool"
        }
      ],
      "payable": false,
      "stateMutability": "nonpayable",
      "type": "function"
    },
    {
      "constant": false,
      "inputs": [
        {
          "name": "_task",
          "type": "address"
        }
      ],
      "name": "report_start",
      "outputs": [
        {
          "name": "",
          "type": "bool"
        }
      ],
      "payable": false,
      "stateMutability": "nonpayable",
      "type": "function"
    },
    {
      "constant": false,
      "inputs": [
        {
          "name": "_task",
          "type": "address"
        },
        {
          "name": "_complete_fee",
          "type": "uint256"
        }
      ],
      "name": "report_finish",
      "outputs": [
        {
          "name": "",
          "type": "bool"
        }
      ],
      "payable": false,
      "stateMutability": "nonpayable",
      "type": "function"
    },
    {
      "constant": false,
      "inputs": [
        {
          "name": "_task",
          "type": "address"
        },
        {
          "name": "_error_msg",
          "type": "string"
        }
      ],
      "name": "report_error",
      "outputs": [
        {
          "name": "",
          "type": "bool"
        }
      ],
      "payable": false,
      "stateMutability": "nonpayable",
      "type": "function"
    },
    {
      "constant": false,
      "inputs": [
        {
          "name": "_task",
          "type": "address"
        }
      ],
      "name": "forfeit",
      "outputs": [
        {
          "name": "",
          "type": "bool"
        }
      ],
      "payable": false,
      "stateMutability": "nonpayable",
      "type": "function"
    },
    {
      "constant": false,
      "inputs": [
        {
          "name": "_task",
          "type": "address"
        },
        {
          "name": "_worker",
          "type": "address"
        }
      ],
      "name": "dispatch_task",
      "outputs": [],
      "payable": false,
      "stateMutability": "nonpayable",
      "type": "function"
    }
  ],
  "bytecode": "0x6060604052600f600a5534156200001557600080fd5b6040516040806200378b833981016040528080519060200190919080519060200190919050503382818181806000806101000a81548173ffffffffffffffffffffffffffffffffffffffff021916908373ffffffffffffffffffffffffffffffffffffffff16021790555050600073ffffffffffffffffffffffffffffffffffffffff168173ffffffffffffffffffffffffffffffffffffffff16141515620000d957620000d781620000ec6401000000000262001d78176401000000009004565b505b50505050806009819055505050620001aa565b60008060009054906101000a900473ffffffffffffffffffffffffffffffffffffffff1673ffffffffffffffffffffffffffffffffffffffff163373ffffffffffffffffffffffffffffffffffffffff161415156200014a57600080fd5b81600160006101000a81548173ffffffffffffffffffffffffffffffffffffffff021916908373ffffffffffffffffffffffffffffffffffffffff16021790555060018060146101000a81548160ff021916908315150217905550919050565b6135d180620001ba6000396000f300606060405260043610610128576000357c0100000000000000000000000000000000000000000000000000000000900463ffffffff16806318f80ac81461012d5780631d5f08971461017e5780631df2c6ab146101a75780632166af7b146101d457806321f268a014610225578063253c8bd4146103cc57806340e82e48146104055780634755abbb146104995780634bf4e421146104ee578063559670f8146105435780635841e6a7146105985780638da5cb5b146105c557806394e4e26c1461061a5780639fac6adc14610672578063b2ad35c0146106c3578063c206dbac14610718578063e9333fab14610741578063ee7b167414610792578063f2e627721461085f578063f66e88b1146108b4578063fcf6b27714610905578063ffa9bdec1461095f575b600080fd5b341561013857600080fd5b610164600480803573ffffffffffffffffffffffffffffffffffffffff169060200190919050506109b0565b604051808215151515815260200191505060405180910390f35b341561018957600080fd5b610191610c28565b6040518082815260200191505060405180910390f35b34156101b257600080fd5b6101ba610c2e565b604051808215151515815260200191505060405180910390f35b34156101df57600080fd5b61020b600480803573ffffffffffffffffffffffffffffffffffffffff16906020019091905050610c41565b604051808215151515815260200191505060405180910390f35b61038a600480803590602001909190803590602001908201803590602001908080601f0160208091040260200160405190810160405280939291908181526020018383808284378201915050505050509190803590602001908201803590602001908080601f0160208091040260200160405190810160405280939291908181526020018383808284378201915050505050509190803590602001908201803590602001908080601f0160208091040260200160405190810160405280939291908181526020018383808284378201915050505050509190803590602001908201803590602001908080601f0160208091040260200160405190810160405280939291908181526020018383808284378201915050505050509190803590602001908201803590602001908080601f01602080910402602001604051908101604052809392919081815260200183838082843782019150505050505091905050610fff565b604051808273ffffffffffffffffffffffffffffffffffffffff1673ffffffffffffffffffffffffffffffffffffffff16815260200191505060405180910390f35b34156103d757600080fd5b610403600480803573ffffffffffffffffffffffffffffffffffffffff169060200190919050506115f4565b005b341561041057600080fd5b61047f600480803573ffffffffffffffffffffffffffffffffffffffff1690602001909190803590602001908201803590602001908080601f01602080910402602001604051908101604052809392919081815260200183838082843782019150505050505091905050611692565b604051808215151515815260200191505060405180910390f35b34156104a457600080fd5b6104ac61191f565b604051808273ffffffffffffffffffffffffffffffffffffffff1673ffffffffffffffffffffffffffffffffffffffff16815260200191505060405180910390f35b34156104f957600080fd5b610501611945565b604051808273ffffffffffffffffffffffffffffffffffffffff1673ffffffffffffffffffffffffffffffffffffffff16815260200191505060405180910390f35b341561054e57600080fd5b61055661196b565b604051808273ffffffffffffffffffffffffffffffffffffffff1673ffffffffffffffffffffffffffffffffffffffff16815260200191505060405180910390f35b34156105a357600080fd5b6105ab611991565b604051808215151515815260200191505060405180910390f35b34156105d057600080fd5b6105d86119a4565b604051808273ffffffffffffffffffffffffffffffffffffffff1673ffffffffffffffffffffffffffffffffffffffff16815260200191505060405180910390f35b341561062557600080fd5b610670600480803573ffffffffffffffffffffffffffffffffffffffff1690602001909190803573ffffffffffffffffffffffffffffffffffffffff169060200190919050506119c9565b005b341561067d57600080fd5b6106a9600480803573ffffffffffffffffffffffffffffffffffffffff16906020019091905050611b3e565b604051808215151515815260200191505060405180910390f35b34156106ce57600080fd5b6106d6611d4c565b604051808273ffffffffffffffffffffffffffffffffffffffff1673ffffffffffffffffffffffffffffffffffffffff16815260200191505060405180910390f35b341561072357600080fd5b61072b611d72565b6040518082815260200191505060405180910390f35b341561074c57600080fd5b610778600480803573ffffffffffffffffffffffffffffffffffffffff16906020019091905050611d78565b604051808215151515815260200191505060405180910390f35b341561079d57600080fd5b610845600480803573ffffffffffffffffffffffffffffffffffffffff1690602001909190803573ffffffffffffffffffffffffffffffffffffffff1690602001909190803573ffffffffffffffffffffffffffffffffffffffff1690602001909190803573ffffffffffffffffffffffffffffffffffffffff1690602001909190803573ffffffffffffffffffffffffffffffffffffffff16906020019091905050611e35565b604051808215151515815260200191505060405180910390f35b341561086a57600080fd5b610872612032565b604051808273ffffffffffffffffffffffffffffffffffffffff1673ffffffffffffffffffffffffffffffffffffffff16815260200191505060405180910390f35b34156108bf57600080fd5b6108eb600480803573ffffffffffffffffffffffffffffffffffffffff16906020019091905050612058565b604051808215151515815260200191505060405180910390f35b341561091057600080fd5b610945600480803573ffffffffffffffffffffffffffffffffffffffff169060200190919080359060200190919050506124e0565b604051808215151515815260200191505060405180910390f35b341561096a57600080fd5b610996600480803573ffffffffffffffffffffffffffffffffffffffff16906020019091905050612708565b604051808215151515815260200191505060405180910390f35b6000806000600160159054906101000a900460ff1615156109d057600080fd5b833373ffffffffffffffffffffffffffffffffffffffff16600860009054906101000a900473ffffffffffffffffffffffffffffffffffffffff1673ffffffffffffffffffffffffffffffffffffffff16637e5c8826836000604051602001526040518263ffffffff167c0100000000000000000000000000000000000000000000000000000000028152600401808273ffffffffffffffffffffffffffffffffffffffff1673ffffffffffffffffffffffffffffffffffffffff168152602001915050602060405180830381600087803b1515610aad57600080fd5b6102c65a03f11515610abe57600080fd5b5050506040518051905073ffffffffffffffffffffffffffffffffffffffff16141515610aea57600080fd5b600860009054906101000a900473ffffffffffffffffffffffffffffffffffffffff1673ffffffffffffffffffffffffffffffffffffffff16633e2c08ef86600060405160c001526040518263ffffffff167c0100000000000000000000000000000000000000000000000000000000028152600401808273ffffffffffffffffffffffffffffffffffffffff1673ffffffffffffffffffffffffffffffffffffffff16815260200191505060c060405180830381600087803b1515610baf57600080fd5b6102c65a03f11515610bc057600080fd5b5050506040518051906020018051906020018051906020018051906020018051906020018051905090919250909150905050809350819450505060008314158015610c0c575060008214155b1515610c1757600080fd5b600a54824303119350505050919050565b60095481565b600160149054906101000a900460ff1681565b600080600160159054906101000a900460ff161515610c5f57600080fd5b823373ffffffffffffffffffffffffffffffffffffffff16600860009054906101000a900473ffffffffffffffffffffffffffffffffffffffff1673ffffffffffffffffffffffffffffffffffffffff16637e5c8826836000604051602001526040518263ffffffff167c0100000000000000000000000000000000000000000000000000000000028152600401808273ffffffffffffffffffffffffffffffffffffffff1673ffffffffffffffffffffffffffffffffffffffff168152602001915050602060405180830381600087803b1515610d3c57600080fd5b6102c65a03f11515610d4d57600080fd5b5050506040518051905073ffffffffffffffffffffffffffffffffffffffff16141515610d7957600080fd5b610d82846109b0565b15610ff757600660009054906101000a900473ffffffffffffffffffffffffffffffffffffffff1673ffffffffffffffffffffffffffffffffffffffff16632390c05033600060405160e001526040518263ffffffff167c0100000000000000000000000000000000000000000000000000000000028152600401808273ffffffffffffffffffffffffffffffffffffffff1673ffffffffffffffffffffffffffffffffffffffff16815260200191505060e060405180830381600087803b1515610e4c57600080fd5b6102c65a03f11515610e5d57600080fd5b505050604051805190602001805190602001805190602001805190602001805190602001805190602001805190509091929394955090919293945090919293509091925090505080925050610ebf60028360ff1661302490919063ffffffff16565b600560009054906101000a900473ffffffffffffffffffffffffffffffffffffffff1673ffffffffffffffffffffffffffffffffffffffff16638e27c381863360026000604051602001526040518463ffffffff167c0100000000000000000000000000000000000000000000000000000000028152600401808473ffffffffffffffffffffffffffffffffffffffff1673ffffffffffffffffffffffffffffffffffffffff1681526020018373ffffffffffffffffffffffffffffffffffffffff1673ffffffffffffffffffffffffffffffffffffffff1681526020018260ff1660ff1681526020019350505050602060405180830381600087803b1515610fc757600080fd5b6102c65a03f11515610fd857600080fd5b5050506040518051905060ff16141515610fee57fe5b60019250610ff8565b5b5050919050565b6000600160159054906101000a900460ff16151561101c57600080fd5b600954341015801561102f575060008714155b151561103a57600080fd5b600860009054906101000a900473ffffffffffffffffffffffffffffffffffffffff1673ffffffffffffffffffffffffffffffffffffffff16638205a45c88888888888834336000604051602001526040518963ffffffff167c01000000000000000000000000000000000000000000000000000000000281526004018089815260200180602001806020018060200180602001806020018881526020018773ffffffffffffffffffffffffffffffffffffffff1673ffffffffffffffffffffffffffffffffffffffff16815260200186810386528d818151815260200191508051906020019080838360005b83811015611142578082015181840152602081019050611127565b50505050905090810190601f16801561116f5780820380516001836020036101000a031916815260200191505b5086810385528c818151815260200191508051906020019080838360005b838110156111a857808201518184015260208101905061118d565b50505050905090810190601f1680156111d55780820380516001836020036101000a031916815260200191505b5086810384528b818151815260200191508051906020019080838360005b8381101561120e5780820151818401526020810190506111f3565b50505050905090810190601f16801561123b5780820380516001836020036101000a031916815260200191505b5086810383528a818151815260200191508051906020019080838360005b83811015611274578082015181840152602081019050611259565b50505050905090810190601f1680156112a15780820380516001836020036101000a031916815260200191505b50868103825289818151815260200191508051906020019080838360005b838110156112da5780820151818401526020810190506112bf565b50505050905090810190601f1680156113075780820380516001836020036101000a031916815260200191505b509d5050505050505050505050505050602060405180830381600087803b151561133057600080fd5b6102c65a03f1151561134157600080fd5b505050604051805190509050600660009054906101000a900473ffffffffffffffffffffffffffffffffffffffff1673ffffffffffffffffffffffffffffffffffffffff16639d63385e336001846000604051602001526040518463ffffffff167c0100000000000000000000000000000000000000000000000000000000028152600401808473ffffffffffffffffffffffffffffffffffffffff1673ffffffffffffffffffffffffffffffffffffffff168152602001831515151581526020018273ffffffffffffffffffffffffffffffffffffffff1673ffffffffffffffffffffffffffffffffffffffff1681526020019350505050602060405180830381600087803b151561145357600080fd5b6102c65a03f1151561146457600080fd5b5050506040518051905050600560009054906101000a900473ffffffffffffffffffffffffffffffffffffffff1673ffffffffffffffffffffffffffffffffffffffff1663e9f0afe9826000604051602001526040518263ffffffff167c0100000000000000000000000000000000000000000000000000000000028152600401808273ffffffffffffffffffffffffffffffffffffffff1673ffffffffffffffffffffffffffffffffffffffff168152602001915050602060405180830381600087803b151561153457600080fd5b6102c65a03f1151561154557600080fd5b50505060405180519050507f5977287f5f66dc04df1a397cdd58f5db2632319686b39589ab053c2d753bf6003382604051808373ffffffffffffffffffffffffffffffffffffffff1673ffffffffffffffffffffffffffffffffffffffff1681526020018273ffffffffffffffffffffffffffffffffffffffff1673ffffffffffffffffffffffffffffffffffffffff1681526020019250505060405180910390a18090509695505050505050565b6000809054906101000a900473ffffffffffffffffffffffffffffffffffffffff1673ffffffffffffffffffffffffffffffffffffffff163373ffffffffffffffffffffffffffffffffffffffff1614151561164f57600080fd5b806000806101000a81548173ffffffffffffffffffffffffffffffffffffffff021916908373ffffffffffffffffffffffffffffffffffffffff16021790555050565b6000823373ffffffffffffffffffffffffffffffffffffffff16600860009054906101000a900473ffffffffffffffffffffffffffffffffffffffff1673ffffffffffffffffffffffffffffffffffffffff16632f7ce288836000604051602001526040518263ffffffff167c0100000000000000000000000000000000000000000000000000000000028152600401808273ffffffffffffffffffffffffffffffffffffffff1673ffffffffffffffffffffffffffffffffffffffff168152602001915050602060405180830381600087803b151561177157600080fd5b6102c65a03f1151561178257600080fd5b5050506040518051905073ffffffffffffffffffffffffffffffffffffffff161415156117ae57600080fd5b600860009054906101000a900473ffffffffffffffffffffffffffffffffffffffff1673ffffffffffffffffffffffffffffffffffffffff1663efb37f7b85856000604051602001526040518363ffffffff167c0100000000000000000000000000000000000000000000000000000000028152600401808373ffffffffffffffffffffffffffffffffffffffff1673ffffffffffffffffffffffffffffffffffffffff16815260200180602001828103825283818151815260200191508051906020019080838360005b83811015611894578082015181840152602081019050611879565b50505050905090810190601f1680156118c15780820380516001836020036101000a031916815260200191505b509350505050602060405180830381600087803b15156118e057600080fd5b6102c65a03f115156118f157600080fd5b50505060405180519050801561190c575061190b84613042565b5b151561191457fe5b600191505092915050565b600760009054906101000a900473ffffffffffffffffffffffffffffffffffffffff1681565b600460009054906101000a900473ffffffffffffffffffffffffffffffffffffffff1681565b600260009054906101000a900473ffffffffffffffffffffffffffffffffffffffff1681565b600160159054906101000a900460ff1681565b6000809054906101000a900473ffffffffffffffffffffffffffffffffffffffff1681565b3373ffffffffffffffffffffffffffffffffffffffff16600260009054906101000a900473ffffffffffffffffffffffffffffffffffffffff1673ffffffffffffffffffffffffffffffffffffffff16141515611a2557600080fd5b600860009054906101000a900473ffffffffffffffffffffffffffffffffffffffff1673ffffffffffffffffffffffffffffffffffffffff166306a3a21983836000604051602001526040518363ffffffff167c0100000000000000000000000000000000000000000000000000000000028152600401808373ffffffffffffffffffffffffffffffffffffffff1673ffffffffffffffffffffffffffffffffffffffff1681526020018273ffffffffffffffffffffffffffffffffffffffff1673ffffffffffffffffffffffffffffffffffffffff16815260200192505050602060405180830381600087803b1515611b1e57600080fd5b6102c65a03f11515611b2f57600080fd5b50505060405180519050505050565b6000813373ffffffffffffffffffffffffffffffffffffffff16600860009054906101000a900473ffffffffffffffffffffffffffffffffffffffff1673ffffffffffffffffffffffffffffffffffffffff16632f7ce288836000604051602001526040518263ffffffff167c0100000000000000000000000000000000000000000000000000000000028152600401808273ffffffffffffffffffffffffffffffffffffffff1673ffffffffffffffffffffffffffffffffffffffff168152602001915050602060405180830381600087803b1515611c1d57600080fd5b6102c65a03f11515611c2e57600080fd5b5050506040518051905073ffffffffffffffffffffffffffffffffffffffff16141515611c5a57600080fd5b600860009054906101000a900473ffffffffffffffffffffffffffffffffffffffff1673ffffffffffffffffffffffffffffffffffffffff16636cebb1a9846000604051602001526040518263ffffffff167c0100000000000000000000000000000000000000000000000000000000028152600401808273ffffffffffffffffffffffffffffffffffffffff1673ffffffffffffffffffffffffffffffffffffffff168152602001915050602060405180830381600087803b1515611d1f57600080fd5b6102c65a03f11515611d3057600080fd5b505050604051805190501515611d4257fe5b6001915050919050565b600360009054906101000a900473ffffffffffffffffffffffffffffffffffffffff1681565b600a5481565b60008060009054906101000a900473ffffffffffffffffffffffffffffffffffffffff1673ffffffffffffffffffffffffffffffffffffffff163373ffffffffffffffffffffffffffffffffffffffff16141515611dd557600080fd5b81600160006101000a81548173ffffffffffffffffffffffffffffffffffffffff021916908373ffffffffffffffffffffffffffffffffffffffff16021790555060018060146101000a81548160ff021916908315150217905550919050565b6000600160009054906101000a900473ffffffffffffffffffffffffffffffffffffffff1673ffffffffffffffffffffffffffffffffffffffff163373ffffffffffffffffffffffffffffffffffffffff16141515611e9357600080fd5b611ea08686868686613460565b5082600760006101000a81548173ffffffffffffffffffffffffffffffffffffffff021916908373ffffffffffffffffffffffffffffffffffffffff160217905550600760009054906101000a900473ffffffffffffffffffffffffffffffffffffffff16600860006101000a81548173ffffffffffffffffffffffffffffffffffffffff021916908373ffffffffffffffffffffffffffffffffffffffff160217905550600460009054906101000a900473ffffffffffffffffffffffffffffffffffffffff16600660006101000a81548173ffffffffffffffffffffffffffffffffffffffff021916908373ffffffffffffffffffffffffffffffffffffffff160217905550600260009054906101000a900473ffffffffffffffffffffffffffffffffffffffff16600560006101000a81548173ffffffffffffffffffffffffffffffffffffffff021916908373ffffffffffffffffffffffffffffffffffffffff16021790555060018060156101000a81548160ff0219169083151502179055506001905095945050505050565b600160009054906101000a900473ffffffffffffffffffffffffffffffffffffffff1681565b600080823373ffffffffffffffffffffffffffffffffffffffff16600860009054906101000a900473ffffffffffffffffffffffffffffffffffffffff1673ffffffffffffffffffffffffffffffffffffffff16632f7ce288836000604051602001526040518263ffffffff167c0100000000000000000000000000000000000000000000000000000000028152600401808273ffffffffffffffffffffffffffffffffffffffff1673ffffffffffffffffffffffffffffffffffffffff168152602001915050602060405180830381600087803b151561213857600080fd5b6102c65a03f1151561214957600080fd5b5050506040518051905073ffffffffffffffffffffffffffffffffffffffff1614151561217557600080fd5b600660009054906101000a900473ffffffffffffffffffffffffffffffffffffffff1673ffffffffffffffffffffffffffffffffffffffff16632390c05033600060405160e001526040518263ffffffff167c0100000000000000000000000000000000000000000000000000000000028152600401808273ffffffffffffffffffffffffffffffffffffffff1673ffffffffffffffffffffffffffffffffffffffff16815260200191505060e060405180830381600087803b151561223a57600080fd5b6102c65a03f1151561224b57600080fd5b505050604051805190602001805190602001805190602001805190602001805190602001805190602001805190509091929394955090919293945090919293509091925090505080925050600860009054906101000a900473ffffffffffffffffffffffffffffffffffffffff1673ffffffffffffffffffffffffffffffffffffffff16633a1a9e8a856000604051602001526040518263ffffffff167c0100000000000000000000000000000000000000000000000000000000028152600401808273ffffffffffffffffffffffffffffffffffffffff1673ffffffffffffffffffffffffffffffffffffffff168152602001915050602060405180830381600087803b151561235b57600080fd5b6102c65a03f1151561236c57600080fd5b5050506040518051905080156124bc575061239460018360ff1661302490919063ffffffff16565b600560009054906101000a900473ffffffffffffffffffffffffffffffffffffffff1673ffffffffffffffffffffffffffffffffffffffff16638e27c381863360016000604051602001526040518463ffffffff167c0100000000000000000000000000000000000000000000000000000000028152600401808473ffffffffffffffffffffffffffffffffffffffff1673ffffffffffffffffffffffffffffffffffffffff1681526020018373ffffffffffffffffffffffffffffffffffffffff1673ffffffffffffffffffffffffffffffffffffffff1681526020018260ff1660ff1681526020019350505050602060405180830381600087803b151561249c57600080fd5b6102c65a03f115156124ad57600080fd5b5050506040518051905060ff16145b80156124cd57506124cc84613042565b5b15156124d557fe5b600192505050919050565b6000823373ffffffffffffffffffffffffffffffffffffffff16600860009054906101000a900473ffffffffffffffffffffffffffffffffffffffff1673ffffffffffffffffffffffffffffffffffffffff16632f7ce288836000604051602001526040518263ffffffff167c0100000000000000000000000000000000000000000000000000000000028152600401808273ffffffffffffffffffffffffffffffffffffffff1673ffffffffffffffffffffffffffffffffffffffff168152602001915050602060405180830381600087803b15156125bf57600080fd5b6102c65a03f115156125d057600080fd5b5050506040518051905073ffffffffffffffffffffffffffffffffffffffff161415156125fc57600080fd5b600860009054906101000a900473ffffffffffffffffffffffffffffffffffffffff1673ffffffffffffffffffffffffffffffffffffffff16631abbbb9f85856000604051602001526040518363ffffffff167c0100000000000000000000000000000000000000000000000000000000028152600401808373ffffffffffffffffffffffffffffffffffffffff1673ffffffffffffffffffffffffffffffffffffffff16815260200182815260200192505050602060405180830381600087803b15156126c957600080fd5b6102c65a03f115156126da57600080fd5b5050506040518051905080156126f557506126f484613042565b5b15156126fd57fe5b600191505092915050565b6000806000806000600160159054906101000a900460ff16151561272b57600080fd5b600860009054906101000a900473ffffffffffffffffffffffffffffffffffffffff1673ffffffffffffffffffffffffffffffffffffffff16637e5c8826876000604051602001526040518263ffffffff167c0100000000000000000000000000000000000000000000000000000000028152600401808273ffffffffffffffffffffffffffffffffffffffff1673ffffffffffffffffffffffffffffffffffffffff168152602001915050602060405180830381600087803b15156127f057600080fd5b6102c65a03f1151561280157600080fd5b5050506040518051905093508373ffffffffffffffffffffffffffffffffffffffff163373ffffffffffffffffffffffffffffffffffffffff1614151561284757600080fd5b600860009054906101000a900473ffffffffffffffffffffffffffffffffffffffff1673ffffffffffffffffffffffffffffffffffffffff16633e2c08ef87600060405160c001526040518263ffffffff167c0100000000000000000000000000000000000000000000000000000000028152600401808273ffffffffffffffffffffffffffffffffffffffff1673ffffffffffffffffffffffffffffffffffffffff16815260200191505060c060405180830381600087803b151561290c57600080fd5b6102c65a03f1151561291d57600080fd5b505050604051805190602001805190602001805190602001805190602001805190602001805190509091925090915090505080935081945050506000831415151561296757600080fd5b600082141561301657600560009054906101000a900473ffffffffffffffffffffffffffffffffffffffff1673ffffffffffffffffffffffffffffffffffffffff166398ce6fdf876000604051602001526040518263ffffffff167c0100000000000000000000000000000000000000000000000000000000028152600401808273ffffffffffffffffffffffffffffffffffffffff1673ffffffffffffffffffffffffffffffffffffffff168152602001915050602060405180830381600087803b1515612a3557600080fd5b6102c65a03f11515612a4657600080fd5b505050604051805190501515612a5857fe5b7f887083569f0e57bc0d0d6420b7aaa2f334a30f598dbe0056c8677197a374cfeb8487604051808373ffffffffffffffffffffffffffffffffffffffff1673ffffffffffffffffffffffffffffffffffffffff1681526020018273ffffffffffffffffffffffffffffffffffffffff1673ffffffffffffffffffffffffffffffffffffffff1681526020019250505060405180910390a1600660009054906101000a900473ffffffffffffffffffffffffffffffffffffffff1673ffffffffffffffffffffffffffffffffffffffff16639d63385e856000896000604051602001526040518463ffffffff167c0100000000000000000000000000000000000000000000000000000000028152600401808473ffffffffffffffffffffffffffffffffffffffff1673ffffffffffffffffffffffffffffffffffffffff168152602001831515151581526020018273ffffffffffffffffffffffffffffffffffffffff1673ffffffffffffffffffffffffffffffffffffffff1681526020019350505050602060405180830381600087803b1515612bf557600080fd5b6102c65a03f11515612c0657600080fd5b505050604051805190501515612c1857fe5b7f61fb05624af139dbbb4852b432babb4f261203617364f90909856df99fbec87484604051808273ffffffffffffffffffffffffffffffffffffffff1673ffffffffffffffffffffffffffffffffffffffff16815260200191505060405180910390a1600860009054906101000a900473ffffffffffffffffffffffffffffffffffffffff1673ffffffffffffffffffffffffffffffffffffffff16637cdb72b0876000604051604001526040518263ffffffff167c0100000000000000000000000000000000000000000000000000000000028152600401808273ffffffffffffffffffffffffffffffffffffffff1673ffffffffffffffffffffffffffffffffffffffff1681526020019150506040805180830381600087803b1515612d3f57600080fd5b6102c65a03f11515612d5057600080fd5b505050604051805190602001805190505080915050600860009054906101000a900473ffffffffffffffffffffffffffffffffffffffff1673ffffffffffffffffffffffffffffffffffffffff16633734030e87600080604051602001526040518363ffffffff167c0100000000000000000000000000000000000000000000000000000000028152600401808373ffffffffffffffffffffffffffffffffffffffff1673ffffffffffffffffffffffffffffffffffffffff16815260200182815260200192505050602060405180830381600087803b1515612e3257600080fd5b6102c65a03f11515612e4357600080fd5b5050506040518051905050600860009054906101000a900473ffffffffffffffffffffffffffffffffffffffff1673ffffffffffffffffffffffffffffffffffffffff1663f831428f876000604051602001526040518263ffffffff167c0100000000000000000000000000000000000000000000000000000000028152600401808273ffffffffffffffffffffffffffffffffffffffff1673ffffffffffffffffffffffffffffffffffffffff168152602001915050602060405180830381600087803b1515612f1357600080fd5b6102c65a03f11515612f2457600080fd5b505050604051805190501515612f3657fe5b8373ffffffffffffffffffffffffffffffffffffffff166108fc829081150290604051600060405180830381858888f193505050501515612f7657600080fd5b7f0e42256f465cbb1da1f2a38ed99bf97404e87fcb662b54c0c4a0224810e03b988487604051808373ffffffffffffffffffffffffffffffffffffffff1673ffffffffffffffffffffffffffffffffffffffff1681526020018273ffffffffffffffffffffffffffffffffffffffff1673ffffffffffffffffffffffffffffffffffffffff1681526020019250505060405180910390a16001945061301b565b600094505b50505050919050565b600080828401905083811015151561303857fe5b8091505092915050565b6000801515600660009054906101000a900473ffffffffffffffffffffffffffffffffffffffff1673ffffffffffffffffffffffffffffffffffffffff16639d63385e600860009054906101000a900473ffffffffffffffffffffffffffffffffffffffff1673ffffffffffffffffffffffffffffffffffffffff16637e5c8826866000604051602001526040518263ffffffff167c0100000000000000000000000000000000000000000000000000000000028152600401808273ffffffffffffffffffffffffffffffffffffffff1673ffffffffffffffffffffffffffffffffffffffff168152602001915050602060405180830381600087803b151561314a57600080fd5b6102c65a03f1151561315b57600080fd5b505050604051805190506000866000604051602001526040518463ffffffff167c0100000000000000000000000000000000000000000000000000000000028152600401808473ffffffffffffffffffffffffffffffffffffffff1673ffffffffffffffffffffffffffffffffffffffff168152602001831515151581526020018273ffffffffffffffffffffffffffffffffffffffff1673ffffffffffffffffffffffffffffffffffffffff1681526020019350505050602060405180830381600087803b151561322c57600080fd5b6102c65a03f1151561323d57600080fd5b505050604051805190501515148015613459575060001515600660009054906101000a900473ffffffffffffffffffffffffffffffffffffffff1673ffffffffffffffffffffffffffffffffffffffff1663793908bb600860009054906101000a900473ffffffffffffffffffffffffffffffffffffffff1673ffffffffffffffffffffffffffffffffffffffff16632f7ce288866000604051602001526040518263ffffffff167c0100000000000000000000000000000000000000000000000000000000028152600401808273ffffffffffffffffffffffffffffffffffffffff1673ffffffffffffffffffffffffffffffffffffffff168152602001915050602060405180830381600087803b151561335857600080fd5b6102c65a03f1151561336957600080fd5b505050604051805190506000866000604051602001526040518463ffffffff167c0100000000000000000000000000000000000000000000000000000000028152600401808473ffffffffffffffffffffffffffffffffffffffff1673ffffffffffffffffffffffffffffffffffffffff168152602001831515151581526020018273ffffffffffffffffffffffffffffffffffffffff1673ffffffffffffffffffffffffffffffffffffffff1681526020019350505050602060405180830381600087803b151561343a57600080fd5b6102c65a03f1151561344b57600080fd5b505050604051805190501515145b9050919050565b6000600160009054906101000a900473ffffffffffffffffffffffffffffffffffffffff1673ffffffffffffffffffffffffffffffffffffffff163373ffffffffffffffffffffffffffffffffffffffff161415156134be57600080fd5b600160149054906101000a900460ff1615156134d957600080fd5b85600260006101000a81548173ffffffffffffffffffffffffffffffffffffffff021916908373ffffffffffffffffffffffffffffffffffffffff16021790555084600360006101000a81548173ffffffffffffffffffffffffffffffffffffffff021916908373ffffffffffffffffffffffffffffffffffffffff16021790555083600460006101000a81548173ffffffffffffffffffffffffffffffffffffffff021916908373ffffffffffffffffffffffffffffffffffffffff160217905550959450505050505600a165627a7a723058206506bf1bd0d5ba387d3426337cfb0d84d2905e70ec10f0d07651e06cb02d99bd0029",
  "source": "pragma solidity ^0.4.18;\r\n\r\nimport \"../misc/SafeMath.sol\";\r\nimport \"../ownership/Controllable.sol\";\r\n\r\nimport \"../interface/model/TaskPool_Interface.sol\";\r\n\r\nimport \"../interface/distributor/Distributor_Interface_submitter.sol\";\r\nimport \"../interface/distributor/Distributor_Interface_miner.sol\";\r\nimport \"../interface/distributor/Distributor_Interface_dispatcher.sol\";\r\nimport \"../interface/distributor/Distributor_Interface_client.sol\";\r\n\r\nimport \"../interface/dispatcher/Dispatcher_Interface_distributor.sol\";\r\nimport \"../interface/client/Client_Interface_distributor.sol\";\r\n\r\n//@dev used to access, store and modify ALL submitted task related functions\r\ncontract Distributor is Controllable,\r\nDistributorInterfaceSubmitter, DistributorInterfaceMiner, DistributorInterfaceDispatcher, DistributorInterfaceClient {\r\n    using SafeMath for uint256;\r\n    using SafeMath for uint8;\r\n\r\n    DispatcherInterfaceDistributor dispatcher;\r\n    ClientInterfaceDistributor client;\r\n    address public pool_address;\r\n    TaskPoolInterface pool;\r\n\r\n    uint256 public minimal_fee;\r\n    uint256 public MAX_WAITING_BLOCK_COUNT = 15;\r\n\r\n    function Distributor(address _admin, uint256 _minimal_fee) public Controllable(msg.sender, _admin) {\r\n        minimal_fee = _minimal_fee;\r\n    }\r\n\r\n    //------------------------------------------------------------------------------------------------------------------\r\n    //Admin\r\n    function set_addresses(address _dispatcher, address _distributor, address _client, address _model, address _task_queue) admin_only public returns (bool){\r\n        super.set_addresses(_dispatcher, _distributor, _client, _model, _task_queue);\r\n        \r\n        pool_address = _model;\r\n        pool = TaskPoolInterface(pool_address);\r\n\r\n        client = ClientInterfaceDistributor(client_address);\r\n        dispatcher = DispatcherInterfaceDistributor(dispatcher_address);\r\n        //todo add a checker function\r\n\r\n        controller_ready = true;\r\n        return true;\r\n    }\r\n\r\n    //------------------------------------------------------------------------------------------------------------------\r\n    modifier task_owner_only(address _task){\r\n        require(pool.get_owner(_task) == msg.sender);\r\n        _;\r\n    }\r\n    modifier miner_only(address _task){\r\n        require(pool.get_worker(_task) == msg.sender);\r\n        _;\r\n    }\r\n\r\n    //------------------------------------------------------------------------------------------------------------------\r\n    //Client\r\n    ///@dev entry point\r\n    //TODO condition checker should be added here, not in dispatcher\r\n    function create_task(\r\n        uint256 _app_id,\r\n        string _name,\r\n        string _data,\r\n        string _script,\r\n        string _output,\r\n        string _params\r\n    ) Ready public payable returns (address _task){\r\n        //require(app.valid_id(_app_id)) app_id needs to be valid , TODO a contract that keep tracks of the app id\r\n        require(msg.value >= minimal_fee && _app_id != 0);\r\n        _task = pool.create(_app_id, _name, _data, _script, _output, _params, msg.value, msg.sender);\r\n        client.add_task(msg.sender, true, _task);\r\n\r\n        dispatcher.join_task_queue(_task);\r\n        //TODO this ONLY for testing, to be modified\r\n\r\n        TaskCreated(msg.sender, _task);\r\n\r\n        return _task;\r\n    }\r\n\r\n    event TaskCreated(address _client, address _task);\r\n\r\n    //@dev entry point TODO REVIEW REQUIRED and add assert\r\n    function cancel_task(address _task) Ready public returns (bool){\r\n        address _task_owner = pool.get_owner(_task);\r\n        require(msg.sender == _task_owner);\r\n        uint _create_time;\r\n        uint _dispatch_time;\r\n        (_create_time, _dispatch_time, ,,,) = pool.get_status(_task);\r\n\r\n        require(_create_time != 0);\r\n        //task existed\r\n        if (_dispatch_time == 0) {\r\n            //in queue can be cancelled\r\n\r\n            assert(dispatcher.leave_task_queue(_task));\r\n            TaskLeftQueue(_task_owner, _task);\r\n\r\n            assert(client.add_task(_task_owner, false, _task));\r\n            SubmitterFreed(_task_owner);\r\n            \r\n            uint256 _fee;\r\n            (_fee,) = pool.get_fees(_task);\r\n            pool.set_fee(_task, 0);\r\n\r\n            assert(pool.set_cancel(_task));\r\n            _task_owner.transfer(_fee);\r\n\r\n            TaskCancelled(_task_owner, _task);\r\n            return true; \r\n        } else return false; //task dispatched cannot cancel\r\n    }\r\n\r\n    event TaskLeftQueue(address _client, address _task);\r\n    event SubmitterFreed(address _client);\r\n    event TaskCancelled(address _client, address _task);\r\n    ///@dev entry point TODO verify checker\r\n    function reassignable(address _task)\r\n    Ready\r\n    task_owner_only(_task)\r\n    view\r\n    public\r\n    returns (bool){\r\n        uint _create_time;\r\n        uint _dispatch_time;\r\n        (_create_time, _dispatch_time, ,,,) = pool.get_status(_task);\r\n        require(_create_time != 0 && _dispatch_time != 0);\r\n        return block.number - _dispatch_time > MAX_WAITING_BLOCK_COUNT;\r\n    }\r\n    ///@dev entry point TODO verify checker and change to assert\r\n    function reassign_task_request(address _task)\r\n    Ready\r\n    task_owner_only(_task)\r\n    public\r\n    returns (bool)\r\n    {\r\n        if (reassignable(_task)) {\r\n            uint8 _misconduct_counter;\r\n            (, ,,, _misconduct_counter,,) = client.get_client(msg.sender);\r\n            assert(dispatcher.rejoin(_task, msg.sender, uint8(2)) == _misconduct_counter.add(2));\r\n            return true;\r\n        }\r\n    }\r\n\r\n    //------------------------------------------------------------------------------------------------------------------\r\n    //Miner\r\n    ///@dev entry point TODO condition check\r\n    function report_start(address _task) miner_only(_task) public returns (bool){\r\n        assert(pool.set_start(_task));\r\n        return true;\r\n    }\r\n    ///@dev entry point TODO condition check, change client and worker status\r\n    function report_finish(address _task, uint256 _complete_fee) miner_only(_task) public returns (bool){\r\n        assert(pool.set_complete(_task, _complete_fee) && set_complete(_task));\r\n        return true;\r\n    }\r\n    ///@dev entry point TODO condition check , CHANGE Client and worker status\r\n    ///Currently the penalty would be pay the full price...\r\n    function report_error(address _task, string _error_msg) miner_only(_task) public returns (bool){\r\n        assert(pool.set_error(_task, _error_msg) && set_complete(_task));\r\n        return true;\r\n    }\r\n    ///@dev entry point TODO condition check, change miner status\r\n    function forfeit(address _task) miner_only(_task) public returns (bool){\r\n        uint8 _misconduct_counter;\r\n        (, ,,, _misconduct_counter,,) = client.get_client(msg.sender);\r\n        assert(pool.set_forfeit(_task) && dispatcher.rejoin(_task, msg.sender, uint8(1)) == _misconduct_counter.add(1) && set_complete(_task));\r\n        return true;\r\n    }\r\n    // client. set miner free and owner free\r\n    function set_complete(address _task) internal returns (bool){\r\n        return client.add_task(pool.get_owner(_task), false, _task) == false //submitter\r\n        && client.add_job(pool.get_worker(_task), false, _task) == false;\r\n        //worker\r\n    }\r\n\r\n    //------------------------------------------------------------------------------------------------------------------\r\n    //Dispatcher\r\n    ///@dev intermediate\r\n    function dispatch_task(address _task, address _worker) dispatcher_only public {\r\n        pool.set_dispatched(_task, _worker);\r\n    }\r\n\r\n}",
  "sourcePath": "C:\\Users\\tongp\\WebstormProjects\\wormhole\\contract\\contracts\\helix1.1\\controller\\Distributor.sol",
  "compiler": {
    "name": "solc",
    "version": "0.4.19+commit.c4cbbb05.Emscripten.clang"
  },
  "schemaVersion": "1.0.1",
  "updatedAt": "2018-02-16T04:06:15.969Z"
}