{
  "contractName": "Distributor",
  "abi": [
    {
      "constant": true,
      "inputs": [],
      "name": "minimal_fee",
      "outputs": [
        {
          "name": "",
          "type": "uint256"
        }
      ],
      "payable": false,
      "stateMutability": "view",
      "type": "function"
    },
    {
      "constant": true,
      "inputs": [],
      "name": "admin_loaded",
      "outputs": [
        {
          "name": "",
          "type": "bool"
        }
      ],
      "payable": false,
      "stateMutability": "view",
      "type": "function"
    },
    {
      "constant": false,
      "inputs": [
        {
          "name": "_task",
          "type": "address"
        }
      ],
      "name": "reassign_task_request",
      "outputs": [
        {
          "name": "",
          "type": "bool"
        }
      ],
      "payable": false,
      "stateMutability": "nonpayable",
      "type": "function"
    },
    {
      "constant": false,
      "inputs": [
        {
          "name": "_app_id",
          "type": "uint256"
        },
        {
          "name": "_name",
          "type": "string"
        },
        {
          "name": "_data",
          "type": "string"
        },
        {
          "name": "_script",
          "type": "string"
        },
        {
          "name": "_output",
          "type": "string"
        },
        {
          "name": "_params",
          "type": "string"
        }
      ],
      "name": "create_task",
      "outputs": [
        {
          "name": "_task",
          "type": "address"
        }
      ],
      "payable": true,
      "stateMutability": "payable",
      "type": "function"
    },
    {
      "constant": false,
      "inputs": [
        {
          "name": "_owner",
          "type": "address"
        }
      ],
      "name": "change_owner",
      "outputs": [],
      "payable": false,
      "stateMutability": "nonpayable",
      "type": "function"
    },
    {
      "constant": false,
      "inputs": [],
      "name": "invalidate_contract",
      "outputs": [
        {
          "name": "",
          "type": "bool"
        }
      ],
      "payable": false,
      "stateMutability": "nonpayable",
      "type": "function"
    },
    {
      "constant": false,
      "inputs": [
        {
          "name": "_task",
          "type": "address"
        },
        {
          "name": "_error_msg",
          "type": "string"
        }
      ],
      "name": "report_error",
      "outputs": [
        {
          "name": "",
          "type": "bool"
        }
      ],
      "payable": false,
      "stateMutability": "nonpayable",
      "type": "function"
    },
    {
      "constant": true,
      "inputs": [],
      "name": "pool_address",
      "outputs": [
        {
          "name": "",
          "type": "address"
        }
      ],
      "payable": false,
      "stateMutability": "view",
      "type": "function"
    },
    {
      "constant": true,
      "inputs": [],
      "name": "client_address",
      "outputs": [
        {
          "name": "",
          "type": "address"
        }
      ],
      "payable": false,
      "stateMutability": "view",
      "type": "function"
    },
    {
      "constant": true,
      "inputs": [],
      "name": "dispatcher_address",
      "outputs": [
        {
          "name": "",
          "type": "address"
        }
      ],
      "payable": false,
      "stateMutability": "view",
      "type": "function"
    },
    {
      "constant": true,
      "inputs": [],
      "name": "controller_ready",
      "outputs": [
        {
          "name": "",
          "type": "bool"
        }
      ],
      "payable": false,
      "stateMutability": "view",
      "type": "function"
    },
    {
      "constant": true,
      "inputs": [],
      "name": "owner",
      "outputs": [
        {
          "name": "",
          "type": "address"
        }
      ],
      "payable": false,
      "stateMutability": "view",
      "type": "function"
    },
    {
      "constant": false,
      "inputs": [
        {
          "name": "_task",
          "type": "address"
        }
      ],
      "name": "pay_completion_fee",
      "outputs": [
        {
          "name": "",
          "type": "bool"
        }
      ],
      "payable": true,
      "stateMutability": "payable",
      "type": "function"
    },
    {
      "constant": false,
      "inputs": [
        {
          "name": "_task",
          "type": "address"
        },
        {
          "name": "_worker",
          "type": "address"
        }
      ],
      "name": "dispatch_task",
      "outputs": [
        {
          "name": "",
          "type": "bool"
        }
      ],
      "payable": false,
      "stateMutability": "nonpayable",
      "type": "function"
    },
    {
      "constant": true,
      "inputs": [],
      "name": "owner_get_balance",
      "outputs": [
        {
          "name": "",
          "type": "uint256"
        }
      ],
      "payable": false,
      "stateMutability": "view",
      "type": "function"
    },
    {
      "constant": false,
      "inputs": [
        {
          "name": "_task",
          "type": "address"
        }
      ],
      "name": "report_start",
      "outputs": [
        {
          "name": "",
          "type": "bool"
        }
      ],
      "payable": false,
      "stateMutability": "nonpayable",
      "type": "function"
    },
    {
      "constant": true,
      "inputs": [],
      "name": "distributor_address",
      "outputs": [
        {
          "name": "",
          "type": "address"
        }
      ],
      "payable": false,
      "stateMutability": "view",
      "type": "function"
    },
    {
      "constant": false,
      "inputs": [
        {
          "name": "_amount",
          "type": "uint256"
        }
      ],
      "name": "owner_withdraw",
      "outputs": [
        {
          "name": "",
          "type": "uint256"
        }
      ],
      "payable": false,
      "stateMutability": "nonpayable",
      "type": "function"
    },
    {
      "constant": false,
      "inputs": [
        {
          "name": "_task",
          "type": "address"
        },
        {
          "name": "_app_id",
          "type": "uint256"
        }
      ],
      "name": "cancel_task",
      "outputs": [
        {
          "name": "",
          "type": "bool"
        }
      ],
      "payable": false,
      "stateMutability": "nonpayable",
      "type": "function"
    },
    {
      "constant": true,
      "inputs": [],
      "name": "valid",
      "outputs": [
        {
          "name": "",
          "type": "bool"
        }
      ],
      "payable": false,
      "stateMutability": "view",
      "type": "function"
    },
    {
      "constant": false,
      "inputs": [
        {
          "name": "_admin",
          "type": "address"
        }
      ],
      "name": "set_admin",
      "outputs": [
        {
          "name": "",
          "type": "bool"
        }
      ],
      "payable": false,
      "stateMutability": "nonpayable",
      "type": "function"
    },
    {
      "constant": false,
      "inputs": [
        {
          "name": "_dispatcher",
          "type": "address"
        },
        {
          "name": "_distributor",
          "type": "address"
        },
        {
          "name": "_client",
          "type": "address"
        },
        {
          "name": "_model",
          "type": "address"
        },
        {
          "name": "_task_queue",
          "type": "address"
        }
      ],
      "name": "set_addresses",
      "outputs": [
        {
          "name": "",
          "type": "bool"
        }
      ],
      "payable": false,
      "stateMutability": "nonpayable",
      "type": "function"
    },
    {
      "constant": true,
      "inputs": [],
      "name": "admin_address",
      "outputs": [
        {
          "name": "",
          "type": "address"
        }
      ],
      "payable": false,
      "stateMutability": "view",
      "type": "function"
    },
    {
      "constant": false,
      "inputs": [
        {
          "name": "_task",
          "type": "address"
        }
      ],
      "name": "forfeit",
      "outputs": [
        {
          "name": "",
          "type": "bool"
        }
      ],
      "payable": false,
      "stateMutability": "nonpayable",
      "type": "function"
    },
    {
      "constant": false,
      "inputs": [
        {
          "name": "_task",
          "type": "address"
        },
        {
          "name": "_complete_fee",
          "type": "uint256"
        }
      ],
      "name": "report_finish",
      "outputs": [
        {
          "name": "",
          "type": "bool"
        }
      ],
      "payable": false,
      "stateMutability": "nonpayable",
      "type": "function"
    },
    {
      "inputs": [
        {
          "name": "_admin",
          "type": "address"
        },
        {
          "name": "_minimal_fee",
          "type": "uint256"
        }
      ],
      "payable": false,
      "stateMutability": "nonpayable",
      "type": "constructor"
    },
    {
      "payable": false,
      "stateMutability": "nonpayable",
      "type": "fallback"
    },
    {
      "anonymous": false,
      "inputs": [
        {
          "indexed": false,
          "name": "_client",
          "type": "address"
        },
        {
          "indexed": false,
          "name": "_task",
          "type": "address"
        }
      ],
      "name": "TaskCreated",
      "type": "event"
    },
    {
      "anonymous": false,
      "inputs": [
        {
          "indexed": false,
          "name": "_client",
          "type": "address"
        },
        {
          "indexed": false,
          "name": "_task",
          "type": "address"
        }
      ],
      "name": "TaskCancelled",
      "type": "event"
    },
    {
      "anonymous": false,
      "inputs": [
        {
          "indexed": false,
          "name": "_task",
          "type": "address"
        }
      ],
      "name": "TaskStarted",
      "type": "event"
    },
    {
      "anonymous": false,
      "inputs": [
        {
          "indexed": false,
          "name": "_task",
          "type": "address"
        }
      ],
      "name": "TaskCompleted",
      "type": "event"
    },
    {
      "anonymous": false,
      "inputs": [
        {
          "indexed": false,
          "name": "_task",
          "type": "address"
        }
      ],
      "name": "ErrorReported",
      "type": "event"
    },
    {
      "anonymous": false,
      "inputs": [
        {
          "indexed": false,
          "name": "_task",
          "type": "address"
        }
      ],
      "name": "TaskRejoinedQueue",
      "type": "event"
    }
  ],
  "bytecode": "0x606060405234156200001057600080fd5b604051604080620046a7833981016040528080519060200190919080519060200190919050503382818181806000806101000a81548173ffffffffffffffffffffffffffffffffffffffff021916908373ffffffffffffffffffffffffffffffffffffffff1602179055505060018060166101000a81548160ff021916908315150217905550600073ffffffffffffffffffffffffffffffffffffffff168173ffffffffffffffffffffffffffffffffffffffff16141515620000ee57620000ec81620001016401000000000262003004176401000000009004565b505b50505050806009819055505050620001bf565b60008060009054906101000a900473ffffffffffffffffffffffffffffffffffffffff1673ffffffffffffffffffffffffffffffffffffffff163373ffffffffffffffffffffffffffffffffffffffff161415156200015f57600080fd5b81600160006101000a81548173ffffffffffffffffffffffffffffffffffffffff021916908373ffffffffffffffffffffffffffffffffffffffff16021790555060018060146101000a81548160ff021916908315150217905550919050565b6144d880620001cf6000396000f300606060405260043610610149576000357c0100000000000000000000000000000000000000000000000000000000900463ffffffff1680631d5f0897146101595780631df2c6ab146101825780632166af7b146101af57806321f268a014610200578063253c8bd4146103a757806332506300146103e057806340e82e481461040d5780634755abbb146104a15780634bf4e421146104f6578063559670f81461054b5780635841e6a7146105a05780638da5cb5b146105cd5780638fabbbf81461062257806394e4e26c1461066857806399572a20146106d85780639fac6adc14610701578063b2ad35c014610752578063b33926cb146107a7578063b4cec27b146107de578063c199121914610838578063e9333fab14610865578063ee7b1674146108b6578063f2e6277214610983578063f66e88b1146109d8578063fcf6b27714610a29575b341561015457600080fd5b600080fd5b341561016457600080fd5b61016c610a83565b6040518082815260200191505060405180910390f35b341561018d57600080fd5b610195610a89565b604051808215151515815260200191505060405180910390f35b34156101ba57600080fd5b6101e6600480803573ffffffffffffffffffffffffffffffffffffffff16906020019091905050610a9c565b604051808215151515815260200191505060405180910390f35b610365600480803590602001909190803590602001908201803590602001908080601f0160208091040260200160405190810160405280939291908181526020018383808284378201915050505050509190803590602001908201803590602001908080601f0160208091040260200160405190810160405280939291908181526020018383808284378201915050505050509190803590602001908201803590602001908080601f0160208091040260200160405190810160405280939291908181526020018383808284378201915050505050509190803590602001908201803590602001908080601f0160208091040260200160405190810160405280939291908181526020018383808284378201915050505050509190803590602001908201803590602001908080601f01602080910402602001604051908101604052809392919081815260200183838082843782019150505050505091905050610e18565b604051808273ffffffffffffffffffffffffffffffffffffffff1673ffffffffffffffffffffffffffffffffffffffff16815260200191505060405180910390f35b34156103b257600080fd5b6103de600480803573ffffffffffffffffffffffffffffffffffffffff16906020019091905050611552565b005b34156103eb57600080fd5b6103f36115f0565b604051808215151515815260200191505060405180910390f35b341561041857600080fd5b610487600480803573ffffffffffffffffffffffffffffffffffffffff1690602001909190803590602001908201803590602001908080601f0160208091040260200160405190810160405280939291908181526020018383808284378201915050505050509190505061166b565b604051808215151515815260200191505060405180910390f35b34156104ac57600080fd5b6104b4611cc5565b604051808273ffffffffffffffffffffffffffffffffffffffff1673ffffffffffffffffffffffffffffffffffffffff16815260200191505060405180910390f35b341561050157600080fd5b610509611ceb565b604051808273ffffffffffffffffffffffffffffffffffffffff1673ffffffffffffffffffffffffffffffffffffffff16815260200191505060405180910390f35b341561055657600080fd5b61055e611d11565b604051808273ffffffffffffffffffffffffffffffffffffffff1673ffffffffffffffffffffffffffffffffffffffff16815260200191505060405180910390f35b34156105ab57600080fd5b6105b3611d37565b604051808215151515815260200191505060405180910390f35b34156105d857600080fd5b6105e0611d4a565b604051808273ffffffffffffffffffffffffffffffffffffffff1673ffffffffffffffffffffffffffffffffffffffff16815260200191505060405180910390f35b61064e600480803573ffffffffffffffffffffffffffffffffffffffff16906020019091905050611d6f565b604051808215151515815260200191505060405180910390f35b341561067357600080fd5b6106be600480803573ffffffffffffffffffffffffffffffffffffffff1690602001909190803573ffffffffffffffffffffffffffffffffffffffff169060200190919050506121af565b604051808215151515815260200191505060405180910390f35b34156106e357600080fd5b6106eb6123d8565b6040518082815260200191505060405180910390f35b341561070c57600080fd5b610738600480803573ffffffffffffffffffffffffffffffffffffffff16906020019091905050612452565b604051808215151515815260200191505060405180910390f35b341561075d57600080fd5b6107656126c3565b604051808273ffffffffffffffffffffffffffffffffffffffff1673ffffffffffffffffffffffffffffffffffffffff16815260200191505060405180910390f35b34156107b257600080fd5b6107c860048080359060200190919050506126e9565b6040518082815260200191505060405180910390f35b34156107e957600080fd5b61081e600480803573ffffffffffffffffffffffffffffffffffffffff169060200190919080359060200190919050506127c8565b604051808215151515815260200191505060405180910390f35b341561084357600080fd5b61084b612ff1565b604051808215151515815260200191505060405180910390f35b341561087057600080fd5b61089c600480803573ffffffffffffffffffffffffffffffffffffffff16906020019091905050613004565b604051808215151515815260200191505060405180910390f35b34156108c157600080fd5b610969600480803573ffffffffffffffffffffffffffffffffffffffff1690602001909190803573ffffffffffffffffffffffffffffffffffffffff1690602001909190803573ffffffffffffffffffffffffffffffffffffffff1690602001909190803573ffffffffffffffffffffffffffffffffffffffff1690602001909190803573ffffffffffffffffffffffffffffffffffffffff169060200190919050506130c1565b604051808215151515815260200191505060405180910390f35b341561098e57600080fd5b610996613315565b604051808273ffffffffffffffffffffffffffffffffffffffff1673ffffffffffffffffffffffffffffffffffffffff16815260200191505060405180910390f35b34156109e357600080fd5b610a0f600480803573ffffffffffffffffffffffffffffffffffffffff1690602001909190505061333b565b604051808215151515815260200191505060405180910390f35b3415610a3457600080fd5b610a69600480803573ffffffffffffffffffffffffffffffffffffffff169060200190919080359060200190919050506135b8565b604051808215151515815260200191505060405180910390f35b60095481565b600160149054906101000a900460ff1681565b6000600160159054906101000a900460ff161515610ab957600080fd5b813373ffffffffffffffffffffffffffffffffffffffff16600860009054906101000a900473ffffffffffffffffffffffffffffffffffffffff1673ffffffffffffffffffffffffffffffffffffffff16637e5c8826836000604051602001526040518263ffffffff167c0100000000000000000000000000000000000000000000000000000000028152600401808273ffffffffffffffffffffffffffffffffffffffff1673ffffffffffffffffffffffffffffffffffffffff168152602001915050602060405180830381600087803b1515610b9657600080fd5b6102c65a03f11515610ba757600080fd5b5050506040518051905073ffffffffffffffffffffffffffffffffffffffff16141515610bd357600080fd5b600860009054906101000a900473ffffffffffffffffffffffffffffffffffffffff1673ffffffffffffffffffffffffffffffffffffffff166318f80ac8846000604051602001526040518263ffffffff167c0100000000000000000000000000000000000000000000000000000000028152600401808273ffffffffffffffffffffffffffffffffffffffff1673ffffffffffffffffffffffffffffffffffffffff168152602001915050602060405180830381600087803b1515610c9857600080fd5b6102c65a03f11515610ca957600080fd5b505050604051805190501515610cbe57600080fd5b610daa83600860009054906101000a900473ffffffffffffffffffffffffffffffffffffffff1673ffffffffffffffffffffffffffffffffffffffff16632f7ce288866000604051602001526040518263ffffffff167c0100000000000000000000000000000000000000000000000000000000028152600401808273ffffffffffffffffffffffffffffffffffffffff1673ffffffffffffffffffffffffffffffffffffffff168152602001915050602060405180830381600087803b1515610d8757600080fd5b6102c65a03f11515610d9857600080fd5b50505060405180519050336002613a63565b507f0977ef299e9a8c9e81ed78e6c078fe63c5dae0ef6fa061aab54d9f061f80f08783604051808273ffffffffffffffffffffffffffffffffffffffff1673ffffffffffffffffffffffffffffffffffffffff16815260200191505060405180910390a16001915050919050565b6000600160159054906101000a900460ff161515610e3557600080fd5b6009543410151515610e4657600080fd5b60008714151515610e5657600080fd5b600660009054906101000a900473ffffffffffffffffffffffffffffffffffffffff1673ffffffffffffffffffffffffffffffffffffffff16630d57874f33896000604051602001526040518363ffffffff167c0100000000000000000000000000000000000000000000000000000000028152600401808373ffffffffffffffffffffffffffffffffffffffff1673ffffffffffffffffffffffffffffffffffffffff16815260200182815260200192505050602060405180830381600087803b1515610f2357600080fd5b6102c65a03f11515610f3457600080fd5b505050604051805190501515610f4957600080fd5b600860009054906101000a900473ffffffffffffffffffffffffffffffffffffffff1673ffffffffffffffffffffffffffffffffffffffff16638205a45c88888888888834336000604051602001526040518963ffffffff167c01000000000000000000000000000000000000000000000000000000000281526004018089815260200180602001806020018060200180602001806020018881526020018773ffffffffffffffffffffffffffffffffffffffff1673ffffffffffffffffffffffffffffffffffffffff16815260200186810386528d818151815260200191508051906020019080838360005b83811015611051578082015181840152602081019050611036565b50505050905090810190601f16801561107e5780820380516001836020036101000a031916815260200191505b5086810385528c818151815260200191508051906020019080838360005b838110156110b757808201518184015260208101905061109c565b50505050905090810190601f1680156110e45780820380516001836020036101000a031916815260200191505b5086810384528b818151815260200191508051906020019080838360005b8381101561111d578082015181840152602081019050611102565b50505050905090810190601f16801561114a5780820380516001836020036101000a031916815260200191505b5086810383528a818151815260200191508051906020019080838360005b83811015611183578082015181840152602081019050611168565b50505050905090810190601f1680156111b05780820380516001836020036101000a031916815260200191505b50868103825289818151815260200191508051906020019080838360005b838110156111e95780820151818401526020810190506111ce565b50505050905090810190601f1680156112165780820380516001836020036101000a031916815260200191505b509d5050505050505050505050505050602060405180830381600087803b151561123f57600080fd5b6102c65a03f1151561125057600080fd5b505050604051805190509050600073ffffffffffffffffffffffffffffffffffffffff168173ffffffffffffffffffffffffffffffffffffffff161415151561129557fe5b600660009054906101000a900473ffffffffffffffffffffffffffffffffffffffff1673ffffffffffffffffffffffffffffffffffffffff16630cf75c34336001848b6000604051602001526040518563ffffffff167c0100000000000000000000000000000000000000000000000000000000028152600401808573ffffffffffffffffffffffffffffffffffffffff1673ffffffffffffffffffffffffffffffffffffffff168152602001841515151581526020018373ffffffffffffffffffffffffffffffffffffffff1673ffffffffffffffffffffffffffffffffffffffff168152602001828152602001945050505050602060405180830381600087803b15156113a357600080fd5b6102c65a03f115156113b457600080fd5b5050506040518051905015156113c657fe5b600560009054906101000a900473ffffffffffffffffffffffffffffffffffffffff1673ffffffffffffffffffffffffffffffffffffffff1663e9f0afe9826000604051602001526040518263ffffffff167c0100000000000000000000000000000000000000000000000000000000028152600401808273ffffffffffffffffffffffffffffffffffffffff1673ffffffffffffffffffffffffffffffffffffffff168152602001915050602060405180830381600087803b151561148b57600080fd5b6102c65a03f1151561149c57600080fd5b5050506040518051905015156114ae57fe5b7f5977287f5f66dc04df1a397cdd58f5db2632319686b39589ab053c2d753bf6003382604051808373ffffffffffffffffffffffffffffffffffffffff1673ffffffffffffffffffffffffffffffffffffffff1681526020018273ffffffffffffffffffffffffffffffffffffffff1673ffffffffffffffffffffffffffffffffffffffff1681526020019250505060405180910390a18090509695505050505050565b6000809054906101000a900473ffffffffffffffffffffffffffffffffffffffff1673ffffffffffffffffffffffffffffffffffffffff163373ffffffffffffffffffffffffffffffffffffffff161415156115ad57600080fd5b806000806101000a81548173ffffffffffffffffffffffffffffffffffffffff021916908373ffffffffffffffffffffffffffffffffffffffff16021790555050565b60008060009054906101000a900473ffffffffffffffffffffffffffffffffffffffff1673ffffffffffffffffffffffffffffffffffffffff163373ffffffffffffffffffffffffffffffffffffffff1614151561164d57600080fd5b6000600160166101000a81548160ff02191690831515021790555090565b6000806000843373ffffffffffffffffffffffffffffffffffffffff16600860009054906101000a900473ffffffffffffffffffffffffffffffffffffffff1673ffffffffffffffffffffffffffffffffffffffff16632f7ce288836000604051602001526040518263ffffffff167c0100000000000000000000000000000000000000000000000000000000028152600401808273ffffffffffffffffffffffffffffffffffffffff1673ffffffffffffffffffffffffffffffffffffffff168152602001915050602060405180830381600087803b151561174d57600080fd5b6102c65a03f1151561175e57600080fd5b5050506040518051905073ffffffffffffffffffffffffffffffffffffffff1614151561178a57600080fd5b600860009054906101000a900473ffffffffffffffffffffffffffffffffffffffff1673ffffffffffffffffffffffffffffffffffffffff16637cdb72b0876000604051604001526040518263ffffffff167c0100000000000000000000000000000000000000000000000000000000028152600401808273ffffffffffffffffffffffffffffffffffffffff1673ffffffffffffffffffffffffffffffffffffffff1681526020019150506040805180830381600087803b151561184e57600080fd5b6102c65a03f1151561185f57600080fd5b505050604051805190602001805190505080935050600860009054906101000a900473ffffffffffffffffffffffffffffffffffffffff1673ffffffffffffffffffffffffffffffffffffffff1663efb37f7b87876000604051602001526040518363ffffffff167c0100000000000000000000000000000000000000000000000000000000028152600401808373ffffffffffffffffffffffffffffffffffffffff1673ffffffffffffffffffffffffffffffffffffffff16815260200180602001828103825283818151815260200191508051906020019080838360005b8381101561195a57808201518184015260208101905061193f565b50505050905090810190601f1680156119875780820380516001836020036101000a031916815260200191505b509350505050602060405180830381600087803b15156119a657600080fd5b6102c65a03f115156119b757600080fd5b5050506040518051905080156119d357506119d28633613e95565b5b8015611ac657506000600860009054906101000a900473ffffffffffffffffffffffffffffffffffffffff1673ffffffffffffffffffffffffffffffffffffffff16633734030e88600080604051602001526040518363ffffffff167c0100000000000000000000000000000000000000000000000000000000028152600401808373ffffffffffffffffffffffffffffffffffffffff1673ffffffffffffffffffffffffffffffffffffffff16815260200182815260200192505050602060405180830381600087803b1515611aa957600080fd5b6102c65a03f11515611aba57600080fd5b50505060405180519050145b1515611ace57fe5b611ae26003846142b690919063ffffffff16565b91503373ffffffffffffffffffffffffffffffffffffffff166108fc839081150290604051600060405180830381858888f193505050501515611b2457600080fd5b600860009054906101000a900473ffffffffffffffffffffffffffffffffffffffff1673ffffffffffffffffffffffffffffffffffffffff16637e5c8826876000604051602001526040518263ffffffff167c0100000000000000000000000000000000000000000000000000000000028152600401808273ffffffffffffffffffffffffffffffffffffffff1673ffffffffffffffffffffffffffffffffffffffff168152602001915050602060405180830381600087803b1515611be957600080fd5b6102c65a03f11515611bfa57600080fd5b5050506040518051905073ffffffffffffffffffffffffffffffffffffffff166108fc611c3084866142f790919063ffffffff16565b9081150290604051600060405180830381858888f193505050501515611c5557600080fd5b7fbf15b92222c2799abf0a5b05764027e2fa995733de3147651fae6ec1c665f39286604051808273ffffffffffffffffffffffffffffffffffffffff1673ffffffffffffffffffffffffffffffffffffffff16815260200191505060405180910390a16001935050505092915050565b600760009054906101000a900473ffffffffffffffffffffffffffffffffffffffff1681565b600460009054906101000a900473ffffffffffffffffffffffffffffffffffffffff1681565b600260009054906101000a900473ffffffffffffffffffffffffffffffffffffffff1681565b600160159054906101000a900460ff1681565b6000809054906101000a900473ffffffffffffffffffffffffffffffffffffffff1681565b600080333373ffffffffffffffffffffffffffffffffffffffff16600860009054906101000a900473ffffffffffffffffffffffffffffffffffffffff1673ffffffffffffffffffffffffffffffffffffffff16637e5c8826836000604051602001526040518263ffffffff167c0100000000000000000000000000000000000000000000000000000000028152600401808273ffffffffffffffffffffffffffffffffffffffff1673ffffffffffffffffffffffffffffffffffffffff168152602001915050602060405180830381600087803b1515611e4f57600080fd5b6102c65a03f11515611e6057600080fd5b5050506040518051905073ffffffffffffffffffffffffffffffffffffffff16141515611e8c57600080fd5b600860009054906101000a900473ffffffffffffffffffffffffffffffffffffffff1673ffffffffffffffffffffffffffffffffffffffff16637cdb72b0856000604051604001526040518263ffffffff167c0100000000000000000000000000000000000000000000000000000000028152600401808273ffffffffffffffffffffffffffffffffffffffff1673ffffffffffffffffffffffffffffffffffffffff1681526020019150506040805180830381600087803b1515611f5057600080fd5b6102c65a03f11515611f6157600080fd5b5050506040518051906020018051905090508092505060008214158015611f8757508134145b1515611f9257600080fd5b6000600860009054906101000a900473ffffffffffffffffffffffffffffffffffffffff1673ffffffffffffffffffffffffffffffffffffffff16633f21572f86600080604051602001526040518363ffffffff167c0100000000000000000000000000000000000000000000000000000000028152600401808373ffffffffffffffffffffffffffffffffffffffff1673ffffffffffffffffffffffffffffffffffffffff16815260200182815260200192505050602060405180830381600087803b151561206157600080fd5b6102c65a03f1151561207257600080fd5b5050506040518051905014151561208557fe5b600860009054906101000a900473ffffffffffffffffffffffffffffffffffffffff1673ffffffffffffffffffffffffffffffffffffffff16632f7ce288856000604051602001526040518263ffffffff167c0100000000000000000000000000000000000000000000000000000000028152600401808273ffffffffffffffffffffffffffffffffffffffff1673ffffffffffffffffffffffffffffffffffffffff168152602001915050602060405180830381600087803b151561214a57600080fd5b6102c65a03f1151561215b57600080fd5b5050506040518051905073ffffffffffffffffffffffffffffffffffffffff166108fc349081150290604051600060405180830381858888f1935050505015156121a457600080fd5b600192505050919050565b60003373ffffffffffffffffffffffffffffffffffffffff16600260009054906101000a900473ffffffffffffffffffffffffffffffffffffffff1673ffffffffffffffffffffffffffffffffffffffff16148061225a5750600160009054906101000a900473ffffffffffffffffffffffffffffffffffffffff1673ffffffffffffffffffffffffffffffffffffffff163373ffffffffffffffffffffffffffffffffffffffff16145b806122b157506000809054906101000a900473ffffffffffffffffffffffffffffffffffffffff1673ffffffffffffffffffffffffffffffffffffffff163373ffffffffffffffffffffffffffffffffffffffff16145b15156122bc57600080fd5b600860009054906101000a900473ffffffffffffffffffffffffffffffffffffffff1673ffffffffffffffffffffffffffffffffffffffff166306a3a21984846000604051602001526040518363ffffffff167c0100000000000000000000000000000000000000000000000000000000028152600401808373ffffffffffffffffffffffffffffffffffffffff1673ffffffffffffffffffffffffffffffffffffffff1681526020018273ffffffffffffffffffffffffffffffffffffffff1673ffffffffffffffffffffffffffffffffffffffff16815260200192505050602060405180830381600087803b15156123b557600080fd5b6102c65a03f115156123c657600080fd5b50505060405180519050905092915050565b60008060009054906101000a900473ffffffffffffffffffffffffffffffffffffffff1673ffffffffffffffffffffffffffffffffffffffff163373ffffffffffffffffffffffffffffffffffffffff1614151561243557600080fd5b3073ffffffffffffffffffffffffffffffffffffffff1631905090565b6000813373ffffffffffffffffffffffffffffffffffffffff16600860009054906101000a900473ffffffffffffffffffffffffffffffffffffffff1673ffffffffffffffffffffffffffffffffffffffff16632f7ce288836000604051602001526040518263ffffffff167c0100000000000000000000000000000000000000000000000000000000028152600401808273ffffffffffffffffffffffffffffffffffffffff1673ffffffffffffffffffffffffffffffffffffffff168152602001915050602060405180830381600087803b151561253157600080fd5b6102c65a03f1151561254257600080fd5b5050506040518051905073ffffffffffffffffffffffffffffffffffffffff1614151561256e57600080fd5b600860009054906101000a900473ffffffffffffffffffffffffffffffffffffffff1673ffffffffffffffffffffffffffffffffffffffff16636cebb1a9846000604051602001526040518263ffffffff167c0100000000000000000000000000000000000000000000000000000000028152600401808273ffffffffffffffffffffffffffffffffffffffff1673ffffffffffffffffffffffffffffffffffffffff168152602001915050602060405180830381600087803b151561263357600080fd5b6102c65a03f1151561264457600080fd5b50505060405180519050151561265657fe5b7f820e582eaf61e367c37064687d54691b30d588880b80b7d6b5f3e969a327d86f83604051808273ffffffffffffffffffffffffffffffffffffffff1673ffffffffffffffffffffffffffffffffffffffff16815260200191505060405180910390a16001915050919050565b600360009054906101000a900473ffffffffffffffffffffffffffffffffffffffff1681565b60008060009054906101000a900473ffffffffffffffffffffffffffffffffffffffff1673ffffffffffffffffffffffffffffffffffffffff163373ffffffffffffffffffffffffffffffffffffffff1614151561274657600080fd5b600160169054906101000a900460ff1615151561276257600080fd5b6000809054906101000a900473ffffffffffffffffffffffffffffffffffffffff1673ffffffffffffffffffffffffffffffffffffffff166108fc839081150290604051600060405180830381858888f1935050505015156127c357600080fd5b919050565b600080600080600160159054906101000a900460ff1615156127e957600080fd5b600860009054906101000a900473ffffffffffffffffffffffffffffffffffffffff1673ffffffffffffffffffffffffffffffffffffffff16637e5c8826876000604051602001526040518263ffffffff167c0100000000000000000000000000000000000000000000000000000000028152600401808273ffffffffffffffffffffffffffffffffffffffff1673ffffffffffffffffffffffffffffffffffffffff168152602001915050602060405180830381600087803b15156128ae57600080fd5b6102c65a03f115156128bf57600080fd5b5050506040518051905073ffffffffffffffffffffffffffffffffffffffff163373ffffffffffffffffffffffffffffffffffffffff1614151561290257600080fd5b600860009054906101000a900473ffffffffffffffffffffffffffffffffffffffff1673ffffffffffffffffffffffffffffffffffffffff16633e2c08ef87600060405160c001526040518263ffffffff167c0100000000000000000000000000000000000000000000000000000000028152600401808273ffffffffffffffffffffffffffffffffffffffff1673ffffffffffffffffffffffffffffffffffffffff16815260200191505060c060405180830381600087803b15156129c757600080fd5b6102c65a03f115156129d857600080fd5b5050506040518051906020018051906020018051906020018051906020018051906020018051905090919250909150905050809350819450505060008314158015612a235750600082145b1515612a2e57600080fd5b600560009054906101000a900473ffffffffffffffffffffffffffffffffffffffff1673ffffffffffffffffffffffffffffffffffffffff166398ce6fdf876000604051602001526040518263ffffffff167c0100000000000000000000000000000000000000000000000000000000028152600401808273ffffffffffffffffffffffffffffffffffffffff1673ffffffffffffffffffffffffffffffffffffffff168152602001915050602060405180830381600087803b1515612af357600080fd5b6102c65a03f11515612b0457600080fd5b505050604051805190508015612c405750600660009054906101000a900473ffffffffffffffffffffffffffffffffffffffff1673ffffffffffffffffffffffffffffffffffffffff16630cf75c3433600089896000604051602001526040518563ffffffff167c0100000000000000000000000000000000000000000000000000000000028152600401808573ffffffffffffffffffffffffffffffffffffffff1673ffffffffffffffffffffffffffffffffffffffff168152602001841515151581526020018373ffffffffffffffffffffffffffffffffffffffff1673ffffffffffffffffffffffffffffffffffffffff168152602001828152602001945050505050602060405180830381600087803b1515612c2357600080fd5b6102c65a03f11515612c3457600080fd5b50505060405180519050155b1515612c4857fe5b600860009054906101000a900473ffffffffffffffffffffffffffffffffffffffff1673ffffffffffffffffffffffffffffffffffffffff16637cdb72b0876000604051604001526040518263ffffffff167c0100000000000000000000000000000000000000000000000000000000028152600401808273ffffffffffffffffffffffffffffffffffffffff1673ffffffffffffffffffffffffffffffffffffffff1681526020019150506040805180830381600087803b1515612d0c57600080fd5b6102c65a03f11515612d1d57600080fd5b5050506040518051906020018051905050809150506000600860009054906101000a900473ffffffffffffffffffffffffffffffffffffffff1673ffffffffffffffffffffffffffffffffffffffff16633734030e88600080604051602001526040518363ffffffff167c0100000000000000000000000000000000000000000000000000000000028152600401808373ffffffffffffffffffffffffffffffffffffffff1673ffffffffffffffffffffffffffffffffffffffff16815260200182815260200192505050602060405180830381600087803b1515612e0157600080fd5b6102c65a03f11515612e1257600080fd5b50505060405180519050141515612e2557fe5b600860009054906101000a900473ffffffffffffffffffffffffffffffffffffffff1673ffffffffffffffffffffffffffffffffffffffff1663f831428f876000604051602001526040518263ffffffff167c0100000000000000000000000000000000000000000000000000000000028152600401808273ffffffffffffffffffffffffffffffffffffffff1673ffffffffffffffffffffffffffffffffffffffff168152602001915050602060405180830381600087803b1515612eea57600080fd5b6102c65a03f11515612efb57600080fd5b505050604051805190501515612f0d57fe5b3373ffffffffffffffffffffffffffffffffffffffff166108fc829081150290604051600060405180830381858888f193505050501515612f4d57600080fd5b7f0e42256f465cbb1da1f2a38ed99bf97404e87fcb662b54c0c4a0224810e03b983387604051808373ffffffffffffffffffffffffffffffffffffffff1673ffffffffffffffffffffffffffffffffffffffff1681526020018273ffffffffffffffffffffffffffffffffffffffff1673ffffffffffffffffffffffffffffffffffffffff1681526020019250505060405180910390a16001935050505092915050565b600160169054906101000a900460ff1681565b60008060009054906101000a900473ffffffffffffffffffffffffffffffffffffffff1673ffffffffffffffffffffffffffffffffffffffff163373ffffffffffffffffffffffffffffffffffffffff1614151561306157600080fd5b81600160006101000a81548173ffffffffffffffffffffffffffffffffffffffff021916908373ffffffffffffffffffffffffffffffffffffffff16021790555060018060146101000a81548160ff021916908315150217905550919050565b6000600160009054906101000a900473ffffffffffffffffffffffffffffffffffffffff1673ffffffffffffffffffffffffffffffffffffffff163373ffffffffffffffffffffffffffffffffffffffff16148061316b57506000809054906101000a900473ffffffffffffffffffffffffffffffffffffffff1673ffffffffffffffffffffffffffffffffffffffff163373ffffffffffffffffffffffffffffffffffffffff16145b151561317657600080fd5b6131838686868686614310565b5082600760006101000a81548173ffffffffffffffffffffffffffffffffffffffff021916908373ffffffffffffffffffffffffffffffffffffffff160217905550600760009054906101000a900473ffffffffffffffffffffffffffffffffffffffff16600860006101000a81548173ffffffffffffffffffffffffffffffffffffffff021916908373ffffffffffffffffffffffffffffffffffffffff160217905550600460009054906101000a900473ffffffffffffffffffffffffffffffffffffffff16600660006101000a81548173ffffffffffffffffffffffffffffffffffffffff021916908373ffffffffffffffffffffffffffffffffffffffff160217905550600260009054906101000a900473ffffffffffffffffffffffffffffffffffffffff16600560006101000a81548173ffffffffffffffffffffffffffffffffffffffff021916908373ffffffffffffffffffffffffffffffffffffffff16021790555060018060156101000a81548160ff0219169083151502179055506001905095945050505050565b600160009054906101000a900473ffffffffffffffffffffffffffffffffffffffff1681565b6000813373ffffffffffffffffffffffffffffffffffffffff16600860009054906101000a900473ffffffffffffffffffffffffffffffffffffffff1673ffffffffffffffffffffffffffffffffffffffff16632f7ce288836000604051602001526040518263ffffffff167c0100000000000000000000000000000000000000000000000000000000028152600401808273ffffffffffffffffffffffffffffffffffffffff1673ffffffffffffffffffffffffffffffffffffffff168152602001915050602060405180830381600087803b151561341a57600080fd5b6102c65a03f1151561342b57600080fd5b5050506040518051905073ffffffffffffffffffffffffffffffffffffffff1614151561345757600080fd5b6135438333600860009054906101000a900473ffffffffffffffffffffffffffffffffffffffff1673ffffffffffffffffffffffffffffffffffffffff16637e5c8826876000604051602001526040518263ffffffff167c0100000000000000000000000000000000000000000000000000000000028152600401808273ffffffffffffffffffffffffffffffffffffffff1673ffffffffffffffffffffffffffffffffffffffff168152602001915050602060405180830381600087803b151561352157600080fd5b6102c65a03f1151561353257600080fd5b505050604051805190506001613a63565b151561354b57fe5b7f0977ef299e9a8c9e81ed78e6c078fe63c5dae0ef6fa061aab54d9f061f80f08783604051808273ffffffffffffffffffffffffffffffffffffffff1673ffffffffffffffffffffffffffffffffffffffff16815260200191505060405180910390a16001915050919050565b600080833373ffffffffffffffffffffffffffffffffffffffff16600860009054906101000a900473ffffffffffffffffffffffffffffffffffffffff1673ffffffffffffffffffffffffffffffffffffffff16632f7ce288836000604051602001526040518263ffffffff167c0100000000000000000000000000000000000000000000000000000000028152600401808273ffffffffffffffffffffffffffffffffffffffff1673ffffffffffffffffffffffffffffffffffffffff168152602001915050602060405180830381600087803b151561369857600080fd5b6102c65a03f115156136a957600080fd5b5050506040518051905073ffffffffffffffffffffffffffffffffffffffff161415156136d557600080fd5b600860009054906101000a900473ffffffffffffffffffffffffffffffffffffffff1673ffffffffffffffffffffffffffffffffffffffff16631abbbb9f86866000604051602001526040518363ffffffff167c0100000000000000000000000000000000000000000000000000000000028152600401808373ffffffffffffffffffffffffffffffffffffffff1673ffffffffffffffffffffffffffffffffffffffff16815260200182815260200192505050602060405180830381600087803b15156137a257600080fd5b6102c65a03f115156137b357600080fd5b5050506040518051905015156137c557fe5b6137cf8533613e95565b15156137d757fe5b600860009054906101000a900473ffffffffffffffffffffffffffffffffffffffff1673ffffffffffffffffffffffffffffffffffffffff16637cdb72b0866000604051604001526040518263ffffffff167c0100000000000000000000000000000000000000000000000000000000028152600401808273ffffffffffffffffffffffffffffffffffffffff1673ffffffffffffffffffffffffffffffffffffffff1681526020019150506040805180830381600087803b151561389b57600080fd5b6102c65a03f115156138ac57600080fd5b5050506040518051906020018051905050809250506000600860009054906101000a900473ffffffffffffffffffffffffffffffffffffffff1673ffffffffffffffffffffffffffffffffffffffff16633734030e87600080604051602001526040518363ffffffff167c0100000000000000000000000000000000000000000000000000000000028152600401808373ffffffffffffffffffffffffffffffffffffffff1673ffffffffffffffffffffffffffffffffffffffff16815260200182815260200192505050602060405180830381600087803b151561399057600080fd5b6102c65a03f115156139a157600080fd5b505050604051805190501415156139b457fe5b3373ffffffffffffffffffffffffffffffffffffffff166108fc839081150290604051600060405180830381858888f1935050505015156139f457600080fd5b7fc67e2ae474f7ddf78b2e9d5b6d45422b30f52a0efbb5600f9a723c515d385f9385604051808273ffffffffffffffffffffffffffffffffffffffff1673ffffffffffffffffffffffffffffffffffffffff16815260200191505060405180910390a160019250505092915050565b6000600860009054906101000a900473ffffffffffffffffffffffffffffffffffffffff1673ffffffffffffffffffffffffffffffffffffffff16633a1a9e8a866000604051602001526040518263ffffffff167c0100000000000000000000000000000000000000000000000000000000028152600401808273ffffffffffffffffffffffffffffffffffffffff1673ffffffffffffffffffffffffffffffffffffffff168152602001915050602060405180830381600087803b1515613b2a57600080fd5b6102c65a03f11515613b3b57600080fd5b505050604051805190501515613b4d57fe5b600660009054906101000a900473ffffffffffffffffffffffffffffffffffffffff1673ffffffffffffffffffffffffffffffffffffffff1663793908bb856000886000604051602001526040518463ffffffff167c0100000000000000000000000000000000000000000000000000000000028152600401808473ffffffffffffffffffffffffffffffffffffffff1673ffffffffffffffffffffffffffffffffffffffff168152602001831515151581526020018273ffffffffffffffffffffffffffffffffffffffff1673ffffffffffffffffffffffffffffffffffffffff1681526020019350505050602060405180830381600087803b1515613c5357600080fd5b6102c65a03f11515613c6457600080fd5b50505060405180519050151515613c7757fe5b600560009054906101000a900473ffffffffffffffffffffffffffffffffffffffff1673ffffffffffffffffffffffffffffffffffffffff1663d18f6ceb86846000604051602001526040518363ffffffff167c0100000000000000000000000000000000000000000000000000000000028152600401808373ffffffffffffffffffffffffffffffffffffffff1673ffffffffffffffffffffffffffffffffffffffff1681526020018260ff1660ff16815260200192505050602060405180830381600087803b1515613d4a57600080fd5b6102c65a03f11515613d5b57600080fd5b505050604051805190501515613d6d57fe5b600660009054906101000a900473ffffffffffffffffffffffffffffffffffffffff1673ffffffffffffffffffffffffffffffffffffffff1663fe08814f85856000604051602001526040518363ffffffff167c0100000000000000000000000000000000000000000000000000000000028152600401808373ffffffffffffffffffffffffffffffffffffffff1673ffffffffffffffffffffffffffffffffffffffff1681526020018273ffffffffffffffffffffffffffffffffffffffff1673ffffffffffffffffffffffffffffffffffffffff16815260200192505050602060405180830381600087803b1515613e6657600080fd5b6102c65a03f11515613e7757600080fd5b505050604051805190501515613e8957fe5b60019050949350505050565b600080600860009054906101000a900473ffffffffffffffffffffffffffffffffffffffff1673ffffffffffffffffffffffffffffffffffffffff1663318beae0856000604051602001526040518263ffffffff167c0100000000000000000000000000000000000000000000000000000000028152600401808273ffffffffffffffffffffffffffffffffffffffff1673ffffffffffffffffffffffffffffffffffffffff168152602001915050602060405180830381600087803b1515613f5d57600080fd5b6102c65a03f11515613f6e57600080fd5b505050604051805190509050600660009054906101000a900473ffffffffffffffffffffffffffffffffffffffff1673ffffffffffffffffffffffffffffffffffffffff16630cf75c34600860009054906101000a900473ffffffffffffffffffffffffffffffffffffffff1673ffffffffffffffffffffffffffffffffffffffff16637e5c8826876000604051602001526040518263ffffffff167c0100000000000000000000000000000000000000000000000000000000028152600401808273ffffffffffffffffffffffffffffffffffffffff1673ffffffffffffffffffffffffffffffffffffffff168152602001915050602060405180830381600087803b151561407d57600080fd5b6102c65a03f1151561408e57600080fd5b50505060405180519050600087856000604051602001526040518563ffffffff167c0100000000000000000000000000000000000000000000000000000000028152600401808573ffffffffffffffffffffffffffffffffffffffff1673ffffffffffffffffffffffffffffffffffffffff168152602001841515151581526020018373ffffffffffffffffffffffffffffffffffffffff1673ffffffffffffffffffffffffffffffffffffffff168152602001828152602001945050505050602060405180830381600087803b151561416757600080fd5b6102c65a03f1151561417857600080fd5b505050604051805190501580156142ad5750600660009054906101000a900473ffffffffffffffffffffffffffffffffffffffff1673ffffffffffffffffffffffffffffffffffffffff1663793908bb846000876000604051602001526040518463ffffffff167c0100000000000000000000000000000000000000000000000000000000028152600401808473ffffffffffffffffffffffffffffffffffffffff1673ffffffffffffffffffffffffffffffffffffffff168152602001831515151581526020018273ffffffffffffffffffffffffffffffffffffffff1673ffffffffffffffffffffffffffffffffffffffff1681526020019350505050602060405180830381600087803b151561429057600080fd5b6102c65a03f115156142a157600080fd5b50505060405180519050155b91505092915050565b6000806000831115156142c557fe5b82848115156142d057fe5b04905082848115156142de57fe5b0681840201841415156142ed57fe5b8091505092915050565b600082821115151561430557fe5b818303905092915050565b6000600160009054906101000a900473ffffffffffffffffffffffffffffffffffffffff1673ffffffffffffffffffffffffffffffffffffffff163373ffffffffffffffffffffffffffffffffffffffff1614806143ba57506000809054906101000a900473ffffffffffffffffffffffffffffffffffffffff1673ffffffffffffffffffffffffffffffffffffffff163373ffffffffffffffffffffffffffffffffffffffff16145b15156143c557600080fd5b600160149054906101000a900460ff1615156143e057600080fd5b85600260006101000a81548173ffffffffffffffffffffffffffffffffffffffff021916908373ffffffffffffffffffffffffffffffffffffffff16021790555084600360006101000a81548173ffffffffffffffffffffffffffffffffffffffff021916908373ffffffffffffffffffffffffffffffffffffffff16021790555083600460006101000a81548173ffffffffffffffffffffffffffffffffffffffff021916908373ffffffffffffffffffffffffffffffffffffffff160217905550959450505050505600a165627a7a72305820199e42928c26af94018d35a538887b0d844c5e1ba59d6f3cba0afc5ddf9e19a20029",
  "source": "pragma solidity ^0.4.18;\r\n\r\n//basics\r\nimport \"../ownership/Controllable.sol\";\r\nimport \"../misc/SafeMath.sol\";\r\n//data storage\r\nimport \"../interface/model/TaskPool_Interface.sol\";\r\n//is\r\nimport \"../interface/distributor/Distributor_Interface_submitter.sol\";\r\nimport \"../interface/distributor/Distributor_Interface_miner.sol\";\r\nimport \"../interface/distributor/Distributor_Interface_dispatcher.sol\";\r\nimport \"../interface/distributor/Distributor_Interface_client.sol\";\r\n//uses\r\nimport \"../interface/dispatcher/Dispatcher_Interface_distributor.sol\";\r\nimport \"../interface/client/Client_Interface_distributor.sol\";\r\n\r\ncontract Distributor is Controllable,\r\nDistributorInterfaceSubmitter, DistributorInterfaceMiner, DistributorInterfaceDispatcher, DistributorInterfaceClient {\r\n    using SafeMath for uint256;\r\n    using SafeMath for uint8;\r\n\r\n    DispatcherInterfaceDistributor dispatcher;\r\n    ClientInterfaceDistributor client;\r\n    address public pool_address;\r\n    TaskPoolInterface pool;\r\n\r\n    uint256 public minimal_fee;\r\n\r\n    function Distributor(address _admin, uint256 _minimal_fee) public Controllable(msg.sender, _admin) {\r\n        minimal_fee = _minimal_fee;\r\n    }\r\n\r\n    function() public {\r\n        revert();\r\n    }\r\n\r\n    //------------------------------------------------------------------------------------------------------------------\r\n    //Admin\r\n    function set_addresses(address _dispatcher, address _distributor, address _client, address _model, address _task_queue) admin_only public returns (bool){\r\n        super.set_addresses(_dispatcher, _distributor, _client, _model, _task_queue);\r\n        \r\n        pool_address = _model;\r\n        pool = TaskPoolInterface(pool_address);\r\n\r\n        client = ClientInterfaceDistributor(client_address);\r\n        dispatcher = DispatcherInterfaceDistributor(dispatcher_address);\r\n\r\n        controller_ready = true;\r\n        return true;\r\n    }\r\n\r\n    //------------------------------------------------------------------------------------------------------------------\r\n    modifier task_owner_only(address _task){\r\n        require(pool.get_owner(_task) == msg.sender);\r\n        _;\r\n    }\r\n    //@dev this also makes sure that the _task exists\r\n    modifier miner_only(address _task){\r\n        require(pool.get_worker(_task) == msg.sender);\r\n        _;\r\n    }\r\n\r\n    //------------------------------------------------------------------------------------------------------------------\r\n    //Client\r\n    ///@dev entry point\r\n    function create_task(\r\n        uint256 _app_id,\r\n        string _name,\r\n        string _data,\r\n        string _script,\r\n        string _output,\r\n        string _params\r\n    ) Ready public payable returns (address _task){\r\n        require(msg.value >= minimal_fee);\r\n        //require(app.valid_id(_app_id)) app_id needs to be valid\r\n        require(_app_id != 0);\r\n        //temp TODO to be implemented a contract that keep tracks of the app id\r\n        require(client.submissible(msg.sender, _app_id));\r\n\r\n        _task = pool.create(_app_id, _name, _data, _script, _output, _params, msg.value, msg.sender);\r\n        assert(_task != address(0));\r\n        assert(client.add_task(msg.sender, true, _task, _app_id));\r\n        assert(dispatcher.join_task_queue(_task));\r\n        TaskCreated(msg.sender, _task);\r\n        return _task;\r\n    }\r\n\r\n    event TaskCreated(address _client, address _task);\r\n\r\n    //@dev entry point\r\n    function cancel_task(address _task, uint256 _app_id) Ready external returns (bool){\r\n        require(msg.sender == pool.get_owner(_task));\r\n        uint _create_time;\r\n        uint _dispatch_time;\r\n        (_create_time, _dispatch_time, ,,,) = pool.get_status(_task);\r\n\r\n        require(_create_time != 0 && _dispatch_time == 0);\r\n        //task existed and in queue (not dispatched) => can be cancelled\r\n        assert(dispatcher.leave_task_queue(_task) && !client.add_task(msg.sender, false, _task, _app_id));\r\n        uint256 _fee;\r\n        (_fee,) = pool.get_fees(_task);\r\n        assert(pool.set_fee(_task, 0) == 0);\r\n        assert(pool.set_cancel(_task));\r\n        msg.sender.transfer(_fee);\r\n        TaskCancelled(msg.sender, _task);\r\n        return true;\r\n    }\r\n    //    event TaskLeftQueue(address _client, address _task);\r\n    //    event SubmitterFreed(address _client);\r\n    event TaskCancelled(address _client, address _task);\r\n\r\n    ///@dev entry point\r\n    function reassign_task_request(address _task) Ready task_owner_only(_task) external returns (bool){\r\n        require(pool.reassignable(_task));\r\n        change_worker(_task, pool.get_worker(_task), msg.sender, 2);\r\n        //due to many actions performed here, assert within change_worker\r\n        TaskRejoinedQueue(_task);\r\n        return true;\r\n    }\r\n    //@dev entry point\r\n    function pay_completion_fee(address _task) task_owner_only(msg.sender) payable external returns (bool){\r\n        uint256 _fee;\r\n        (, _fee) = pool.get_fees(_task);\r\n        require(_fee != 0 && msg.value == _fee);\r\n        assert(pool.set_completion_fee(_task, 0) == 0);\r\n        pool.get_worker(_task).transfer(msg.value);\r\n        return true;\r\n    }\r\n\r\n    //------------------------------------------------------------------------------------------------------------------\r\n    //Miner\r\n    ///@dev entry point\r\n    function report_start(address _task) miner_only(_task) public returns (bool){\r\n        //task can be reported start at anytime, as long as the task does exist (checked by miner_only modifier)\r\n        //this does not effect anything, other than reassignable()\r\n        assert(pool.set_start(_task));\r\n        TaskStarted(_task);\r\n        return true;\r\n    }\r\n    event TaskStarted(address _task);\r\n\r\n    ///@dev entry point\r\n    function report_finish(address _task, uint256 _complete_fee) miner_only(_task) public returns (bool){\r\n        //task can be reported complete at anytime, as long as the task does exist (checked by miner_only modifier)\r\n        assert(pool.set_complete(_task, _complete_fee));\r\n        assert(complete_procedure(_task, msg.sender));\r\n        uint256 _fee;\r\n        (_fee,) = pool.get_fees(_task);\r\n        assert(pool.set_fee(_task, 0) == 0);\r\n        msg.sender.transfer(_fee);\r\n        TaskCompleted(_task);\r\n        return true;\r\n    }\r\n    event TaskCompleted(address _task);\r\n    //@dev entry point\r\n    //Currently the penalty would be pay the 1/3 price...\r\n    //task can be reported error at anytime, as long as the task does exist (checked by miner_only modifier)\r\n    function report_error(address _task, string _error_msg) miner_only(_task) public returns (bool){\r\n        uint256 _fee;\r\n        (_fee,) = pool.get_fees(_task);\r\n        assert(pool.set_error(_task, _error_msg) && complete_procedure(_task, msg.sender) && pool.set_fee(_task, 0) == 0);\r\n        uint256 _to_worker = _fee.div(3);\r\n        msg.sender.transfer(_to_worker);\r\n        pool.get_owner(_task).transfer(_fee.sub(_to_worker));\r\n        ErrorReported(_task);\r\n        return true;\r\n    }\r\n\r\n    event ErrorReported(address _task);\r\n    ///@dev entry point\r\n    //task can be forfeited at anytime, as long as the task does exist (checked by miner_only modifier)\r\n    function forfeit(address _task) miner_only(_task) public returns (bool){\r\n        assert(change_worker(_task, msg.sender, pool.get_owner(_task), 1));\r\n        TaskRejoinedQueue(_task);\r\n        return true;\r\n    }\r\n\r\n    //@dev intermediate, assertion is here to simplify the logic where it is called\r\n    function change_worker(address _task, address _worker, address _owner, uint8 _position) internal returns (bool){\r\n        assert(pool.set_forfeit(_task));\r\n        assert(!client.add_job(_worker, false, _task));\r\n        assert(dispatcher.rejoin(_task, _position));\r\n        assert(client.pay_penalty(_worker, _owner));\r\n        return true;\r\n    }\r\n    event TaskRejoinedQueue(address _task);\r\n\r\n    //Release submitter from its active task; list #add_task should return false, indicating success\r\n    //Release miner from its active job ; #add_job should return false, indicating success\r\n    function complete_procedure(address _task, address _worker) internal returns (bool){\r\n        uint256 _app_id = pool.get_app_id(_task);\r\n        return !client.add_task(pool.get_owner(_task), false, _task, _app_id) && !client.add_job(_worker, false, _task);\r\n    }\r\n    //------------------------------------------------------------------------------------------------------------------\r\n    //Dispatcher\r\n    ///@dev intermediate\r\n    function dispatch_task(address _task, address _worker) dispatcher_only public returns (bool){\r\n        return pool.set_dispatched(_task, _worker);\r\n    }\r\n}",
  "sourcePath": "C:\\Users\\tony\\WebstormProjects\\nebula-helix\\contract\\contracts\\helix1.1\\controller\\Distributor.sol",
  "compiler": {
    "name": "solc",
    "version": "0.4.18+commit.9cf6e910.Emscripten.clang"
  },
  "schemaVersion": "1.0.1",
  "updatedAt": "2018-02-21T17:07:32.973Z"
}