{
  "contractName": "Queue",
  "abi": [
    {
      "constant": false,
      "inputs": [
        {
          "name": "_address",
          "type": "address"
        },
        {
          "name": "_position",
          "type": "uint256"
        }
      ],
      "name": "insert",
      "outputs": [
        {
          "name": "",
          "type": "bool"
        }
      ],
      "payable": false,
      "stateMutability": "nonpayable",
      "type": "function"
    },
    {
      "constant": true,
      "inputs": [],
      "name": "admin_loaded",
      "outputs": [
        {
          "name": "",
          "type": "bool"
        }
      ],
      "payable": false,
      "stateMutability": "view",
      "type": "function"
    },
    {
      "constant": false,
      "inputs": [
        {
          "name": "_owner",
          "type": "address"
        }
      ],
      "name": "change_owner",
      "outputs": [],
      "payable": false,
      "stateMutability": "nonpayable",
      "type": "function"
    },
    {
      "constant": false,
      "inputs": [
        {
          "name": "_address",
          "type": "address"
        }
      ],
      "name": "remove",
      "outputs": [
        {
          "name": "",
          "type": "bool"
        }
      ],
      "payable": false,
      "stateMutability": "nonpayable",
      "type": "function"
    },
    {
      "constant": false,
      "inputs": [],
      "name": "hard_reset_queue",
      "outputs": [],
      "payable": false,
      "stateMutability": "nonpayable",
      "type": "function"
    },
    {
      "constant": true,
      "inputs": [],
      "name": "dispatcher_address",
      "outputs": [
        {
          "name": "",
          "type": "address"
        }
      ],
      "payable": false,
      "stateMutability": "view",
      "type": "function"
    },
    {
      "constant": true,
      "inputs": [],
      "name": "controller_ready",
      "outputs": [
        {
          "name": "",
          "type": "bool"
        }
      ],
      "payable": false,
      "stateMutability": "view",
      "type": "function"
    },
    {
      "constant": true,
      "inputs": [
        {
          "name": "_address",
          "type": "address"
        }
      ],
      "name": "queuer_status",
      "outputs": [
        {
          "name": "_prev",
          "type": "address"
        },
        {
          "name": "_next",
          "type": "address"
        },
        {
          "name": "_id",
          "type": "uint256"
        },
        {
          "name": "_curr",
          "type": "uint256"
        }
      ],
      "payable": false,
      "stateMutability": "view",
      "type": "function"
    },
    {
      "constant": true,
      "inputs": [],
      "name": "has_next",
      "outputs": [
        {
          "name": "",
          "type": "bool"
        }
      ],
      "payable": false,
      "stateMutability": "view",
      "type": "function"
    },
    {
      "constant": false,
      "inputs": [
        {
          "name": "_address",
          "type": "address"
        }
      ],
      "name": "push",
      "outputs": [
        {
          "name": "",
          "type": "bool"
        }
      ],
      "payable": false,
      "stateMutability": "nonpayable",
      "type": "function"
    },
    {
      "constant": true,
      "inputs": [],
      "name": "owner",
      "outputs": [
        {
          "name": "",
          "type": "address"
        }
      ],
      "payable": false,
      "stateMutability": "view",
      "type": "function"
    },
    {
      "constant": true,
      "inputs": [],
      "name": "size",
      "outputs": [
        {
          "name": "",
          "type": "uint256"
        }
      ],
      "payable": false,
      "stateMutability": "view",
      "type": "function"
    },
    {
      "constant": false,
      "inputs": [],
      "name": "pop",
      "outputs": [
        {
          "name": "",
          "type": "address"
        }
      ],
      "payable": false,
      "stateMutability": "nonpayable",
      "type": "function"
    },
    {
      "constant": false,
      "inputs": [
        {
          "name": "_dispatcher",
          "type": "address"
        }
      ],
      "name": "set_dispatcher",
      "outputs": [
        {
          "name": "",
          "type": "bool"
        }
      ],
      "payable": false,
      "stateMutability": "nonpayable",
      "type": "function"
    },
    {
      "constant": true,
      "inputs": [],
      "name": "queue_status",
      "outputs": [
        {
          "name": "_head",
          "type": "address"
        },
        {
          "name": "_tail",
          "type": "address"
        },
        {
          "name": "_last_id",
          "type": "uint256"
        }
      ],
      "payable": false,
      "stateMutability": "view",
      "type": "function"
    },
    {
      "constant": false,
      "inputs": [
        {
          "name": "_admin",
          "type": "address"
        }
      ],
      "name": "set_admin",
      "outputs": [
        {
          "name": "",
          "type": "bool"
        }
      ],
      "payable": false,
      "stateMutability": "nonpayable",
      "type": "function"
    },
    {
      "constant": true,
      "inputs": [],
      "name": "admin_address",
      "outputs": [
        {
          "name": "",
          "type": "address"
        }
      ],
      "payable": false,
      "stateMutability": "view",
      "type": "function"
    },
    {
      "inputs": [
        {
          "name": "_admin",
          "type": "address"
        }
      ],
      "payable": false,
      "stateMutability": "nonpayable",
      "type": "constructor"
    },
    {
      "anonymous": false,
      "inputs": [],
      "name": "QueueForceReset",
      "type": "event"
    }
  ],
  "bytecode": "0x606060405260a060405190810160405280600073ffffffffffffffffffffffffffffffffffffffff168152602001600073ffffffffffffffffffffffffffffffffffffffff16815260200160008152602001600081526020016000815250600360008201518160000160006101000a81548173ffffffffffffffffffffffffffffffffffffffff021916908373ffffffffffffffffffffffffffffffffffffffff16021790555060208201518160010160006101000a81548173ffffffffffffffffffffffffffffffffffffffff021916908373ffffffffffffffffffffffffffffffffffffffff1602179055506040820151816002015560608201518160030155608082015181600401555050341561011857600080fd5b604051602080620021e1833981016040528080519060200190919050503381818181806000806101000a81548173ffffffffffffffffffffffffffffffffffffffff021916908373ffffffffffffffffffffffffffffffffffffffff16021790555050600073ffffffffffffffffffffffffffffffffffffffff168173ffffffffffffffffffffffffffffffffffffffff161415156101cf576101cd816101d964010000000002611e2c176401000000009004565b505b5050505050610296565b60008060009054906101000a900473ffffffffffffffffffffffffffffffffffffffff1673ffffffffffffffffffffffffffffffffffffffff163373ffffffffffffffffffffffffffffffffffffffff1614151561023657600080fd5b81600160006101000a81548173ffffffffffffffffffffffffffffffffffffffff021916908373ffffffffffffffffffffffffffffffffffffffff16021790555060018060146101000a81548160ff021916908315150217905550919050565b611f3b80620002a66000396000f3006060604052600436106100f1576000357c0100000000000000000000000000000000000000000000000000000000900463ffffffff1680630fd0ae10146100f65780631df2c6ab14610150578063253c8bd41461017d57806329092d0e146101b657806335e38d0414610207578063559670f81461021c5780635841e6a7146102715780636d1b7fc41461029e57806375d8cb4f1461035857806389b09de7146103855780638da5cb5b146103d6578063949d225d1461042b578063a4ece52c14610454578063beb0be25146104a9578063e706d69e146104fa578063e9333fab14610589578063f2e62772146105da575b600080fd5b341561010157600080fd5b610136600480803573ffffffffffffffffffffffffffffffffffffffff1690602001909190803590602001909190505061062f565b604051808215151515815260200191505060405180910390f35b341561015b57600080fd5b6101636106af565b604051808215151515815260200191505060405180910390f35b341561018857600080fd5b6101b4600480803573ffffffffffffffffffffffffffffffffffffffff169060200190919050506106c2565b005b34156101c157600080fd5b6101ed600480803573ffffffffffffffffffffffffffffffffffffffff16906020019091905050610760565b604051808215151515815260200191505060405180910390f35b341561021257600080fd5b61021a610fee565b005b341561022757600080fd5b61022f611181565b604051808273ffffffffffffffffffffffffffffffffffffffff1673ffffffffffffffffffffffffffffffffffffffff16815260200191505060405180910390f35b341561027c57600080fd5b6102846111a7565b604051808215151515815260200191505060405180910390f35b34156102a957600080fd5b6102d5600480803573ffffffffffffffffffffffffffffffffffffffff169060200190919050506111ba565b604051808573ffffffffffffffffffffffffffffffffffffffff1673ffffffffffffffffffffffffffffffffffffffff1681526020018473ffffffffffffffffffffffffffffffffffffffff1673ffffffffffffffffffffffffffffffffffffffff16815260200183815260200182815260200194505050505060405180910390f35b341561036357600080fd5b61036b6112e7565b604051808215151515815260200191505060405180910390f35b341561039057600080fd5b6103bc600480803573ffffffffffffffffffffffffffffffffffffffff16906020019091905050611343565b604051808215151515815260200191505060405180910390f35b34156103e157600080fd5b6103e9611885565b604051808273ffffffffffffffffffffffffffffffffffffffff1673ffffffffffffffffffffffffffffffffffffffff16815260200191505060405180910390f35b341561043657600080fd5b61043e6118aa565b6040518082815260200191505060405180910390f35b341561045f57600080fd5b6104676118b7565b604051808273ffffffffffffffffffffffffffffffffffffffff1673ffffffffffffffffffffffffffffffffffffffff16815260200191505060405180910390f35b34156104b457600080fd5b6104e0600480803573ffffffffffffffffffffffffffffffffffffffff16906020019091905050611ccd565b604051808215151515815260200191505060405180910390f35b341561050557600080fd5b61050d611dcb565b604051808473ffffffffffffffffffffffffffffffffffffffff1673ffffffffffffffffffffffffffffffffffffffff1681526020018373ffffffffffffffffffffffffffffffffffffffff1673ffffffffffffffffffffffffffffffffffffffff168152602001828152602001935050505060405180910390f35b341561059457600080fd5b6105c0600480803573ffffffffffffffffffffffffffffffffffffffff16906020019091905050611e2c565b604051808215151515815260200191505060405180910390f35b34156105e557600080fd5b6105ed611ee9565b604051808273ffffffffffffffffffffffffffffffffffffffff1673ffffffffffffffffffffffffffffffffffffffff16815260200191505060405180910390f35b6000600260009054906101000a900473ffffffffffffffffffffffffffffffffffffffff1673ffffffffffffffffffffffffffffffffffffffff163373ffffffffffffffffffffffffffffffffffffffff1614151561068d57600080fd5b60036004015482111515156106a157600080fd5b600092506001905092915050565b600160149054906101000a900460ff1681565b6000809054906101000a900473ffffffffffffffffffffffffffffffffffffffff1673ffffffffffffffffffffffffffffffffffffffff163373ffffffffffffffffffffffffffffffffffffffff1614151561071d57600080fd5b806000806101000a81548173ffffffffffffffffffffffffffffffffffffffff021916908373ffffffffffffffffffffffffffffffffffffffff16021790555050565b6000600260009054906101000a900473ffffffffffffffffffffffffffffffffffffffff1673ffffffffffffffffffffffffffffffffffffffff163373ffffffffffffffffffffffffffffffffffffffff161415156107be57600080fd5b600073ffffffffffffffffffffffffffffffffffffffff16600360000160009054906101000a900473ffffffffffffffffffffffffffffffffffffffff1673ffffffffffffffffffffffffffffffffffffffff1614158061084b5750600073ffffffffffffffffffffffffffffffffffffffff168273ffffffffffffffffffffffffffffffffffffffff16145b151561085657600080fd5b8173ffffffffffffffffffffffffffffffffffffffff16600360000160009054906101000a900473ffffffffffffffffffffffffffffffffffffffff1673ffffffffffffffffffffffffffffffffffffffff16141561097e5760036005016000600360000160009054906101000a900473ffffffffffffffffffffffffffffffffffffffff1673ffffffffffffffffffffffffffffffffffffffff1673ffffffffffffffffffffffffffffffffffffffff16815260200190815260200160002060010160009054906101000a900473ffffffffffffffffffffffffffffffffffffffff16600360000160006101000a81548173ffffffffffffffffffffffffffffffffffffffff021916908373ffffffffffffffffffffffffffffffffffffffff1602179055505b8173ffffffffffffffffffffffffffffffffffffffff16600360010160009054906101000a900473ffffffffffffffffffffffffffffffffffffffff1673ffffffffffffffffffffffffffffffffffffffff161415610aa65760036005016000600360010160009054906101000a900473ffffffffffffffffffffffffffffffffffffffff1673ffffffffffffffffffffffffffffffffffffffff1673ffffffffffffffffffffffffffffffffffffffff16815260200190815260200160002060000160009054906101000a900473ffffffffffffffffffffffffffffffffffffffff16600360010160006101000a81548173ffffffffffffffffffffffffffffffffffffffff021916908373ffffffffffffffffffffffffffffffffffffffff1602179055505b600073ffffffffffffffffffffffffffffffffffffffff16600360050160008473ffffffffffffffffffffffffffffffffffffffff1673ffffffffffffffffffffffffffffffffffffffff16815260200190815260200160002060010160009054906101000a900473ffffffffffffffffffffffffffffffffffffffff1673ffffffffffffffffffffffffffffffffffffffff16141515610c9057600360050160008373ffffffffffffffffffffffffffffffffffffffff1673ffffffffffffffffffffffffffffffffffffffff16815260200190815260200160002060000160009054906101000a900473ffffffffffffffffffffffffffffffffffffffff1660036005016000600360050160008673ffffffffffffffffffffffffffffffffffffffff1673ffffffffffffffffffffffffffffffffffffffff16815260200190815260200160002060010160009054906101000a900473ffffffffffffffffffffffffffffffffffffffff1673ffffffffffffffffffffffffffffffffffffffff1673ffffffffffffffffffffffffffffffffffffffff16815260200190815260200160002060000160006101000a81548173ffffffffffffffffffffffffffffffffffffffff021916908373ffffffffffffffffffffffffffffffffffffffff1602179055505b600073ffffffffffffffffffffffffffffffffffffffff16600360050160008473ffffffffffffffffffffffffffffffffffffffff1673ffffffffffffffffffffffffffffffffffffffff16815260200190815260200160002060000160009054906101000a900473ffffffffffffffffffffffffffffffffffffffff1673ffffffffffffffffffffffffffffffffffffffff16141515610e7a57600360050160008373ffffffffffffffffffffffffffffffffffffffff1673ffffffffffffffffffffffffffffffffffffffff16815260200190815260200160002060010160009054906101000a900473ffffffffffffffffffffffffffffffffffffffff1660036005016000600360050160008673ffffffffffffffffffffffffffffffffffffffff1673ffffffffffffffffffffffffffffffffffffffff16815260200190815260200160002060000160009054906101000a900473ffffffffffffffffffffffffffffffffffffffff1673ffffffffffffffffffffffffffffffffffffffff1673ffffffffffffffffffffffffffffffffffffffff16815260200190815260200160002060010160006101000a81548173ffffffffffffffffffffffffffffffffffffffff021916908373ffffffffffffffffffffffffffffffffffffffff1602179055505b600360040160008154809291906001900391905055506000600360050160008473ffffffffffffffffffffffffffffffffffffffff1673ffffffffffffffffffffffffffffffffffffffff16815260200190815260200160002060000160006101000a81548173ffffffffffffffffffffffffffffffffffffffff021916908373ffffffffffffffffffffffffffffffffffffffff1602179055506000600360050160008473ffffffffffffffffffffffffffffffffffffffff1673ffffffffffffffffffffffffffffffffffffffff16815260200190815260200160002060010160006101000a81548173ffffffffffffffffffffffffffffffffffffffff021916908373ffffffffffffffffffffffffffffffffffffffff1602179055506000600360050160008473ffffffffffffffffffffffffffffffffffffffff1673ffffffffffffffffffffffffffffffffffffffff1681526020019081526020016000206002018190555060019050919050565b6000809054906101000a900473ffffffffffffffffffffffffffffffffffffffff1673ffffffffffffffffffffffffffffffffffffffff163373ffffffffffffffffffffffffffffffffffffffff1614151561104957600080fd5b60a060405190810160405280600073ffffffffffffffffffffffffffffffffffffffff168152602001600073ffffffffffffffffffffffffffffffffffffffff16815260200160008152602001600081526020016000815250600360008201518160000160006101000a81548173ffffffffffffffffffffffffffffffffffffffff021916908373ffffffffffffffffffffffffffffffffffffffff16021790555060208201518160010160006101000a81548173ffffffffffffffffffffffffffffffffffffffff021916908373ffffffffffffffffffffffffffffffffffffffff1602179055506040820151816002015560608201518160030155608082015181600401559050507f1ed664160473b718100a46e5dbacbefe36b4b7aea1278d1f0645013dc5300b0760405160405180910390a1565b600260009054906101000a900473ffffffffffffffffffffffffffffffffffffffff1681565b600160159054906101000a900460ff1681565b600080600080600360050160008673ffffffffffffffffffffffffffffffffffffffff1673ffffffffffffffffffffffffffffffffffffffff16815260200190815260200160002060000160009054906101000a900473ffffffffffffffffffffffffffffffffffffffff16600360050160008773ffffffffffffffffffffffffffffffffffffffff1673ffffffffffffffffffffffffffffffffffffffff16815260200190815260200160002060010160009054906101000a900473ffffffffffffffffffffffffffffffffffffffff16600360050160008873ffffffffffffffffffffffffffffffffffffffff1673ffffffffffffffffffffffffffffffffffffffff1681526020019081526020016000206002015460036002015493509350935093509193509193565b60008073ffffffffffffffffffffffffffffffffffffffff16600360000160009054906101000a900473ffffffffffffffffffffffffffffffffffffffff1673ffffffffffffffffffffffffffffffffffffffff161415905090565b6000600260009054906101000a900473ffffffffffffffffffffffffffffffffffffffff1673ffffffffffffffffffffffffffffffffffffffff163373ffffffffffffffffffffffffffffffffffffffff161415156113a157600080fd5b600073ffffffffffffffffffffffffffffffffffffffff168273ffffffffffffffffffffffffffffffffffffffff161415801561142f5750600360000160009054906101000a900473ffffffffffffffffffffffffffffffffffffffff1673ffffffffffffffffffffffffffffffffffffffff168273ffffffffffffffffffffffffffffffffffffffff1614155b80156114cc5750600073ffffffffffffffffffffffffffffffffffffffff16600360050160008473ffffffffffffffffffffffffffffffffffffffff1673ffffffffffffffffffffffffffffffffffffffff16815260200190815260200160002060000160009054906101000a900473ffffffffffffffffffffffffffffffffffffffff1673ffffffffffffffffffffffffffffffffffffffff16145b80156115695750600073ffffffffffffffffffffffffffffffffffffffff16600360050160008473ffffffffffffffffffffffffffffffffffffffff1673ffffffffffffffffffffffffffffffffffffffff16815260200190815260200160002060010160009054906101000a900473ffffffffffffffffffffffffffffffffffffffff1673ffffffffffffffffffffffffffffffffffffffff16145b151561157457600080fd5b600073ffffffffffffffffffffffffffffffffffffffff16600360010160009054906101000a900473ffffffffffffffffffffffffffffffffffffffff1673ffffffffffffffffffffffffffffffffffffffff16141515611722578160036005016000600360010160009054906101000a900473ffffffffffffffffffffffffffffffffffffffff1673ffffffffffffffffffffffffffffffffffffffff1673ffffffffffffffffffffffffffffffffffffffff16815260200190815260200160002060010160006101000a81548173ffffffffffffffffffffffffffffffffffffffff021916908373ffffffffffffffffffffffffffffffffffffffff160217905550600360010160009054906101000a900473ffffffffffffffffffffffffffffffffffffffff16600360050160008473ffffffffffffffffffffffffffffffffffffffff1673ffffffffffffffffffffffffffffffffffffffff16815260200190815260200160002060000160006101000a81548173ffffffffffffffffffffffffffffffffffffffff021916908373ffffffffffffffffffffffffffffffffffffffff1602179055505b81600360010160006101000a81548173ffffffffffffffffffffffffffffffffffffffff021916908373ffffffffffffffffffffffffffffffffffffffff160217905550600073ffffffffffffffffffffffffffffffffffffffff16600360000160009054906101000a900473ffffffffffffffffffffffffffffffffffffffff1673ffffffffffffffffffffffffffffffffffffffff1614156118055781600360000160006101000a81548173ffffffffffffffffffffffffffffffffffffffff021916908373ffffffffffffffffffffffffffffffffffffffff1602179055505b60036004016000815480929190600101919050555060038001600081548092919060010191905055506003800154600360050160008473ffffffffffffffffffffffffffffffffffffffff1673ffffffffffffffffffffffffffffffffffffffff1681526020019081526020016000206002018190555060019050919050565b6000809054906101000a900473ffffffffffffffffffffffffffffffffffffffff1681565b6000600360040154905090565b600080600260009054906101000a900473ffffffffffffffffffffffffffffffffffffffff1673ffffffffffffffffffffffffffffffffffffffff163373ffffffffffffffffffffffffffffffffffffffff1614151561191657600080fd5b600073ffffffffffffffffffffffffffffffffffffffff16600360000160009054906101000a900473ffffffffffffffffffffffffffffffffffffffff1673ffffffffffffffffffffffffffffffffffffffff161415151561197757600080fd5b600360000160009054906101000a900473ffffffffffffffffffffffffffffffffffffffff169050600360050160008273ffffffffffffffffffffffffffffffffffffffff1673ffffffffffffffffffffffffffffffffffffffff16815260200190815260200160002060010160009054906101000a900473ffffffffffffffffffffffffffffffffffffffff16600360000160006101000a81548173ffffffffffffffffffffffffffffffffffffffff021916908373ffffffffffffffffffffffffffffffffffffffff160217905550600060036005016000600360000160009054906101000a900473ffffffffffffffffffffffffffffffffffffffff1673ffffffffffffffffffffffffffffffffffffffff1673ffffffffffffffffffffffffffffffffffffffff16815260200190815260200160002060000160006101000a81548173ffffffffffffffffffffffffffffffffffffffff021916908373ffffffffffffffffffffffffffffffffffffffff160217905550600360040160008154809291906001900391905055508073ffffffffffffffffffffffffffffffffffffffff16600360010160009054906101000a900473ffffffffffffffffffffffffffffffffffffffff1673ffffffffffffffffffffffffffffffffffffffff161415611ba7576000600360010160006101000a81548173ffffffffffffffffffffffffffffffffffffffff021916908373ffffffffffffffffffffffffffffffffffffffff1602179055505b6000600360050160008373ffffffffffffffffffffffffffffffffffffffff1673ffffffffffffffffffffffffffffffffffffffff16815260200190815260200160002060010160006101000a81548173ffffffffffffffffffffffffffffffffffffffff021916908373ffffffffffffffffffffffffffffffffffffffff160217905550600360050160008273ffffffffffffffffffffffffffffffffffffffff1673ffffffffffffffffffffffffffffffffffffffff168152602001908152602001600020600201546003600201819055506000600360050160008373ffffffffffffffffffffffffffffffffffffffff1673ffffffffffffffffffffffffffffffffffffffff168152602001908152602001600020600201819055508091505090565b6000600160009054906101000a900473ffffffffffffffffffffffffffffffffffffffff1673ffffffffffffffffffffffffffffffffffffffff163373ffffffffffffffffffffffffffffffffffffffff16141515611d2b57600080fd5b600073ffffffffffffffffffffffffffffffffffffffff168273ffffffffffffffffffffffffffffffffffffffff1614151515611d6757600080fd5b81600260006101000a81548173ffffffffffffffffffffffffffffffffffffffff021916908373ffffffffffffffffffffffffffffffffffffffff16021790555060018060156101000a81548160ff02191690831515021790555060019050919050565b6000806000600360000160009054906101000a900473ffffffffffffffffffffffffffffffffffffffff16600360010160009054906101000a900473ffffffffffffffffffffffffffffffffffffffff166003800154925092509250909192565b60008060009054906101000a900473ffffffffffffffffffffffffffffffffffffffff1673ffffffffffffffffffffffffffffffffffffffff163373ffffffffffffffffffffffffffffffffffffffff16141515611e8957600080fd5b81600160006101000a81548173ffffffffffffffffffffffffffffffffffffffff021916908373ffffffffffffffffffffffffffffffffffffffff16021790555060018060146101000a81548160ff021916908315150217905550919050565b600160009054906101000a900473ffffffffffffffffffffffffffffffffffffffff16815600a165627a7a72305820d1b4d4171c164a32e9bc5dea8b356106bd70fb7d0f4eddb0f12b4e94550db1cf0029",
  "source": "pragma solidity ^0.4.18;\r\n\r\nimport \"../../ownership/Dispatchable.sol\";\r\nimport \"../../interface/model/Queue_Interface.sol\";\r\n\r\ncontract Queue is QueueInterface, Dispatchable {\r\n    struct Queuer {\r\n        address prev;\r\n        address next;\r\n        uint256 id;\r\n    }\r\n\r\n    struct QueueStruct {\r\n        address head;\r\n        address tail;\r\n        uint256 curr_id;\r\n        uint256 last_id;\r\n        uint256 size;\r\n        mapping(address => Queuer) line;\r\n    }\r\n\r\n    QueueStruct queue = QueueStruct(0, 0, 0, 0, 0);\r\n\r\n    ///@dev dispatcher not set at constructor\r\n    function Queue(address _admin) public\r\n    Dispatchable(msg.sender, _admin) //set the creator of the contract as owner\r\n    {}\r\n\r\n\r\n\r\n    //helper viewers\r\n    function has_next() view public returns (bool){\r\n        return queue.head != address(0);\r\n    }\r\n\r\n    function size() view public returns (uint){\r\n        return queue.size;\r\n    }\r\n\r\n    function queuer_status(address _address) view public returns (address _prev, address _next, uint _id, uint _curr){\r\n        return (queue.line[_address].prev, queue.line[_address].next, queue.line[_address].id, queue.curr_id);\r\n    }\r\n\r\n    ///@dev function implementation\r\n    function push(address _address) dispatcher_only public returns (bool){\r\n        require(_address != address(0) && _address != queue.head\r\n        && queue.line[_address].prev == address(0) && queue.line[_address].next == address(0));\r\n        if (queue.tail != address(0)) {\r\n            queue.line[queue.tail].next = _address;\r\n            queue.line[_address].prev = queue.tail;\r\n        }\r\n        queue.tail = _address;\r\n        if (queue.head == address(0)) queue.head = _address;\r\n        queue.size++;\r\n        queue.last_id++;\r\n        queue.line[_address].id = queue.last_id;\r\n        return true;\r\n    }\r\n\r\n    function pop() dispatcher_only public returns (address){\r\n        require(queue.head != address(0));\r\n        address temp = queue.head;\r\n        queue.head = queue.line[temp].next;\r\n        // address 0 means no more in line\r\n        queue.line[queue.head].prev = 0;\r\n        //house keeping\r\n        queue.size--;\r\n        if (queue.tail == temp) queue.tail = 0;\r\n        queue.line[temp].next = 0;\r\n        //house keeping\r\n        queue.curr_id = queue.line[temp].id;\r\n        // not ++ , because of leaving queue\r\n        queue.line[temp].id = 0;\r\n        // house keeping, all variables in queuer that leaves now are 0s.\r\n        return temp;\r\n    }\r\n\r\n    function remove(address _address) dispatcher_only public returns (bool){\r\n        require(queue.head != address(0) || _address == address(0));\r\n\r\n        if (queue.head == _address) queue.head = queue.line[queue.head].next;\r\n        if (queue.tail == _address) queue.tail = queue.line[queue.tail].prev;\r\n        if (queue.line[_address].next != address(0)) {\r\n            queue.line[queue.line[_address].next].prev = queue.line[_address].prev;\r\n        }\r\n        if (queue.line[_address].prev != address(0)) {\r\n            queue.line[queue.line[_address].prev].next = queue.line[_address].next;\r\n        }\r\n        queue.size--;\r\n        //house keeping\r\n        queue.line[_address].prev = 0;\r\n        queue.line[_address].next = 0;\r\n        queue.line[_address].id = 0;\r\n\r\n        return true;\r\n    }\r\n\r\n    function insert(address _address, uint _position) dispatcher_only public returns (bool){\r\n        require(_position <= queue.size);\r\n        _address = 0;\r\n        return true;\r\n    }\r\n\r\n    ///@dev to be discussed, emergency usage only owner methods\r\n    function hard_reset_queue() ownerOnly public {\r\n        queue = QueueStruct(0, 0, 0, 0, 0);\r\n        QueueForceReset();\r\n        //TODO to be revisited\r\n    }\r\n\r\n    event QueueForceReset();\r\n\r\n    //    function get_position() view public returns(uint){\r\n    //        return queue.line[msg.sender].position_id ;\r\n    //    }\r\n\r\n    //@debug\r\n    function queue_status() public view returns (address _head, address _tail, uint _last_id){\r\n        return (queue.head, queue.tail, queue.last_id);\r\n    }\r\n}\r\n\r\n",
  "sourcePath": "C:\\Users\\tony\\WebstormProjects\\nebula-helix\\contract\\contracts\\helix1.1\\model\\queue\\Queue.sol",
  "compiler": {
    "name": "solc",
    "version": "0.4.18+commit.9cf6e910.Emscripten.clang"
  },
  "schemaVersion": "1.0.1",
  "updatedAt": "2018-02-15T20:50:31.579Z"
}