{
  "contractName": "TaskPool",
  "abi": [
    {
      "constant": false,
      "inputs": [
        {
          "name": "_task",
          "type": "address"
        },
        {
          "name": "_worker",
          "type": "address"
        }
      ],
      "name": "set_dispatched",
      "outputs": [
        {
          "name": "",
          "type": "bool"
        }
      ],
      "payable": false,
      "stateMutability": "nonpayable",
      "type": "function"
    },
    {
      "constant": true,
      "inputs": [
        {
          "name": "_task",
          "type": "address"
        }
      ],
      "name": "reassignable",
      "outputs": [
        {
          "name": "",
          "type": "bool"
        }
      ],
      "payable": false,
      "stateMutability": "view",
      "type": "function"
    },
    {
      "constant": false,
      "inputs": [
        {
          "name": "_task",
          "type": "address"
        },
        {
          "name": "_complete_fee",
          "type": "uint256"
        }
      ],
      "name": "set_complete",
      "outputs": [
        {
          "name": "",
          "type": "bool"
        }
      ],
      "payable": false,
      "stateMutability": "nonpayable",
      "type": "function"
    },
    {
      "constant": true,
      "inputs": [],
      "name": "admin_loaded",
      "outputs": [
        {
          "name": "",
          "type": "bool"
        }
      ],
      "payable": false,
      "stateMutability": "view",
      "type": "function"
    },
    {
      "constant": false,
      "inputs": [
        {
          "name": "_owner",
          "type": "address"
        }
      ],
      "name": "change_owner",
      "outputs": [],
      "payable": false,
      "stateMutability": "nonpayable",
      "type": "function"
    },
    {
      "constant": true,
      "inputs": [
        {
          "name": "_task",
          "type": "address"
        }
      ],
      "name": "get_worker",
      "outputs": [
        {
          "name": "",
          "type": "address"
        }
      ],
      "payable": false,
      "stateMutability": "view",
      "type": "function"
    },
    {
      "constant": true,
      "inputs": [
        {
          "name": "_task",
          "type": "address"
        }
      ],
      "name": "get_app_id",
      "outputs": [
        {
          "name": "",
          "type": "uint256"
        }
      ],
      "payable": false,
      "stateMutability": "view",
      "type": "function"
    },
    {
      "constant": false,
      "inputs": [],
      "name": "invalidate_contract",
      "outputs": [
        {
          "name": "",
          "type": "bool"
        }
      ],
      "payable": false,
      "stateMutability": "nonpayable",
      "type": "function"
    },
    {
      "constant": false,
      "inputs": [
        {
          "name": "_task",
          "type": "address"
        },
        {
          "name": "_fee",
          "type": "uint256"
        }
      ],
      "name": "set_fee",
      "outputs": [
        {
          "name": "",
          "type": "uint256"
        }
      ],
      "payable": false,
      "stateMutability": "nonpayable",
      "type": "function"
    },
    {
      "constant": false,
      "inputs": [
        {
          "name": "_task",
          "type": "address"
        }
      ],
      "name": "set_forfeit",
      "outputs": [
        {
          "name": "",
          "type": "bool"
        }
      ],
      "payable": false,
      "stateMutability": "nonpayable",
      "type": "function"
    },
    {
      "constant": true,
      "inputs": [
        {
          "name": "_task",
          "type": "address"
        }
      ],
      "name": "get_status",
      "outputs": [
        {
          "name": "_create_time",
          "type": "uint256"
        },
        {
          "name": "_dispatch_time",
          "type": "uint256"
        },
        {
          "name": "_start_time",
          "type": "uint256"
        },
        {
          "name": "_complete_time",
          "type": "uint256"
        },
        {
          "name": "_cancel_time",
          "type": "uint256"
        },
        {
          "name": "_error_time",
          "type": "uint256"
        }
      ],
      "payable": false,
      "stateMutability": "view",
      "type": "function"
    },
    {
      "constant": false,
      "inputs": [
        {
          "name": "_task",
          "type": "address"
        },
        {
          "name": "_fee",
          "type": "uint256"
        }
      ],
      "name": "set_completion_fee",
      "outputs": [
        {
          "name": "",
          "type": "uint256"
        }
      ],
      "payable": false,
      "stateMutability": "nonpayable",
      "type": "function"
    },
    {
      "constant": false,
      "inputs": [
        {
          "name": "_distributor",
          "type": "address"
        }
      ],
      "name": "set_distributor",
      "outputs": [
        {
          "name": "",
          "type": "bool"
        }
      ],
      "payable": false,
      "stateMutability": "nonpayable",
      "type": "function"
    },
    {
      "constant": true,
      "inputs": [],
      "name": "controller_ready",
      "outputs": [
        {
          "name": "",
          "type": "bool"
        }
      ],
      "payable": false,
      "stateMutability": "view",
      "type": "function"
    },
    {
      "constant": true,
      "inputs": [
        {
          "name": "_task",
          "type": "address"
        }
      ],
      "name": "get_task",
      "outputs": [
        {
          "name": "_app_id",
          "type": "uint256"
        },
        {
          "name": "_name",
          "type": "string"
        },
        {
          "name": "_data",
          "type": "string"
        },
        {
          "name": "_script",
          "type": "string"
        },
        {
          "name": "_output",
          "type": "string"
        },
        {
          "name": "_params",
          "type": "string"
        }
      ],
      "payable": false,
      "stateMutability": "view",
      "type": "function"
    },
    {
      "constant": false,
      "inputs": [
        {
          "name": "_task",
          "type": "address"
        }
      ],
      "name": "set_start",
      "outputs": [
        {
          "name": "",
          "type": "bool"
        }
      ],
      "payable": false,
      "stateMutability": "nonpayable",
      "type": "function"
    },
    {
      "constant": true,
      "inputs": [
        {
          "name": "_task",
          "type": "address"
        }
      ],
      "name": "get_fees",
      "outputs": [
        {
          "name": "_fee",
          "type": "uint256"
        },
        {
          "name": "_completion_fee",
          "type": "uint256"
        }
      ],
      "payable": false,
      "stateMutability": "view",
      "type": "function"
    },
    {
      "constant": true,
      "inputs": [
        {
          "name": "_task",
          "type": "address"
        }
      ],
      "name": "get_owner",
      "outputs": [
        {
          "name": "",
          "type": "address"
        }
      ],
      "payable": false,
      "stateMutability": "view",
      "type": "function"
    },
    {
      "constant": false,
      "inputs": [
        {
          "name": "_app_id",
          "type": "uint256"
        },
        {
          "name": "_name",
          "type": "string"
        },
        {
          "name": "_data",
          "type": "string"
        },
        {
          "name": "_script",
          "type": "string"
        },
        {
          "name": "_output",
          "type": "string"
        },
        {
          "name": "_params",
          "type": "string"
        },
        {
          "name": "_fee",
          "type": "uint256"
        },
        {
          "name": "_owner",
          "type": "address"
        }
      ],
      "name": "create",
      "outputs": [
        {
          "name": "_task_address",
          "type": "address"
        }
      ],
      "payable": false,
      "stateMutability": "nonpayable",
      "type": "function"
    },
    {
      "constant": true,
      "inputs": [],
      "name": "owner",
      "outputs": [
        {
          "name": "",
          "type": "address"
        }
      ],
      "payable": false,
      "stateMutability": "view",
      "type": "function"
    },
    {
      "constant": true,
      "inputs": [],
      "name": "owner_get_balance",
      "outputs": [
        {
          "name": "",
          "type": "uint256"
        }
      ],
      "payable": false,
      "stateMutability": "view",
      "type": "function"
    },
    {
      "constant": true,
      "inputs": [
        {
          "name": "_task",
          "type": "address"
        }
      ],
      "name": "get_error_msg",
      "outputs": [
        {
          "name": "",
          "type": "string"
        }
      ],
      "payable": false,
      "stateMutability": "view",
      "type": "function"
    },
    {
      "constant": true,
      "inputs": [],
      "name": "distributor_address",
      "outputs": [
        {
          "name": "",
          "type": "address"
        }
      ],
      "payable": false,
      "stateMutability": "view",
      "type": "function"
    },
    {
      "constant": false,
      "inputs": [
        {
          "name": "_amount",
          "type": "uint256"
        }
      ],
      "name": "owner_withdraw",
      "outputs": [
        {
          "name": "",
          "type": "uint256"
        }
      ],
      "payable": false,
      "stateMutability": "nonpayable",
      "type": "function"
    },
    {
      "constant": true,
      "inputs": [],
      "name": "valid",
      "outputs": [
        {
          "name": "",
          "type": "bool"
        }
      ],
      "payable": false,
      "stateMutability": "view",
      "type": "function"
    },
    {
      "constant": false,
      "inputs": [
        {
          "name": "_admin",
          "type": "address"
        }
      ],
      "name": "set_admin",
      "outputs": [
        {
          "name": "",
          "type": "bool"
        }
      ],
      "payable": false,
      "stateMutability": "nonpayable",
      "type": "function"
    },
    {
      "constant": false,
      "inputs": [
        {
          "name": "_task",
          "type": "address"
        },
        {
          "name": "_error_msg",
          "type": "string"
        }
      ],
      "name": "set_error",
      "outputs": [
        {
          "name": "",
          "type": "bool"
        }
      ],
      "payable": false,
      "stateMutability": "nonpayable",
      "type": "function"
    },
    {
      "constant": true,
      "inputs": [],
      "name": "admin_address",
      "outputs": [
        {
          "name": "",
          "type": "address"
        }
      ],
      "payable": false,
      "stateMutability": "view",
      "type": "function"
    },
    {
      "constant": false,
      "inputs": [
        {
          "name": "_task",
          "type": "address"
        }
      ],
      "name": "set_cancel",
      "outputs": [
        {
          "name": "",
          "type": "bool"
        }
      ],
      "payable": false,
      "stateMutability": "nonpayable",
      "type": "function"
    },
    {
      "inputs": [
        {
          "name": "_admin",
          "type": "address"
        },
        {
          "name": "_nonce",
          "type": "uint160"
        }
      ],
      "payable": false,
      "stateMutability": "nonpayable",
      "type": "constructor"
    },
    {
      "anonymous": false,
      "inputs": [
        {
          "indexed": false,
          "name": "_client",
          "type": "address"
        },
        {
          "indexed": false,
          "name": "_task",
          "type": "address"
        }
      ],
      "name": "TaskCreated",
      "type": "event"
    }
  ],
  "bytecode": "0x6060604052601960055534156200001557600080fd5b60405160408062003070833981016040528080519060200190919080519060200190919050503382818181806000806101000a81548173ffffffffffffffffffffffffffffffffffffffff021916908373ffffffffffffffffffffffffffffffffffffffff1602179055505060018060166101000a81548160ff021916908315150217905550600073ffffffffffffffffffffffffffffffffffffffff168173ffffffffffffffffffffffffffffffffffffffff16141515620000f357620000f18162000140640100000000026200292f176401000000009004565b505b5050505080600360006101000a81548173ffffffffffffffffffffffffffffffffffffffff021916908373ffffffffffffffffffffffffffffffffffffffff1602179055505050620001fe565b60008060009054906101000a900473ffffffffffffffffffffffffffffffffffffffff1673ffffffffffffffffffffffffffffffffffffffff163373ffffffffffffffffffffffffffffffffffffffff161415156200019e57600080fd5b81600160006101000a81548173ffffffffffffffffffffffffffffffffffffffff021916908373ffffffffffffffffffffffffffffffffffffffff16021790555060018060146101000a81548160ff021916908315150217905550919050565b612e62806200020e6000396000f300606060405260043610610175576000357c0100000000000000000000000000000000000000000000000000000000900463ffffffff16806306a3a2191461017a57806318f80ac8146101ea5780631abbbb9f1461023b5780631df2c6ab14610295578063253c8bd4146102c25780632f7ce288146102fb578063318beae01461037457806332506300146103c15780633734030e146103ee5780633a1a9e8a146104445780633e2c08ef146104955780633f21572f146105055780634202c6f91461055b5780635841e6a7146105ac57806369ae717a146105d95780636cebb1a9146108425780637cdb72b0146108935780637e5c8826146108e75780638205a45c146109605780638da5cb5b14610a4f57806399572a2014610aa45780639f1bc55a14610acd578063b2ad35c014610b7f578063b33926cb14610bd4578063c199121914610c0b578063e9333fab14610c38578063efb37f7b14610c89578063f2e6277214610cee578063f831428f14610d43575b600080fd5b341561018557600080fd5b6101d0600480803573ffffffffffffffffffffffffffffffffffffffff1690602001909190803573ffffffffffffffffffffffffffffffffffffffff16906020019091905050610d94565b604051808215151515815260200191505060405180910390f35b34156101f557600080fd5b610221600480803573ffffffffffffffffffffffffffffffffffffffff16906020019091905050610f1c565b604051808215151515815260200191505060405180910390f35b341561024657600080fd5b61027b600480803573ffffffffffffffffffffffffffffffffffffffff1690602001909190803590602001909190505061100b565b604051808215151515815260200191505060405180910390f35b34156102a057600080fd5b6102a8611159565b604051808215151515815260200191505060405180910390f35b34156102cd57600080fd5b6102f9600480803573ffffffffffffffffffffffffffffffffffffffff1690602001909190505061116c565b005b341561030657600080fd5b610332600480803573ffffffffffffffffffffffffffffffffffffffff1690602001909190505061120a565b604051808273ffffffffffffffffffffffffffffffffffffffff1673ffffffffffffffffffffffffffffffffffffffff16815260200191505060405180910390f35b341561037f57600080fd5b6103ab600480803573ffffffffffffffffffffffffffffffffffffffff16906020019091905050611276565b6040518082815260200191505060405180910390f35b34156103cc57600080fd5b6103d46112c2565b604051808215151515815260200191505060405180910390f35b34156103f957600080fd5b61042e600480803573ffffffffffffffffffffffffffffffffffffffff1690602001909190803590602001909190505061133d565b6040518082815260200191505060405180910390f35b341561044f57600080fd5b61047b600480803573ffffffffffffffffffffffffffffffffffffffff16906020019091905050611484565b604051808215151515815260200191505060405180910390f35b34156104a057600080fd5b6104cc600480803573ffffffffffffffffffffffffffffffffffffffff16906020019091905050611793565b60405180878152602001868152602001858152602001848152602001838152602001828152602001965050505050505060405180910390f35b341561051057600080fd5b610545600480803573ffffffffffffffffffffffffffffffffffffffff16906020019091908035906020019091905050611943565b6040518082815260200191505060405180910390f35b341561056657600080fd5b610592600480803573ffffffffffffffffffffffffffffffffffffffff16906020019091905050611a8a565b604051808215151515815260200191505060405180910390f35b34156105b757600080fd5b6105bf611bdf565b604051808215151515815260200191505060405180910390f35b34156105e457600080fd5b610610600480803573ffffffffffffffffffffffffffffffffffffffff16906020019091905050611bf2565b60405180878152602001806020018060200180602001806020018060200186810386528b818151815260200191508051906020019080838360005b8381101561066657808201518184015260208101905061064b565b50505050905090810190601f1680156106935780820380516001836020036101000a031916815260200191505b5086810385528a818151815260200191508051906020019080838360005b838110156106cc5780820151818401526020810190506106b1565b50505050905090810190601f1680156106f95780820380516001836020036101000a031916815260200191505b50868103845289818151815260200191508051906020019080838360005b83811015610732578082015181840152602081019050610717565b50505050905090810190601f16801561075f5780820380516001836020036101000a031916815260200191505b50868103835288818151815260200191508051906020019080838360005b8381101561079857808201518184015260208101905061077d565b50505050905090810190601f1680156107c55780820380516001836020036101000a031916815260200191505b50868103825287818151815260200191508051906020019080838360005b838110156107fe5780820151818401526020810190506107e3565b50505050905090810190601f16801561082b5780820380516001836020036101000a031916815260200191505b509b50505050505050505050505060405180910390f35b341561084d57600080fd5b610879600480803573ffffffffffffffffffffffffffffffffffffffff169060200190919050506120ca565b604051808215151515815260200191505060405180910390f35b341561089e57600080fd5b6108ca600480803573ffffffffffffffffffffffffffffffffffffffff169060200190919050506121d0565b604051808381526020018281526020019250505060405180910390f35b34156108f257600080fd5b61091e600480803573ffffffffffffffffffffffffffffffffffffffff16906020019091905050612262565b604051808273ffffffffffffffffffffffffffffffffffffffff1673ffffffffffffffffffffffffffffffffffffffff16815260200191505060405180910390f35b341561096b57600080fd5b610a0d60048080359060200190919080359060200190820180359060200191909192908035906020019082018035906020019190919290803590602001908201803590602001919091929080359060200190820180359060200191909192908035906020019082018035906020019190919290803590602001909190803573ffffffffffffffffffffffffffffffffffffffff169060200190919050506122ce565b604051808273ffffffffffffffffffffffffffffffffffffffff1673ffffffffffffffffffffffffffffffffffffffff16815260200191505060405180910390f35b3415610a5a57600080fd5b610a6261268e565b604051808273ffffffffffffffffffffffffffffffffffffffff1673ffffffffffffffffffffffffffffffffffffffff16815260200191505060405180910390f35b3415610aaf57600080fd5b610ab76126b3565b6040518082815260200191505060405180910390f35b3415610ad857600080fd5b610b04600480803573ffffffffffffffffffffffffffffffffffffffff1690602001909190505061272d565b6040518080602001828103825283818151815260200191508051906020019080838360005b83811015610b44578082015181840152602081019050610b29565b50505050905090810190601f168015610b715780820380516001836020036101000a031916815260200191505b509250505060405180910390f35b3415610b8a57600080fd5b610b92612817565b604051808273ffffffffffffffffffffffffffffffffffffffff1673ffffffffffffffffffffffffffffffffffffffff16815260200191505060405180910390f35b3415610bdf57600080fd5b610bf5600480803590602001909190505061283d565b6040518082815260200191505060405180910390f35b3415610c1657600080fd5b610c1e61291c565b604051808215151515815260200191505060405180910390f35b3415610c4357600080fd5b610c6f600480803573ffffffffffffffffffffffffffffffffffffffff1690602001909190505061292f565b604051808215151515815260200191505060405180910390f35b3415610c9457600080fd5b610cd4600480803573ffffffffffffffffffffffffffffffffffffffff1690602001909190803590602001908201803590602001919091929050506129ec565b604051808215151515815260200191505060405180910390f35b3415610cf957600080fd5b610d01612b46565b604051808273ffffffffffffffffffffffffffffffffffffffff1673ffffffffffffffffffffffffffffffffffffffff16815260200191505060405180910390f35b3415610d4e57600080fd5b610d7a600480803573ffffffffffffffffffffffffffffffffffffffff16906020019091905050612b6c565b604051808215151515815260200191505060405180910390f35b6000600260009054906101000a900473ffffffffffffffffffffffffffffffffffffffff1673ffffffffffffffffffffffffffffffffffffffff163373ffffffffffffffffffffffffffffffffffffffff161480610e3e57506000809054906101000a900473ffffffffffffffffffffffffffffffffffffffff1673ffffffffffffffffffffffffffffffffffffffff163373ffffffffffffffffffffffffffffffffffffffff16145b1515610e4957600080fd5b81600460008573ffffffffffffffffffffffffffffffffffffffff1673ffffffffffffffffffffffffffffffffffffffff16815260200190815260200160002060090160006101000a81548173ffffffffffffffffffffffffffffffffffffffff021916908373ffffffffffffffffffffffffffffffffffffffff160217905550600043600460008673ffffffffffffffffffffffffffffffffffffffff1673ffffffffffffffffffffffffffffffffffffffff168152602001908152602001600020600b018190551415905092915050565b600080600460008473ffffffffffffffffffffffffffffffffffffffff1673ffffffffffffffffffffffffffffffffffffffff168152602001908152602001600020600a015414158015610fb357506000600460008473ffffffffffffffffffffffffffffffffffffffff1673ffffffffffffffffffffffffffffffffffffffff168152602001908152602001600020600b015414155b80156110045750600554600460008473ffffffffffffffffffffffffffffffffffffffff1673ffffffffffffffffffffffffffffffffffffffff168152602001908152602001600020600b01544303115b9050919050565b6000600260009054906101000a900473ffffffffffffffffffffffffffffffffffffffff1673ffffffffffffffffffffffffffffffffffffffff163373ffffffffffffffffffffffffffffffffffffffff1614806110b557506000809054906101000a900473ffffffffffffffffffffffffffffffffffffffff1673ffffffffffffffffffffffffffffffffffffffff163373ffffffffffffffffffffffffffffffffffffffff16145b15156110c057600080fd5b81600460008573ffffffffffffffffffffffffffffffffffffffff1673ffffffffffffffffffffffffffffffffffffffff16815260200190815260200160002060070181905550600043600460008673ffffffffffffffffffffffffffffffffffffffff1673ffffffffffffffffffffffffffffffffffffffff168152602001908152602001600020600d018190551415905092915050565b600160149054906101000a900460ff1681565b6000809054906101000a900473ffffffffffffffffffffffffffffffffffffffff1673ffffffffffffffffffffffffffffffffffffffff163373ffffffffffffffffffffffffffffffffffffffff161415156111c757600080fd5b806000806101000a81548173ffffffffffffffffffffffffffffffffffffffff021916908373ffffffffffffffffffffffffffffffffffffffff16021790555050565b6000600460008373ffffffffffffffffffffffffffffffffffffffff1673ffffffffffffffffffffffffffffffffffffffff16815260200190815260200160002060090160009054906101000a900473ffffffffffffffffffffffffffffffffffffffff169050919050565b6000600460008373ffffffffffffffffffffffffffffffffffffffff1673ffffffffffffffffffffffffffffffffffffffff168152602001908152602001600020600001549050919050565b60008060009054906101000a900473ffffffffffffffffffffffffffffffffffffffff1673ffffffffffffffffffffffffffffffffffffffff163373ffffffffffffffffffffffffffffffffffffffff1614151561131f57600080fd5b6000600160166101000a81548160ff02191690831515021790555090565b6000600260009054906101000a900473ffffffffffffffffffffffffffffffffffffffff1673ffffffffffffffffffffffffffffffffffffffff163373ffffffffffffffffffffffffffffffffffffffff1614806113e757506000809054906101000a900473ffffffffffffffffffffffffffffffffffffffff1673ffffffffffffffffffffffffffffffffffffffff163373ffffffffffffffffffffffffffffffffffffffff16145b15156113f257600080fd5b81600460008573ffffffffffffffffffffffffffffffffffffffff1673ffffffffffffffffffffffffffffffffffffffff16815260200190815260200160002060060181905550600460008473ffffffffffffffffffffffffffffffffffffffff1673ffffffffffffffffffffffffffffffffffffffff16815260200190815260200160002060060154905092915050565b6000600260009054906101000a900473ffffffffffffffffffffffffffffffffffffffff1673ffffffffffffffffffffffffffffffffffffffff163373ffffffffffffffffffffffffffffffffffffffff16148061152e57506000809054906101000a900473ffffffffffffffffffffffffffffffffffffffff1673ffffffffffffffffffffffffffffffffffffffff163373ffffffffffffffffffffffffffffffffffffffff16145b151561153957600080fd5b6000600460008473ffffffffffffffffffffffffffffffffffffffff1673ffffffffffffffffffffffffffffffffffffffff16815260200190815260200160002060090160006101000a81548173ffffffffffffffffffffffffffffffffffffffff021916908373ffffffffffffffffffffffffffffffffffffffff1602179055506000600460008473ffffffffffffffffffffffffffffffffffffffff1673ffffffffffffffffffffffffffffffffffffffff168152602001908152602001600020600b01819055506000600460008473ffffffffffffffffffffffffffffffffffffffff1673ffffffffffffffffffffffffffffffffffffffff168152602001908152602001600020600c01819055506000600460008473ffffffffffffffffffffffffffffffffffffffff1673ffffffffffffffffffffffffffffffffffffffff168152602001908152602001600020600d01819055506000600460008473ffffffffffffffffffffffffffffffffffffffff1673ffffffffffffffffffffffffffffffffffffffff168152602001908152602001600020600f01819055506020604051908101604052806000815250600460008473ffffffffffffffffffffffffffffffffffffffff1673ffffffffffffffffffffffffffffffffffffffff1681526020019081526020016000206010019080519060200190611741929190612cfd565b506000600460008473ffffffffffffffffffffffffffffffffffffffff1673ffffffffffffffffffffffffffffffffffffffff1681526020019081526020016000206007018190555060019050919050565b600080600080600080600460008873ffffffffffffffffffffffffffffffffffffffff1673ffffffffffffffffffffffffffffffffffffffff168152602001908152602001600020600a0154600460008973ffffffffffffffffffffffffffffffffffffffff1673ffffffffffffffffffffffffffffffffffffffff168152602001908152602001600020600b0154600460008a73ffffffffffffffffffffffffffffffffffffffff1673ffffffffffffffffffffffffffffffffffffffff168152602001908152602001600020600c0154600460008b73ffffffffffffffffffffffffffffffffffffffff1673ffffffffffffffffffffffffffffffffffffffff168152602001908152602001600020600d0154600460008c73ffffffffffffffffffffffffffffffffffffffff1673ffffffffffffffffffffffffffffffffffffffff168152602001908152602001600020600e0154600460008d73ffffffffffffffffffffffffffffffffffffffff1673ffffffffffffffffffffffffffffffffffffffff168152602001908152602001600020600f015495509550955095509550955091939550919395565b6000600260009054906101000a900473ffffffffffffffffffffffffffffffffffffffff1673ffffffffffffffffffffffffffffffffffffffff163373ffffffffffffffffffffffffffffffffffffffff1614806119ed57506000809054906101000a900473ffffffffffffffffffffffffffffffffffffffff1673ffffffffffffffffffffffffffffffffffffffff163373ffffffffffffffffffffffffffffffffffffffff16145b15156119f857600080fd5b81600460008573ffffffffffffffffffffffffffffffffffffffff1673ffffffffffffffffffffffffffffffffffffffff16815260200190815260200160002060070181905550600460008473ffffffffffffffffffffffffffffffffffffffff1673ffffffffffffffffffffffffffffffffffffffff16815260200190815260200160002060070154905092915050565b6000600160009054906101000a900473ffffffffffffffffffffffffffffffffffffffff1673ffffffffffffffffffffffffffffffffffffffff163373ffffffffffffffffffffffffffffffffffffffff161480611b3457506000809054906101000a900473ffffffffffffffffffffffffffffffffffffffff1673ffffffffffffffffffffffffffffffffffffffff163373ffffffffffffffffffffffffffffffffffffffff16145b1515611b3f57600080fd5b600073ffffffffffffffffffffffffffffffffffffffff168273ffffffffffffffffffffffffffffffffffffffff1614151515611b7b57600080fd5b81600260006101000a81548173ffffffffffffffffffffffffffffffffffffffff021916908373ffffffffffffffffffffffffffffffffffffffff16021790555060018060156101000a81548160ff02191690831515021790555060019050919050565b600160159054906101000a900460ff1681565b6000611bfc612d7d565b611c04612d7d565b611c0c612d7d565b611c14612d7d565b611c1c612d7d565b600460008873ffffffffffffffffffffffffffffffffffffffff1673ffffffffffffffffffffffffffffffffffffffff16815260200190815260200160002060000154600460008973ffffffffffffffffffffffffffffffffffffffff1673ffffffffffffffffffffffffffffffffffffffff168152602001908152602001600020600101600460008a73ffffffffffffffffffffffffffffffffffffffff1673ffffffffffffffffffffffffffffffffffffffff168152602001908152602001600020600201600460008b73ffffffffffffffffffffffffffffffffffffffff1673ffffffffffffffffffffffffffffffffffffffff168152602001908152602001600020600301600460008c73ffffffffffffffffffffffffffffffffffffffff1673ffffffffffffffffffffffffffffffffffffffff168152602001908152602001600020600401600460008d73ffffffffffffffffffffffffffffffffffffffff1673ffffffffffffffffffffffffffffffffffffffff168152602001908152602001600020600501848054600181600116156101000203166002900480601f016020809104026020016040519081016040528092919081815260200182805460018160011615610100020316600290048015611e3e5780601f10611e1357610100808354040283529160200191611e3e565b820191906000526020600020905b815481529060010190602001808311611e2157829003601f168201915b50505050509450838054600181600116156101000203166002900480601f016020809104026020016040519081016040528092919081815260200182805460018160011615610100020316600290048015611eda5780601f10611eaf57610100808354040283529160200191611eda565b820191906000526020600020905b815481529060010190602001808311611ebd57829003601f168201915b50505050509350828054600181600116156101000203166002900480601f016020809104026020016040519081016040528092919081815260200182805460018160011615610100020316600290048015611f765780601f10611f4b57610100808354040283529160200191611f76565b820191906000526020600020905b815481529060010190602001808311611f5957829003601f168201915b50505050509250818054600181600116156101000203166002900480601f0160208091040260200160405190810160405280929190818152602001828054600181600116156101000203166002900480156120125780601f10611fe757610100808354040283529160200191612012565b820191906000526020600020905b815481529060010190602001808311611ff557829003601f168201915b50505050509150808054600181600116156101000203166002900480601f0160208091040260200160405190810160405280929190818152602001828054600181600116156101000203166002900480156120ae5780601f10612083576101008083540402835291602001916120ae565b820191906000526020600020905b81548152906001019060200180831161209157829003601f168201915b5050505050905095509550955095509550955091939550919395565b6000600260009054906101000a900473ffffffffffffffffffffffffffffffffffffffff1673ffffffffffffffffffffffffffffffffffffffff163373ffffffffffffffffffffffffffffffffffffffff16148061217457506000809054906101000a900473ffffffffffffffffffffffffffffffffffffffff1673ffffffffffffffffffffffffffffffffffffffff163373ffffffffffffffffffffffffffffffffffffffff16145b151561217f57600080fd5b600043600460008573ffffffffffffffffffffffffffffffffffffffff1673ffffffffffffffffffffffffffffffffffffffff168152602001908152602001600020600c0181905514159050919050565b600080600460008473ffffffffffffffffffffffffffffffffffffffff1673ffffffffffffffffffffffffffffffffffffffff16815260200190815260200160002060060154600460008573ffffffffffffffffffffffffffffffffffffffff1673ffffffffffffffffffffffffffffffffffffffff1681526020019081526020016000206007015491509150915091565b6000600460008373ffffffffffffffffffffffffffffffffffffffff1673ffffffffffffffffffffffffffffffffffffffff16815260200190815260200160002060080160009054906101000a900473ffffffffffffffffffffffffffffffffffffffff169050919050565b6000600260009054906101000a900473ffffffffffffffffffffffffffffffffffffffff1673ffffffffffffffffffffffffffffffffffffffff163373ffffffffffffffffffffffffffffffffffffffff16148061237857506000809054906101000a900473ffffffffffffffffffffffffffffffffffffffff1673ffffffffffffffffffffffffffffffffffffffff163373ffffffffffffffffffffffffffffffffffffffff16145b151561238357600080fd5b61238b612c72565b90508d600460008373ffffffffffffffffffffffffffffffffffffffff1673ffffffffffffffffffffffffffffffffffffffff168152602001908152602001600020600001819055508c8c600460008473ffffffffffffffffffffffffffffffffffffffff1673ffffffffffffffffffffffffffffffffffffffff1681526020019081526020016000206001019190612425929190612d91565b508a8a600460008473ffffffffffffffffffffffffffffffffffffffff1673ffffffffffffffffffffffffffffffffffffffff1681526020019081526020016000206002019190612477929190612d91565b508888600460008473ffffffffffffffffffffffffffffffffffffffff1673ffffffffffffffffffffffffffffffffffffffff16815260200190815260200160002060030191906124c9929190612d91565b508686600460008473ffffffffffffffffffffffffffffffffffffffff1673ffffffffffffffffffffffffffffffffffffffff168152602001908152602001600020600401919061251b929190612d91565b508484600460008473ffffffffffffffffffffffffffffffffffffffff1673ffffffffffffffffffffffffffffffffffffffff168152602001908152602001600020600501919061256d929190612d91565b5082600460008373ffffffffffffffffffffffffffffffffffffffff1673ffffffffffffffffffffffffffffffffffffffff1681526020019081526020016000206006018190555081600460008373ffffffffffffffffffffffffffffffffffffffff1673ffffffffffffffffffffffffffffffffffffffff16815260200190815260200160002060080160006101000a81548173ffffffffffffffffffffffffffffffffffffffff021916908373ffffffffffffffffffffffffffffffffffffffff16021790555043600460008373ffffffffffffffffffffffffffffffffffffffff1673ffffffffffffffffffffffffffffffffffffffff168152602001908152602001600020600a01819055509d9c50505050505050505050505050565b6000809054906101000a900473ffffffffffffffffffffffffffffffffffffffff1681565b60008060009054906101000a900473ffffffffffffffffffffffffffffffffffffffff1673ffffffffffffffffffffffffffffffffffffffff163373ffffffffffffffffffffffffffffffffffffffff1614151561271057600080fd5b3073ffffffffffffffffffffffffffffffffffffffff1631905090565b612735612d7d565b600460008373ffffffffffffffffffffffffffffffffffffffff1673ffffffffffffffffffffffffffffffffffffffff1681526020019081526020016000206010018054600181600116156101000203166002900480601f01602080910402602001604051908101604052809291908181526020018280546001816001161561010002031660029004801561280b5780601f106127e05761010080835404028352916020019161280b565b820191906000526020600020905b8154815290600101906020018083116127ee57829003601f168201915b50505050509050919050565b600260009054906101000a900473ffffffffffffffffffffffffffffffffffffffff1681565b60008060009054906101000a900473ffffffffffffffffffffffffffffffffffffffff1673ffffffffffffffffffffffffffffffffffffffff163373ffffffffffffffffffffffffffffffffffffffff1614151561289a57600080fd5b600160169054906101000a900460ff161515156128b657600080fd5b6000809054906101000a900473ffffffffffffffffffffffffffffffffffffffff1673ffffffffffffffffffffffffffffffffffffffff166108fc839081150290604051600060405180830381858888f19350505050151561291757600080fd5b919050565b600160169054906101000a900460ff1681565b60008060009054906101000a900473ffffffffffffffffffffffffffffffffffffffff1673ffffffffffffffffffffffffffffffffffffffff163373ffffffffffffffffffffffffffffffffffffffff1614151561298c57600080fd5b81600160006101000a81548173ffffffffffffffffffffffffffffffffffffffff021916908373ffffffffffffffffffffffffffffffffffffffff16021790555060018060146101000a81548160ff021916908315150217905550919050565b6000600260009054906101000a900473ffffffffffffffffffffffffffffffffffffffff1673ffffffffffffffffffffffffffffffffffffffff163373ffffffffffffffffffffffffffffffffffffffff161480612a9657506000809054906101000a900473ffffffffffffffffffffffffffffffffffffffff1673ffffffffffffffffffffffffffffffffffffffff163373ffffffffffffffffffffffffffffffffffffffff16145b1515612aa157600080fd5b8282600460008773ffffffffffffffffffffffffffffffffffffffff1673ffffffffffffffffffffffffffffffffffffffff1681526020019081526020016000206010019190612af2929190612d91565b50600043600460008773ffffffffffffffffffffffffffffffffffffffff1673ffffffffffffffffffffffffffffffffffffffff168152602001908152602001600020600f01819055141590509392505050565b600160009054906101000a900473ffffffffffffffffffffffffffffffffffffffff1681565b6000600260009054906101000a900473ffffffffffffffffffffffffffffffffffffffff1673ffffffffffffffffffffffffffffffffffffffff163373ffffffffffffffffffffffffffffffffffffffff161480612c1657506000809054906101000a900473ffffffffffffffffffffffffffffffffffffffff1673ffffffffffffffffffffffffffffffffffffffff163373ffffffffffffffffffffffffffffffffffffffff16145b1515612c2157600080fd5b600043600460008573ffffffffffffffffffffffffffffffffffffffff1673ffffffffffffffffffffffffffffffffffffffff168152602001908152602001600020600e0181905514159050919050565b60006003600081819054906101000a900473ffffffffffffffffffffffffffffffffffffffff1660010191906101000a81548173ffffffffffffffffffffffffffffffffffffffff021916908373ffffffffffffffffffffffffffffffffffffffff16021790556c01000000000000000000000000026c010000000000000000000000009004905090565b828054600181600116156101000203166002900490600052602060002090601f016020900481019282601f10612d3e57805160ff1916838001178555612d6c565b82800160010185558215612d6c579182015b82811115612d6b578251825591602001919060010190612d50565b5b509050612d799190612e11565b5090565b602060405190810160405280600081525090565b828054600181600116156101000203166002900490600052602060002090601f016020900481019282601f10612dd257803560ff1916838001178555612e00565b82800160010185558215612e00579182015b82811115612dff578235825591602001919060010190612de4565b5b509050612e0d9190612e11565b5090565b612e3391905b80821115612e2f576000816000905550600101612e17565b5090565b905600a165627a7a723058204417682bb42a6b949f4e44b9c6d8a0d601fc549dd7b57a9b2b82df4e730f640b0029",
  "source": "pragma solidity ^0.4.18;\r\n\r\nimport \"../../ownership/Distributable.sol\";\r\nimport \"../../interface/model/TaskPool_Interface.sol\";\r\n\r\ncontract TaskPool is Distributable, TaskPoolInterface {\r\n\r\n    struct Task {\r\n        uint256 app_id;\r\n        string task_name;\r\n        string data_address;\r\n        string script_address;\r\n        string output_address;\r\n        string parameters;\r\n        uint256 fee;\r\n        uint256 completion_fee;\r\n        address owner;\r\n        address worker;\r\n        uint create_time;\r\n        uint dispatch_time;\r\n        uint start_time;\r\n        uint complete_time;\r\n        uint cancel_time;\r\n        uint error_time;\r\n        string error_message;\r\n    }\r\n\r\n    uint160 nonce;\r\n    mapping(address => Task) pool;\r\n\r\n    uint256 MAX_WAITING_BLOCK_COUNT = 25;\r\n\r\n    function TaskPool(address _admin, uint160 _nonce) public Distributable(msg.sender, _admin) {nonce = _nonce;}\r\n\r\n    //------------------------------------------------------------------------------------------------------------------\r\n    //Getters\r\n    function get_app_id(address _task) view external returns (uint256){\r\n        return pool[_task].app_id;\r\n    }\r\n    function get_task(address _task)\r\n    view external returns (uint256 _app_id, string _name, string _data, string _script, string _output, string _params)\r\n    {\r\n        return (\r\n        pool[_task].app_id,\r\n        pool[_task].task_name,\r\n        pool[_task].data_address,\r\n        pool[_task].script_address,\r\n        pool[_task].output_address,\r\n        pool[_task].parameters\r\n        );\r\n    }\r\n\r\n    event TaskCreated(address _client, address _task);\r\n\r\n    function get_status(address _task)\r\n    view external returns (uint _create_time, uint _dispatch_time, uint _start_time, uint _complete_time, uint _cancel_time, uint _error_time)\r\n    {\r\n        return (\r\n        pool[_task].create_time,\r\n        pool[_task].dispatch_time,\r\n        pool[_task].start_time,\r\n        pool[_task].complete_time,\r\n        pool[_task].cancel_time,\r\n        pool[_task].error_time\r\n        );\r\n    }\r\n\r\n    function get_worker(address _task) view external returns (address){\r\n        return pool[_task].worker;\r\n    }\r\n\r\n    function get_owner(address _task) view external returns (address){\r\n        return pool[_task].owner;\r\n    }\r\n\r\n    function get_error_msg(address _task) view external returns (string){\r\n        return pool[_task].error_message;\r\n    }\r\n\r\n    function get_fees(address _task) view external returns (uint256 _fee, uint256 _completion_fee){\r\n        return (pool[_task].fee, pool[_task].completion_fee);\r\n    }\r\n\r\n\r\n    //------------------------------------------------------------------------------------------------------------------\r\n    //Setters\r\n    function create(uint256 _app_id, string _name, string _data, string _script, string _output, string _params, uint256 _fee, address _owner)\r\n    distributor_only external returns (address _task_address)\r\n    {\r\n        _task_address = generate_address();\r\n        //returned value\r\n        pool[_task_address].app_id = _app_id;\r\n        pool[_task_address].task_name = _name;\r\n        pool[_task_address].data_address = _data;\r\n        pool[_task_address].script_address = _script;\r\n        pool[_task_address].output_address = _output;\r\n        pool[_task_address].parameters = _params;\r\n        pool[_task_address].fee = _fee;\r\n        pool[_task_address].owner = _owner;\r\n        pool[_task_address].create_time = block.number;\r\n    }\r\n\r\n    function set_dispatched(address _task, address _worker) distributor_only external returns (bool){\r\n        pool[_task].worker = _worker;\r\n        return (pool[_task].dispatch_time = block.number) != 0;\r\n    }\r\n\r\n    function set_start(address _task) distributor_only external returns (bool){\r\n        return (pool[_task].start_time = block.number) != 0;\r\n    }\r\n\r\n    function set_fee(address _task, uint256 _fee) distributor_only external returns (uint256){\r\n        pool[_task].fee = _fee;\r\n        return pool[_task].fee;\r\n    }\r\n\r\n    function set_completion_fee(address _task, uint256 _fee) distributor_only external returns (uint256){\r\n        pool[_task].completion_fee = _fee;\r\n        return pool[_task].completion_fee;\r\n    }\r\n\r\n    function set_complete(address _task, uint256 _complete_fee) distributor_only external returns (bool){\r\n        pool[_task].completion_fee = _complete_fee;\r\n        return (pool[_task].complete_time = block.number) != 0;\r\n    }\r\n\r\n    function set_error(address _task, string _error_msg) distributor_only external returns (bool){\r\n        pool[_task].error_message = _error_msg;\r\n        return (pool[_task].error_time = block.number) != 0;\r\n    }\r\n\r\n    function set_cancel(address _task) distributor_only external returns (bool){\r\n        return (pool[_task].cancel_time = block.number) != 0;\r\n    }\r\n\r\n    function set_forfeit(address _task) distributor_only external returns (bool){\r\n        pool[_task].worker = 0;\r\n        pool[_task].dispatch_time = 0;\r\n        pool[_task].start_time = 0;\r\n        pool[_task].complete_time = 0;\r\n        pool[_task].error_time = 0;\r\n        pool[_task].error_message = \"\";\r\n        pool[_task].completion_fee = 0;\r\n        return true;\r\n    }\r\n\r\n    function generate_address() internal returns (address){\r\n        return address(bytes20(++nonce));\r\n    }\r\n\r\n    function reassignable(address _task) view external returns (bool){\r\n        return pool[_task].create_time != 0 && pool[_task].dispatch_time != 0\r\n        && block.number - pool[_task].dispatch_time > MAX_WAITING_BLOCK_COUNT;\r\n    }\r\n}",
  "sourcePath": "C:\\Users\\tony\\WebstormProjects\\nebula-helix\\contract\\contracts\\helix1.1\\model\\taskpool\\TaskPool.sol",
  "compiler": {
    "name": "solc",
    "version": "0.4.18+commit.9cf6e910.Emscripten.clang"
  },
  "schemaVersion": "1.0.1",
  "updatedAt": "2018-02-21T17:07:32.983Z"
}