{
  "contractName": "UUIDProvider",
  "abi": [
    {
      "constant": true,
      "inputs": [],
      "name": "min_entropy",
      "outputs": [
        {
          "name": "",
          "type": "uint256"
        }
      ],
      "payable": false,
      "stateMutability": "view",
      "type": "function"
    },
    {
      "constant": true,
      "inputs": [],
      "name": "collisionCount",
      "outputs": [
        {
          "name": "",
          "type": "uint256"
        }
      ],
      "payable": false,
      "stateMutability": "view",
      "type": "function"
    },
    {
      "constant": false,
      "inputs": [],
      "name": "UUID4",
      "outputs": [
        {
          "name": "uuid",
          "type": "bytes16"
        }
      ],
      "payable": false,
      "stateMutability": "nonpayable",
      "type": "function"
    },
    {
      "constant": true,
      "inputs": [],
      "name": "prev",
      "outputs": [
        {
          "name": "",
          "type": "bytes16"
        }
      ],
      "payable": false,
      "stateMutability": "view",
      "type": "function"
    },
    {
      "constant": true,
      "inputs": [],
      "name": "entropy",
      "outputs": [
        {
          "name": "",
          "type": "bytes"
        }
      ],
      "payable": false,
      "stateMutability": "view",
      "type": "function"
    },
    {
      "constant": false,
      "inputs": [],
      "name": "addEntropy",
      "outputs": [
        {
          "name": "",
          "type": "bool"
        }
      ],
      "payable": false,
      "stateMutability": "nonpayable",
      "type": "function"
    },
    {
      "constant": true,
      "inputs": [],
      "name": "next",
      "outputs": [
        {
          "name": "",
          "type": "bytes16"
        }
      ],
      "payable": false,
      "stateMutability": "view",
      "type": "function"
    },
    {
      "constant": true,
      "inputs": [],
      "name": "getEntropy",
      "outputs": [
        {
          "name": "key",
          "type": "bytes32"
        }
      ],
      "payable": false,
      "stateMutability": "view",
      "type": "function"
    },
    {
      "constant": false,
      "inputs": [],
      "name": "getByte",
      "outputs": [
        {
          "name": "b",
          "type": "bytes1"
        }
      ],
      "payable": false,
      "stateMutability": "nonpayable",
      "type": "function"
    },
    {
      "constant": true,
      "inputs": [
        {
          "name": "v",
          "type": "bytes16"
        }
      ],
      "name": "setUUID4Bytes",
      "outputs": [
        {
          "name": "",
          "type": "bytes16"
        }
      ],
      "payable": false,
      "stateMutability": "view",
      "type": "function"
    },
    {
      "constant": true,
      "inputs": [
        {
          "name": "",
          "type": "uint256"
        }
      ],
      "name": "collisions",
      "outputs": [
        {
          "name": "",
          "type": "bytes16"
        }
      ],
      "payable": false,
      "stateMutability": "view",
      "type": "function"
    },
    {
      "inputs": [],
      "payable": false,
      "stateMutability": "nonpayable",
      "type": "constructor"
    },
    {
      "anonymous": false,
      "inputs": [
        {
          "indexed": false,
          "name": "uuid",
          "type": "bytes16"
        }
      ],
      "name": "UUID",
      "type": "event"
    }
  ],
  "bytecode": "0x606060405234156200001057600080fd5b60016003600080700100000000000000000000000000000000026fffffffffffffffffffffffffffffffff1916815260200190815260200160002060006101000a81548160ff0219169083151502179055506020600181905550620000886200008f64010000000002620008c7176401000000009004565b50620006c2565b6000806000620000b26200019564010000000002620009d2176401000000009004565b9150600060010282600019161415620000cf576000925062000190565b600090505b60208110156200018b57600080546001816001161561010002031660029004806001018281620001059190620005c6565b9190815460011615620001275790600052602060002090602091828204019190065b8490919091601f036101000a81548160ff021916907f0100000000000000000000000000000000000000000000000000000000000000840402179055505061010082600190048115156200017757fe5b0460010291508080600101915050620000d4565b600192505b505090565b600080600090505b610100811015620001f55780430340915060026000836000191660001916815260200190815260200160002060009054906101000a900460ff161515620001e757819150620005c2565b80806001019150506200019d565b42604051808281526020019150506040518091039020915060026000836000191660001916815260200190815260200160002060009054906101000a900460ff1615156200024657819150620005c2565b5a604051808281526020019150506040518091039020915060026000836000191660001916815260200190815260200160002060009054906101000a900460ff1615156200029757819150620005c2565b44604051808281526020019150506040518091039020915060026000836000191660001916815260200190815260200160002060009054906101000a900460ff161515620002e857819150620005c2565b32604051808273ffffffffffffffffffffffffffffffffffffffff1673ffffffffffffffffffffffffffffffffffffffff166c010000000000000000000000000281526014019150506040518091039020915060026000836000191660001916815260200190815260200160002060009054906101000a900460ff1615156200037457819150620005c2565b33604051808273ffffffffffffffffffffffffffffffffffffffff1673ffffffffffffffffffffffffffffffffffffffff166c010000000000000000000000000281526014019150506040518091039020915060026000836000191660001916815260200190815260200160002060009054906101000a900460ff1615156200040057819150620005c2565b41604051808273ffffffffffffffffffffffffffffffffffffffff1673ffffffffffffffffffffffffffffffffffffffff166c010000000000000000000000000281526014019150506040518091039020915060026000836000191660001916815260200190815260200160002060009054906101000a900460ff1615156200048c57819150620005c2565b45604051808281526020019150506040518091039020915060026000836000191660001916815260200190815260200160002060009054906101000a900460ff161515620004dd57819150620005c2565b3a604051808281526020019150506040518091039020915060026000836000191660001916815260200190815260200160002060009054906101000a900460ff1615156200052e57819150620005c2565b30604051808273ffffffffffffffffffffffffffffffffffffffff1673ffffffffffffffffffffffffffffffffffffffff166c010000000000000000000000000281526014019150506040518091039020915060026000836000191660001916815260200190815260200160002060009054906101000a900460ff161515620005ba57819150620005c2565b600060010291505b5090565b81546001816001161561010002031660029004825481601f10620006255782601f1062000609575b826008026101000360020a8091040282800117835562000695565b60ff191683600052602060002055818001600101835562000695565b82601f1062000659575082600052602060002080549082601f01602090048101906200065291906200069a565b50620005ee565b508180016001018355818115116200069557601f016020900481601f016020900483600052602060002091820191016200069491906200069a565b5b505050565b620006bf91905b80821115620006bb576000816000905550600101620006a1565b5090565b90565b6114ed80620006d26000396000f3006060604052600436106100ae576000357c0100000000000000000000000000000000000000000000000000000000900463ffffffff16806237aa3f146100b357806331757f2e146100dc578063352d279014610105578063479c92541461015457806347ce07cc146101a35780634b0bbf84146102315780634c8fe5261461025e5780635404bbf7146102ad57806360585358146102de57806361adeef41461034b578063fd30b1fb146103bb575b600080fd5b34156100be57600080fd5b6100c6610418565b6040518082815260200191505060405180910390f35b34156100e757600080fd5b6100ef61041e565b6040518082815260200191505060405180910390f35b341561011057600080fd5b61011861042b565b60405180826fffffffffffffffffffffffffffffffff19166fffffffffffffffffffffffffffffffff1916815260200191505060405180910390f35b341561015f57600080fd5b610167610806565b60405180826fffffffffffffffffffffffffffffffff19166fffffffffffffffffffffffffffffffff1916815260200191505060405180910390f35b34156101ae57600080fd5b6101b6610829565b6040518080602001828103825283818151815260200191508051906020019080838360005b838110156101f65780820151818401526020810190506101db565b50505050905090810190601f1680156102235780820380516001836020036101000a031916815260200191505b509250505060405180910390f35b341561023c57600080fd5b6102446108c7565b604051808215151515815260200191505060405180910390f35b341561026957600080fd5b6102716109af565b60405180826fffffffffffffffffffffffffffffffff19166fffffffffffffffffffffffffffffffff1916815260200191505060405180910390f35b34156102b857600080fd5b6102c06109d2565b60405180826000191660001916815260200191505060405180910390f35b34156102e957600080fd5b6102f1610ded565b60405180827effffffffffffffffffffffffffffffffffffffffffffffffffffffffffffff19167effffffffffffffffffffffffffffffffffffffffffffffffffffffffffffff1916815260200191505060405180910390f35b341561035657600080fd5b61037f60048080356fffffffffffffffffffffffffffffffff1916906020019091905050610f30565b60405180826fffffffffffffffffffffffffffffffff19166fffffffffffffffffffffffffffffffff1916815260200191505060405180910390f35b34156103c657600080fd5b6103dc600480803590602001909190505061128a565b60405180826fffffffffffffffffffffffffffffffff19166fffffffffffffffffffffffffffffffff1916815260200191505060405180910390f35b60015481565b6000600580549050905090565b60008060005b60036000846fffffffffffffffffffffffffffffffff19166fffffffffffffffffffffffffffffffff1916815260200190815260200160002060009054906101000a900460ff161561071457600070010000000000000000000000000000000002836fffffffffffffffffffffffffffffffff191614151561051557600580548060010182816104c191906112d0565b916000526020600020906002918282040191900660100285909190916101000a8154816fffffffffffffffffffffffffffffffff021916908370010000000000000000000000000000000090040217905550505b600070010000000000000000000000000000000002600460109054906101000a9004700100000000000000000000000000000000026fffffffffffffffffffffffffffffffff19161415156105da57600460109054906101000a9004700100000000000000000000000000000000029250600070010000000000000000000000000000000002600460106101000a8154816fffffffffffffffffffffffffffffffff02191690837001000000000000000000000000000000009004021790555061070f565b6105e2610ded565b9150600460009054906101000a9004700100000000000000000000000000000000028260405180836fffffffffffffffffffffffffffffffff19166fffffffffffffffffffffffffffffffff19168152601001827effffffffffffffffffffffffffffffffffffffffffffffffffffffffffffff19167effffffffffffffffffffffffffffffffffffffffffffffffffffffffffffff19168152600101925050506040518091039020905061069681610f30565b92506106d470010000000000000000000000000000000082600190048115156106bb57fe5b0470010000000000000000000000000000000002610f30565b600460106101000a8154816fffffffffffffffffffffffffffffffff0219169083700100000000000000000000000000000000900402179055505b610431565b600160036000856fffffffffffffffffffffffffffffffff19166fffffffffffffffffffffffffffffffff1916815260200190815260200160002060006101000a81548160ff0219169083151502179055507f9a76d01bc8e3b132d1b4b46fcd6fe15c8ba021e1cfcb92eb96b5abd05ffc03808360405180826fffffffffffffffffffffffffffffffff19166fffffffffffffffffffffffffffffffff1916815260200191505060405180910390a182600460006101000a8154816fffffffffffffffffffffffffffffffff021916908370010000000000000000000000000000000090040217905550829250505090565b600460009054906101000a90047001000000000000000000000000000000000281565b60008054600181600116156101000203166002900480601f0160208091040260200160405190810160405280929190818152602001828054600181600116156101000203166002900480156108bf5780601f10610894576101008083540402835291602001916108bf565b820191906000526020600020905b8154815290600101906020018083116108a257829003601f168201915b505050505081565b60008060006108d46109d2565b91506000600102826000191614156108ef57600092506109aa565b600090505b60208110156109a557600080546001816001161561010002031660029004806001018281610922919061130a565b91908154600116156109435790600052602060002090602091828204019190065b8490919091601f036101000a81548160ff021916907f01000000000000000000000000000000000000000000000000000000000000008404021790555050610100826001900481151561099257fe5b04600102915080806001019150506108f4565b600192505b505090565b600460109054906101000a90047001000000000000000000000000000000000281565b600080600090505b610100811015610a2e5780430340915060026000836000191660001916815260200190815260200160002060009054906101000a900460ff161515610a2157819150610de9565b80806001019150506109da565b42604051808281526020019150506040518091039020915060026000836000191660001916815260200190815260200160002060009054906101000a900460ff161515610a7d57819150610de9565b5a604051808281526020019150506040518091039020915060026000836000191660001916815260200190815260200160002060009054906101000a900460ff161515610acc57819150610de9565b44604051808281526020019150506040518091039020915060026000836000191660001916815260200190815260200160002060009054906101000a900460ff161515610b1b57819150610de9565b32604051808273ffffffffffffffffffffffffffffffffffffffff1673ffffffffffffffffffffffffffffffffffffffff166c010000000000000000000000000281526014019150506040518091039020915060026000836000191660001916815260200190815260200160002060009054906101000a900460ff161515610ba557819150610de9565b33604051808273ffffffffffffffffffffffffffffffffffffffff1673ffffffffffffffffffffffffffffffffffffffff166c010000000000000000000000000281526014019150506040518091039020915060026000836000191660001916815260200190815260200160002060009054906101000a900460ff161515610c2f57819150610de9565b41604051808273ffffffffffffffffffffffffffffffffffffffff1673ffffffffffffffffffffffffffffffffffffffff166c010000000000000000000000000281526014019150506040518091039020915060026000836000191660001916815260200190815260200160002060009054906101000a900460ff161515610cb957819150610de9565b45604051808281526020019150506040518091039020915060026000836000191660001916815260200190815260200160002060009054906101000a900460ff161515610d0857819150610de9565b3a604051808281526020019150506040518091039020915060026000836000191660001916815260200190815260200160002060009054906101000a900460ff161515610d5757819150610de9565b30604051808273ffffffffffffffffffffffffffffffffffffffff1673ffffffffffffffffffffffffffffffffffffffff166c010000000000000000000000000281526014019150506040518091039020915060026000836000191660001916815260200190815260200160002060009054906101000a900460ff161515610de157819150610de9565b600060010291505b5090565b6000600260008054600181600116156101000203166002900490501080610e3957506001546000805460018160011615610100020316600290049050108015610e385750620b71b05a115b5b15610e5857610e466108c7565b50600180600082825401925050819055505b6000808054600181600116156101000203166002900490501115610f2857600060016000805460018160011615610100020316600290049050038154600181600116156101000203166002900481101515610eaf57fe5b815460011615610ece5790600052602060002090602091828204019190065b9054901a7f010000000000000000000000000000000000000000000000000000000000000002905060016000818180546001816001161561010002031660029004905003915081610f1f91906113d3565b50809050610f2d565b600080fd5b90565b600080600065010000000000847001000000000000000000000000000000009004027f0100000000000000000000000000000000000000000000000000000000000000029150670100000000000000847001000000000000000000000000000000009004027f010000000000000000000000000000000000000000000000000000000000000002905060407f010000000000000000000000000000000000000000000000000000000000000002817effffffffffffffffffffffffffffffffffffffffffffffffffffffffffffff19161080611051575060507f010000000000000000000000000000000000000000000000000000000000000002817effffffffffffffffffffffffffffffffffffffffffffffffffffffffffffff191610155b1561111e5760406010827f0100000000000000000000000000000000000000000000000000000000000000900460ff1681151561108a57fe5b06017f01000000000000000000000000000000000000000000000000000000000000000290506fffffffffffffffff00ffffffffffffff7001000000000000000000000000000000000284169350670100000000000000817f010000000000000000000000000000000000000000000000000000000000000090040270010000000000000000000000000000000002841793505b60807f010000000000000000000000000000000000000000000000000000000000000002827effffffffffffffffffffffffffffffffffffffffffffffffffffffffffffff191610806111b5575060b07f010000000000000000000000000000000000000000000000000000000000000002827effffffffffffffffffffffffffffffffffffffffffffffffffffffffffffff1916115b156112805760806040837f0100000000000000000000000000000000000000000000000000000000000000900460ff168115156111ee57fe5b06017f01000000000000000000000000000000000000000000000000000000000000000291506fffffffffffffffffffff00ffffffffff700100000000000000000000000000000000028416935065010000000000827f010000000000000000000000000000000000000000000000000000000000000090040270010000000000000000000000000000000002841793505b8392505050919050565b60058181548110151561129957fe5b9060005260206000209060029182820401919006601002915054906101000a90047001000000000000000000000000000000000281565b815481835581811511611305576001016002900481600101600290048360005260206000209182019101611304919061149c565b5b505050565b81546001816001161561010002031660029004825481601f106113655782601f1061134a575b826008026101000360020a809104028280011783556113ce565b60ff19168360005260206000205581800160010183556113ce565b82601f10611395575082600052602060002080549082601f016020900481019061138f919061149c565b50611330565b508180016001018355818115116113ce57601f016020900481601f016020900483600052602060002091820191016113cd919061149c565b5b505050565b81546001816001161561010002031660029004825481601f1061142e5782601f10611413575b826008026101000360020a80910402828001178355611497565b60ff1916836000526020600020558180016001018355611497565b82601f1061145e575082600052602060002080549082601f0160209004810190611458919061149c565b506113f9565b5081800160010183558181151161149757601f016020900481601f01602090048360005260206000209182019101611496919061149c565b5b505050565b6114be91905b808211156114ba5760008160009055506001016114a2565b5090565b905600a165627a7a72305820838a6a127ed03accbac7e3ab3a1178958f6134ec795661dc45d48b30412081b60029",
  "source": "pragma solidity ^0.4.18;\r\n//https://github.com/pipermerriam/ethereum-uuid\r\ncontract UUIDProvider {\r\n    function UUIDProvider() {\r\n        seen[0x0] = true;\r\n        min_entropy = 32;\r\n        addEntropy();\r\n    }\r\n\r\n    bytes public entropy;\r\n    uint public min_entropy;\r\n\r\n    mapping(bytes32 => bool) used;\r\n\r\n    // Actual cost is about 500,000 gas so we will only try to increase the\r\n    // entropy when we've been provided enough gas.\r\n    uint constant ADD_ENTROPY_GAS = 750000;\r\n\r\n    function getByte() returns (byte b) {\r\n        /*\r\n         *  Entropy sources\r\n         *  - now\r\n         *  - block.hash(..) * 256 (ish)\r\n         *  - tx.origin\r\n         *  - msg.sender\r\n         *  - block.gaslimit\r\n         *  - msg.gas\r\n         *  - tx.gasprice\r\n         *  - address(this)\r\n         */\r\n        // both return a single byte as well as refilling entropy as needed.\r\n        if (entropy.length < 2 || (entropy.length < min_entropy && msg.gas > ADD_ENTROPY_GAS)) {\r\n            addEntropy();\r\n            min_entropy += 1;\r\n        }\r\n\r\n        if (entropy.length > 0) {\r\n            b = entropy[entropy.length - 1];\r\n            entropy.length -= 1;\r\n            return b;\r\n        }\r\n        throw;\r\n    }\r\n\r\n    function addEntropy() public returns (bool) {\r\n        bytes32 key = getEntropy();\r\n        if (key == 0x0) return false;\r\n        for (uint i = 0; i < 32; i++) {\r\n            entropy.push(byte(key));\r\n            key = bytes32(uint(key) / 2 ** 8);\r\n        }\r\n        return true;\r\n    }\r\n\r\n    function getEntropy() constant returns (bytes32 key) {\r\n        for (uint i = 0; i < 256; i++) {\r\n            key = block.blockhash(block.number - i);\r\n            if (!used[key]) return key;\r\n        }\r\n        key = sha3(now);\r\n        if (!used[key]) return key;\r\n\r\n        key = sha3(msg.gas);\r\n        if (!used[key]) return key;\r\n\r\n        key = sha3(block.difficulty);\r\n        if (!used[key]) return key;\r\n\r\n        key = sha3(tx.origin);\r\n        if (!used[key]) return key;\r\n\r\n        key = sha3(msg.sender);\r\n        if (!used[key]) return key;\r\n\r\n        key = sha3(block.coinbase);\r\n        if (!used[key]) return key;\r\n\r\n        key = sha3(block.gaslimit);\r\n        if (!used[key]) return key;\r\n\r\n        key = sha3(tx.gasprice);\r\n        if (!used[key]) return key;\r\n\r\n        key = sha3(address(this));\r\n        if (!used[key]) return key;\r\n\r\n        return 0x0;\r\n    }\r\n\r\n    mapping(bytes16 => bool) seen;\r\n\r\n    event UUID(bytes16 uuid);\r\n\r\n    bytes16 public prev;\r\n    bytes16 public next;\r\n\r\n    bytes16[] public collisions;\r\n\r\n    function collisionCount() constant returns (uint) {\r\n        return collisions.length;\r\n    }\r\n\r\n    function UUID4() returns (bytes16 uuid) {\r\n        while (seen[uuid]) {\r\n            if (uuid != 0x0) {\r\n                collisions.push(uuid);\r\n            }\r\n\r\n            if (next != 0x0) {\r\n                uuid = next;\r\n                next = 0x0;\r\n            } else {\r\n                var b = getByte();\r\n                bytes32 buf = sha3(prev, b);\r\n                uuid = setUUID4Bytes(bytes16(buf));\r\n                next = setUUID4Bytes(bytes16(uint(buf) / 2 ** 128));\r\n            }\r\n        }\r\n        seen[uuid] = true;\r\n        UUID(uuid);\r\n        prev = uuid;\r\n        return uuid;\r\n    }\r\n\r\n    function setUUID4Bytes(bytes16 v) constant returns (bytes16) {\r\n        byte byte_5 = byte(uint(v) * 2 ** (8 * 5));\r\n        byte byte_7 = byte(uint(v) * 2 ** (8 * 7));\r\n\r\n        if (byte_7 < 0x40 || byte_7 >= 0x50) {\r\n            byte_7 = byte(uint8(byte_7) % 16 + 64);\r\n            v &= 0xffffffffffffffff00ffffffffffffff;\r\n            v |= bytes16(uint(byte_7) * 2 ** (8 * 7));\r\n        }\r\n\r\n        if (byte_5 < 0x80 || byte_5 > 0xb0) {\r\n            byte_5 = byte(uint8(byte_5) % 64 + 128);\r\n            v &= 0xffffffffffffffffffff00ffffffffff;\r\n            v |= bytes16(uint(byte_5) * 2 ** (8 * 5));\r\n        }\r\n\r\n        return v;\r\n    }\r\n}",
  "sourcePath": "C:\\Users\\tony\\WebstormProjects\\nebula-helix\\contract\\contracts\\helix1.1\\misc\\UuidProvider.sol",
  "compiler": {
    "name": "solc",
    "version": "0.4.18+commit.9cf6e910.Emscripten.clang"
  },
  "schemaVersion": "1.0.1",
  "updatedAt": "2018-02-14T16:19:37.891Z"
}